{
	"contracts/ClaimsManagement.sol": {
		"ClaimsManagement": {
			"abi": [
				{
					"inputs": [
						{
							"internalType": "address",
							"name": "_insurancePool",
							"type": "address"
						},
						{
							"internalType": "address",
							"name": "_initialOwner",
							"type": "address"
						}
					],
					"stateMutability": "nonpayable",
					"type": "constructor"
				},
				{
					"inputs": [
						{
							"internalType": "address",
							"name": "owner",
							"type": "address"
						}
					],
					"name": "OwnableInvalidOwner",
					"type": "error"
				},
				{
					"inputs": [
						{
							"internalType": "address",
							"name": "account",
							"type": "address"
						}
					],
					"name": "OwnableUnauthorizedAccount",
					"type": "error"
				},
				{
					"anonymous": false,
					"inputs": [
						{
							"indexed": true,
							"internalType": "uint256",
							"name": "claimId",
							"type": "uint256"
						},
						{
							"indexed": true,
							"internalType": "address",
							"name": "claimant",
							"type": "address"
						},
						{
							"indexed": false,
							"internalType": "uint256",
							"name": "amount",
							"type": "uint256"
						}
					],
					"name": "ClaimPaid",
					"type": "event"
				},
				{
					"anonymous": false,
					"inputs": [
						{
							"indexed": true,
							"internalType": "uint256",
							"name": "claimId",
							"type": "uint256"
						},
						{
							"indexed": false,
							"internalType": "enum ClaimsManagement.ClaimStatus",
							"name": "newStatus",
							"type": "uint8"
						}
					],
					"name": "ClaimStatusUpdated",
					"type": "event"
				},
				{
					"anonymous": false,
					"inputs": [
						{
							"indexed": true,
							"internalType": "uint256",
							"name": "claimId",
							"type": "uint256"
						},
						{
							"indexed": true,
							"internalType": "address",
							"name": "claimant",
							"type": "address"
						},
						{
							"indexed": false,
							"internalType": "uint256",
							"name": "amount",
							"type": "uint256"
						}
					],
					"name": "ClaimSubmitted",
					"type": "event"
				},
				{
					"anonymous": false,
					"inputs": [
						{
							"indexed": true,
							"internalType": "address",
							"name": "previousOwner",
							"type": "address"
						},
						{
							"indexed": true,
							"internalType": "address",
							"name": "newOwner",
							"type": "address"
						}
					],
					"name": "OwnershipTransferred",
					"type": "event"
				},
				{
					"inputs": [],
					"name": "claimCount",
					"outputs": [
						{
							"internalType": "uint256",
							"name": "",
							"type": "uint256"
						}
					],
					"stateMutability": "view",
					"type": "function"
				},
				{
					"inputs": [
						{
							"internalType": "uint256",
							"name": "",
							"type": "uint256"
						}
					],
					"name": "claims",
					"outputs": [
						{
							"internalType": "address",
							"name": "claimant",
							"type": "address"
						},
						{
							"internalType": "uint256",
							"name": "amount",
							"type": "uint256"
						},
						{
							"internalType": "string",
							"name": "description",
							"type": "string"
						},
						{
							"internalType": "uint256",
							"name": "submissionDate",
							"type": "uint256"
						},
						{
							"internalType": "enum ClaimsManagement.ClaimStatus",
							"name": "status",
							"type": "uint8"
						}
					],
					"stateMutability": "view",
					"type": "function"
				},
				{
					"inputs": [
						{
							"internalType": "uint256",
							"name": "_claimId",
							"type": "uint256"
						}
					],
					"name": "getClaimDetails",
					"outputs": [
						{
							"components": [
								{
									"internalType": "address",
									"name": "claimant",
									"type": "address"
								},
								{
									"internalType": "uint256",
									"name": "amount",
									"type": "uint256"
								},
								{
									"internalType": "string",
									"name": "description",
									"type": "string"
								},
								{
									"internalType": "uint256",
									"name": "submissionDate",
									"type": "uint256"
								},
								{
									"internalType": "enum ClaimsManagement.ClaimStatus",
									"name": "status",
									"type": "uint8"
								}
							],
							"internalType": "struct ClaimsManagement.Claim",
							"name": "",
							"type": "tuple"
						}
					],
					"stateMutability": "view",
					"type": "function"
				},
				{
					"inputs": [
						{
							"internalType": "enum ClaimsManagement.ClaimStatus",
							"name": "_status",
							"type": "uint8"
						}
					],
					"name": "getClaimsByStatus",
					"outputs": [
						{
							"internalType": "uint256[]",
							"name": "",
							"type": "uint256[]"
						}
					],
					"stateMutability": "view",
					"type": "function"
				},
				{
					"inputs": [],
					"name": "insurancePool",
					"outputs": [
						{
							"internalType": "contract InsurancePool",
							"name": "",
							"type": "address"
						}
					],
					"stateMutability": "view",
					"type": "function"
				},
				{
					"inputs": [],
					"name": "owner",
					"outputs": [
						{
							"internalType": "address",
							"name": "",
							"type": "address"
						}
					],
					"stateMutability": "view",
					"type": "function"
				},
				{
					"inputs": [
						{
							"internalType": "uint256",
							"name": "_claimId",
							"type": "uint256"
						}
					],
					"name": "processClaim",
					"outputs": [],
					"stateMutability": "nonpayable",
					"type": "function"
				},
				{
					"inputs": [],
					"name": "renounceOwnership",
					"outputs": [],
					"stateMutability": "nonpayable",
					"type": "function"
				},
				{
					"inputs": [
						{
							"internalType": "uint256",
							"name": "_amount",
							"type": "uint256"
						},
						{
							"internalType": "string",
							"name": "_description",
							"type": "string"
						}
					],
					"name": "submitClaim",
					"outputs": [],
					"stateMutability": "nonpayable",
					"type": "function"
				},
				{
					"inputs": [
						{
							"internalType": "address",
							"name": "newOwner",
							"type": "address"
						}
					],
					"name": "transferOwnership",
					"outputs": [],
					"stateMutability": "nonpayable",
					"type": "function"
				},
				{
					"inputs": [
						{
							"internalType": "uint256",
							"name": "_claimId",
							"type": "uint256"
						},
						{
							"internalType": "enum ClaimsManagement.ClaimStatus",
							"name": "_newStatus",
							"type": "uint8"
						}
					],
					"name": "updateClaimStatus",
					"outputs": [],
					"stateMutability": "nonpayable",
					"type": "function"
				}
			],
			"devdoc": {
				"errors": {
					"OwnableInvalidOwner(address)": [
						{
							"details": "The owner is not a valid owner account. (eg. `address(0)`)"
						}
					],
					"OwnableUnauthorizedAccount(address)": [
						{
							"details": "The caller account is not authorized to perform an operation."
						}
					]
				},
				"kind": "dev",
				"methods": {
					"owner()": {
						"details": "Returns the address of the current owner."
					},
					"renounceOwnership()": {
						"details": "Leaves the contract without owner. It will not be possible to call `onlyOwner` functions. Can only be called by the current owner. NOTE: Renouncing ownership will leave the contract without an owner, thereby disabling any functionality that is only available to the owner."
					},
					"transferOwnership(address)": {
						"details": "Transfers ownership of the contract to a new account (`newOwner`). Can only be called by the current owner."
					}
				},
				"version": 1
			},
			"evm": {
				"assembly": "    /* \"contracts/ClaimsManagement.sol\":141:3047  contract ClaimsManagement is Ownable {... */\n  mstore(0x40, 0x80)\n    /* \"contracts/ClaimsManagement.sol\":801:945  constructor(address _insurancePool, address _initialOwner) Ownable(_initialOwner) {... */\n  callvalue\n  dup1\n  iszero\n  tag_1\n  jumpi\n  0x00\n  dup1\n  revert\ntag_1:\n  pop\n  mload(0x40)\n  sub(codesize, bytecodeSize)\n  dup1\n  bytecodeSize\n  dup4\n  codecopy\n  dup2\n  dup2\n  add\n  0x40\n  mstore\n  dup2\n  add\n  swap1\n  tag_2\n  swap2\n  swap1\n  tag_3\n  jump\t// in\ntag_2:\n    /* \"contracts/ClaimsManagement.sol\":868:881  _initialOwner */\n  dup1\n    /* \"@openzeppelin/contracts/access/Ownable.sol\":1297:1298  0 */\n  0x00\n    /* \"@openzeppelin/contracts/access/Ownable.sol\":1273:1299  initialOwner == address(0) */\n  0xffffffffffffffffffffffffffffffffffffffff\n  and\n    /* \"@openzeppelin/contracts/access/Ownable.sol\":1273:1285  initialOwner */\n  dup2\n    /* \"@openzeppelin/contracts/access/Ownable.sol\":1273:1299  initialOwner == address(0) */\n  0xffffffffffffffffffffffffffffffffffffffff\n  and\n  sub\n    /* \"@openzeppelin/contracts/access/Ownable.sol\":1269:1364  if (initialOwner == address(0)) {... */\n  tag_7\n  jumpi\n    /* \"@openzeppelin/contracts/access/Ownable.sol\":1350:1351  0 */\n  0x00\n    /* \"@openzeppelin/contracts/access/Ownable.sol\":1322:1353  OwnableInvalidOwner(address(0)) */\n  mload(0x40)\n  0x1e4fbdf700000000000000000000000000000000000000000000000000000000\n  dup2\n  mstore\n  0x04\n  add\n  tag_8\n  swap2\n  swap1\n  tag_9\n  jump\t// in\ntag_8:\n  mload(0x40)\n  dup1\n  swap2\n  sub\n  swap1\n  revert\n    /* \"@openzeppelin/contracts/access/Ownable.sol\":1269:1364  if (initialOwner == address(0)) {... */\ntag_7:\n    /* \"@openzeppelin/contracts/access/Ownable.sol\":1373:1405  _transferOwnership(initialOwner) */\n  tag_10\n    /* \"@openzeppelin/contracts/access/Ownable.sol\":1392:1404  initialOwner */\n  dup2\n    /* \"@openzeppelin/contracts/access/Ownable.sol\":1373:1391  _transferOwnership */\n  shl(0x20, tag_11)\n    /* \"@openzeppelin/contracts/access/Ownable.sol\":1373:1405  _transferOwnership(initialOwner) */\n  0x20\n  shr\n  jump\t// in\ntag_10:\n    /* \"@openzeppelin/contracts/access/Ownable.sol\":1225:1412  constructor(address initialOwner) {... */\n  pop\n    /* \"contracts/ClaimsManagement.sol\":923:937  _insurancePool */\n  dup2\n    /* \"contracts/ClaimsManagement.sol\":893:906  insurancePool */\n  0x01\n  0x00\n    /* \"contracts/ClaimsManagement.sol\":893:938  insurancePool = InsurancePool(_insurancePool) */\n  0x0100\n  exp\n  dup2\n  sload\n  dup2\n  0xffffffffffffffffffffffffffffffffffffffff\n  mul\n  not\n  and\n  swap1\n  dup4\n  0xffffffffffffffffffffffffffffffffffffffff\n  and\n  mul\n  or\n  swap1\n  sstore\n  pop\n    /* \"contracts/ClaimsManagement.sol\":801:945  constructor(address _insurancePool, address _initialOwner) Ownable(_initialOwner) {... */\n  pop\n  pop\n    /* \"contracts/ClaimsManagement.sol\":141:3047  contract ClaimsManagement is Ownable {... */\n  jump(tag_13)\n    /* \"@openzeppelin/contracts/access/Ownable.sol\":2912:3099  function _transferOwnership(address newOwner) internal virtual {... */\ntag_11:\n    /* \"@openzeppelin/contracts/access/Ownable.sol\":2985:3001  address oldOwner */\n  0x00\n    /* \"@openzeppelin/contracts/access/Ownable.sol\":3004:3010  _owner */\n  dup1\n  0x00\n  swap1\n  sload\n  swap1\n  0x0100\n  exp\n  swap1\n  div\n  0xffffffffffffffffffffffffffffffffffffffff\n  and\n    /* \"@openzeppelin/contracts/access/Ownable.sol\":2985:3010  address oldOwner = _owner */\n  swap1\n  pop\n    /* \"@openzeppelin/contracts/access/Ownable.sol\":3029:3037  newOwner */\n  dup2\n    /* \"@openzeppelin/contracts/access/Ownable.sol\":3020:3026  _owner */\n  0x00\n  dup1\n    /* \"@openzeppelin/contracts/access/Ownable.sol\":3020:3037  _owner = newOwner */\n  0x0100\n  exp\n  dup2\n  sload\n  dup2\n  0xffffffffffffffffffffffffffffffffffffffff\n  mul\n  not\n  and\n  swap1\n  dup4\n  0xffffffffffffffffffffffffffffffffffffffff\n  and\n  mul\n  or\n  swap1\n  sstore\n  pop\n    /* \"@openzeppelin/contracts/access/Ownable.sol\":3083:3091  newOwner */\n  dup2\n    /* \"@openzeppelin/contracts/access/Ownable.sol\":3052:3092  OwnershipTransferred(oldOwner, newOwner) */\n  0xffffffffffffffffffffffffffffffffffffffff\n  and\n    /* \"@openzeppelin/contracts/access/Ownable.sol\":3073:3081  oldOwner */\n  dup2\n    /* \"@openzeppelin/contracts/access/Ownable.sol\":3052:3092  OwnershipTransferred(oldOwner, newOwner) */\n  0xffffffffffffffffffffffffffffffffffffffff\n  and\n  0x8be0079c531659141344cd1fd0a4f28419497f9722a3daafe3b4186f6b6457e0\n  mload(0x40)\n  mload(0x40)\n  dup1\n  swap2\n  sub\n  swap1\n  log3\n    /* \"@openzeppelin/contracts/access/Ownable.sol\":2975:3099  {... */\n  pop\n    /* \"@openzeppelin/contracts/access/Ownable.sol\":2912:3099  function _transferOwnership(address newOwner) internal virtual {... */\n  pop\n  jump\t// out\n    /* \"#utility.yul\":88:205   */\ntag_16:\n    /* \"#utility.yul\":197:198   */\n  0x00\n    /* \"#utility.yul\":194:195   */\n  dup1\n    /* \"#utility.yul\":187:199   */\n  revert\n    /* \"#utility.yul\":334:460   */\ntag_18:\n    /* \"#utility.yul\":371:378   */\n  0x00\n    /* \"#utility.yul\":411:453   */\n  0xffffffffffffffffffffffffffffffffffffffff\n    /* \"#utility.yul\":404:409   */\n  dup3\n    /* \"#utility.yul\":400:454   */\n  and\n    /* \"#utility.yul\":389:454   */\n  swap1\n  pop\n    /* \"#utility.yul\":334:460   */\n  swap2\n  swap1\n  pop\n  jump\t// out\n    /* \"#utility.yul\":466:562   */\ntag_19:\n    /* \"#utility.yul\":503:510   */\n  0x00\n    /* \"#utility.yul\":532:556   */\n  tag_29\n    /* \"#utility.yul\":550:555   */\n  dup3\n    /* \"#utility.yul\":532:556   */\n  tag_18\n  jump\t// in\ntag_29:\n    /* \"#utility.yul\":521:556   */\n  swap1\n  pop\n    /* \"#utility.yul\":466:562   */\n  swap2\n  swap1\n  pop\n  jump\t// out\n    /* \"#utility.yul\":568:690   */\ntag_20:\n    /* \"#utility.yul\":641:665   */\n  tag_31\n    /* \"#utility.yul\":659:664   */\n  dup2\n    /* \"#utility.yul\":641:665   */\n  tag_19\n  jump\t// in\ntag_31:\n    /* \"#utility.yul\":634:639   */\n  dup2\n    /* \"#utility.yul\":631:666   */\n  eq\n    /* \"#utility.yul\":621:684   */\n  tag_32\n  jumpi\n    /* \"#utility.yul\":680:681   */\n  0x00\n    /* \"#utility.yul\":677:678   */\n  dup1\n    /* \"#utility.yul\":670:682   */\n  revert\n    /* \"#utility.yul\":621:684   */\ntag_32:\n    /* \"#utility.yul\":568:690   */\n  pop\n  jump\t// out\n    /* \"#utility.yul\":696:839   */\ntag_21:\n    /* \"#utility.yul\":753:758   */\n  0x00\n    /* \"#utility.yul\":784:790   */\n  dup2\n    /* \"#utility.yul\":778:791   */\n  mload\n    /* \"#utility.yul\":769:791   */\n  swap1\n  pop\n    /* \"#utility.yul\":800:833   */\n  tag_34\n    /* \"#utility.yul\":827:832   */\n  dup2\n    /* \"#utility.yul\":800:833   */\n  tag_20\n  jump\t// in\ntag_34:\n    /* \"#utility.yul\":696:839   */\n  swap3\n  swap2\n  pop\n  pop\n  jump\t// out\n    /* \"#utility.yul\":845:1352   */\ntag_3:\n    /* \"#utility.yul\":924:930   */\n  0x00\n    /* \"#utility.yul\":932:938   */\n  dup1\n    /* \"#utility.yul\":981:983   */\n  0x40\n    /* \"#utility.yul\":969:978   */\n  dup4\n    /* \"#utility.yul\":960:967   */\n  dup6\n    /* \"#utility.yul\":956:979   */\n  sub\n    /* \"#utility.yul\":952:984   */\n  slt\n    /* \"#utility.yul\":949:1068   */\n  iszero\n  tag_36\n  jumpi\n    /* \"#utility.yul\":987:1066   */\n  tag_37\n  tag_16\n  jump\t// in\ntag_37:\n    /* \"#utility.yul\":949:1068   */\ntag_36:\n    /* \"#utility.yul\":1107:1108   */\n  0x00\n    /* \"#utility.yul\":1132:1196   */\n  tag_38\n    /* \"#utility.yul\":1188:1195   */\n  dup6\n    /* \"#utility.yul\":1179:1185   */\n  dup3\n    /* \"#utility.yul\":1168:1177   */\n  dup7\n    /* \"#utility.yul\":1164:1186   */\n  add\n    /* \"#utility.yul\":1132:1196   */\n  tag_21\n  jump\t// in\ntag_38:\n    /* \"#utility.yul\":1122:1196   */\n  swap3\n  pop\n    /* \"#utility.yul\":1078:1206   */\n  pop\n    /* \"#utility.yul\":1245:1247   */\n  0x20\n    /* \"#utility.yul\":1271:1335   */\n  tag_39\n    /* \"#utility.yul\":1327:1334   */\n  dup6\n    /* \"#utility.yul\":1318:1324   */\n  dup3\n    /* \"#utility.yul\":1307:1316   */\n  dup7\n    /* \"#utility.yul\":1303:1325   */\n  add\n    /* \"#utility.yul\":1271:1335   */\n  tag_21\n  jump\t// in\ntag_39:\n    /* \"#utility.yul\":1261:1335   */\n  swap2\n  pop\n    /* \"#utility.yul\":1216:1345   */\n  pop\n    /* \"#utility.yul\":845:1352   */\n  swap3\n  pop\n  swap3\n  swap1\n  pop\n  jump\t// out\n    /* \"#utility.yul\":1358:1476   */\ntag_22:\n    /* \"#utility.yul\":1445:1469   */\n  tag_41\n    /* \"#utility.yul\":1463:1468   */\n  dup2\n    /* \"#utility.yul\":1445:1469   */\n  tag_19\n  jump\t// in\ntag_41:\n    /* \"#utility.yul\":1440:1443   */\n  dup3\n    /* \"#utility.yul\":1433:1470   */\n  mstore\n    /* \"#utility.yul\":1358:1476   */\n  pop\n  pop\n  jump\t// out\n    /* \"#utility.yul\":1482:1704   */\ntag_9:\n    /* \"#utility.yul\":1575:1579   */\n  0x00\n    /* \"#utility.yul\":1613:1615   */\n  0x20\n    /* \"#utility.yul\":1602:1611   */\n  dup3\n    /* \"#utility.yul\":1598:1616   */\n  add\n    /* \"#utility.yul\":1590:1616   */\n  swap1\n  pop\n    /* \"#utility.yul\":1626:1697   */\n  tag_43\n    /* \"#utility.yul\":1694:1695   */\n  0x00\n    /* \"#utility.yul\":1683:1692   */\n  dup4\n    /* \"#utility.yul\":1679:1696   */\n  add\n    /* \"#utility.yul\":1670:1676   */\n  dup5\n    /* \"#utility.yul\":1626:1697   */\n  tag_22\n  jump\t// in\ntag_43:\n    /* \"#utility.yul\":1482:1704   */\n  swap3\n  swap2\n  pop\n  pop\n  jump\t// out\n    /* \"contracts/ClaimsManagement.sol\":141:3047  contract ClaimsManagement is Ownable {... */\ntag_13:\n  dataSize(sub_0)\n  dup1\n  dataOffset(sub_0)\n  0x00\n  codecopy\n  0x00\n  return\nstop\n\nsub_0: assembly {\n        /* \"contracts/ClaimsManagement.sol\":141:3047  contract ClaimsManagement is Ownable {... */\n      mstore(0x40, 0x80)\n      callvalue\n      dup1\n      iszero\n      tag_1\n      jumpi\n      0x00\n      dup1\n      revert\n    tag_1:\n      pop\n      jumpi(tag_2, lt(calldatasize, 0x04))\n      shr(0xe0, calldataload(0x00))\n      dup1\n      0x8da5cb5b\n      gt\n      tag_14\n      jumpi\n      dup1\n      0x8da5cb5b\n      eq\n      tag_8\n      jumpi\n      dup1\n      0xa888c2cd\n      eq\n      tag_9\n      jumpi\n      dup1\n      0xab1f5b7c\n      eq\n      tag_10\n      jumpi\n      dup1\n      0xab2adc00\n      eq\n      tag_11\n      jumpi\n      dup1\n      0xbac71e00\n      eq\n      tag_12\n      jumpi\n      dup1\n      0xf2fde38b\n      eq\n      tag_13\n      jumpi\n      jump(tag_2)\n    tag_14:\n      dup1\n      0x45b46525\n      eq\n      tag_3\n      jumpi\n      dup1\n      0x715018a6\n      eq\n      tag_4\n      jumpi\n      dup1\n      0x7257dfc9\n      eq\n      tag_5\n      jumpi\n      dup1\n      0x791309f1\n      eq\n      tag_6\n      jumpi\n      dup1\n      0x8da4d3c9\n      eq\n      tag_7\n      jumpi\n    tag_2:\n      0x00\n      dup1\n      revert\n        /* \"contracts/ClaimsManagement.sol\":951:1460  function submitClaim(uint256 _amount, string memory _description) external {... */\n    tag_3:\n      tag_15\n      0x04\n      dup1\n      calldatasize\n      sub\n      dup2\n      add\n      swap1\n      tag_16\n      swap2\n      swap1\n      tag_17\n      jump\t// in\n    tag_16:\n      tag_18\n      jump\t// in\n    tag_15:\n      stop\n        /* \"@openzeppelin/contracts/access/Ownable.sol\":2293:2394  function renounceOwnership() public virtual onlyOwner {... */\n    tag_4:\n      tag_19\n      tag_20\n      jump\t// in\n    tag_19:\n      stop\n        /* \"contracts/ClaimsManagement.sol\":1811:2296  function processClaim(uint256 _claimId) external onlyOwner {... */\n    tag_5:\n      tag_21\n      0x04\n      dup1\n      calldatasize\n      sub\n      dup2\n      add\n      swap1\n      tag_22\n      swap2\n      swap1\n      tag_23\n      jump\t// in\n    tag_22:\n      tag_24\n      jump\t// in\n    tag_21:\n      stop\n        /* \"contracts/ClaimsManagement.sol\":2488:3045  function getClaimsByStatus(ClaimStatus _status) external view returns (uint256[] memory) {... */\n    tag_6:\n      tag_25\n      0x04\n      dup1\n      calldatasize\n      sub\n      dup2\n      add\n      swap1\n      tag_26\n      swap2\n      swap1\n      tag_27\n      jump\t// in\n    tag_26:\n      tag_28\n      jump\t// in\n    tag_25:\n      mload(0x40)\n      tag_29\n      swap2\n      swap1\n      tag_30\n      jump\t// in\n    tag_29:\n      mload(0x40)\n      dup1\n      swap2\n      sub\n      swap1\n      return\n        /* \"contracts/ClaimsManagement.sol\":509:534  uint256 public claimCount */\n    tag_7:\n      tag_31\n      tag_32\n      jump\t// in\n    tag_31:\n      mload(0x40)\n      tag_33\n      swap2\n      swap1\n      tag_34\n      jump\t// in\n    tag_33:\n      mload(0x40)\n      dup1\n      swap2\n      sub\n      swap1\n      return\n        /* \"@openzeppelin/contracts/access/Ownable.sol\":1638:1723  function owner() public view virtual returns (address) {... */\n    tag_8:\n      tag_35\n      tag_36\n      jump\t// in\n    tag_35:\n      mload(0x40)\n      tag_37\n      swap2\n      swap1\n      tag_38\n      jump\t// in\n    tag_37:\n      mload(0x40)\n      dup1\n      swap2\n      sub\n      swap1\n      return\n        /* \"contracts/ClaimsManagement.sol\":464:503  mapping(uint256 => Claim) public claims */\n    tag_9:\n      tag_39\n      0x04\n      dup1\n      calldatasize\n      sub\n      dup2\n      add\n      swap1\n      tag_40\n      swap2\n      swap1\n      tag_23\n      jump\t// in\n    tag_40:\n      tag_41\n      jump\t// in\n    tag_39:\n      mload(0x40)\n      tag_42\n      swap6\n      swap5\n      swap4\n      swap3\n      swap2\n      swap1\n      tag_43\n      jump\t// in\n    tag_42:\n      mload(0x40)\n      dup1\n      swap2\n      sub\n      swap1\n      return\n        /* \"contracts/ClaimsManagement.sol\":1466:1805  function updateClaimStatus(uint256 _claimId, ClaimStatus _newStatus) external onlyOwner {... */\n    tag_10:\n      tag_44\n      0x04\n      dup1\n      calldatasize\n      sub\n      dup2\n      add\n      swap1\n      tag_45\n      swap2\n      swap1\n      tag_46\n      jump\t// in\n    tag_45:\n      tag_47\n      jump\t// in\n    tag_44:\n      stop\n        /* \"contracts/ClaimsManagement.sol\":184:218  InsurancePool public insurancePool */\n    tag_11:\n      tag_48\n      tag_49\n      jump\t// in\n    tag_48:\n      mload(0x40)\n      tag_50\n      swap2\n      swap1\n      tag_51\n      jump\t// in\n    tag_50:\n      mload(0x40)\n      dup1\n      swap2\n      sub\n      swap1\n      return\n        /* \"contracts/ClaimsManagement.sol\":2302:2482  function getClaimDetails(uint256 _claimId) external view returns (Claim memory) {... */\n    tag_12:\n      tag_52\n      0x04\n      dup1\n      calldatasize\n      sub\n      dup2\n      add\n      swap1\n      tag_53\n      swap2\n      swap1\n      tag_23\n      jump\t// in\n    tag_53:\n      tag_54\n      jump\t// in\n    tag_52:\n      mload(0x40)\n      tag_55\n      swap2\n      swap1\n      tag_56\n      jump\t// in\n    tag_55:\n      mload(0x40)\n      dup1\n      swap2\n      sub\n      swap1\n      return\n        /* \"@openzeppelin/contracts/access/Ownable.sol\":2543:2758  function transferOwnership(address newOwner) public virtual onlyOwner {... */\n    tag_13:\n      tag_57\n      0x04\n      dup1\n      calldatasize\n      sub\n      dup2\n      add\n      swap1\n      tag_58\n      swap2\n      swap1\n      tag_59\n      jump\t// in\n    tag_58:\n      tag_60\n      jump\t// in\n    tag_57:\n      stop\n        /* \"contracts/ClaimsManagement.sol\":951:1460  function submitClaim(uint256 _amount, string memory _description) external {... */\n    tag_18:\n        /* \"contracts/ClaimsManagement.sol\":1044:1057  insurancePool */\n      0x01\n      0x00\n      swap1\n      sload\n      swap1\n      0x0100\n      exp\n      swap1\n      div\n      0xffffffffffffffffffffffffffffffffffffffff\n      and\n        /* \"contracts/ClaimsManagement.sol\":1044:1066  insurancePool.isMember */\n      0xffffffffffffffffffffffffffffffffffffffff\n      and\n      0xa230c524\n        /* \"contracts/ClaimsManagement.sol\":1067:1077  msg.sender */\n      caller\n        /* \"contracts/ClaimsManagement.sol\":1044:1078  insurancePool.isMember(msg.sender) */\n      mload(0x40)\n      dup3\n      0xffffffff\n      and\n      0xe0\n      shl\n      dup2\n      mstore\n      0x04\n      add\n      tag_62\n      swap2\n      swap1\n      tag_38\n      jump\t// in\n    tag_62:\n      0x20\n      mload(0x40)\n      dup1\n      dup4\n      sub\n      dup2\n      dup7\n      gas\n      staticcall\n      iszero\n      dup1\n      iszero\n      tag_64\n      jumpi\n      returndatasize\n      0x00\n      dup1\n      returndatacopy\n      revert(0x00, returndatasize)\n    tag_64:\n      pop\n      pop\n      pop\n      pop\n      mload(0x40)\n      returndatasize\n      not(0x1f)\n      0x1f\n      dup3\n      add\n      and\n      dup3\n      add\n      dup1\n      0x40\n      mstore\n      pop\n      dup2\n      add\n      swap1\n      tag_65\n      swap2\n      swap1\n      tag_66\n      jump\t// in\n    tag_65:\n        /* \"contracts/ClaimsManagement.sol\":1036:1117  require(insurancePool.isMember(msg.sender), \"Not a member of the insurance pool\") */\n      tag_67\n      jumpi\n      mload(0x40)\n      0x08c379a000000000000000000000000000000000000000000000000000000000\n      dup2\n      mstore\n      0x04\n      add\n      tag_68\n      swap1\n      tag_69\n      jump\t// in\n    tag_68:\n      mload(0x40)\n      dup1\n      swap2\n      sub\n      swap1\n      revert\n    tag_67:\n        /* \"contracts/ClaimsManagement.sol\":1128:1143  uint256 claimId */\n      0x00\n        /* \"contracts/ClaimsManagement.sol\":1146:1156  claimCount */\n      0x03\n      0x00\n        /* \"contracts/ClaimsManagement.sol\":1146:1158  claimCount++ */\n      dup2\n      sload\n      dup1\n      swap3\n      swap2\n      swap1\n      tag_70\n      swap1\n      tag_71\n      jump\t// in\n    tag_70:\n      swap2\n      swap1\n      pop\n      sstore\n        /* \"contracts/ClaimsManagement.sol\":1128:1158  uint256 claimId = claimCount++ */\n      swap1\n      pop\n        /* \"contracts/ClaimsManagement.sol\":1186:1393  Claim({... */\n      mload(0x40)\n      dup1\n      0xa0\n      add\n      0x40\n      mstore\n      dup1\n        /* \"contracts/ClaimsManagement.sol\":1216:1226  msg.sender */\n      caller\n        /* \"contracts/ClaimsManagement.sol\":1186:1393  Claim({... */\n      0xffffffffffffffffffffffffffffffffffffffff\n      and\n      dup2\n      mstore\n      0x20\n      add\n        /* \"contracts/ClaimsManagement.sol\":1248:1255  _amount */\n      dup5\n        /* \"contracts/ClaimsManagement.sol\":1186:1393  Claim({... */\n      dup2\n      mstore\n      0x20\n      add\n        /* \"contracts/ClaimsManagement.sol\":1282:1294  _description */\n      dup4\n        /* \"contracts/ClaimsManagement.sol\":1186:1393  Claim({... */\n      dup2\n      mstore\n      0x20\n      add\n        /* \"contracts/ClaimsManagement.sol\":1324:1339  block.timestamp */\n      timestamp\n        /* \"contracts/ClaimsManagement.sol\":1186:1393  Claim({... */\n      dup2\n      mstore\n      0x20\n      add\n        /* \"contracts/ClaimsManagement.sol\":1361:1382  ClaimStatus.Submitted */\n      0x00\n        /* \"contracts/ClaimsManagement.sol\":1186:1393  Claim({... */\n      0x04\n      dup2\n      gt\n      iszero\n      tag_72\n      jumpi\n      tag_73\n      tag_74\n      jump\t// in\n    tag_73:\n    tag_72:\n      dup2\n      mstore\n      pop\n        /* \"contracts/ClaimsManagement.sol\":1168:1174  claims */\n      0x02\n        /* \"contracts/ClaimsManagement.sol\":1168:1183  claims[claimId] */\n      0x00\n        /* \"contracts/ClaimsManagement.sol\":1175:1182  claimId */\n      dup4\n        /* \"contracts/ClaimsManagement.sol\":1168:1183  claims[claimId] */\n      dup2\n      mstore\n      0x20\n      add\n      swap1\n      dup2\n      mstore\n      0x20\n      add\n      0x00\n      keccak256\n        /* \"contracts/ClaimsManagement.sol\":1168:1393  claims[claimId] = Claim({... */\n      0x00\n      dup3\n      add\n      mload\n      dup2\n      0x00\n      add\n      exp(0x0100, 0x00)\n      dup2\n      sload\n      dup2\n      0xffffffffffffffffffffffffffffffffffffffff\n      mul\n      not\n      and\n      swap1\n      dup4\n      0xffffffffffffffffffffffffffffffffffffffff\n      and\n      mul\n      or\n      swap1\n      sstore\n      pop\n      0x20\n      dup3\n      add\n      mload\n      dup2\n      0x01\n      add\n      sstore\n      0x40\n      dup3\n      add\n      mload\n      dup2\n      0x02\n      add\n      swap1\n      dup2\n      tag_75\n      swap2\n      swap1\n      tag_76\n      jump\t// in\n    tag_75:\n      pop\n      0x60\n      dup3\n      add\n      mload\n      dup2\n      0x03\n      add\n      sstore\n      0x80\n      dup3\n      add\n      mload\n      dup2\n      0x04\n      add\n      exp(0x0100, 0x00)\n      dup2\n      sload\n      dup2\n      0xff\n      mul\n      not\n      and\n      swap1\n      dup4\n      0x04\n      dup2\n      gt\n      iszero\n      tag_77\n      jumpi\n      tag_78\n      tag_74\n      jump\t// in\n    tag_78:\n    tag_77:\n      mul\n      or\n      swap1\n      sstore\n      pop\n      swap1\n      pop\n      pop\n        /* \"contracts/ClaimsManagement.sol\":1433:1443  msg.sender */\n      caller\n        /* \"contracts/ClaimsManagement.sol\":1409:1453  ClaimSubmitted(claimId, msg.sender, _amount) */\n      0xffffffffffffffffffffffffffffffffffffffff\n      and\n        /* \"contracts/ClaimsManagement.sol\":1424:1431  claimId */\n      dup2\n        /* \"contracts/ClaimsManagement.sol\":1409:1453  ClaimSubmitted(claimId, msg.sender, _amount) */\n      0x01bc0f9d4f6b0c66e2bda5f433d9760d7eb48e89b73ffea517a7ba5e4fe0657d\n        /* \"contracts/ClaimsManagement.sol\":1445:1452  _amount */\n      dup6\n        /* \"contracts/ClaimsManagement.sol\":1409:1453  ClaimSubmitted(claimId, msg.sender, _amount) */\n      mload(0x40)\n      tag_79\n      swap2\n      swap1\n      tag_34\n      jump\t// in\n    tag_79:\n      mload(0x40)\n      dup1\n      swap2\n      sub\n      swap1\n      log3\n        /* \"contracts/ClaimsManagement.sol\":1026:1460  {... */\n      pop\n        /* \"contracts/ClaimsManagement.sol\":951:1460  function submitClaim(uint256 _amount, string memory _description) external {... */\n      pop\n      pop\n      jump\t// out\n        /* \"@openzeppelin/contracts/access/Ownable.sol\":2293:2394  function renounceOwnership() public virtual onlyOwner {... */\n    tag_20:\n        /* \"@openzeppelin/contracts/access/Ownable.sol\":1531:1544  _checkOwner() */\n      tag_81\n        /* \"@openzeppelin/contracts/access/Ownable.sol\":1531:1542  _checkOwner */\n      tag_82\n        /* \"@openzeppelin/contracts/access/Ownable.sol\":1531:1544  _checkOwner() */\n      jump\t// in\n    tag_81:\n        /* \"@openzeppelin/contracts/access/Ownable.sol\":2357:2387  _transferOwnership(address(0)) */\n      tag_84\n        /* \"@openzeppelin/contracts/access/Ownable.sol\":2384:2385  0 */\n      0x00\n        /* \"@openzeppelin/contracts/access/Ownable.sol\":2357:2375  _transferOwnership */\n      tag_85\n        /* \"@openzeppelin/contracts/access/Ownable.sol\":2357:2387  _transferOwnership(address(0)) */\n      jump\t// in\n    tag_84:\n        /* \"@openzeppelin/contracts/access/Ownable.sol\":2293:2394  function renounceOwnership() public virtual onlyOwner {... */\n      jump\t// out\n        /* \"contracts/ClaimsManagement.sol\":1811:2296  function processClaim(uint256 _claimId) external onlyOwner {... */\n    tag_24:\n        /* \"@openzeppelin/contracts/access/Ownable.sol\":1531:1544  _checkOwner() */\n      tag_87\n        /* \"@openzeppelin/contracts/access/Ownable.sol\":1531:1542  _checkOwner */\n      tag_82\n        /* \"@openzeppelin/contracts/access/Ownable.sol\":1531:1544  _checkOwner() */\n      jump\t// in\n    tag_87:\n        /* \"contracts/ClaimsManagement.sol\":1899:1909  claimCount */\n      sload(0x03)\n        /* \"contracts/ClaimsManagement.sol\":1888:1896  _claimId */\n      dup2\n        /* \"contracts/ClaimsManagement.sol\":1888:1909  _claimId < claimCount */\n      lt\n        /* \"contracts/ClaimsManagement.sol\":1880:1930  require(_claimId < claimCount, \"Invalid claim ID\") */\n      tag_89\n      jumpi\n      mload(0x40)\n      0x08c379a000000000000000000000000000000000000000000000000000000000\n      dup2\n      mstore\n      0x04\n      add\n      tag_90\n      swap1\n      tag_91\n      jump\t// in\n    tag_90:\n      mload(0x40)\n      dup1\n      swap2\n      sub\n      swap1\n      revert\n    tag_89:\n        /* \"contracts/ClaimsManagement.sol\":1940:1959  Claim storage claim */\n      0x00\n        /* \"contracts/ClaimsManagement.sol\":1962:1968  claims */\n      0x02\n        /* \"contracts/ClaimsManagement.sol\":1962:1978  claims[_claimId] */\n      0x00\n        /* \"contracts/ClaimsManagement.sol\":1969:1977  _claimId */\n      dup4\n        /* \"contracts/ClaimsManagement.sol\":1962:1978  claims[_claimId] */\n      dup2\n      mstore\n      0x20\n      add\n      swap1\n      dup2\n      mstore\n      0x20\n      add\n      0x00\n      keccak256\n        /* \"contracts/ClaimsManagement.sol\":1940:1978  Claim storage claim = claims[_claimId] */\n      swap1\n      pop\n        /* \"contracts/ClaimsManagement.sol\":2012:2032  ClaimStatus.Approved */\n      0x02\n        /* \"contracts/ClaimsManagement.sol\":1996:2032  claim.status == ClaimStatus.Approved */\n      0x04\n      dup2\n      gt\n      iszero\n      tag_92\n      jumpi\n      tag_93\n      tag_74\n      jump\t// in\n    tag_93:\n    tag_92:\n        /* \"contracts/ClaimsManagement.sol\":1996:2001  claim */\n      dup2\n        /* \"contracts/ClaimsManagement.sol\":1996:2008  claim.status */\n      0x04\n      add\n      0x00\n      swap1\n      sload\n      swap1\n      0x0100\n      exp\n      swap1\n      div\n      0xff\n      and\n        /* \"contracts/ClaimsManagement.sol\":1996:2032  claim.status == ClaimStatus.Approved */\n      0x04\n      dup2\n      gt\n      iszero\n      tag_94\n      jumpi\n      tag_95\n      tag_74\n      jump\t// in\n    tag_95:\n    tag_94:\n      eq\n        /* \"contracts/ClaimsManagement.sol\":1988:2055  require(claim.status == ClaimStatus.Approved, \"Claim not approved\") */\n      tag_96\n      jumpi\n      mload(0x40)\n      0x08c379a000000000000000000000000000000000000000000000000000000000\n      dup2\n      mstore\n      0x04\n      add\n      tag_97\n      swap1\n      tag_98\n      jump\t// in\n    tag_97:\n      mload(0x40)\n      dup1\n      swap2\n      sub\n      swap1\n      revert\n    tag_96:\n        /* \"contracts/ClaimsManagement.sol\":2081:2097  ClaimStatus.Paid */\n      0x04\n        /* \"contracts/ClaimsManagement.sol\":2066:2071  claim */\n      dup2\n        /* \"contracts/ClaimsManagement.sol\":2066:2078  claim.status */\n      0x04\n      add\n      0x00\n        /* \"contracts/ClaimsManagement.sol\":2066:2097  claim.status = ClaimStatus.Paid */\n      0x0100\n      exp\n      dup2\n      sload\n      dup2\n      0xff\n      mul\n      not\n      and\n      swap1\n      dup4\n      0x04\n      dup2\n      gt\n      iszero\n      tag_99\n      jumpi\n      tag_100\n      tag_74\n      jump\t// in\n    tag_100:\n    tag_99:\n      mul\n      or\n      swap1\n      sstore\n      pop\n        /* \"contracts/ClaimsManagement.sol\":2168:2181  insurancePool */\n      0x01\n      0x00\n      swap1\n      sload\n      swap1\n      0x0100\n      exp\n      swap1\n      div\n      0xffffffffffffffffffffffffffffffffffffffff\n      and\n        /* \"contracts/ClaimsManagement.sol\":2168:2194  insurancePool.processClaim */\n      0xffffffffffffffffffffffffffffffffffffffff\n      and\n      0x6ffc215c\n        /* \"contracts/ClaimsManagement.sol\":2195:2200  claim */\n      dup3\n        /* \"contracts/ClaimsManagement.sol\":2195:2209  claim.claimant */\n      0x00\n      add\n      0x00\n      swap1\n      sload\n      swap1\n      0x0100\n      exp\n      swap1\n      div\n      0xffffffffffffffffffffffffffffffffffffffff\n      and\n        /* \"contracts/ClaimsManagement.sol\":2211:2216  claim */\n      dup4\n        /* \"contracts/ClaimsManagement.sol\":2211:2223  claim.amount */\n      0x01\n      add\n      sload\n        /* \"contracts/ClaimsManagement.sol\":2168:2224  insurancePool.processClaim(claim.claimant, claim.amount) */\n      mload(0x40)\n      dup4\n      0xffffffff\n      and\n      0xe0\n      shl\n      dup2\n      mstore\n      0x04\n      add\n      tag_101\n      swap3\n      swap2\n      swap1\n      tag_102\n      jump\t// in\n    tag_101:\n      0x00\n      mload(0x40)\n      dup1\n      dup4\n      sub\n      dup2\n      0x00\n      dup8\n      dup1\n      extcodesize\n      iszero\n      dup1\n      iszero\n      tag_103\n      jumpi\n      0x00\n      dup1\n      revert\n    tag_103:\n      pop\n      gas\n      call\n      iszero\n      dup1\n      iszero\n      tag_105\n      jumpi\n      returndatasize\n      0x00\n      dup1\n      returndatacopy\n      revert(0x00, returndatasize)\n    tag_105:\n      pop\n      pop\n      pop\n      pop\n        /* \"contracts/ClaimsManagement.sol\":2260:2265  claim */\n      dup1\n        /* \"contracts/ClaimsManagement.sol\":2260:2274  claim.claimant */\n      0x00\n      add\n      0x00\n      swap1\n      sload\n      swap1\n      0x0100\n      exp\n      swap1\n      div\n      0xffffffffffffffffffffffffffffffffffffffff\n      and\n        /* \"contracts/ClaimsManagement.sol\":2240:2289  ClaimPaid(_claimId, claim.claimant, claim.amount) */\n      0xffffffffffffffffffffffffffffffffffffffff\n      and\n        /* \"contracts/ClaimsManagement.sol\":2250:2258  _claimId */\n      dup3\n        /* \"contracts/ClaimsManagement.sol\":2240:2289  ClaimPaid(_claimId, claim.claimant, claim.amount) */\n      0xaf3c8fdd75d667f71d36d7840b8ef9086c516c9b047ad6a83a5a66151342123a\n        /* \"contracts/ClaimsManagement.sol\":2276:2281  claim */\n      dup4\n        /* \"contracts/ClaimsManagement.sol\":2276:2288  claim.amount */\n      0x01\n      add\n      sload\n        /* \"contracts/ClaimsManagement.sol\":2240:2289  ClaimPaid(_claimId, claim.claimant, claim.amount) */\n      mload(0x40)\n      tag_106\n      swap2\n      swap1\n      tag_34\n      jump\t// in\n    tag_106:\n      mload(0x40)\n      dup1\n      swap2\n      sub\n      swap1\n      log3\n        /* \"contracts/ClaimsManagement.sol\":1870:2296  {... */\n      pop\n        /* \"contracts/ClaimsManagement.sol\":1811:2296  function processClaim(uint256 _claimId) external onlyOwner {... */\n      pop\n      jump\t// out\n        /* \"contracts/ClaimsManagement.sol\":2488:3045  function getClaimsByStatus(ClaimStatus _status) external view returns (uint256[] memory) {... */\n    tag_28:\n        /* \"contracts/ClaimsManagement.sol\":2559:2575  uint256[] memory */\n      0x60\n        /* \"contracts/ClaimsManagement.sol\":2587:2618  uint256[] memory matchingClaims */\n      0x00\n        /* \"contracts/ClaimsManagement.sol\":2635:2645  claimCount */\n      sload(0x03)\n        /* \"contracts/ClaimsManagement.sol\":2621:2646  new uint256[](claimCount) */\n      0xffffffffffffffff\n      dup2\n      gt\n      iszero\n      tag_108\n      jumpi\n      tag_109\n      tag_110\n      jump\t// in\n    tag_109:\n    tag_108:\n      mload(0x40)\n      swap1\n      dup1\n      dup3\n      mstore\n      dup1\n      0x20\n      mul\n      0x20\n      add\n      dup3\n      add\n      0x40\n      mstore\n      dup1\n      iszero\n      tag_111\n      jumpi\n      dup2\n      0x20\n      add\n      0x20\n      dup3\n      mul\n      dup1\n      calldatasize\n      dup4\n      calldatacopy\n      dup1\n      dup3\n      add\n      swap2\n      pop\n      pop\n      swap1\n      pop\n    tag_111:\n      pop\n        /* \"contracts/ClaimsManagement.sol\":2587:2646  uint256[] memory matchingClaims = new uint256[](claimCount) */\n      swap1\n      pop\n        /* \"contracts/ClaimsManagement.sol\":2656:2674  uint256 matchCount */\n      0x00\n        /* \"contracts/ClaimsManagement.sol\":2694:2703  uint256 i */\n      dup1\n        /* \"contracts/ClaimsManagement.sol\":2689:2880  for (uint256 i = 0; i < claimCount; i++) {... */\n    tag_112:\n        /* \"contracts/ClaimsManagement.sol\":2713:2723  claimCount */\n      sload(0x03)\n        /* \"contracts/ClaimsManagement.sol\":2709:2710  i */\n      dup2\n        /* \"contracts/ClaimsManagement.sol\":2709:2723  i < claimCount */\n      lt\n        /* \"contracts/ClaimsManagement.sol\":2689:2880  for (uint256 i = 0; i < claimCount; i++) {... */\n      iszero\n      tag_113\n      jumpi\n        /* \"contracts/ClaimsManagement.sol\":2768:2775  _status */\n      dup5\n        /* \"contracts/ClaimsManagement.sol\":2748:2775  claims[i].status == _status */\n      0x04\n      dup2\n      gt\n      iszero\n      tag_115\n      jumpi\n      tag_116\n      tag_74\n      jump\t// in\n    tag_116:\n    tag_115:\n        /* \"contracts/ClaimsManagement.sol\":2748:2754  claims */\n      0x02\n        /* \"contracts/ClaimsManagement.sol\":2748:2757  claims[i] */\n      0x00\n        /* \"contracts/ClaimsManagement.sol\":2755:2756  i */\n      dup4\n        /* \"contracts/ClaimsManagement.sol\":2748:2757  claims[i] */\n      dup2\n      mstore\n      0x20\n      add\n      swap1\n      dup2\n      mstore\n      0x20\n      add\n      0x00\n      keccak256\n        /* \"contracts/ClaimsManagement.sol\":2748:2764  claims[i].status */\n      0x04\n      add\n      0x00\n      swap1\n      sload\n      swap1\n      0x0100\n      exp\n      swap1\n      div\n      0xff\n      and\n        /* \"contracts/ClaimsManagement.sol\":2748:2775  claims[i].status == _status */\n      0x04\n      dup2\n      gt\n      iszero\n      tag_117\n      jumpi\n      tag_118\n      tag_74\n      jump\t// in\n    tag_118:\n    tag_117:\n      sub\n        /* \"contracts/ClaimsManagement.sol\":2744:2870  if (claims[i].status == _status) {... */\n      tag_119\n      jumpi\n        /* \"contracts/ClaimsManagement.sol\":2824:2825  i */\n      dup1\n        /* \"contracts/ClaimsManagement.sol\":2795:2809  matchingClaims */\n      dup4\n        /* \"contracts/ClaimsManagement.sol\":2810:2820  matchCount */\n      dup4\n        /* \"contracts/ClaimsManagement.sol\":2795:2821  matchingClaims[matchCount] */\n      dup2\n      mload\n      dup2\n      lt\n      tag_120\n      jumpi\n      tag_121\n      tag_122\n      jump\t// in\n    tag_121:\n    tag_120:\n      0x20\n      mul\n      0x20\n      add\n      add\n        /* \"contracts/ClaimsManagement.sol\":2795:2825  matchingClaims[matchCount] = i */\n      dup2\n      dup2\n      mstore\n      pop\n      pop\n        /* \"contracts/ClaimsManagement.sol\":2843:2855  matchCount++ */\n      dup2\n      dup1\n      tag_123\n      swap1\n      tag_71\n      jump\t// in\n    tag_123:\n      swap3\n      pop\n      pop\n        /* \"contracts/ClaimsManagement.sol\":2744:2870  if (claims[i].status == _status) {... */\n    tag_119:\n        /* \"contracts/ClaimsManagement.sol\":2725:2728  i++ */\n      dup1\n      dup1\n      0x01\n      add\n      swap2\n      pop\n      pop\n        /* \"contracts/ClaimsManagement.sol\":2689:2880  for (uint256 i = 0; i < claimCount; i++) {... */\n      jump(tag_112)\n    tag_113:\n      pop\n        /* \"contracts/ClaimsManagement.sol\":2986:2996  matchCount */\n      dup1\n        /* \"contracts/ClaimsManagement.sol\":2970:2984  matchingClaims */\n      dup3\n        /* \"contracts/ClaimsManagement.sol\":2963:2997  mstore(matchingClaims, matchCount) */\n      mstore\n        /* \"contracts/ClaimsManagement.sol\":3024:3038  matchingClaims */\n      dup2\n        /* \"contracts/ClaimsManagement.sol\":3017:3038  return matchingClaims */\n      swap3\n      pop\n      pop\n      pop\n        /* \"contracts/ClaimsManagement.sol\":2488:3045  function getClaimsByStatus(ClaimStatus _status) external view returns (uint256[] memory) {... */\n      swap2\n      swap1\n      pop\n      jump\t// out\n        /* \"contracts/ClaimsManagement.sol\":509:534  uint256 public claimCount */\n    tag_32:\n      sload(0x03)\n      dup2\n      jump\t// out\n        /* \"@openzeppelin/contracts/access/Ownable.sol\":1638:1723  function owner() public view virtual returns (address) {... */\n    tag_36:\n        /* \"@openzeppelin/contracts/access/Ownable.sol\":1684:1691  address */\n      0x00\n        /* \"@openzeppelin/contracts/access/Ownable.sol\":1710:1716  _owner */\n      dup1\n      0x00\n      swap1\n      sload\n      swap1\n      0x0100\n      exp\n      swap1\n      div\n      0xffffffffffffffffffffffffffffffffffffffff\n      and\n        /* \"@openzeppelin/contracts/access/Ownable.sol\":1703:1716  return _owner */\n      swap1\n      pop\n        /* \"@openzeppelin/contracts/access/Ownable.sol\":1638:1723  function owner() public view virtual returns (address) {... */\n      swap1\n      jump\t// out\n        /* \"contracts/ClaimsManagement.sol\":464:503  mapping(uint256 => Claim) public claims */\n    tag_41:\n      mstore(0x20, 0x02)\n      dup1\n      0x00\n      mstore\n      keccak256(0x00, 0x40)\n      0x00\n      swap2\n      pop\n      swap1\n      pop\n      dup1\n      0x00\n      add\n      0x00\n      swap1\n      sload\n      swap1\n      0x0100\n      exp\n      swap1\n      div\n      0xffffffffffffffffffffffffffffffffffffffff\n      and\n      swap1\n      dup1\n      0x01\n      add\n      sload\n      swap1\n      dup1\n      0x02\n      add\n      dup1\n      sload\n      tag_125\n      swap1\n      tag_126\n      jump\t// in\n    tag_125:\n      dup1\n      0x1f\n      add\n      0x20\n      dup1\n      swap2\n      div\n      mul\n      0x20\n      add\n      mload(0x40)\n      swap1\n      dup2\n      add\n      0x40\n      mstore\n      dup1\n      swap3\n      swap2\n      swap1\n      dup2\n      dup2\n      mstore\n      0x20\n      add\n      dup3\n      dup1\n      sload\n      tag_127\n      swap1\n      tag_126\n      jump\t// in\n    tag_127:\n      dup1\n      iszero\n      tag_128\n      jumpi\n      dup1\n      0x1f\n      lt\n      tag_129\n      jumpi\n      0x0100\n      dup1\n      dup4\n      sload\n      div\n      mul\n      dup4\n      mstore\n      swap2\n      0x20\n      add\n      swap2\n      jump(tag_128)\n    tag_129:\n      dup3\n      add\n      swap2\n      swap1\n      0x00\n      mstore\n      keccak256(0x00, 0x20)\n      swap1\n    tag_130:\n      dup2\n      sload\n      dup2\n      mstore\n      swap1\n      0x01\n      add\n      swap1\n      0x20\n      add\n      dup1\n      dup4\n      gt\n      tag_130\n      jumpi\n      dup3\n      swap1\n      sub\n      0x1f\n      and\n      dup3\n      add\n      swap2\n    tag_128:\n      pop\n      pop\n      pop\n      pop\n      pop\n      swap1\n      dup1\n      0x03\n      add\n      sload\n      swap1\n      dup1\n      0x04\n      add\n      0x00\n      swap1\n      sload\n      swap1\n      0x0100\n      exp\n      swap1\n      div\n      0xff\n      and\n      swap1\n      pop\n      dup6\n      jump\t// out\n        /* \"contracts/ClaimsManagement.sol\":1466:1805  function updateClaimStatus(uint256 _claimId, ClaimStatus _newStatus) external onlyOwner {... */\n    tag_47:\n        /* \"@openzeppelin/contracts/access/Ownable.sol\":1531:1544  _checkOwner() */\n      tag_132\n        /* \"@openzeppelin/contracts/access/Ownable.sol\":1531:1542  _checkOwner */\n      tag_82\n        /* \"@openzeppelin/contracts/access/Ownable.sol\":1531:1544  _checkOwner() */\n      jump\t// in\n    tag_132:\n        /* \"contracts/ClaimsManagement.sol\":1583:1593  claimCount */\n      sload(0x03)\n        /* \"contracts/ClaimsManagement.sol\":1572:1580  _claimId */\n      dup3\n        /* \"contracts/ClaimsManagement.sol\":1572:1593  _claimId < claimCount */\n      lt\n        /* \"contracts/ClaimsManagement.sol\":1564:1614  require(_claimId < claimCount, \"Invalid claim ID\") */\n      tag_134\n      jumpi\n      mload(0x40)\n      0x08c379a000000000000000000000000000000000000000000000000000000000\n      dup2\n      mstore\n      0x04\n      add\n      tag_135\n      swap1\n      tag_91\n      jump\t// in\n    tag_135:\n      mload(0x40)\n      dup1\n      swap2\n      sub\n      swap1\n      revert\n    tag_134:\n        /* \"contracts/ClaimsManagement.sol\":1646:1662  ClaimStatus.Paid */\n      0x04\n        /* \"contracts/ClaimsManagement.sol\":1632:1662  _newStatus != ClaimStatus.Paid */\n      dup1\n      dup2\n      gt\n      iszero\n      tag_136\n      jumpi\n      tag_137\n      tag_74\n      jump\t// in\n    tag_137:\n    tag_136:\n        /* \"contracts/ClaimsManagement.sol\":1632:1642  _newStatus */\n      dup2\n        /* \"contracts/ClaimsManagement.sol\":1632:1662  _newStatus != ClaimStatus.Paid */\n      0x04\n      dup2\n      gt\n      iszero\n      tag_138\n      jumpi\n      tag_139\n      tag_74\n      jump\t// in\n    tag_139:\n    tag_138:\n      sub\n        /* \"contracts/ClaimsManagement.sol\":1624:1696  require(_newStatus != ClaimStatus.Paid, \"Use processClaim for payments\") */\n      tag_140\n      jumpi\n      mload(0x40)\n      0x08c379a000000000000000000000000000000000000000000000000000000000\n      dup2\n      mstore\n      0x04\n      add\n      tag_141\n      swap1\n      tag_142\n      jump\t// in\n    tag_141:\n      mload(0x40)\n      dup1\n      swap2\n      sub\n      swap1\n      revert\n    tag_140:\n        /* \"contracts/ClaimsManagement.sol\":1733:1743  _newStatus */\n      dup1\n        /* \"contracts/ClaimsManagement.sol\":1707:1713  claims */\n      0x02\n        /* \"contracts/ClaimsManagement.sol\":1707:1723  claims[_claimId] */\n      0x00\n        /* \"contracts/ClaimsManagement.sol\":1714:1722  _claimId */\n      dup5\n        /* \"contracts/ClaimsManagement.sol\":1707:1723  claims[_claimId] */\n      dup2\n      mstore\n      0x20\n      add\n      swap1\n      dup2\n      mstore\n      0x20\n      add\n      0x00\n      keccak256\n        /* \"contracts/ClaimsManagement.sol\":1707:1730  claims[_claimId].status */\n      0x04\n      add\n      0x00\n        /* \"contracts/ClaimsManagement.sol\":1707:1743  claims[_claimId].status = _newStatus */\n      0x0100\n      exp\n      dup2\n      sload\n      dup2\n      0xff\n      mul\n      not\n      and\n      swap1\n      dup4\n      0x04\n      dup2\n      gt\n      iszero\n      tag_143\n      jumpi\n      tag_144\n      tag_74\n      jump\t// in\n    tag_144:\n    tag_143:\n      mul\n      or\n      swap1\n      sstore\n      pop\n        /* \"contracts/ClaimsManagement.sol\":1777:1785  _claimId */\n      dup2\n        /* \"contracts/ClaimsManagement.sol\":1758:1798  ClaimStatusUpdated(_claimId, _newStatus) */\n      0x2e7de2377c1e6f85a268dbe00519c60d65c9e38570a118be0eb07feb07fc89be\n        /* \"contracts/ClaimsManagement.sol\":1787:1797  _newStatus */\n      dup3\n        /* \"contracts/ClaimsManagement.sol\":1758:1798  ClaimStatusUpdated(_claimId, _newStatus) */\n      mload(0x40)\n      tag_145\n      swap2\n      swap1\n      tag_146\n      jump\t// in\n    tag_145:\n      mload(0x40)\n      dup1\n      swap2\n      sub\n      swap1\n      log2\n        /* \"contracts/ClaimsManagement.sol\":1466:1805  function updateClaimStatus(uint256 _claimId, ClaimStatus _newStatus) external onlyOwner {... */\n      pop\n      pop\n      jump\t// out\n        /* \"contracts/ClaimsManagement.sol\":184:218  InsurancePool public insurancePool */\n    tag_49:\n      0x01\n      0x00\n      swap1\n      sload\n      swap1\n      0x0100\n      exp\n      swap1\n      div\n      0xffffffffffffffffffffffffffffffffffffffff\n      and\n      dup2\n      jump\t// out\n        /* \"contracts/ClaimsManagement.sol\":2302:2482  function getClaimDetails(uint256 _claimId) external view returns (Claim memory) {... */\n    tag_54:\n        /* \"contracts/ClaimsManagement.sol\":2368:2380  Claim memory */\n      tag_147\n      tag_148\n      jump\t// in\n    tag_147:\n        /* \"contracts/ClaimsManagement.sol\":2411:2421  claimCount */\n      sload(0x03)\n        /* \"contracts/ClaimsManagement.sol\":2400:2408  _claimId */\n      dup3\n        /* \"contracts/ClaimsManagement.sol\":2400:2421  _claimId < claimCount */\n      lt\n        /* \"contracts/ClaimsManagement.sol\":2392:2442  require(_claimId < claimCount, \"Invalid claim ID\") */\n      tag_150\n      jumpi\n      mload(0x40)\n      0x08c379a000000000000000000000000000000000000000000000000000000000\n      dup2\n      mstore\n      0x04\n      add\n      tag_151\n      swap1\n      tag_91\n      jump\t// in\n    tag_151:\n      mload(0x40)\n      dup1\n      swap2\n      sub\n      swap1\n      revert\n    tag_150:\n        /* \"contracts/ClaimsManagement.sol\":2459:2465  claims */\n      0x02\n        /* \"contracts/ClaimsManagement.sol\":2459:2475  claims[_claimId] */\n      0x00\n        /* \"contracts/ClaimsManagement.sol\":2466:2474  _claimId */\n      dup4\n        /* \"contracts/ClaimsManagement.sol\":2459:2475  claims[_claimId] */\n      dup2\n      mstore\n      0x20\n      add\n      swap1\n      dup2\n      mstore\n      0x20\n      add\n      0x00\n      keccak256\n        /* \"contracts/ClaimsManagement.sol\":2452:2475  return claims[_claimId] */\n      mload(0x40)\n      dup1\n      0xa0\n      add\n      0x40\n      mstore\n      swap1\n      dup2\n      0x00\n      dup3\n      add\n      0x00\n      swap1\n      sload\n      swap1\n      0x0100\n      exp\n      swap1\n      div\n      0xffffffffffffffffffffffffffffffffffffffff\n      and\n      0xffffffffffffffffffffffffffffffffffffffff\n      and\n      0xffffffffffffffffffffffffffffffffffffffff\n      and\n      dup2\n      mstore\n      0x20\n      add\n      0x01\n      dup3\n      add\n      sload\n      dup2\n      mstore\n      0x20\n      add\n      0x02\n      dup3\n      add\n      dup1\n      sload\n      tag_152\n      swap1\n      tag_126\n      jump\t// in\n    tag_152:\n      dup1\n      0x1f\n      add\n      0x20\n      dup1\n      swap2\n      div\n      mul\n      0x20\n      add\n      mload(0x40)\n      swap1\n      dup2\n      add\n      0x40\n      mstore\n      dup1\n      swap3\n      swap2\n      swap1\n      dup2\n      dup2\n      mstore\n      0x20\n      add\n      dup3\n      dup1\n      sload\n      tag_153\n      swap1\n      tag_126\n      jump\t// in\n    tag_153:\n      dup1\n      iszero\n      tag_154\n      jumpi\n      dup1\n      0x1f\n      lt\n      tag_155\n      jumpi\n      0x0100\n      dup1\n      dup4\n      sload\n      div\n      mul\n      dup4\n      mstore\n      swap2\n      0x20\n      add\n      swap2\n      jump(tag_154)\n    tag_155:\n      dup3\n      add\n      swap2\n      swap1\n      0x00\n      mstore\n      keccak256(0x00, 0x20)\n      swap1\n    tag_156:\n      dup2\n      sload\n      dup2\n      mstore\n      swap1\n      0x01\n      add\n      swap1\n      0x20\n      add\n      dup1\n      dup4\n      gt\n      tag_156\n      jumpi\n      dup3\n      swap1\n      sub\n      0x1f\n      and\n      dup3\n      add\n      swap2\n    tag_154:\n      pop\n      pop\n      pop\n      pop\n      pop\n      dup2\n      mstore\n      0x20\n      add\n      0x03\n      dup3\n      add\n      sload\n      dup2\n      mstore\n      0x20\n      add\n      0x04\n      dup3\n      add\n      0x00\n      swap1\n      sload\n      swap1\n      0x0100\n      exp\n      swap1\n      div\n      0xff\n      and\n      0x04\n      dup2\n      gt\n      iszero\n      tag_157\n      jumpi\n      tag_158\n      tag_74\n      jump\t// in\n    tag_158:\n    tag_157:\n      0x04\n      dup2\n      gt\n      iszero\n      tag_159\n      jumpi\n      tag_160\n      tag_74\n      jump\t// in\n    tag_160:\n    tag_159:\n      dup2\n      mstore\n      pop\n      pop\n      swap1\n      pop\n        /* \"contracts/ClaimsManagement.sol\":2302:2482  function getClaimDetails(uint256 _claimId) external view returns (Claim memory) {... */\n      swap2\n      swap1\n      pop\n      jump\t// out\n        /* \"@openzeppelin/contracts/access/Ownable.sol\":2543:2758  function transferOwnership(address newOwner) public virtual onlyOwner {... */\n    tag_60:\n        /* \"@openzeppelin/contracts/access/Ownable.sol\":1531:1544  _checkOwner() */\n      tag_162\n        /* \"@openzeppelin/contracts/access/Ownable.sol\":1531:1542  _checkOwner */\n      tag_82\n        /* \"@openzeppelin/contracts/access/Ownable.sol\":1531:1544  _checkOwner() */\n      jump\t// in\n    tag_162:\n        /* \"@openzeppelin/contracts/access/Ownable.sol\":2647:2648  0 */\n      0x00\n        /* \"@openzeppelin/contracts/access/Ownable.sol\":2627:2649  newOwner == address(0) */\n      0xffffffffffffffffffffffffffffffffffffffff\n      and\n        /* \"@openzeppelin/contracts/access/Ownable.sol\":2627:2635  newOwner */\n      dup2\n        /* \"@openzeppelin/contracts/access/Ownable.sol\":2627:2649  newOwner == address(0) */\n      0xffffffffffffffffffffffffffffffffffffffff\n      and\n      sub\n        /* \"@openzeppelin/contracts/access/Ownable.sol\":2623:2714  if (newOwner == address(0)) {... */\n      tag_164\n      jumpi\n        /* \"@openzeppelin/contracts/access/Ownable.sol\":2700:2701  0 */\n      0x00\n        /* \"@openzeppelin/contracts/access/Ownable.sol\":2672:2703  OwnableInvalidOwner(address(0)) */\n      mload(0x40)\n      0x1e4fbdf700000000000000000000000000000000000000000000000000000000\n      dup2\n      mstore\n      0x04\n      add\n      tag_165\n      swap2\n      swap1\n      tag_38\n      jump\t// in\n    tag_165:\n      mload(0x40)\n      dup1\n      swap2\n      sub\n      swap1\n      revert\n        /* \"@openzeppelin/contracts/access/Ownable.sol\":2623:2714  if (newOwner == address(0)) {... */\n    tag_164:\n        /* \"@openzeppelin/contracts/access/Ownable.sol\":2723:2751  _transferOwnership(newOwner) */\n      tag_166\n        /* \"@openzeppelin/contracts/access/Ownable.sol\":2742:2750  newOwner */\n      dup2\n        /* \"@openzeppelin/contracts/access/Ownable.sol\":2723:2741  _transferOwnership */\n      tag_85\n        /* \"@openzeppelin/contracts/access/Ownable.sol\":2723:2751  _transferOwnership(newOwner) */\n      jump\t// in\n    tag_166:\n        /* \"@openzeppelin/contracts/access/Ownable.sol\":2543:2758  function transferOwnership(address newOwner) public virtual onlyOwner {... */\n      pop\n      jump\t// out\n        /* \"@openzeppelin/contracts/access/Ownable.sol\":1796:1958  function _checkOwner() internal view virtual {... */\n    tag_82:\n        /* \"@openzeppelin/contracts/access/Ownable.sol\":1866:1878  _msgSender() */\n      tag_168\n        /* \"@openzeppelin/contracts/access/Ownable.sol\":1866:1876  _msgSender */\n      tag_169\n        /* \"@openzeppelin/contracts/access/Ownable.sol\":1866:1878  _msgSender() */\n      jump\t// in\n    tag_168:\n        /* \"@openzeppelin/contracts/access/Ownable.sol\":1855:1878  owner() != _msgSender() */\n      0xffffffffffffffffffffffffffffffffffffffff\n      and\n        /* \"@openzeppelin/contracts/access/Ownable.sol\":1855:1862  owner() */\n      tag_170\n        /* \"@openzeppelin/contracts/access/Ownable.sol\":1855:1860  owner */\n      tag_36\n        /* \"@openzeppelin/contracts/access/Ownable.sol\":1855:1862  owner() */\n      jump\t// in\n    tag_170:\n        /* \"@openzeppelin/contracts/access/Ownable.sol\":1855:1878  owner() != _msgSender() */\n      0xffffffffffffffffffffffffffffffffffffffff\n      and\n      eq\n        /* \"@openzeppelin/contracts/access/Ownable.sol\":1851:1952  if (owner() != _msgSender()) {... */\n      tag_171\n      jumpi\n        /* \"@openzeppelin/contracts/access/Ownable.sol\":1928:1940  _msgSender() */\n      tag_172\n        /* \"@openzeppelin/contracts/access/Ownable.sol\":1928:1938  _msgSender */\n      tag_169\n        /* \"@openzeppelin/contracts/access/Ownable.sol\":1928:1940  _msgSender() */\n      jump\t// in\n    tag_172:\n        /* \"@openzeppelin/contracts/access/Ownable.sol\":1901:1941  OwnableUnauthorizedAccount(_msgSender()) */\n      mload(0x40)\n      0x118cdaa700000000000000000000000000000000000000000000000000000000\n      dup2\n      mstore\n      0x04\n      add\n      tag_173\n      swap2\n      swap1\n      tag_38\n      jump\t// in\n    tag_173:\n      mload(0x40)\n      dup1\n      swap2\n      sub\n      swap1\n      revert\n        /* \"@openzeppelin/contracts/access/Ownable.sol\":1851:1952  if (owner() != _msgSender()) {... */\n    tag_171:\n        /* \"@openzeppelin/contracts/access/Ownable.sol\":1796:1958  function _checkOwner() internal view virtual {... */\n      jump\t// out\n        /* \"@openzeppelin/contracts/access/Ownable.sol\":2912:3099  function _transferOwnership(address newOwner) internal virtual {... */\n    tag_85:\n        /* \"@openzeppelin/contracts/access/Ownable.sol\":2985:3001  address oldOwner */\n      0x00\n        /* \"@openzeppelin/contracts/access/Ownable.sol\":3004:3010  _owner */\n      dup1\n      0x00\n      swap1\n      sload\n      swap1\n      0x0100\n      exp\n      swap1\n      div\n      0xffffffffffffffffffffffffffffffffffffffff\n      and\n        /* \"@openzeppelin/contracts/access/Ownable.sol\":2985:3010  address oldOwner = _owner */\n      swap1\n      pop\n        /* \"@openzeppelin/contracts/access/Ownable.sol\":3029:3037  newOwner */\n      dup2\n        /* \"@openzeppelin/contracts/access/Ownable.sol\":3020:3026  _owner */\n      0x00\n      dup1\n        /* \"@openzeppelin/contracts/access/Ownable.sol\":3020:3037  _owner = newOwner */\n      0x0100\n      exp\n      dup2\n      sload\n      dup2\n      0xffffffffffffffffffffffffffffffffffffffff\n      mul\n      not\n      and\n      swap1\n      dup4\n      0xffffffffffffffffffffffffffffffffffffffff\n      and\n      mul\n      or\n      swap1\n      sstore\n      pop\n        /* \"@openzeppelin/contracts/access/Ownable.sol\":3083:3091  newOwner */\n      dup2\n        /* \"@openzeppelin/contracts/access/Ownable.sol\":3052:3092  OwnershipTransferred(oldOwner, newOwner) */\n      0xffffffffffffffffffffffffffffffffffffffff\n      and\n        /* \"@openzeppelin/contracts/access/Ownable.sol\":3073:3081  oldOwner */\n      dup2\n        /* \"@openzeppelin/contracts/access/Ownable.sol\":3052:3092  OwnershipTransferred(oldOwner, newOwner) */\n      0xffffffffffffffffffffffffffffffffffffffff\n      and\n      0x8be0079c531659141344cd1fd0a4f28419497f9722a3daafe3b4186f6b6457e0\n      mload(0x40)\n      mload(0x40)\n      dup1\n      swap2\n      sub\n      swap1\n      log3\n        /* \"@openzeppelin/contracts/access/Ownable.sol\":2975:3099  {... */\n      pop\n        /* \"@openzeppelin/contracts/access/Ownable.sol\":2912:3099  function _transferOwnership(address newOwner) internal virtual {... */\n      pop\n      jump\t// out\n        /* \"@openzeppelin/contracts/utils/Context.sol\":656:752  function _msgSender() internal view virtual returns (address) {... */\n    tag_169:\n        /* \"@openzeppelin/contracts/utils/Context.sol\":709:716  address */\n      0x00\n        /* \"@openzeppelin/contracts/utils/Context.sol\":735:745  msg.sender */\n      caller\n        /* \"@openzeppelin/contracts/utils/Context.sol\":728:745  return msg.sender */\n      swap1\n      pop\n        /* \"@openzeppelin/contracts/utils/Context.sol\":656:752  function _msgSender() internal view virtual returns (address) {... */\n      swap1\n      jump\t// out\n    tag_148:\n      mload(0x40)\n      dup1\n      0xa0\n      add\n      0x40\n      mstore\n      dup1\n      and(0xffffffffffffffffffffffffffffffffffffffff, 0x00)\n      dup2\n      mstore\n      0x20\n      add\n      0x00\n      dup2\n      mstore\n      0x20\n      add\n      0x60\n      dup2\n      mstore\n      0x20\n      add\n      0x00\n      dup2\n      mstore\n      0x20\n      add\n      0x00\n      0x04\n      dup2\n      gt\n      iszero\n      tag_176\n      jumpi\n      tag_177\n      tag_74\n      jump\t// in\n    tag_177:\n    tag_176:\n      dup2\n      mstore\n      pop\n      swap1\n      jump\t// out\n        /* \"#utility.yul\":7:82   */\n    tag_178:\n        /* \"#utility.yul\":40:46   */\n      0x00\n        /* \"#utility.yul\":73:75   */\n      0x40\n        /* \"#utility.yul\":67:76   */\n      mload\n        /* \"#utility.yul\":57:76   */\n      swap1\n      pop\n        /* \"#utility.yul\":7:82   */\n      swap1\n      jump\t// out\n        /* \"#utility.yul\":88:205   */\n    tag_179:\n        /* \"#utility.yul\":197:198   */\n      0x00\n        /* \"#utility.yul\":194:195   */\n      dup1\n        /* \"#utility.yul\":187:199   */\n      revert\n        /* \"#utility.yul\":211:328   */\n    tag_180:\n        /* \"#utility.yul\":320:321   */\n      0x00\n        /* \"#utility.yul\":317:318   */\n      dup1\n        /* \"#utility.yul\":310:322   */\n      revert\n        /* \"#utility.yul\":334:411   */\n    tag_181:\n        /* \"#utility.yul\":371:378   */\n      0x00\n        /* \"#utility.yul\":400:405   */\n      dup2\n        /* \"#utility.yul\":389:405   */\n      swap1\n      pop\n        /* \"#utility.yul\":334:411   */\n      swap2\n      swap1\n      pop\n      jump\t// out\n        /* \"#utility.yul\":417:539   */\n    tag_182:\n        /* \"#utility.yul\":490:514   */\n      tag_259\n        /* \"#utility.yul\":508:513   */\n      dup2\n        /* \"#utility.yul\":490:514   */\n      tag_181\n      jump\t// in\n    tag_259:\n        /* \"#utility.yul\":483:488   */\n      dup2\n        /* \"#utility.yul\":480:515   */\n      eq\n        /* \"#utility.yul\":470:533   */\n      tag_260\n      jumpi\n        /* \"#utility.yul\":529:530   */\n      0x00\n        /* \"#utility.yul\":526:527   */\n      dup1\n        /* \"#utility.yul\":519:531   */\n      revert\n        /* \"#utility.yul\":470:533   */\n    tag_260:\n        /* \"#utility.yul\":417:539   */\n      pop\n      jump\t// out\n        /* \"#utility.yul\":545:684   */\n    tag_183:\n        /* \"#utility.yul\":591:596   */\n      0x00\n        /* \"#utility.yul\":629:635   */\n      dup2\n        /* \"#utility.yul\":616:636   */\n      calldataload\n        /* \"#utility.yul\":607:636   */\n      swap1\n      pop\n        /* \"#utility.yul\":645:678   */\n      tag_262\n        /* \"#utility.yul\":672:677   */\n      dup2\n        /* \"#utility.yul\":645:678   */\n      tag_182\n      jump\t// in\n    tag_262:\n        /* \"#utility.yul\":545:684   */\n      swap3\n      swap2\n      pop\n      pop\n      jump\t// out\n        /* \"#utility.yul\":690:807   */\n    tag_184:\n        /* \"#utility.yul\":799:800   */\n      0x00\n        /* \"#utility.yul\":796:797   */\n      dup1\n        /* \"#utility.yul\":789:801   */\n      revert\n        /* \"#utility.yul\":813:930   */\n    tag_185:\n        /* \"#utility.yul\":922:923   */\n      0x00\n        /* \"#utility.yul\":919:920   */\n      dup1\n        /* \"#utility.yul\":912:924   */\n      revert\n        /* \"#utility.yul\":936:1038   */\n    tag_186:\n        /* \"#utility.yul\":977:983   */\n      0x00\n        /* \"#utility.yul\":1028:1030   */\n      0x1f\n        /* \"#utility.yul\":1024:1031   */\n      not\n        /* \"#utility.yul\":1019:1021   */\n      0x1f\n        /* \"#utility.yul\":1012:1017   */\n      dup4\n        /* \"#utility.yul\":1008:1022   */\n      add\n        /* \"#utility.yul\":1004:1032   */\n      and\n        /* \"#utility.yul\":994:1032   */\n      swap1\n      pop\n        /* \"#utility.yul\":936:1038   */\n      swap2\n      swap1\n      pop\n      jump\t// out\n        /* \"#utility.yul\":1044:1224   */\n    tag_110:\n        /* \"#utility.yul\":1092:1169   */\n      0x4e487b7100000000000000000000000000000000000000000000000000000000\n        /* \"#utility.yul\":1089:1090   */\n      0x00\n        /* \"#utility.yul\":1082:1170   */\n      mstore\n        /* \"#utility.yul\":1189:1193   */\n      0x41\n        /* \"#utility.yul\":1186:1187   */\n      0x04\n        /* \"#utility.yul\":1179:1194   */\n      mstore\n        /* \"#utility.yul\":1213:1217   */\n      0x24\n        /* \"#utility.yul\":1210:1211   */\n      0x00\n        /* \"#utility.yul\":1203:1218   */\n      revert\n        /* \"#utility.yul\":1230:1511   */\n    tag_187:\n        /* \"#utility.yul\":1313:1340   */\n      tag_268\n        /* \"#utility.yul\":1335:1339   */\n      dup3\n        /* \"#utility.yul\":1313:1340   */\n      tag_186\n      jump\t// in\n    tag_268:\n        /* \"#utility.yul\":1305:1311   */\n      dup2\n        /* \"#utility.yul\":1301:1341   */\n      add\n        /* \"#utility.yul\":1443:1449   */\n      dup2\n        /* \"#utility.yul\":1431:1441   */\n      dup2\n        /* \"#utility.yul\":1428:1450   */\n      lt\n        /* \"#utility.yul\":1407:1425   */\n      0xffffffffffffffff\n        /* \"#utility.yul\":1395:1405   */\n      dup3\n        /* \"#utility.yul\":1392:1426   */\n      gt\n        /* \"#utility.yul\":1389:1451   */\n      or\n        /* \"#utility.yul\":1386:1474   */\n      iszero\n      tag_269\n      jumpi\n        /* \"#utility.yul\":1454:1472   */\n      tag_270\n      tag_110\n      jump\t// in\n    tag_270:\n        /* \"#utility.yul\":1386:1474   */\n    tag_269:\n        /* \"#utility.yul\":1494:1504   */\n      dup1\n        /* \"#utility.yul\":1490:1492   */\n      0x40\n        /* \"#utility.yul\":1483:1505   */\n      mstore\n        /* \"#utility.yul\":1273:1511   */\n      pop\n        /* \"#utility.yul\":1230:1511   */\n      pop\n      pop\n      jump\t// out\n        /* \"#utility.yul\":1517:1646   */\n    tag_188:\n        /* \"#utility.yul\":1551:1557   */\n      0x00\n        /* \"#utility.yul\":1578:1598   */\n      tag_272\n      tag_178\n      jump\t// in\n    tag_272:\n        /* \"#utility.yul\":1568:1598   */\n      swap1\n      pop\n        /* \"#utility.yul\":1607:1640   */\n      tag_273\n        /* \"#utility.yul\":1635:1639   */\n      dup3\n        /* \"#utility.yul\":1627:1633   */\n      dup3\n        /* \"#utility.yul\":1607:1640   */\n      tag_187\n      jump\t// in\n    tag_273:\n        /* \"#utility.yul\":1517:1646   */\n      swap2\n      swap1\n      pop\n      jump\t// out\n        /* \"#utility.yul\":1652:1960   */\n    tag_189:\n        /* \"#utility.yul\":1714:1718   */\n      0x00\n        /* \"#utility.yul\":1804:1822   */\n      0xffffffffffffffff\n        /* \"#utility.yul\":1796:1802   */\n      dup3\n        /* \"#utility.yul\":1793:1823   */\n      gt\n        /* \"#utility.yul\":1790:1846   */\n      iszero\n      tag_275\n      jumpi\n        /* \"#utility.yul\":1826:1844   */\n      tag_276\n      tag_110\n      jump\t// in\n    tag_276:\n        /* \"#utility.yul\":1790:1846   */\n    tag_275:\n        /* \"#utility.yul\":1864:1893   */\n      tag_277\n        /* \"#utility.yul\":1886:1892   */\n      dup3\n        /* \"#utility.yul\":1864:1893   */\n      tag_186\n      jump\t// in\n    tag_277:\n        /* \"#utility.yul\":1856:1893   */\n      swap1\n      pop\n        /* \"#utility.yul\":1948:1952   */\n      0x20\n        /* \"#utility.yul\":1942:1946   */\n      dup2\n        /* \"#utility.yul\":1938:1953   */\n      add\n        /* \"#utility.yul\":1930:1953   */\n      swap1\n      pop\n        /* \"#utility.yul\":1652:1960   */\n      swap2\n      swap1\n      pop\n      jump\t// out\n        /* \"#utility.yul\":1966:2114   */\n    tag_190:\n        /* \"#utility.yul\":2064:2070   */\n      dup3\n        /* \"#utility.yul\":2059:2062   */\n      dup2\n        /* \"#utility.yul\":2054:2057   */\n      dup4\n        /* \"#utility.yul\":2041:2071   */\n      calldatacopy\n        /* \"#utility.yul\":2105:2106   */\n      0x00\n        /* \"#utility.yul\":2096:2102   */\n      dup4\n        /* \"#utility.yul\":2091:2094   */\n      dup4\n        /* \"#utility.yul\":2087:2103   */\n      add\n        /* \"#utility.yul\":2080:2107   */\n      mstore\n        /* \"#utility.yul\":1966:2114   */\n      pop\n      pop\n      pop\n      jump\t// out\n        /* \"#utility.yul\":2120:2545   */\n    tag_191:\n        /* \"#utility.yul\":2198:2203   */\n      0x00\n        /* \"#utility.yul\":2223:2289   */\n      tag_280\n        /* \"#utility.yul\":2239:2288   */\n      tag_281\n        /* \"#utility.yul\":2281:2287   */\n      dup5\n        /* \"#utility.yul\":2239:2288   */\n      tag_189\n      jump\t// in\n    tag_281:\n        /* \"#utility.yul\":2223:2289   */\n      tag_188\n      jump\t// in\n    tag_280:\n        /* \"#utility.yul\":2214:2289   */\n      swap1\n      pop\n        /* \"#utility.yul\":2312:2318   */\n      dup3\n        /* \"#utility.yul\":2305:2310   */\n      dup2\n        /* \"#utility.yul\":2298:2319   */\n      mstore\n        /* \"#utility.yul\":2350:2354   */\n      0x20\n        /* \"#utility.yul\":2343:2348   */\n      dup2\n        /* \"#utility.yul\":2339:2355   */\n      add\n        /* \"#utility.yul\":2388:2391   */\n      dup5\n        /* \"#utility.yul\":2379:2385   */\n      dup5\n        /* \"#utility.yul\":2374:2377   */\n      dup5\n        /* \"#utility.yul\":2370:2386   */\n      add\n        /* \"#utility.yul\":2367:2392   */\n      gt\n        /* \"#utility.yul\":2364:2476   */\n      iszero\n      tag_282\n      jumpi\n        /* \"#utility.yul\":2395:2474   */\n      tag_283\n      tag_185\n      jump\t// in\n    tag_283:\n        /* \"#utility.yul\":2364:2476   */\n    tag_282:\n        /* \"#utility.yul\":2485:2539   */\n      tag_284\n        /* \"#utility.yul\":2532:2538   */\n      dup5\n        /* \"#utility.yul\":2527:2530   */\n      dup3\n        /* \"#utility.yul\":2522:2525   */\n      dup6\n        /* \"#utility.yul\":2485:2539   */\n      tag_190\n      jump\t// in\n    tag_284:\n        /* \"#utility.yul\":2204:2545   */\n      pop\n        /* \"#utility.yul\":2120:2545   */\n      swap4\n      swap3\n      pop\n      pop\n      pop\n      jump\t// out\n        /* \"#utility.yul\":2565:2905   */\n    tag_192:\n        /* \"#utility.yul\":2621:2626   */\n      0x00\n        /* \"#utility.yul\":2670:2673   */\n      dup3\n        /* \"#utility.yul\":2663:2667   */\n      0x1f\n        /* \"#utility.yul\":2655:2661   */\n      dup4\n        /* \"#utility.yul\":2651:2668   */\n      add\n        /* \"#utility.yul\":2647:2674   */\n      slt\n        /* \"#utility.yul\":2637:2759   */\n      tag_286\n      jumpi\n        /* \"#utility.yul\":2678:2757   */\n      tag_287\n      tag_184\n      jump\t// in\n    tag_287:\n        /* \"#utility.yul\":2637:2759   */\n    tag_286:\n        /* \"#utility.yul\":2795:2801   */\n      dup2\n        /* \"#utility.yul\":2782:2802   */\n      calldataload\n        /* \"#utility.yul\":2820:2899   */\n      tag_288\n        /* \"#utility.yul\":2895:2898   */\n      dup5\n        /* \"#utility.yul\":2887:2893   */\n      dup3\n        /* \"#utility.yul\":2880:2884   */\n      0x20\n        /* \"#utility.yul\":2872:2878   */\n      dup7\n        /* \"#utility.yul\":2868:2885   */\n      add\n        /* \"#utility.yul\":2820:2899   */\n      tag_191\n      jump\t// in\n    tag_288:\n        /* \"#utility.yul\":2811:2899   */\n      swap2\n      pop\n        /* \"#utility.yul\":2627:2905   */\n      pop\n        /* \"#utility.yul\":2565:2905   */\n      swap3\n      swap2\n      pop\n      pop\n      jump\t// out\n        /* \"#utility.yul\":2911:3565   */\n    tag_17:\n        /* \"#utility.yul\":2989:2995   */\n      0x00\n        /* \"#utility.yul\":2997:3003   */\n      dup1\n        /* \"#utility.yul\":3046:3048   */\n      0x40\n        /* \"#utility.yul\":3034:3043   */\n      dup4\n        /* \"#utility.yul\":3025:3032   */\n      dup6\n        /* \"#utility.yul\":3021:3044   */\n      sub\n        /* \"#utility.yul\":3017:3049   */\n      slt\n        /* \"#utility.yul\":3014:3133   */\n      iszero\n      tag_290\n      jumpi\n        /* \"#utility.yul\":3052:3131   */\n      tag_291\n      tag_179\n      jump\t// in\n    tag_291:\n        /* \"#utility.yul\":3014:3133   */\n    tag_290:\n        /* \"#utility.yul\":3172:3173   */\n      0x00\n        /* \"#utility.yul\":3197:3250   */\n      tag_292\n        /* \"#utility.yul\":3242:3249   */\n      dup6\n        /* \"#utility.yul\":3233:3239   */\n      dup3\n        /* \"#utility.yul\":3222:3231   */\n      dup7\n        /* \"#utility.yul\":3218:3240   */\n      add\n        /* \"#utility.yul\":3197:3250   */\n      tag_183\n      jump\t// in\n    tag_292:\n        /* \"#utility.yul\":3187:3250   */\n      swap3\n      pop\n        /* \"#utility.yul\":3143:3260   */\n      pop\n        /* \"#utility.yul\":3327:3329   */\n      0x20\n        /* \"#utility.yul\":3316:3325   */\n      dup4\n        /* \"#utility.yul\":3312:3330   */\n      add\n        /* \"#utility.yul\":3299:3331   */\n      calldataload\n        /* \"#utility.yul\":3358:3376   */\n      0xffffffffffffffff\n        /* \"#utility.yul\":3350:3356   */\n      dup2\n        /* \"#utility.yul\":3347:3377   */\n      gt\n        /* \"#utility.yul\":3344:3461   */\n      iszero\n      tag_293\n      jumpi\n        /* \"#utility.yul\":3380:3459   */\n      tag_294\n      tag_180\n      jump\t// in\n    tag_294:\n        /* \"#utility.yul\":3344:3461   */\n    tag_293:\n        /* \"#utility.yul\":3485:3548   */\n      tag_295\n        /* \"#utility.yul\":3540:3547   */\n      dup6\n        /* \"#utility.yul\":3531:3537   */\n      dup3\n        /* \"#utility.yul\":3520:3529   */\n      dup7\n        /* \"#utility.yul\":3516:3538   */\n      add\n        /* \"#utility.yul\":3485:3548   */\n      tag_192\n      jump\t// in\n    tag_295:\n        /* \"#utility.yul\":3475:3548   */\n      swap2\n      pop\n        /* \"#utility.yul\":3270:3558   */\n      pop\n        /* \"#utility.yul\":2911:3565   */\n      swap3\n      pop\n      swap3\n      swap1\n      pop\n      jump\t// out\n        /* \"#utility.yul\":3571:3900   */\n    tag_23:\n        /* \"#utility.yul\":3630:3636   */\n      0x00\n        /* \"#utility.yul\":3679:3681   */\n      0x20\n        /* \"#utility.yul\":3667:3676   */\n      dup3\n        /* \"#utility.yul\":3658:3665   */\n      dup5\n        /* \"#utility.yul\":3654:3677   */\n      sub\n        /* \"#utility.yul\":3650:3682   */\n      slt\n        /* \"#utility.yul\":3647:3766   */\n      iszero\n      tag_297\n      jumpi\n        /* \"#utility.yul\":3685:3764   */\n      tag_298\n      tag_179\n      jump\t// in\n    tag_298:\n        /* \"#utility.yul\":3647:3766   */\n    tag_297:\n        /* \"#utility.yul\":3805:3806   */\n      0x00\n        /* \"#utility.yul\":3830:3883   */\n      tag_299\n        /* \"#utility.yul\":3875:3882   */\n      dup5\n        /* \"#utility.yul\":3866:3872   */\n      dup3\n        /* \"#utility.yul\":3855:3864   */\n      dup6\n        /* \"#utility.yul\":3851:3873   */\n      add\n        /* \"#utility.yul\":3830:3883   */\n      tag_183\n      jump\t// in\n    tag_299:\n        /* \"#utility.yul\":3820:3883   */\n      swap2\n      pop\n        /* \"#utility.yul\":3776:3893   */\n      pop\n        /* \"#utility.yul\":3571:3900   */\n      swap3\n      swap2\n      pop\n      pop\n      jump\t// out\n        /* \"#utility.yul\":3906:4020   */\n    tag_193:\n        /* \"#utility.yul\":3994:3995   */\n      0x05\n        /* \"#utility.yul\":3987:3992   */\n      dup2\n        /* \"#utility.yul\":3984:3996   */\n      lt\n        /* \"#utility.yul\":3974:4014   */\n      tag_301\n      jumpi\n        /* \"#utility.yul\":4010:4011   */\n      0x00\n        /* \"#utility.yul\":4007:4008   */\n      dup1\n        /* \"#utility.yul\":4000:4012   */\n      revert\n        /* \"#utility.yul\":3974:4014   */\n    tag_301:\n        /* \"#utility.yul\":3906:4020   */\n      pop\n      jump\t// out\n        /* \"#utility.yul\":4026:4195   */\n    tag_194:\n        /* \"#utility.yul\":4087:4092   */\n      0x00\n        /* \"#utility.yul\":4125:4131   */\n      dup2\n        /* \"#utility.yul\":4112:4132   */\n      calldataload\n        /* \"#utility.yul\":4103:4132   */\n      swap1\n      pop\n        /* \"#utility.yul\":4141:4189   */\n      tag_303\n        /* \"#utility.yul\":4183:4188   */\n      dup2\n        /* \"#utility.yul\":4141:4189   */\n      tag_193\n      jump\t// in\n    tag_303:\n        /* \"#utility.yul\":4026:4195   */\n      swap3\n      swap2\n      pop\n      pop\n      jump\t// out\n        /* \"#utility.yul\":4201:4560   */\n    tag_27:\n        /* \"#utility.yul\":4275:4281   */\n      0x00\n        /* \"#utility.yul\":4324:4326   */\n      0x20\n        /* \"#utility.yul\":4312:4321   */\n      dup3\n        /* \"#utility.yul\":4303:4310   */\n      dup5\n        /* \"#utility.yul\":4299:4322   */\n      sub\n        /* \"#utility.yul\":4295:4327   */\n      slt\n        /* \"#utility.yul\":4292:4411   */\n      iszero\n      tag_305\n      jumpi\n        /* \"#utility.yul\":4330:4409   */\n      tag_306\n      tag_179\n      jump\t// in\n    tag_306:\n        /* \"#utility.yul\":4292:4411   */\n    tag_305:\n        /* \"#utility.yul\":4450:4451   */\n      0x00\n        /* \"#utility.yul\":4475:4543   */\n      tag_307\n        /* \"#utility.yul\":4535:4542   */\n      dup5\n        /* \"#utility.yul\":4526:4532   */\n      dup3\n        /* \"#utility.yul\":4515:4524   */\n      dup6\n        /* \"#utility.yul\":4511:4533   */\n      add\n        /* \"#utility.yul\":4475:4543   */\n      tag_194\n      jump\t// in\n    tag_307:\n        /* \"#utility.yul\":4465:4543   */\n      swap2\n      pop\n        /* \"#utility.yul\":4421:4553   */\n      pop\n        /* \"#utility.yul\":4201:4560   */\n      swap3\n      swap2\n      pop\n      pop\n      jump\t// out\n        /* \"#utility.yul\":4566:4680   */\n    tag_195:\n        /* \"#utility.yul\":4633:4639   */\n      0x00\n        /* \"#utility.yul\":4667:4672   */\n      dup2\n        /* \"#utility.yul\":4661:4673   */\n      mload\n        /* \"#utility.yul\":4651:4673   */\n      swap1\n      pop\n        /* \"#utility.yul\":4566:4680   */\n      swap2\n      swap1\n      pop\n      jump\t// out\n        /* \"#utility.yul\":4686:4870   */\n    tag_196:\n        /* \"#utility.yul\":4785:4796   */\n      0x00\n        /* \"#utility.yul\":4819:4825   */\n      dup3\n        /* \"#utility.yul\":4814:4817   */\n      dup3\n        /* \"#utility.yul\":4807:4826   */\n      mstore\n        /* \"#utility.yul\":4859:4863   */\n      0x20\n        /* \"#utility.yul\":4854:4857   */\n      dup3\n        /* \"#utility.yul\":4850:4864   */\n      add\n        /* \"#utility.yul\":4835:4864   */\n      swap1\n      pop\n        /* \"#utility.yul\":4686:4870   */\n      swap3\n      swap2\n      pop\n      pop\n      jump\t// out\n        /* \"#utility.yul\":4876:5008   */\n    tag_197:\n        /* \"#utility.yul\":4943:4947   */\n      0x00\n        /* \"#utility.yul\":4966:4969   */\n      dup2\n        /* \"#utility.yul\":4958:4969   */\n      swap1\n      pop\n        /* \"#utility.yul\":4996:5000   */\n      0x20\n        /* \"#utility.yul\":4991:4994   */\n      dup3\n        /* \"#utility.yul\":4987:5001   */\n      add\n        /* \"#utility.yul\":4979:5001   */\n      swap1\n      pop\n        /* \"#utility.yul\":4876:5008   */\n      swap2\n      swap1\n      pop\n      jump\t// out\n        /* \"#utility.yul\":5014:5122   */\n    tag_198:\n        /* \"#utility.yul\":5091:5115   */\n      tag_312\n        /* \"#utility.yul\":5109:5114   */\n      dup2\n        /* \"#utility.yul\":5091:5115   */\n      tag_181\n      jump\t// in\n    tag_312:\n        /* \"#utility.yul\":5086:5089   */\n      dup3\n        /* \"#utility.yul\":5079:5116   */\n      mstore\n        /* \"#utility.yul\":5014:5122   */\n      pop\n      pop\n      jump\t// out\n        /* \"#utility.yul\":5128:5307   */\n    tag_199:\n        /* \"#utility.yul\":5197:5207   */\n      0x00\n        /* \"#utility.yul\":5218:5264   */\n      tag_314\n        /* \"#utility.yul\":5260:5263   */\n      dup4\n        /* \"#utility.yul\":5252:5258   */\n      dup4\n        /* \"#utility.yul\":5218:5264   */\n      tag_198\n      jump\t// in\n    tag_314:\n        /* \"#utility.yul\":5296:5300   */\n      0x20\n        /* \"#utility.yul\":5291:5294   */\n      dup4\n        /* \"#utility.yul\":5287:5301   */\n      add\n        /* \"#utility.yul\":5273:5301   */\n      swap1\n      pop\n        /* \"#utility.yul\":5128:5307   */\n      swap3\n      swap2\n      pop\n      pop\n      jump\t// out\n        /* \"#utility.yul\":5313:5426   */\n    tag_200:\n        /* \"#utility.yul\":5383:5387   */\n      0x00\n        /* \"#utility.yul\":5415:5419   */\n      0x20\n        /* \"#utility.yul\":5410:5413   */\n      dup3\n        /* \"#utility.yul\":5406:5420   */\n      add\n        /* \"#utility.yul\":5398:5420   */\n      swap1\n      pop\n        /* \"#utility.yul\":5313:5426   */\n      swap2\n      swap1\n      pop\n      jump\t// out\n        /* \"#utility.yul\":5462:6194   */\n    tag_201:\n        /* \"#utility.yul\":5581:5584   */\n      0x00\n        /* \"#utility.yul\":5610:5664   */\n      tag_317\n        /* \"#utility.yul\":5658:5663   */\n      dup3\n        /* \"#utility.yul\":5610:5664   */\n      tag_195\n      jump\t// in\n    tag_317:\n        /* \"#utility.yul\":5680:5766   */\n      tag_318\n        /* \"#utility.yul\":5759:5765   */\n      dup2\n        /* \"#utility.yul\":5754:5757   */\n      dup6\n        /* \"#utility.yul\":5680:5766   */\n      tag_196\n      jump\t// in\n    tag_318:\n        /* \"#utility.yul\":5673:5766   */\n      swap4\n      pop\n        /* \"#utility.yul\":5790:5846   */\n      tag_319\n        /* \"#utility.yul\":5840:5845   */\n      dup4\n        /* \"#utility.yul\":5790:5846   */\n      tag_197\n      jump\t// in\n    tag_319:\n        /* \"#utility.yul\":5869:5876   */\n      dup1\n        /* \"#utility.yul\":5900:5901   */\n      0x00\n        /* \"#utility.yul\":5885:6169   */\n    tag_320:\n        /* \"#utility.yul\":5910:5916   */\n      dup4\n        /* \"#utility.yul\":5907:5908   */\n      dup2\n        /* \"#utility.yul\":5904:5917   */\n      lt\n        /* \"#utility.yul\":5885:6169   */\n      iszero\n      tag_322\n      jumpi\n        /* \"#utility.yul\":5986:5992   */\n      dup2\n        /* \"#utility.yul\":5980:5993   */\n      mload\n        /* \"#utility.yul\":6013:6076   */\n      tag_323\n        /* \"#utility.yul\":6072:6075   */\n      dup9\n        /* \"#utility.yul\":6057:6070   */\n      dup3\n        /* \"#utility.yul\":6013:6076   */\n      tag_199\n      jump\t// in\n    tag_323:\n        /* \"#utility.yul\":6006:6076   */\n      swap8\n      pop\n        /* \"#utility.yul\":6099:6159   */\n      tag_324\n        /* \"#utility.yul\":6152:6158   */\n      dup4\n        /* \"#utility.yul\":6099:6159   */\n      tag_200\n      jump\t// in\n    tag_324:\n        /* \"#utility.yul\":6089:6159   */\n      swap3\n      pop\n        /* \"#utility.yul\":5945:6169   */\n      pop\n        /* \"#utility.yul\":5932:5933   */\n      0x01\n        /* \"#utility.yul\":5929:5930   */\n      dup2\n        /* \"#utility.yul\":5925:5934   */\n      add\n        /* \"#utility.yul\":5920:5934   */\n      swap1\n      pop\n        /* \"#utility.yul\":5885:6169   */\n      jump(tag_320)\n    tag_322:\n        /* \"#utility.yul\":5889:5903   */\n      pop\n        /* \"#utility.yul\":6185:6188   */\n      dup6\n        /* \"#utility.yul\":6178:6188   */\n      swap4\n      pop\n        /* \"#utility.yul\":5586:6194   */\n      pop\n      pop\n      pop\n        /* \"#utility.yul\":5462:6194   */\n      swap3\n      swap2\n      pop\n      pop\n      jump\t// out\n        /* \"#utility.yul\":6200:6573   */\n    tag_30:\n        /* \"#utility.yul\":6343:6347   */\n      0x00\n        /* \"#utility.yul\":6381:6383   */\n      0x20\n        /* \"#utility.yul\":6370:6379   */\n      dup3\n        /* \"#utility.yul\":6366:6384   */\n      add\n        /* \"#utility.yul\":6358:6384   */\n      swap1\n      pop\n        /* \"#utility.yul\":6430:6439   */\n      dup2\n        /* \"#utility.yul\":6424:6428   */\n      dup2\n        /* \"#utility.yul\":6420:6440   */\n      sub\n        /* \"#utility.yul\":6416:6417   */\n      0x00\n        /* \"#utility.yul\":6405:6414   */\n      dup4\n        /* \"#utility.yul\":6401:6418   */\n      add\n        /* \"#utility.yul\":6394:6441   */\n      mstore\n        /* \"#utility.yul\":6458:6566   */\n      tag_326\n        /* \"#utility.yul\":6561:6565   */\n      dup2\n        /* \"#utility.yul\":6552:6558   */\n      dup5\n        /* \"#utility.yul\":6458:6566   */\n      tag_201\n      jump\t// in\n    tag_326:\n        /* \"#utility.yul\":6450:6566   */\n      swap1\n      pop\n        /* \"#utility.yul\":6200:6573   */\n      swap3\n      swap2\n      pop\n      pop\n      jump\t// out\n        /* \"#utility.yul\":6579:6697   */\n    tag_202:\n        /* \"#utility.yul\":6666:6690   */\n      tag_328\n        /* \"#utility.yul\":6684:6689   */\n      dup2\n        /* \"#utility.yul\":6666:6690   */\n      tag_181\n      jump\t// in\n    tag_328:\n        /* \"#utility.yul\":6661:6664   */\n      dup3\n        /* \"#utility.yul\":6654:6691   */\n      mstore\n        /* \"#utility.yul\":6579:6697   */\n      pop\n      pop\n      jump\t// out\n        /* \"#utility.yul\":6703:6925   */\n    tag_34:\n        /* \"#utility.yul\":6796:6800   */\n      0x00\n        /* \"#utility.yul\":6834:6836   */\n      0x20\n        /* \"#utility.yul\":6823:6832   */\n      dup3\n        /* \"#utility.yul\":6819:6837   */\n      add\n        /* \"#utility.yul\":6811:6837   */\n      swap1\n      pop\n        /* \"#utility.yul\":6847:6918   */\n      tag_330\n        /* \"#utility.yul\":6915:6916   */\n      0x00\n        /* \"#utility.yul\":6904:6913   */\n      dup4\n        /* \"#utility.yul\":6900:6917   */\n      add\n        /* \"#utility.yul\":6891:6897   */\n      dup5\n        /* \"#utility.yul\":6847:6918   */\n      tag_202\n      jump\t// in\n    tag_330:\n        /* \"#utility.yul\":6703:6925   */\n      swap3\n      swap2\n      pop\n      pop\n      jump\t// out\n        /* \"#utility.yul\":6931:7057   */\n    tag_203:\n        /* \"#utility.yul\":6968:6975   */\n      0x00\n        /* \"#utility.yul\":7008:7050   */\n      0xffffffffffffffffffffffffffffffffffffffff\n        /* \"#utility.yul\":7001:7006   */\n      dup3\n        /* \"#utility.yul\":6997:7051   */\n      and\n        /* \"#utility.yul\":6986:7051   */\n      swap1\n      pop\n        /* \"#utility.yul\":6931:7057   */\n      swap2\n      swap1\n      pop\n      jump\t// out\n        /* \"#utility.yul\":7063:7159   */\n    tag_204:\n        /* \"#utility.yul\":7100:7107   */\n      0x00\n        /* \"#utility.yul\":7129:7153   */\n      tag_333\n        /* \"#utility.yul\":7147:7152   */\n      dup3\n        /* \"#utility.yul\":7129:7153   */\n      tag_203\n      jump\t// in\n    tag_333:\n        /* \"#utility.yul\":7118:7153   */\n      swap1\n      pop\n        /* \"#utility.yul\":7063:7159   */\n      swap2\n      swap1\n      pop\n      jump\t// out\n        /* \"#utility.yul\":7165:7283   */\n    tag_205:\n        /* \"#utility.yul\":7252:7276   */\n      tag_335\n        /* \"#utility.yul\":7270:7275   */\n      dup2\n        /* \"#utility.yul\":7252:7276   */\n      tag_204\n      jump\t// in\n    tag_335:\n        /* \"#utility.yul\":7247:7250   */\n      dup3\n        /* \"#utility.yul\":7240:7277   */\n      mstore\n        /* \"#utility.yul\":7165:7283   */\n      pop\n      pop\n      jump\t// out\n        /* \"#utility.yul\":7289:7511   */\n    tag_38:\n        /* \"#utility.yul\":7382:7386   */\n      0x00\n        /* \"#utility.yul\":7420:7422   */\n      0x20\n        /* \"#utility.yul\":7409:7418   */\n      dup3\n        /* \"#utility.yul\":7405:7423   */\n      add\n        /* \"#utility.yul\":7397:7423   */\n      swap1\n      pop\n        /* \"#utility.yul\":7433:7504   */\n      tag_337\n        /* \"#utility.yul\":7501:7502   */\n      0x00\n        /* \"#utility.yul\":7490:7499   */\n      dup4\n        /* \"#utility.yul\":7486:7503   */\n      add\n        /* \"#utility.yul\":7477:7483   */\n      dup5\n        /* \"#utility.yul\":7433:7504   */\n      tag_205\n      jump\t// in\n    tag_337:\n        /* \"#utility.yul\":7289:7511   */\n      swap3\n      swap2\n      pop\n      pop\n      jump\t// out\n        /* \"#utility.yul\":7517:7616   */\n    tag_206:\n        /* \"#utility.yul\":7569:7575   */\n      0x00\n        /* \"#utility.yul\":7603:7608   */\n      dup2\n        /* \"#utility.yul\":7597:7609   */\n      mload\n        /* \"#utility.yul\":7587:7609   */\n      swap1\n      pop\n        /* \"#utility.yul\":7517:7616   */\n      swap2\n      swap1\n      pop\n      jump\t// out\n        /* \"#utility.yul\":7622:7791   */\n    tag_207:\n        /* \"#utility.yul\":7706:7717   */\n      0x00\n        /* \"#utility.yul\":7740:7746   */\n      dup3\n        /* \"#utility.yul\":7735:7738   */\n      dup3\n        /* \"#utility.yul\":7728:7747   */\n      mstore\n        /* \"#utility.yul\":7780:7784   */\n      0x20\n        /* \"#utility.yul\":7775:7778   */\n      dup3\n        /* \"#utility.yul\":7771:7785   */\n      add\n        /* \"#utility.yul\":7756:7785   */\n      swap1\n      pop\n        /* \"#utility.yul\":7622:7791   */\n      swap3\n      swap2\n      pop\n      pop\n      jump\t// out\n        /* \"#utility.yul\":7797:7936   */\n    tag_208:\n        /* \"#utility.yul\":7886:7892   */\n      dup3\n        /* \"#utility.yul\":7881:7884   */\n      dup2\n        /* \"#utility.yul\":7876:7879   */\n      dup4\n        /* \"#utility.yul\":7870:7893   */\n      mcopy\n        /* \"#utility.yul\":7927:7928   */\n      0x00\n        /* \"#utility.yul\":7918:7924   */\n      dup4\n        /* \"#utility.yul\":7913:7916   */\n      dup4\n        /* \"#utility.yul\":7909:7925   */\n      add\n        /* \"#utility.yul\":7902:7929   */\n      mstore\n        /* \"#utility.yul\":7797:7936   */\n      pop\n      pop\n      pop\n      jump\t// out\n        /* \"#utility.yul\":7942:8319   */\n    tag_209:\n        /* \"#utility.yul\":8030:8033   */\n      0x00\n        /* \"#utility.yul\":8058:8097   */\n      tag_342\n        /* \"#utility.yul\":8091:8096   */\n      dup3\n        /* \"#utility.yul\":8058:8097   */\n      tag_206\n      jump\t// in\n    tag_342:\n        /* \"#utility.yul\":8113:8184   */\n      tag_343\n        /* \"#utility.yul\":8177:8183   */\n      dup2\n        /* \"#utility.yul\":8172:8175   */\n      dup6\n        /* \"#utility.yul\":8113:8184   */\n      tag_207\n      jump\t// in\n    tag_343:\n        /* \"#utility.yul\":8106:8184   */\n      swap4\n      pop\n        /* \"#utility.yul\":8193:8258   */\n      tag_344\n        /* \"#utility.yul\":8251:8257   */\n      dup2\n        /* \"#utility.yul\":8246:8249   */\n      dup6\n        /* \"#utility.yul\":8239:8243   */\n      0x20\n        /* \"#utility.yul\":8232:8237   */\n      dup7\n        /* \"#utility.yul\":8228:8244   */\n      add\n        /* \"#utility.yul\":8193:8258   */\n      tag_208\n      jump\t// in\n    tag_344:\n        /* \"#utility.yul\":8283:8312   */\n      tag_345\n        /* \"#utility.yul\":8305:8311   */\n      dup2\n        /* \"#utility.yul\":8283:8312   */\n      tag_186\n      jump\t// in\n    tag_345:\n        /* \"#utility.yul\":8278:8281   */\n      dup5\n        /* \"#utility.yul\":8274:8313   */\n      add\n        /* \"#utility.yul\":8267:8313   */\n      swap2\n      pop\n        /* \"#utility.yul\":8034:8319   */\n      pop\n        /* \"#utility.yul\":7942:8319   */\n      swap3\n      swap2\n      pop\n      pop\n      jump\t// out\n        /* \"#utility.yul\":8325:8505   */\n    tag_74:\n        /* \"#utility.yul\":8373:8450   */\n      0x4e487b7100000000000000000000000000000000000000000000000000000000\n        /* \"#utility.yul\":8370:8371   */\n      0x00\n        /* \"#utility.yul\":8363:8451   */\n      mstore\n        /* \"#utility.yul\":8470:8474   */\n      0x21\n        /* \"#utility.yul\":8467:8468   */\n      0x04\n        /* \"#utility.yul\":8460:8475   */\n      mstore\n        /* \"#utility.yul\":8494:8498   */\n      0x24\n        /* \"#utility.yul\":8491:8492   */\n      0x00\n        /* \"#utility.yul\":8484:8499   */\n      revert\n        /* \"#utility.yul\":8511:8631   */\n    tag_210:\n        /* \"#utility.yul\":8599:8600   */\n      0x05\n        /* \"#utility.yul\":8592:8597   */\n      dup2\n        /* \"#utility.yul\":8589:8601   */\n      lt\n        /* \"#utility.yul\":8579:8625   */\n      tag_348\n      jumpi\n        /* \"#utility.yul\":8605:8623   */\n      tag_349\n      tag_74\n      jump\t// in\n    tag_349:\n        /* \"#utility.yul\":8579:8625   */\n    tag_348:\n        /* \"#utility.yul\":8511:8631   */\n      pop\n      jump\t// out\n        /* \"#utility.yul\":8637:8778   */\n    tag_211:\n        /* \"#utility.yul\":8689:8696   */\n      0x00\n        /* \"#utility.yul\":8718:8723   */\n      dup2\n        /* \"#utility.yul\":8707:8723   */\n      swap1\n      pop\n        /* \"#utility.yul\":8724:8772   */\n      tag_351\n        /* \"#utility.yul\":8766:8771   */\n      dup3\n        /* \"#utility.yul\":8724:8772   */\n      tag_210\n      jump\t// in\n    tag_351:\n        /* \"#utility.yul\":8637:8778   */\n      swap2\n      swap1\n      pop\n      jump\t// out\n        /* \"#utility.yul\":8784:8925   */\n    tag_212:\n        /* \"#utility.yul\":8847:8856   */\n      0x00\n        /* \"#utility.yul\":8880:8919   */\n      tag_353\n        /* \"#utility.yul\":8913:8918   */\n      dup3\n        /* \"#utility.yul\":8880:8919   */\n      tag_211\n      jump\t// in\n    tag_353:\n        /* \"#utility.yul\":8867:8919   */\n      swap1\n      pop\n        /* \"#utility.yul\":8784:8925   */\n      swap2\n      swap1\n      pop\n      jump\t// out\n        /* \"#utility.yul\":8931:9088   */\n    tag_213:\n        /* \"#utility.yul\":9031:9081   */\n      tag_355\n        /* \"#utility.yul\":9075:9080   */\n      dup2\n        /* \"#utility.yul\":9031:9081   */\n      tag_212\n      jump\t// in\n    tag_355:\n        /* \"#utility.yul\":9026:9029   */\n      dup3\n        /* \"#utility.yul\":9019:9082   */\n      mstore\n        /* \"#utility.yul\":8931:9088   */\n      pop\n      pop\n      jump\t// out\n        /* \"#utility.yul\":9094:9875   */\n    tag_43:\n        /* \"#utility.yul\":9332:9336   */\n      0x00\n        /* \"#utility.yul\":9370:9373   */\n      0xa0\n        /* \"#utility.yul\":9359:9368   */\n      dup3\n        /* \"#utility.yul\":9355:9374   */\n      add\n        /* \"#utility.yul\":9347:9374   */\n      swap1\n      pop\n        /* \"#utility.yul\":9384:9455   */\n      tag_357\n        /* \"#utility.yul\":9452:9453   */\n      0x00\n        /* \"#utility.yul\":9441:9450   */\n      dup4\n        /* \"#utility.yul\":9437:9454   */\n      add\n        /* \"#utility.yul\":9428:9434   */\n      dup9\n        /* \"#utility.yul\":9384:9455   */\n      tag_205\n      jump\t// in\n    tag_357:\n        /* \"#utility.yul\":9465:9537   */\n      tag_358\n        /* \"#utility.yul\":9533:9535   */\n      0x20\n        /* \"#utility.yul\":9522:9531   */\n      dup4\n        /* \"#utility.yul\":9518:9536   */\n      add\n        /* \"#utility.yul\":9509:9515   */\n      dup8\n        /* \"#utility.yul\":9465:9537   */\n      tag_202\n      jump\t// in\n    tag_358:\n        /* \"#utility.yul\":9584:9593   */\n      dup2\n        /* \"#utility.yul\":9578:9582   */\n      dup2\n        /* \"#utility.yul\":9574:9594   */\n      sub\n        /* \"#utility.yul\":9569:9571   */\n      0x40\n        /* \"#utility.yul\":9558:9567   */\n      dup4\n        /* \"#utility.yul\":9554:9572   */\n      add\n        /* \"#utility.yul\":9547:9595   */\n      mstore\n        /* \"#utility.yul\":9612:9690   */\n      tag_359\n        /* \"#utility.yul\":9685:9689   */\n      dup2\n        /* \"#utility.yul\":9676:9682   */\n      dup7\n        /* \"#utility.yul\":9612:9690   */\n      tag_209\n      jump\t// in\n    tag_359:\n        /* \"#utility.yul\":9604:9690   */\n      swap1\n      pop\n        /* \"#utility.yul\":9700:9772   */\n      tag_360\n        /* \"#utility.yul\":9768:9770   */\n      0x60\n        /* \"#utility.yul\":9757:9766   */\n      dup4\n        /* \"#utility.yul\":9753:9771   */\n      add\n        /* \"#utility.yul\":9744:9750   */\n      dup6\n        /* \"#utility.yul\":9700:9772   */\n      tag_202\n      jump\t// in\n    tag_360:\n        /* \"#utility.yul\":9782:9868   */\n      tag_361\n        /* \"#utility.yul\":9863:9866   */\n      0x80\n        /* \"#utility.yul\":9852:9861   */\n      dup4\n        /* \"#utility.yul\":9848:9867   */\n      add\n        /* \"#utility.yul\":9839:9845   */\n      dup5\n        /* \"#utility.yul\":9782:9868   */\n      tag_213\n      jump\t// in\n    tag_361:\n        /* \"#utility.yul\":9094:9875   */\n      swap7\n      swap6\n      pop\n      pop\n      pop\n      pop\n      pop\n      pop\n      jump\t// out\n        /* \"#utility.yul\":9881:10385   */\n    tag_46:\n        /* \"#utility.yul\":9964:9970   */\n      0x00\n        /* \"#utility.yul\":9972:9978   */\n      dup1\n        /* \"#utility.yul\":10021:10023   */\n      0x40\n        /* \"#utility.yul\":10009:10018   */\n      dup4\n        /* \"#utility.yul\":10000:10007   */\n      dup6\n        /* \"#utility.yul\":9996:10019   */\n      sub\n        /* \"#utility.yul\":9992:10024   */\n      slt\n        /* \"#utility.yul\":9989:10108   */\n      iszero\n      tag_363\n      jumpi\n        /* \"#utility.yul\":10027:10106   */\n      tag_364\n      tag_179\n      jump\t// in\n    tag_364:\n        /* \"#utility.yul\":9989:10108   */\n    tag_363:\n        /* \"#utility.yul\":10147:10148   */\n      0x00\n        /* \"#utility.yul\":10172:10225   */\n      tag_365\n        /* \"#utility.yul\":10217:10224   */\n      dup6\n        /* \"#utility.yul\":10208:10214   */\n      dup3\n        /* \"#utility.yul\":10197:10206   */\n      dup7\n        /* \"#utility.yul\":10193:10215   */\n      add\n        /* \"#utility.yul\":10172:10225   */\n      tag_183\n      jump\t// in\n    tag_365:\n        /* \"#utility.yul\":10162:10225   */\n      swap3\n      pop\n        /* \"#utility.yul\":10118:10235   */\n      pop\n        /* \"#utility.yul\":10274:10276   */\n      0x20\n        /* \"#utility.yul\":10300:10368   */\n      tag_366\n        /* \"#utility.yul\":10360:10367   */\n      dup6\n        /* \"#utility.yul\":10351:10357   */\n      dup3\n        /* \"#utility.yul\":10340:10349   */\n      dup7\n        /* \"#utility.yul\":10336:10358   */\n      add\n        /* \"#utility.yul\":10300:10368   */\n      tag_194\n      jump\t// in\n    tag_366:\n        /* \"#utility.yul\":10290:10368   */\n      swap2\n      pop\n        /* \"#utility.yul\":10245:10378   */\n      pop\n        /* \"#utility.yul\":9881:10385   */\n      swap3\n      pop\n      swap3\n      swap1\n      pop\n      jump\t// out\n        /* \"#utility.yul\":10391:10451   */\n    tag_214:\n        /* \"#utility.yul\":10419:10422   */\n      0x00\n        /* \"#utility.yul\":10440:10445   */\n      dup2\n        /* \"#utility.yul\":10433:10445   */\n      swap1\n      pop\n        /* \"#utility.yul\":10391:10451   */\n      swap2\n      swap1\n      pop\n      jump\t// out\n        /* \"#utility.yul\":10457:10599   */\n    tag_215:\n        /* \"#utility.yul\":10507:10516   */\n      0x00\n        /* \"#utility.yul\":10540:10593   */\n      tag_369\n        /* \"#utility.yul\":10558:10592   */\n      tag_370\n        /* \"#utility.yul\":10567:10591   */\n      tag_371\n        /* \"#utility.yul\":10585:10590   */\n      dup5\n        /* \"#utility.yul\":10567:10591   */\n      tag_203\n      jump\t// in\n    tag_371:\n        /* \"#utility.yul\":10558:10592   */\n      tag_214\n      jump\t// in\n    tag_370:\n        /* \"#utility.yul\":10540:10593   */\n      tag_203\n      jump\t// in\n    tag_369:\n        /* \"#utility.yul\":10527:10593   */\n      swap1\n      pop\n        /* \"#utility.yul\":10457:10599   */\n      swap2\n      swap1\n      pop\n      jump\t// out\n        /* \"#utility.yul\":10605:10731   */\n    tag_216:\n        /* \"#utility.yul\":10655:10664   */\n      0x00\n        /* \"#utility.yul\":10688:10725   */\n      tag_373\n        /* \"#utility.yul\":10719:10724   */\n      dup3\n        /* \"#utility.yul\":10688:10725   */\n      tag_215\n      jump\t// in\n    tag_373:\n        /* \"#utility.yul\":10675:10725   */\n      swap1\n      pop\n        /* \"#utility.yul\":10605:10731   */\n      swap2\n      swap1\n      pop\n      jump\t// out\n        /* \"#utility.yul\":10737:10884   */\n    tag_217:\n        /* \"#utility.yul\":10808:10817   */\n      0x00\n        /* \"#utility.yul\":10841:10878   */\n      tag_375\n        /* \"#utility.yul\":10872:10877   */\n      dup3\n        /* \"#utility.yul\":10841:10878   */\n      tag_216\n      jump\t// in\n    tag_375:\n        /* \"#utility.yul\":10828:10878   */\n      swap1\n      pop\n        /* \"#utility.yul\":10737:10884   */\n      swap2\n      swap1\n      pop\n      jump\t// out\n        /* \"#utility.yul\":10890:11063   */\n    tag_218:\n        /* \"#utility.yul\":10998:11056   */\n      tag_377\n        /* \"#utility.yul\":11050:11055   */\n      dup2\n        /* \"#utility.yul\":10998:11056   */\n      tag_217\n      jump\t// in\n    tag_377:\n        /* \"#utility.yul\":10993:10996   */\n      dup3\n        /* \"#utility.yul\":10986:11057   */\n      mstore\n        /* \"#utility.yul\":10890:11063   */\n      pop\n      pop\n      jump\t// out\n        /* \"#utility.yul\":11069:11333   */\n    tag_51:\n        /* \"#utility.yul\":11183:11187   */\n      0x00\n        /* \"#utility.yul\":11221:11223   */\n      0x20\n        /* \"#utility.yul\":11210:11219   */\n      dup3\n        /* \"#utility.yul\":11206:11224   */\n      add\n        /* \"#utility.yul\":11198:11224   */\n      swap1\n      pop\n        /* \"#utility.yul\":11234:11326   */\n      tag_379\n        /* \"#utility.yul\":11323:11324   */\n      0x00\n        /* \"#utility.yul\":11312:11321   */\n      dup4\n        /* \"#utility.yul\":11308:11325   */\n      add\n        /* \"#utility.yul\":11299:11305   */\n      dup5\n        /* \"#utility.yul\":11234:11326   */\n      tag_218\n      jump\t// in\n    tag_379:\n        /* \"#utility.yul\":11069:11333   */\n      swap3\n      swap2\n      pop\n      pop\n      jump\t// out\n        /* \"#utility.yul\":11339:11447   */\n    tag_219:\n        /* \"#utility.yul\":11416:11440   */\n      tag_381\n        /* \"#utility.yul\":11434:11439   */\n      dup2\n        /* \"#utility.yul\":11416:11440   */\n      tag_204\n      jump\t// in\n    tag_381:\n        /* \"#utility.yul\":11411:11414   */\n      dup3\n        /* \"#utility.yul\":11404:11441   */\n      mstore\n        /* \"#utility.yul\":11339:11447   */\n      pop\n      pop\n      jump\t// out\n        /* \"#utility.yul\":11453:11612   */\n    tag_220:\n        /* \"#utility.yul\":11527:11538   */\n      0x00\n        /* \"#utility.yul\":11561:11567   */\n      dup3\n        /* \"#utility.yul\":11556:11559   */\n      dup3\n        /* \"#utility.yul\":11549:11568   */\n      mstore\n        /* \"#utility.yul\":11601:11605   */\n      0x20\n        /* \"#utility.yul\":11596:11599   */\n      dup3\n        /* \"#utility.yul\":11592:11606   */\n      add\n        /* \"#utility.yul\":11577:11606   */\n      swap1\n      pop\n        /* \"#utility.yul\":11453:11612   */\n      swap3\n      swap2\n      pop\n      pop\n      jump\t// out\n        /* \"#utility.yul\":11618:11975   */\n    tag_221:\n        /* \"#utility.yul\":11696:11699   */\n      0x00\n        /* \"#utility.yul\":11724:11763   */\n      tag_384\n        /* \"#utility.yul\":11757:11762   */\n      dup3\n        /* \"#utility.yul\":11724:11763   */\n      tag_206\n      jump\t// in\n    tag_384:\n        /* \"#utility.yul\":11779:11840   */\n      tag_385\n        /* \"#utility.yul\":11833:11839   */\n      dup2\n        /* \"#utility.yul\":11828:11831   */\n      dup6\n        /* \"#utility.yul\":11779:11840   */\n      tag_220\n      jump\t// in\n    tag_385:\n        /* \"#utility.yul\":11772:11840   */\n      swap4\n      pop\n        /* \"#utility.yul\":11849:11914   */\n      tag_386\n        /* \"#utility.yul\":11907:11913   */\n      dup2\n        /* \"#utility.yul\":11902:11905   */\n      dup6\n        /* \"#utility.yul\":11895:11899   */\n      0x20\n        /* \"#utility.yul\":11888:11893   */\n      dup7\n        /* \"#utility.yul\":11884:11900   */\n      add\n        /* \"#utility.yul\":11849:11914   */\n      tag_208\n      jump\t// in\n    tag_386:\n        /* \"#utility.yul\":11939:11968   */\n      tag_387\n        /* \"#utility.yul\":11961:11967   */\n      dup2\n        /* \"#utility.yul\":11939:11968   */\n      tag_186\n      jump\t// in\n    tag_387:\n        /* \"#utility.yul\":11934:11937   */\n      dup5\n        /* \"#utility.yul\":11930:11969   */\n      add\n        /* \"#utility.yul\":11923:11969   */\n      swap2\n      pop\n        /* \"#utility.yul\":11700:11975   */\n      pop\n        /* \"#utility.yul\":11618:11975   */\n      swap3\n      swap2\n      pop\n      pop\n      jump\t// out\n        /* \"#utility.yul\":11981:12128   */\n    tag_222:\n        /* \"#utility.yul\":12071:12121   */\n      tag_389\n        /* \"#utility.yul\":12115:12120   */\n      dup2\n        /* \"#utility.yul\":12071:12121   */\n      tag_212\n      jump\t// in\n    tag_389:\n        /* \"#utility.yul\":12066:12069   */\n      dup3\n        /* \"#utility.yul\":12059:12122   */\n      mstore\n        /* \"#utility.yul\":11981:12128   */\n      pop\n      pop\n      jump\t// out\n        /* \"#utility.yul\":12204:13364   */\n    tag_223:\n        /* \"#utility.yul\":12317:12320   */\n      0x00\n        /* \"#utility.yul\":12353:12357   */\n      0xa0\n        /* \"#utility.yul\":12348:12351   */\n      dup4\n        /* \"#utility.yul\":12344:12358   */\n      add\n        /* \"#utility.yul\":12444:12448   */\n      0x00\n        /* \"#utility.yul\":12437:12442   */\n      dup4\n        /* \"#utility.yul\":12433:12449   */\n      add\n        /* \"#utility.yul\":12427:12450   */\n      mload\n        /* \"#utility.yul\":12463:12526   */\n      tag_391\n        /* \"#utility.yul\":12520:12524   */\n      0x00\n        /* \"#utility.yul\":12515:12518   */\n      dup7\n        /* \"#utility.yul\":12511:12525   */\n      add\n        /* \"#utility.yul\":12497:12509   */\n      dup3\n        /* \"#utility.yul\":12463:12526   */\n      tag_219\n      jump\t// in\n    tag_391:\n        /* \"#utility.yul\":12368:12536   */\n      pop\n        /* \"#utility.yul\":12620:12624   */\n      0x20\n        /* \"#utility.yul\":12613:12618   */\n      dup4\n        /* \"#utility.yul\":12609:12625   */\n      add\n        /* \"#utility.yul\":12603:12626   */\n      mload\n        /* \"#utility.yul\":12639:12702   */\n      tag_392\n        /* \"#utility.yul\":12696:12700   */\n      0x20\n        /* \"#utility.yul\":12691:12694   */\n      dup7\n        /* \"#utility.yul\":12687:12701   */\n      add\n        /* \"#utility.yul\":12673:12685   */\n      dup3\n        /* \"#utility.yul\":12639:12702   */\n      tag_198\n      jump\t// in\n    tag_392:\n        /* \"#utility.yul\":12546:12712   */\n      pop\n        /* \"#utility.yul\":12801:12805   */\n      0x40\n        /* \"#utility.yul\":12794:12799   */\n      dup4\n        /* \"#utility.yul\":12790:12806   */\n      add\n        /* \"#utility.yul\":12784:12807   */\n      mload\n        /* \"#utility.yul\":12854:12857   */\n      dup5\n        /* \"#utility.yul\":12848:12852   */\n      dup3\n        /* \"#utility.yul\":12844:12858   */\n      sub\n        /* \"#utility.yul\":12837:12841   */\n      0x40\n        /* \"#utility.yul\":12832:12835   */\n      dup7\n        /* \"#utility.yul\":12828:12842   */\n      add\n        /* \"#utility.yul\":12821:12859   */\n      mstore\n        /* \"#utility.yul\":12880:12953   */\n      tag_393\n        /* \"#utility.yul\":12948:12952   */\n      dup3\n        /* \"#utility.yul\":12934:12946   */\n      dup3\n        /* \"#utility.yul\":12880:12953   */\n      tag_221\n      jump\t// in\n    tag_393:\n        /* \"#utility.yul\":12872:12953   */\n      swap2\n      pop\n        /* \"#utility.yul\":12722:12964   */\n      pop\n        /* \"#utility.yul\":13056:13060   */\n      0x60\n        /* \"#utility.yul\":13049:13054   */\n      dup4\n        /* \"#utility.yul\":13045:13061   */\n      add\n        /* \"#utility.yul\":13039:13062   */\n      mload\n        /* \"#utility.yul\":13075:13138   */\n      tag_394\n        /* \"#utility.yul\":13132:13136   */\n      0x60\n        /* \"#utility.yul\":13127:13130   */\n      dup7\n        /* \"#utility.yul\":13123:13137   */\n      add\n        /* \"#utility.yul\":13109:13121   */\n      dup3\n        /* \"#utility.yul\":13075:13138   */\n      tag_198\n      jump\t// in\n    tag_394:\n        /* \"#utility.yul\":12974:13148   */\n      pop\n        /* \"#utility.yul\":13232:13236   */\n      0x80\n        /* \"#utility.yul\":13225:13230   */\n      dup4\n        /* \"#utility.yul\":13221:13237   */\n      add\n        /* \"#utility.yul\":13215:13238   */\n      mload\n        /* \"#utility.yul\":13251:13327   */\n      tag_395\n        /* \"#utility.yul\":13321:13325   */\n      0x80\n        /* \"#utility.yul\":13316:13319   */\n      dup7\n        /* \"#utility.yul\":13312:13326   */\n      add\n        /* \"#utility.yul\":13298:13310   */\n      dup3\n        /* \"#utility.yul\":13251:13327   */\n      tag_222\n      jump\t// in\n    tag_395:\n        /* \"#utility.yul\":13158:13337   */\n      pop\n        /* \"#utility.yul\":13354:13358   */\n      dup1\n        /* \"#utility.yul\":13347:13358   */\n      swap2\n      pop\n        /* \"#utility.yul\":12322:13364   */\n      pop\n        /* \"#utility.yul\":12204:13364   */\n      swap3\n      swap2\n      pop\n      pop\n      jump\t// out\n        /* \"#utility.yul\":13370:13731   */\n    tag_56:\n        /* \"#utility.yul\":13507:13511   */\n      0x00\n        /* \"#utility.yul\":13545:13547   */\n      0x20\n        /* \"#utility.yul\":13534:13543   */\n      dup3\n        /* \"#utility.yul\":13530:13548   */\n      add\n        /* \"#utility.yul\":13522:13548   */\n      swap1\n      pop\n        /* \"#utility.yul\":13594:13603   */\n      dup2\n        /* \"#utility.yul\":13588:13592   */\n      dup2\n        /* \"#utility.yul\":13584:13604   */\n      sub\n        /* \"#utility.yul\":13580:13581   */\n      0x00\n        /* \"#utility.yul\":13569:13578   */\n      dup4\n        /* \"#utility.yul\":13565:13582   */\n      add\n        /* \"#utility.yul\":13558:13605   */\n      mstore\n        /* \"#utility.yul\":13622:13724   */\n      tag_397\n        /* \"#utility.yul\":13719:13723   */\n      dup2\n        /* \"#utility.yul\":13710:13716   */\n      dup5\n        /* \"#utility.yul\":13622:13724   */\n      tag_223\n      jump\t// in\n    tag_397:\n        /* \"#utility.yul\":13614:13724   */\n      swap1\n      pop\n        /* \"#utility.yul\":13370:13731   */\n      swap3\n      swap2\n      pop\n      pop\n      jump\t// out\n        /* \"#utility.yul\":13737:13859   */\n    tag_224:\n        /* \"#utility.yul\":13810:13834   */\n      tag_399\n        /* \"#utility.yul\":13828:13833   */\n      dup2\n        /* \"#utility.yul\":13810:13834   */\n      tag_204\n      jump\t// in\n    tag_399:\n        /* \"#utility.yul\":13803:13808   */\n      dup2\n        /* \"#utility.yul\":13800:13835   */\n      eq\n        /* \"#utility.yul\":13790:13853   */\n      tag_400\n      jumpi\n        /* \"#utility.yul\":13849:13850   */\n      0x00\n        /* \"#utility.yul\":13846:13847   */\n      dup1\n        /* \"#utility.yul\":13839:13851   */\n      revert\n        /* \"#utility.yul\":13790:13853   */\n    tag_400:\n        /* \"#utility.yul\":13737:13859   */\n      pop\n      jump\t// out\n        /* \"#utility.yul\":13865:14004   */\n    tag_225:\n        /* \"#utility.yul\":13911:13916   */\n      0x00\n        /* \"#utility.yul\":13949:13955   */\n      dup2\n        /* \"#utility.yul\":13936:13956   */\n      calldataload\n        /* \"#utility.yul\":13927:13956   */\n      swap1\n      pop\n        /* \"#utility.yul\":13965:13998   */\n      tag_402\n        /* \"#utility.yul\":13992:13997   */\n      dup2\n        /* \"#utility.yul\":13965:13998   */\n      tag_224\n      jump\t// in\n    tag_402:\n        /* \"#utility.yul\":13865:14004   */\n      swap3\n      swap2\n      pop\n      pop\n      jump\t// out\n        /* \"#utility.yul\":14010:14339   */\n    tag_59:\n        /* \"#utility.yul\":14069:14075   */\n      0x00\n        /* \"#utility.yul\":14118:14120   */\n      0x20\n        /* \"#utility.yul\":14106:14115   */\n      dup3\n        /* \"#utility.yul\":14097:14104   */\n      dup5\n        /* \"#utility.yul\":14093:14116   */\n      sub\n        /* \"#utility.yul\":14089:14121   */\n      slt\n        /* \"#utility.yul\":14086:14205   */\n      iszero\n      tag_404\n      jumpi\n        /* \"#utility.yul\":14124:14203   */\n      tag_405\n      tag_179\n      jump\t// in\n    tag_405:\n        /* \"#utility.yul\":14086:14205   */\n    tag_404:\n        /* \"#utility.yul\":14244:14245   */\n      0x00\n        /* \"#utility.yul\":14269:14322   */\n      tag_406\n        /* \"#utility.yul\":14314:14321   */\n      dup5\n        /* \"#utility.yul\":14305:14311   */\n      dup3\n        /* \"#utility.yul\":14294:14303   */\n      dup6\n        /* \"#utility.yul\":14290:14312   */\n      add\n        /* \"#utility.yul\":14269:14322   */\n      tag_225\n      jump\t// in\n    tag_406:\n        /* \"#utility.yul\":14259:14322   */\n      swap2\n      pop\n        /* \"#utility.yul\":14215:14332   */\n      pop\n        /* \"#utility.yul\":14010:14339   */\n      swap3\n      swap2\n      pop\n      pop\n      jump\t// out\n        /* \"#utility.yul\":14345:14435   */\n    tag_226:\n        /* \"#utility.yul\":14379:14386   */\n      0x00\n        /* \"#utility.yul\":14422:14427   */\n      dup2\n        /* \"#utility.yul\":14415:14428   */\n      iszero\n        /* \"#utility.yul\":14408:14429   */\n      iszero\n        /* \"#utility.yul\":14397:14429   */\n      swap1\n      pop\n        /* \"#utility.yul\":14345:14435   */\n      swap2\n      swap1\n      pop\n      jump\t// out\n        /* \"#utility.yul\":14441:14557   */\n    tag_227:\n        /* \"#utility.yul\":14511:14532   */\n      tag_409\n        /* \"#utility.yul\":14526:14531   */\n      dup2\n        /* \"#utility.yul\":14511:14532   */\n      tag_226\n      jump\t// in\n    tag_409:\n        /* \"#utility.yul\":14504:14509   */\n      dup2\n        /* \"#utility.yul\":14501:14533   */\n      eq\n        /* \"#utility.yul\":14491:14551   */\n      tag_410\n      jumpi\n        /* \"#utility.yul\":14547:14548   */\n      0x00\n        /* \"#utility.yul\":14544:14545   */\n      dup1\n        /* \"#utility.yul\":14537:14549   */\n      revert\n        /* \"#utility.yul\":14491:14551   */\n    tag_410:\n        /* \"#utility.yul\":14441:14557   */\n      pop\n      jump\t// out\n        /* \"#utility.yul\":14563:14700   */\n    tag_228:\n        /* \"#utility.yul\":14617:14622   */\n      0x00\n        /* \"#utility.yul\":14648:14654   */\n      dup2\n        /* \"#utility.yul\":14642:14655   */\n      mload\n        /* \"#utility.yul\":14633:14655   */\n      swap1\n      pop\n        /* \"#utility.yul\":14664:14694   */\n      tag_412\n        /* \"#utility.yul\":14688:14693   */\n      dup2\n        /* \"#utility.yul\":14664:14694   */\n      tag_227\n      jump\t// in\n    tag_412:\n        /* \"#utility.yul\":14563:14700   */\n      swap3\n      swap2\n      pop\n      pop\n      jump\t// out\n        /* \"#utility.yul\":14706:15051   */\n    tag_66:\n        /* \"#utility.yul\":14773:14779   */\n      0x00\n        /* \"#utility.yul\":14822:14824   */\n      0x20\n        /* \"#utility.yul\":14810:14819   */\n      dup3\n        /* \"#utility.yul\":14801:14808   */\n      dup5\n        /* \"#utility.yul\":14797:14820   */\n      sub\n        /* \"#utility.yul\":14793:14825   */\n      slt\n        /* \"#utility.yul\":14790:14909   */\n      iszero\n      tag_414\n      jumpi\n        /* \"#utility.yul\":14828:14907   */\n      tag_415\n      tag_179\n      jump\t// in\n    tag_415:\n        /* \"#utility.yul\":14790:14909   */\n    tag_414:\n        /* \"#utility.yul\":14948:14949   */\n      0x00\n        /* \"#utility.yul\":14973:15034   */\n      tag_416\n        /* \"#utility.yul\":15026:15033   */\n      dup5\n        /* \"#utility.yul\":15017:15023   */\n      dup3\n        /* \"#utility.yul\":15006:15015   */\n      dup6\n        /* \"#utility.yul\":15002:15024   */\n      add\n        /* \"#utility.yul\":14973:15034   */\n      tag_228\n      jump\t// in\n    tag_416:\n        /* \"#utility.yul\":14963:15034   */\n      swap2\n      pop\n        /* \"#utility.yul\":14919:15044   */\n      pop\n        /* \"#utility.yul\":14706:15051   */\n      swap3\n      swap2\n      pop\n      pop\n      jump\t// out\n        /* \"#utility.yul\":15057:15278   */\n    tag_229:\n        /* \"#utility.yul\":15197:15231   */\n      0x4e6f742061206d656d626572206f662074686520696e737572616e636520706f\n        /* \"#utility.yul\":15193:15194   */\n      0x00\n        /* \"#utility.yul\":15185:15191   */\n      dup3\n        /* \"#utility.yul\":15181:15195   */\n      add\n        /* \"#utility.yul\":15174:15232   */\n      mstore\n        /* \"#utility.yul\":15266:15270   */\n      0x6f6c000000000000000000000000000000000000000000000000000000000000\n        /* \"#utility.yul\":15261:15263   */\n      0x20\n        /* \"#utility.yul\":15253:15259   */\n      dup3\n        /* \"#utility.yul\":15249:15264   */\n      add\n        /* \"#utility.yul\":15242:15271   */\n      mstore\n        /* \"#utility.yul\":15057:15278   */\n      pop\n      jump\t// out\n        /* \"#utility.yul\":15284:15650   */\n    tag_230:\n        /* \"#utility.yul\":15426:15429   */\n      0x00\n        /* \"#utility.yul\":15447:15514   */\n      tag_419\n        /* \"#utility.yul\":15511:15513   */\n      0x22\n        /* \"#utility.yul\":15506:15509   */\n      dup4\n        /* \"#utility.yul\":15447:15514   */\n      tag_207\n      jump\t// in\n    tag_419:\n        /* \"#utility.yul\":15440:15514   */\n      swap2\n      pop\n        /* \"#utility.yul\":15523:15616   */\n      tag_420\n        /* \"#utility.yul\":15612:15615   */\n      dup3\n        /* \"#utility.yul\":15523:15616   */\n      tag_229\n      jump\t// in\n    tag_420:\n        /* \"#utility.yul\":15641:15643   */\n      0x40\n        /* \"#utility.yul\":15636:15639   */\n      dup3\n        /* \"#utility.yul\":15632:15644   */\n      add\n        /* \"#utility.yul\":15625:15644   */\n      swap1\n      pop\n        /* \"#utility.yul\":15284:15650   */\n      swap2\n      swap1\n      pop\n      jump\t// out\n        /* \"#utility.yul\":15656:16075   */\n    tag_69:\n        /* \"#utility.yul\":15822:15826   */\n      0x00\n        /* \"#utility.yul\":15860:15862   */\n      0x20\n        /* \"#utility.yul\":15849:15858   */\n      dup3\n        /* \"#utility.yul\":15845:15863   */\n      add\n        /* \"#utility.yul\":15837:15863   */\n      swap1\n      pop\n        /* \"#utility.yul\":15909:15918   */\n      dup2\n        /* \"#utility.yul\":15903:15907   */\n      dup2\n        /* \"#utility.yul\":15899:15919   */\n      sub\n        /* \"#utility.yul\":15895:15896   */\n      0x00\n        /* \"#utility.yul\":15884:15893   */\n      dup4\n        /* \"#utility.yul\":15880:15897   */\n      add\n        /* \"#utility.yul\":15873:15920   */\n      mstore\n        /* \"#utility.yul\":15937:16068   */\n      tag_422\n        /* \"#utility.yul\":16063:16067   */\n      dup2\n        /* \"#utility.yul\":15937:16068   */\n      tag_230\n      jump\t// in\n    tag_422:\n        /* \"#utility.yul\":15929:16068   */\n      swap1\n      pop\n        /* \"#utility.yul\":15656:16075   */\n      swap2\n      swap1\n      pop\n      jump\t// out\n        /* \"#utility.yul\":16081:16261   */\n    tag_231:\n        /* \"#utility.yul\":16129:16206   */\n      0x4e487b7100000000000000000000000000000000000000000000000000000000\n        /* \"#utility.yul\":16126:16127   */\n      0x00\n        /* \"#utility.yul\":16119:16207   */\n      mstore\n        /* \"#utility.yul\":16226:16230   */\n      0x11\n        /* \"#utility.yul\":16223:16224   */\n      0x04\n        /* \"#utility.yul\":16216:16231   */\n      mstore\n        /* \"#utility.yul\":16250:16254   */\n      0x24\n        /* \"#utility.yul\":16247:16248   */\n      0x00\n        /* \"#utility.yul\":16240:16255   */\n      revert\n        /* \"#utility.yul\":16267:16500   */\n    tag_71:\n        /* \"#utility.yul\":16306:16309   */\n      0x00\n        /* \"#utility.yul\":16329:16353   */\n      tag_425\n        /* \"#utility.yul\":16347:16352   */\n      dup3\n        /* \"#utility.yul\":16329:16353   */\n      tag_181\n      jump\t// in\n    tag_425:\n        /* \"#utility.yul\":16320:16353   */\n      swap2\n      pop\n        /* \"#utility.yul\":16375:16441   */\n      0xffffffffffffffffffffffffffffffffffffffffffffffffffffffffffffffff\n        /* \"#utility.yul\":16368:16373   */\n      dup3\n        /* \"#utility.yul\":16365:16442   */\n      sub\n        /* \"#utility.yul\":16362:16465   */\n      tag_426\n      jumpi\n        /* \"#utility.yul\":16445:16463   */\n      tag_427\n      tag_231\n      jump\t// in\n    tag_427:\n        /* \"#utility.yul\":16362:16465   */\n    tag_426:\n        /* \"#utility.yul\":16492:16493   */\n      0x01\n        /* \"#utility.yul\":16485:16490   */\n      dup3\n        /* \"#utility.yul\":16481:16494   */\n      add\n        /* \"#utility.yul\":16474:16494   */\n      swap1\n      pop\n        /* \"#utility.yul\":16267:16500   */\n      swap2\n      swap1\n      pop\n      jump\t// out\n        /* \"#utility.yul\":16506:16686   */\n    tag_232:\n        /* \"#utility.yul\":16554:16631   */\n      0x4e487b7100000000000000000000000000000000000000000000000000000000\n        /* \"#utility.yul\":16551:16552   */\n      0x00\n        /* \"#utility.yul\":16544:16632   */\n      mstore\n        /* \"#utility.yul\":16651:16655   */\n      0x22\n        /* \"#utility.yul\":16648:16649   */\n      0x04\n        /* \"#utility.yul\":16641:16656   */\n      mstore\n        /* \"#utility.yul\":16675:16679   */\n      0x24\n        /* \"#utility.yul\":16672:16673   */\n      0x00\n        /* \"#utility.yul\":16665:16680   */\n      revert\n        /* \"#utility.yul\":16692:17012   */\n    tag_126:\n        /* \"#utility.yul\":16736:16742   */\n      0x00\n        /* \"#utility.yul\":16773:16774   */\n      0x02\n        /* \"#utility.yul\":16767:16771   */\n      dup3\n        /* \"#utility.yul\":16763:16775   */\n      div\n        /* \"#utility.yul\":16753:16775   */\n      swap1\n      pop\n        /* \"#utility.yul\":16820:16821   */\n      0x01\n        /* \"#utility.yul\":16814:16818   */\n      dup3\n        /* \"#utility.yul\":16810:16822   */\n      and\n        /* \"#utility.yul\":16841:16859   */\n      dup1\n        /* \"#utility.yul\":16831:16912   */\n      tag_430\n      jumpi\n        /* \"#utility.yul\":16897:16901   */\n      0x7f\n        /* \"#utility.yul\":16889:16895   */\n      dup3\n        /* \"#utility.yul\":16885:16902   */\n      and\n        /* \"#utility.yul\":16875:16902   */\n      swap2\n      pop\n        /* \"#utility.yul\":16831:16912   */\n    tag_430:\n        /* \"#utility.yul\":16959:16961   */\n      0x20\n        /* \"#utility.yul\":16951:16957   */\n      dup3\n        /* \"#utility.yul\":16948:16962   */\n      lt\n        /* \"#utility.yul\":16928:16946   */\n      dup2\n        /* \"#utility.yul\":16925:16963   */\n      sub\n        /* \"#utility.yul\":16922:17006   */\n      tag_431\n      jumpi\n        /* \"#utility.yul\":16978:16996   */\n      tag_432\n      tag_232\n      jump\t// in\n    tag_432:\n        /* \"#utility.yul\":16922:17006   */\n    tag_431:\n        /* \"#utility.yul\":16743:17012   */\n      pop\n        /* \"#utility.yul\":16692:17012   */\n      swap2\n      swap1\n      pop\n      jump\t// out\n        /* \"#utility.yul\":17018:17159   */\n    tag_233:\n        /* \"#utility.yul\":17067:17071   */\n      0x00\n        /* \"#utility.yul\":17090:17093   */\n      dup2\n        /* \"#utility.yul\":17082:17093   */\n      swap1\n      pop\n        /* \"#utility.yul\":17113:17116   */\n      dup2\n        /* \"#utility.yul\":17110:17111   */\n      0x00\n        /* \"#utility.yul\":17103:17117   */\n      mstore\n        /* \"#utility.yul\":17147:17151   */\n      0x20\n        /* \"#utility.yul\":17144:17145   */\n      0x00\n        /* \"#utility.yul\":17134:17152   */\n      keccak256\n        /* \"#utility.yul\":17126:17152   */\n      swap1\n      pop\n        /* \"#utility.yul\":17018:17159   */\n      swap2\n      swap1\n      pop\n      jump\t// out\n        /* \"#utility.yul\":17165:17258   */\n    tag_234:\n        /* \"#utility.yul\":17202:17208   */\n      0x00\n        /* \"#utility.yul\":17249:17251   */\n      0x20\n        /* \"#utility.yul\":17244:17246   */\n      0x1f\n        /* \"#utility.yul\":17237:17242   */\n      dup4\n        /* \"#utility.yul\":17233:17247   */\n      add\n        /* \"#utility.yul\":17229:17252   */\n      div\n        /* \"#utility.yul\":17219:17252   */\n      swap1\n      pop\n        /* \"#utility.yul\":17165:17258   */\n      swap2\n      swap1\n      pop\n      jump\t// out\n        /* \"#utility.yul\":17264:17371   */\n    tag_235:\n        /* \"#utility.yul\":17308:17316   */\n      0x00\n        /* \"#utility.yul\":17358:17363   */\n      dup3\n        /* \"#utility.yul\":17352:17356   */\n      dup3\n        /* \"#utility.yul\":17348:17364   */\n      shl\n        /* \"#utility.yul\":17327:17364   */\n      swap1\n      pop\n        /* \"#utility.yul\":17264:17371   */\n      swap3\n      swap2\n      pop\n      pop\n      jump\t// out\n        /* \"#utility.yul\":17377:17770   */\n    tag_236:\n        /* \"#utility.yul\":17446:17452   */\n      0x00\n        /* \"#utility.yul\":17496:17497   */\n      0x08\n        /* \"#utility.yul\":17484:17494   */\n      dup4\n        /* \"#utility.yul\":17480:17498   */\n      mul\n        /* \"#utility.yul\":17519:17616   */\n      tag_437\n        /* \"#utility.yul\":17549:17615   */\n      0xffffffffffffffffffffffffffffffffffffffffffffffffffffffffffffffff\n        /* \"#utility.yul\":17538:17547   */\n      dup3\n        /* \"#utility.yul\":17519:17616   */\n      tag_235\n      jump\t// in\n    tag_437:\n        /* \"#utility.yul\":17637:17676   */\n      tag_438\n        /* \"#utility.yul\":17667:17675   */\n      dup7\n        /* \"#utility.yul\":17656:17665   */\n      dup4\n        /* \"#utility.yul\":17637:17676   */\n      tag_235\n      jump\t// in\n    tag_438:\n        /* \"#utility.yul\":17625:17676   */\n      swap6\n      pop\n        /* \"#utility.yul\":17709:17713   */\n      dup1\n        /* \"#utility.yul\":17705:17714   */\n      not\n        /* \"#utility.yul\":17698:17703   */\n      dup5\n        /* \"#utility.yul\":17694:17715   */\n      and\n        /* \"#utility.yul\":17685:17715   */\n      swap4\n      pop\n        /* \"#utility.yul\":17758:17762   */\n      dup1\n        /* \"#utility.yul\":17748:17756   */\n      dup7\n        /* \"#utility.yul\":17744:17763   */\n      and\n        /* \"#utility.yul\":17737:17742   */\n      dup5\n        /* \"#utility.yul\":17734:17764   */\n      or\n        /* \"#utility.yul\":17724:17764   */\n      swap3\n      pop\n        /* \"#utility.yul\":17453:17770   */\n      pop\n      pop\n        /* \"#utility.yul\":17377:17770   */\n      swap4\n      swap3\n      pop\n      pop\n      pop\n      jump\t// out\n        /* \"#utility.yul\":17776:17918   */\n    tag_237:\n        /* \"#utility.yul\":17826:17835   */\n      0x00\n        /* \"#utility.yul\":17859:17912   */\n      tag_440\n        /* \"#utility.yul\":17877:17911   */\n      tag_441\n        /* \"#utility.yul\":17886:17910   */\n      tag_442\n        /* \"#utility.yul\":17904:17909   */\n      dup5\n        /* \"#utility.yul\":17886:17910   */\n      tag_181\n      jump\t// in\n    tag_442:\n        /* \"#utility.yul\":17877:17911   */\n      tag_214\n      jump\t// in\n    tag_441:\n        /* \"#utility.yul\":17859:17912   */\n      tag_181\n      jump\t// in\n    tag_440:\n        /* \"#utility.yul\":17846:17912   */\n      swap1\n      pop\n        /* \"#utility.yul\":17776:17918   */\n      swap2\n      swap1\n      pop\n      jump\t// out\n        /* \"#utility.yul\":17924:17999   */\n    tag_238:\n        /* \"#utility.yul\":17967:17970   */\n      0x00\n        /* \"#utility.yul\":17988:17993   */\n      dup2\n        /* \"#utility.yul\":17981:17993   */\n      swap1\n      pop\n        /* \"#utility.yul\":17924:17999   */\n      swap2\n      swap1\n      pop\n      jump\t// out\n        /* \"#utility.yul\":18005:18274   */\n    tag_239:\n        /* \"#utility.yul\":18115:18154   */\n      tag_445\n        /* \"#utility.yul\":18146:18153   */\n      dup4\n        /* \"#utility.yul\":18115:18154   */\n      tag_237\n      jump\t// in\n    tag_445:\n        /* \"#utility.yul\":18176:18267   */\n      tag_446\n        /* \"#utility.yul\":18225:18266   */\n      tag_447\n        /* \"#utility.yul\":18249:18265   */\n      dup3\n        /* \"#utility.yul\":18225:18266   */\n      tag_238\n      jump\t// in\n    tag_447:\n        /* \"#utility.yul\":18217:18223   */\n      dup5\n        /* \"#utility.yul\":18210:18214   */\n      dup5\n        /* \"#utility.yul\":18204:18215   */\n      sload\n        /* \"#utility.yul\":18176:18267   */\n      tag_236\n      jump\t// in\n    tag_446:\n        /* \"#utility.yul\":18170:18174   */\n      dup3\n        /* \"#utility.yul\":18163:18268   */\n      sstore\n        /* \"#utility.yul\":18081:18274   */\n      pop\n        /* \"#utility.yul\":18005:18274   */\n      pop\n      pop\n      pop\n      jump\t// out\n        /* \"#utility.yul\":18280:18353   */\n    tag_240:\n        /* \"#utility.yul\":18325:18328   */\n      0x00\n        /* \"#utility.yul\":18280:18353   */\n      swap1\n      jump\t// out\n        /* \"#utility.yul\":18359:18548   */\n    tag_241:\n        /* \"#utility.yul\":18436:18468   */\n      tag_450\n      tag_240\n      jump\t// in\n    tag_450:\n        /* \"#utility.yul\":18477:18542   */\n      tag_451\n        /* \"#utility.yul\":18535:18541   */\n      dup2\n        /* \"#utility.yul\":18527:18533   */\n      dup5\n        /* \"#utility.yul\":18521:18525   */\n      dup5\n        /* \"#utility.yul\":18477:18542   */\n      tag_239\n      jump\t// in\n    tag_451:\n        /* \"#utility.yul\":18412:18548   */\n      pop\n        /* \"#utility.yul\":18359:18548   */\n      pop\n      pop\n      jump\t// out\n        /* \"#utility.yul\":18554:18740   */\n    tag_242:\n        /* \"#utility.yul\":18614:18734   */\n    tag_453:\n        /* \"#utility.yul\":18631:18634   */\n      dup2\n        /* \"#utility.yul\":18624:18629   */\n      dup2\n        /* \"#utility.yul\":18621:18635   */\n      lt\n        /* \"#utility.yul\":18614:18734   */\n      iszero\n      tag_455\n      jumpi\n        /* \"#utility.yul\":18685:18724   */\n      tag_456\n        /* \"#utility.yul\":18722:18723   */\n      0x00\n        /* \"#utility.yul\":18715:18720   */\n      dup3\n        /* \"#utility.yul\":18685:18724   */\n      tag_241\n      jump\t// in\n    tag_456:\n        /* \"#utility.yul\":18658:18659   */\n      0x01\n        /* \"#utility.yul\":18651:18656   */\n      dup2\n        /* \"#utility.yul\":18647:18660   */\n      add\n        /* \"#utility.yul\":18638:18660   */\n      swap1\n      pop\n        /* \"#utility.yul\":18614:18734   */\n      jump(tag_453)\n    tag_455:\n        /* \"#utility.yul\":18554:18740   */\n      pop\n      pop\n      jump\t// out\n        /* \"#utility.yul\":18746:19289   */\n    tag_243:\n        /* \"#utility.yul\":18847:18849   */\n      0x1f\n        /* \"#utility.yul\":18842:18845   */\n      dup3\n        /* \"#utility.yul\":18839:18850   */\n      gt\n        /* \"#utility.yul\":18836:19282   */\n      iszero\n      tag_458\n      jumpi\n        /* \"#utility.yul\":18881:18919   */\n      tag_459\n        /* \"#utility.yul\":18913:18918   */\n      dup2\n        /* \"#utility.yul\":18881:18919   */\n      tag_233\n      jump\t// in\n    tag_459:\n        /* \"#utility.yul\":18965:18994   */\n      tag_460\n        /* \"#utility.yul\":18983:18993   */\n      dup5\n        /* \"#utility.yul\":18965:18994   */\n      tag_234\n      jump\t// in\n    tag_460:\n        /* \"#utility.yul\":18955:18963   */\n      dup2\n        /* \"#utility.yul\":18951:18995   */\n      add\n        /* \"#utility.yul\":19148:19150   */\n      0x20\n        /* \"#utility.yul\":19136:19146   */\n      dup6\n        /* \"#utility.yul\":19133:19151   */\n      lt\n        /* \"#utility.yul\":19130:19179   */\n      iszero\n      tag_461\n      jumpi\n        /* \"#utility.yul\":19169:19177   */\n      dup2\n        /* \"#utility.yul\":19154:19177   */\n      swap1\n      pop\n        /* \"#utility.yul\":19130:19179   */\n    tag_461:\n        /* \"#utility.yul\":19192:19272   */\n      tag_462\n        /* \"#utility.yul\":19248:19270   */\n      tag_463\n        /* \"#utility.yul\":19266:19269   */\n      dup6\n        /* \"#utility.yul\":19248:19270   */\n      tag_234\n      jump\t// in\n    tag_463:\n        /* \"#utility.yul\":19238:19246   */\n      dup4\n        /* \"#utility.yul\":19234:19271   */\n      add\n        /* \"#utility.yul\":19221:19232   */\n      dup3\n        /* \"#utility.yul\":19192:19272   */\n      tag_242\n      jump\t// in\n    tag_462:\n        /* \"#utility.yul\":18851:19282   */\n      pop\n      pop\n        /* \"#utility.yul\":18836:19282   */\n    tag_458:\n        /* \"#utility.yul\":18746:19289   */\n      pop\n      pop\n      pop\n      jump\t// out\n        /* \"#utility.yul\":19295:19412   */\n    tag_244:\n        /* \"#utility.yul\":19349:19357   */\n      0x00\n        /* \"#utility.yul\":19399:19404   */\n      dup3\n        /* \"#utility.yul\":19393:19397   */\n      dup3\n        /* \"#utility.yul\":19389:19405   */\n      shr\n        /* \"#utility.yul\":19368:19405   */\n      swap1\n      pop\n        /* \"#utility.yul\":19295:19412   */\n      swap3\n      swap2\n      pop\n      pop\n      jump\t// out\n        /* \"#utility.yul\":19418:19587   */\n    tag_245:\n        /* \"#utility.yul\":19462:19468   */\n      0x00\n        /* \"#utility.yul\":19495:19546   */\n      tag_466\n        /* \"#utility.yul\":19543:19544   */\n      0x00\n        /* \"#utility.yul\":19539:19545   */\n      not\n        /* \"#utility.yul\":19531:19536   */\n      dup5\n        /* \"#utility.yul\":19528:19529   */\n      0x08\n        /* \"#utility.yul\":19524:19537   */\n      mul\n        /* \"#utility.yul\":19495:19546   */\n      tag_244\n      jump\t// in\n    tag_466:\n        /* \"#utility.yul\":19491:19547   */\n      not\n        /* \"#utility.yul\":19576:19580   */\n      dup1\n        /* \"#utility.yul\":19570:19574   */\n      dup4\n        /* \"#utility.yul\":19566:19581   */\n      and\n        /* \"#utility.yul\":19556:19581   */\n      swap2\n      pop\n        /* \"#utility.yul\":19469:19587   */\n      pop\n        /* \"#utility.yul\":19418:19587   */\n      swap3\n      swap2\n      pop\n      pop\n      jump\t// out\n        /* \"#utility.yul\":19592:19887   */\n    tag_246:\n        /* \"#utility.yul\":19668:19672   */\n      0x00\n        /* \"#utility.yul\":19814:19843   */\n      tag_468\n        /* \"#utility.yul\":19839:19842   */\n      dup4\n        /* \"#utility.yul\":19833:19837   */\n      dup4\n        /* \"#utility.yul\":19814:19843   */\n      tag_245\n      jump\t// in\n    tag_468:\n        /* \"#utility.yul\":19806:19843   */\n      swap2\n      pop\n        /* \"#utility.yul\":19876:19879   */\n      dup3\n        /* \"#utility.yul\":19873:19874   */\n      0x02\n        /* \"#utility.yul\":19869:19880   */\n      mul\n        /* \"#utility.yul\":19863:19867   */\n      dup3\n        /* \"#utility.yul\":19860:19881   */\n      or\n        /* \"#utility.yul\":19852:19881   */\n      swap1\n      pop\n        /* \"#utility.yul\":19592:19887   */\n      swap3\n      swap2\n      pop\n      pop\n      jump\t// out\n        /* \"#utility.yul\":19892:21287   */\n    tag_76:\n        /* \"#utility.yul\":20009:20046   */\n      tag_470\n        /* \"#utility.yul\":20042:20045   */\n      dup3\n        /* \"#utility.yul\":20009:20046   */\n      tag_206\n      jump\t// in\n    tag_470:\n        /* \"#utility.yul\":20111:20129   */\n      0xffffffffffffffff\n        /* \"#utility.yul\":20103:20109   */\n      dup2\n        /* \"#utility.yul\":20100:20130   */\n      gt\n        /* \"#utility.yul\":20097:20153   */\n      iszero\n      tag_471\n      jumpi\n        /* \"#utility.yul\":20133:20151   */\n      tag_472\n      tag_110\n      jump\t// in\n    tag_472:\n        /* \"#utility.yul\":20097:20153   */\n    tag_471:\n        /* \"#utility.yul\":20177:20215   */\n      tag_473\n        /* \"#utility.yul\":20209:20213   */\n      dup3\n        /* \"#utility.yul\":20203:20214   */\n      sload\n        /* \"#utility.yul\":20177:20215   */\n      tag_126\n      jump\t// in\n    tag_473:\n        /* \"#utility.yul\":20262:20329   */\n      tag_474\n        /* \"#utility.yul\":20322:20328   */\n      dup3\n        /* \"#utility.yul\":20314:20320   */\n      dup3\n        /* \"#utility.yul\":20308:20312   */\n      dup6\n        /* \"#utility.yul\":20262:20329   */\n      tag_243\n      jump\t// in\n    tag_474:\n        /* \"#utility.yul\":20356:20357   */\n      0x00\n        /* \"#utility.yul\":20380:20384   */\n      0x20\n        /* \"#utility.yul\":20367:20384   */\n      swap1\n      pop\n        /* \"#utility.yul\":20412:20414   */\n      0x1f\n        /* \"#utility.yul\":20404:20410   */\n      dup4\n        /* \"#utility.yul\":20401:20415   */\n      gt\n        /* \"#utility.yul\":20429:20430   */\n      0x01\n        /* \"#utility.yul\":20424:21042   */\n      dup2\n      eq\n      tag_476\n      jumpi\n        /* \"#utility.yul\":21086:21087   */\n      0x00\n        /* \"#utility.yul\":21103:21109   */\n      dup5\n        /* \"#utility.yul\":21100:21177   */\n      iszero\n      tag_477\n      jumpi\n        /* \"#utility.yul\":21152:21161   */\n      dup3\n        /* \"#utility.yul\":21147:21150   */\n      dup8\n        /* \"#utility.yul\":21143:21162   */\n      add\n        /* \"#utility.yul\":21137:21163   */\n      mload\n        /* \"#utility.yul\":21128:21163   */\n      swap1\n      pop\n        /* \"#utility.yul\":21100:21177   */\n    tag_477:\n        /* \"#utility.yul\":21203:21270   */\n      tag_478\n        /* \"#utility.yul\":21263:21269   */\n      dup6\n        /* \"#utility.yul\":21256:21261   */\n      dup3\n        /* \"#utility.yul\":21203:21270   */\n      tag_246\n      jump\t// in\n    tag_478:\n        /* \"#utility.yul\":21197:21201   */\n      dup7\n        /* \"#utility.yul\":21190:21271   */\n      sstore\n        /* \"#utility.yul\":21059:21281   */\n      pop\n        /* \"#utility.yul\":20394:21281   */\n      jump(tag_475)\n        /* \"#utility.yul\":20424:21042   */\n    tag_476:\n        /* \"#utility.yul\":20476:20480   */\n      0x1f\n        /* \"#utility.yul\":20472:20481   */\n      not\n        /* \"#utility.yul\":20464:20470   */\n      dup5\n        /* \"#utility.yul\":20460:20482   */\n      and\n        /* \"#utility.yul\":20510:20547   */\n      tag_479\n        /* \"#utility.yul\":20542:20546   */\n      dup7\n        /* \"#utility.yul\":20510:20547   */\n      tag_233\n      jump\t// in\n    tag_479:\n        /* \"#utility.yul\":20569:20570   */\n      0x00\n        /* \"#utility.yul\":20583:20791   */\n    tag_480:\n        /* \"#utility.yul\":20597:20604   */\n      dup3\n        /* \"#utility.yul\":20594:20595   */\n      dup2\n        /* \"#utility.yul\":20591:20605   */\n      lt\n        /* \"#utility.yul\":20583:20791   */\n      iszero\n      tag_482\n      jumpi\n        /* \"#utility.yul\":20676:20685   */\n      dup5\n        /* \"#utility.yul\":20671:20674   */\n      dup10\n        /* \"#utility.yul\":20667:20686   */\n      add\n        /* \"#utility.yul\":20661:20687   */\n      mload\n        /* \"#utility.yul\":20653:20659   */\n      dup3\n        /* \"#utility.yul\":20646:20688   */\n      sstore\n        /* \"#utility.yul\":20727:20728   */\n      0x01\n        /* \"#utility.yul\":20719:20725   */\n      dup3\n        /* \"#utility.yul\":20715:20729   */\n      add\n        /* \"#utility.yul\":20705:20729   */\n      swap2\n      pop\n        /* \"#utility.yul\":20774:20776   */\n      0x20\n        /* \"#utility.yul\":20763:20772   */\n      dup6\n        /* \"#utility.yul\":20759:20777   */\n      add\n        /* \"#utility.yul\":20746:20777   */\n      swap5\n      pop\n        /* \"#utility.yul\":20620:20624   */\n      0x20\n        /* \"#utility.yul\":20617:20618   */\n      dup2\n        /* \"#utility.yul\":20613:20625   */\n      add\n        /* \"#utility.yul\":20608:20625   */\n      swap1\n      pop\n        /* \"#utility.yul\":20583:20791   */\n      jump(tag_480)\n    tag_482:\n        /* \"#utility.yul\":20819:20825   */\n      dup7\n        /* \"#utility.yul\":20810:20817   */\n      dup4\n        /* \"#utility.yul\":20807:20826   */\n      lt\n        /* \"#utility.yul\":20804:20983   */\n      iszero\n      tag_483\n      jumpi\n        /* \"#utility.yul\":20877:20886   */\n      dup5\n        /* \"#utility.yul\":20872:20875   */\n      dup10\n        /* \"#utility.yul\":20868:20887   */\n      add\n        /* \"#utility.yul\":20862:20888   */\n      mload\n        /* \"#utility.yul\":20920:20968   */\n      tag_484\n        /* \"#utility.yul\":20962:20966   */\n      0x1f\n        /* \"#utility.yul\":20954:20960   */\n      dup10\n        /* \"#utility.yul\":20950:20967   */\n      and\n        /* \"#utility.yul\":20939:20948   */\n      dup3\n        /* \"#utility.yul\":20920:20968   */\n      tag_245\n      jump\t// in\n    tag_484:\n        /* \"#utility.yul\":20912:20918   */\n      dup4\n        /* \"#utility.yul\":20905:20969   */\n      sstore\n        /* \"#utility.yul\":20827:20983   */\n      pop\n        /* \"#utility.yul\":20804:20983   */\n    tag_483:\n        /* \"#utility.yul\":21029:21030   */\n      0x01\n        /* \"#utility.yul\":21025:21026   */\n      0x02\n        /* \"#utility.yul\":21017:21023   */\n      dup9\n        /* \"#utility.yul\":21013:21027   */\n      mul\n        /* \"#utility.yul\":21009:21031   */\n      add\n        /* \"#utility.yul\":21003:21007   */\n      dup9\n        /* \"#utility.yul\":20996:21032   */\n      sstore\n        /* \"#utility.yul\":20431:21042   */\n      pop\n      pop\n      pop\n        /* \"#utility.yul\":20394:21281   */\n    tag_475:\n      pop\n        /* \"#utility.yul\":19984:21287   */\n      pop\n      pop\n      pop\n        /* \"#utility.yul\":19892:21287   */\n      pop\n      pop\n      jump\t// out\n        /* \"#utility.yul\":21293:21459   */\n    tag_247:\n        /* \"#utility.yul\":21433:21451   */\n      0x496e76616c696420636c61696d20494400000000000000000000000000000000\n        /* \"#utility.yul\":21429:21430   */\n      0x00\n        /* \"#utility.yul\":21421:21427   */\n      dup3\n        /* \"#utility.yul\":21417:21431   */\n      add\n        /* \"#utility.yul\":21410:21452   */\n      mstore\n        /* \"#utility.yul\":21293:21459   */\n      pop\n      jump\t// out\n        /* \"#utility.yul\":21465:21831   */\n    tag_248:\n        /* \"#utility.yul\":21607:21610   */\n      0x00\n        /* \"#utility.yul\":21628:21695   */\n      tag_487\n        /* \"#utility.yul\":21692:21694   */\n      0x10\n        /* \"#utility.yul\":21687:21690   */\n      dup4\n        /* \"#utility.yul\":21628:21695   */\n      tag_207\n      jump\t// in\n    tag_487:\n        /* \"#utility.yul\":21621:21695   */\n      swap2\n      pop\n        /* \"#utility.yul\":21704:21797   */\n      tag_488\n        /* \"#utility.yul\":21793:21796   */\n      dup3\n        /* \"#utility.yul\":21704:21797   */\n      tag_247\n      jump\t// in\n    tag_488:\n        /* \"#utility.yul\":21822:21824   */\n      0x20\n        /* \"#utility.yul\":21817:21820   */\n      dup3\n        /* \"#utility.yul\":21813:21825   */\n      add\n        /* \"#utility.yul\":21806:21825   */\n      swap1\n      pop\n        /* \"#utility.yul\":21465:21831   */\n      swap2\n      swap1\n      pop\n      jump\t// out\n        /* \"#utility.yul\":21837:22256   */\n    tag_91:\n        /* \"#utility.yul\":22003:22007   */\n      0x00\n        /* \"#utility.yul\":22041:22043   */\n      0x20\n        /* \"#utility.yul\":22030:22039   */\n      dup3\n        /* \"#utility.yul\":22026:22044   */\n      add\n        /* \"#utility.yul\":22018:22044   */\n      swap1\n      pop\n        /* \"#utility.yul\":22090:22099   */\n      dup2\n        /* \"#utility.yul\":22084:22088   */\n      dup2\n        /* \"#utility.yul\":22080:22100   */\n      sub\n        /* \"#utility.yul\":22076:22077   */\n      0x00\n        /* \"#utility.yul\":22065:22074   */\n      dup4\n        /* \"#utility.yul\":22061:22078   */\n      add\n        /* \"#utility.yul\":22054:22101   */\n      mstore\n        /* \"#utility.yul\":22118:22249   */\n      tag_490\n        /* \"#utility.yul\":22244:22248   */\n      dup2\n        /* \"#utility.yul\":22118:22249   */\n      tag_248\n      jump\t// in\n    tag_490:\n        /* \"#utility.yul\":22110:22249   */\n      swap1\n      pop\n        /* \"#utility.yul\":21837:22256   */\n      swap2\n      swap1\n      pop\n      jump\t// out\n        /* \"#utility.yul\":22262:22430   */\n    tag_249:\n        /* \"#utility.yul\":22402:22422   */\n      0x436c61696d206e6f7420617070726f7665640000000000000000000000000000\n        /* \"#utility.yul\":22398:22399   */\n      0x00\n        /* \"#utility.yul\":22390:22396   */\n      dup3\n        /* \"#utility.yul\":22386:22400   */\n      add\n        /* \"#utility.yul\":22379:22423   */\n      mstore\n        /* \"#utility.yul\":22262:22430   */\n      pop\n      jump\t// out\n        /* \"#utility.yul\":22436:22802   */\n    tag_250:\n        /* \"#utility.yul\":22578:22581   */\n      0x00\n        /* \"#utility.yul\":22599:22666   */\n      tag_493\n        /* \"#utility.yul\":22663:22665   */\n      0x12\n        /* \"#utility.yul\":22658:22661   */\n      dup4\n        /* \"#utility.yul\":22599:22666   */\n      tag_207\n      jump\t// in\n    tag_493:\n        /* \"#utility.yul\":22592:22666   */\n      swap2\n      pop\n        /* \"#utility.yul\":22675:22768   */\n      tag_494\n        /* \"#utility.yul\":22764:22767   */\n      dup3\n        /* \"#utility.yul\":22675:22768   */\n      tag_249\n      jump\t// in\n    tag_494:\n        /* \"#utility.yul\":22793:22795   */\n      0x20\n        /* \"#utility.yul\":22788:22791   */\n      dup3\n        /* \"#utility.yul\":22784:22796   */\n      add\n        /* \"#utility.yul\":22777:22796   */\n      swap1\n      pop\n        /* \"#utility.yul\":22436:22802   */\n      swap2\n      swap1\n      pop\n      jump\t// out\n        /* \"#utility.yul\":22808:23227   */\n    tag_98:\n        /* \"#utility.yul\":22974:22978   */\n      0x00\n        /* \"#utility.yul\":23012:23014   */\n      0x20\n        /* \"#utility.yul\":23001:23010   */\n      dup3\n        /* \"#utility.yul\":22997:23015   */\n      add\n        /* \"#utility.yul\":22989:23015   */\n      swap1\n      pop\n        /* \"#utility.yul\":23061:23070   */\n      dup2\n        /* \"#utility.yul\":23055:23059   */\n      dup2\n        /* \"#utility.yul\":23051:23071   */\n      sub\n        /* \"#utility.yul\":23047:23048   */\n      0x00\n        /* \"#utility.yul\":23036:23045   */\n      dup4\n        /* \"#utility.yul\":23032:23049   */\n      add\n        /* \"#utility.yul\":23025:23072   */\n      mstore\n        /* \"#utility.yul\":23089:23220   */\n      tag_496\n        /* \"#utility.yul\":23215:23219   */\n      dup2\n        /* \"#utility.yul\":23089:23220   */\n      tag_250\n      jump\t// in\n    tag_496:\n        /* \"#utility.yul\":23081:23220   */\n      swap1\n      pop\n        /* \"#utility.yul\":22808:23227   */\n      swap2\n      swap1\n      pop\n      jump\t// out\n        /* \"#utility.yul\":23233:23565   */\n    tag_102:\n        /* \"#utility.yul\":23354:23358   */\n      0x00\n        /* \"#utility.yul\":23392:23394   */\n      0x40\n        /* \"#utility.yul\":23381:23390   */\n      dup3\n        /* \"#utility.yul\":23377:23395   */\n      add\n        /* \"#utility.yul\":23369:23395   */\n      swap1\n      pop\n        /* \"#utility.yul\":23405:23476   */\n      tag_498\n        /* \"#utility.yul\":23473:23474   */\n      0x00\n        /* \"#utility.yul\":23462:23471   */\n      dup4\n        /* \"#utility.yul\":23458:23475   */\n      add\n        /* \"#utility.yul\":23449:23455   */\n      dup6\n        /* \"#utility.yul\":23405:23476   */\n      tag_205\n      jump\t// in\n    tag_498:\n        /* \"#utility.yul\":23486:23558   */\n      tag_499\n        /* \"#utility.yul\":23554:23556   */\n      0x20\n        /* \"#utility.yul\":23543:23552   */\n      dup4\n        /* \"#utility.yul\":23539:23557   */\n      add\n        /* \"#utility.yul\":23530:23536   */\n      dup5\n        /* \"#utility.yul\":23486:23558   */\n      tag_202\n      jump\t// in\n    tag_499:\n        /* \"#utility.yul\":23233:23565   */\n      swap4\n      swap3\n      pop\n      pop\n      pop\n      jump\t// out\n        /* \"#utility.yul\":23571:23751   */\n    tag_122:\n        /* \"#utility.yul\":23619:23696   */\n      0x4e487b7100000000000000000000000000000000000000000000000000000000\n        /* \"#utility.yul\":23616:23617   */\n      0x00\n        /* \"#utility.yul\":23609:23697   */\n      mstore\n        /* \"#utility.yul\":23716:23720   */\n      0x32\n        /* \"#utility.yul\":23713:23714   */\n      0x04\n        /* \"#utility.yul\":23706:23721   */\n      mstore\n        /* \"#utility.yul\":23740:23744   */\n      0x24\n        /* \"#utility.yul\":23737:23738   */\n      0x00\n        /* \"#utility.yul\":23730:23745   */\n      revert\n        /* \"#utility.yul\":23757:23936   */\n    tag_251:\n        /* \"#utility.yul\":23897:23928   */\n      0x5573652070726f63657373436c61696d20666f72207061796d656e7473000000\n        /* \"#utility.yul\":23893:23894   */\n      0x00\n        /* \"#utility.yul\":23885:23891   */\n      dup3\n        /* \"#utility.yul\":23881:23895   */\n      add\n        /* \"#utility.yul\":23874:23929   */\n      mstore\n        /* \"#utility.yul\":23757:23936   */\n      pop\n      jump\t// out\n        /* \"#utility.yul\":23942:24308   */\n    tag_252:\n        /* \"#utility.yul\":24084:24087   */\n      0x00\n        /* \"#utility.yul\":24105:24172   */\n      tag_503\n        /* \"#utility.yul\":24169:24171   */\n      0x1d\n        /* \"#utility.yul\":24164:24167   */\n      dup4\n        /* \"#utility.yul\":24105:24172   */\n      tag_207\n      jump\t// in\n    tag_503:\n        /* \"#utility.yul\":24098:24172   */\n      swap2\n      pop\n        /* \"#utility.yul\":24181:24274   */\n      tag_504\n        /* \"#utility.yul\":24270:24273   */\n      dup3\n        /* \"#utility.yul\":24181:24274   */\n      tag_251\n      jump\t// in\n    tag_504:\n        /* \"#utility.yul\":24299:24301   */\n      0x20\n        /* \"#utility.yul\":24294:24297   */\n      dup3\n        /* \"#utility.yul\":24290:24302   */\n      add\n        /* \"#utility.yul\":24283:24302   */\n      swap1\n      pop\n        /* \"#utility.yul\":23942:24308   */\n      swap2\n      swap1\n      pop\n      jump\t// out\n        /* \"#utility.yul\":24314:24733   */\n    tag_142:\n        /* \"#utility.yul\":24480:24484   */\n      0x00\n        /* \"#utility.yul\":24518:24520   */\n      0x20\n        /* \"#utility.yul\":24507:24516   */\n      dup3\n        /* \"#utility.yul\":24503:24521   */\n      add\n        /* \"#utility.yul\":24495:24521   */\n      swap1\n      pop\n        /* \"#utility.yul\":24567:24576   */\n      dup2\n        /* \"#utility.yul\":24561:24565   */\n      dup2\n        /* \"#utility.yul\":24557:24577   */\n      sub\n        /* \"#utility.yul\":24553:24554   */\n      0x00\n        /* \"#utility.yul\":24542:24551   */\n      dup4\n        /* \"#utility.yul\":24538:24555   */\n      add\n        /* \"#utility.yul\":24531:24578   */\n      mstore\n        /* \"#utility.yul\":24595:24726   */\n      tag_506\n        /* \"#utility.yul\":24721:24725   */\n      dup2\n        /* \"#utility.yul\":24595:24726   */\n      tag_252\n      jump\t// in\n    tag_506:\n        /* \"#utility.yul\":24587:24726   */\n      swap1\n      pop\n        /* \"#utility.yul\":24314:24733   */\n      swap2\n      swap1\n      pop\n      jump\t// out\n        /* \"#utility.yul\":24739:24987   */\n    tag_146:\n        /* \"#utility.yul\":24845:24849   */\n      0x00\n        /* \"#utility.yul\":24883:24885   */\n      0x20\n        /* \"#utility.yul\":24872:24881   */\n      dup3\n        /* \"#utility.yul\":24868:24886   */\n      add\n        /* \"#utility.yul\":24860:24886   */\n      swap1\n      pop\n        /* \"#utility.yul\":24896:24980   */\n      tag_508\n        /* \"#utility.yul\":24977:24978   */\n      0x00\n        /* \"#utility.yul\":24966:24975   */\n      dup4\n        /* \"#utility.yul\":24962:24979   */\n      add\n        /* \"#utility.yul\":24953:24959   */\n      dup5\n        /* \"#utility.yul\":24896:24980   */\n      tag_213\n      jump\t// in\n    tag_508:\n        /* \"#utility.yul\":24739:24987   */\n      swap3\n      swap2\n      pop\n      pop\n      jump\t// out\n\n    auxdata: 0xa2646970667358221220a0b2b9db948667a584800907ece9ced9be58c70508e388c8f7e5165ab94914cf64736f6c634300081a0033\n}\n",
				"bytecode": {
					"linkReferences": {},
					"object": "608060405234801561000f575f80fd5b50604051611d0a380380611d0a83398181016040528101906100319190610218565b805f73ffffffffffffffffffffffffffffffffffffffff168173ffffffffffffffffffffffffffffffffffffffff16036100a2575f6040517f1e4fbdf70000000000000000000000000000000000000000000000000000000081526004016100999190610265565b60405180910390fd5b6100b1816100f960201b60201c565b508160015f6101000a81548173ffffffffffffffffffffffffffffffffffffffff021916908373ffffffffffffffffffffffffffffffffffffffff160217905550505061027e565b5f805f9054906101000a900473ffffffffffffffffffffffffffffffffffffffff169050815f806101000a81548173ffffffffffffffffffffffffffffffffffffffff021916908373ffffffffffffffffffffffffffffffffffffffff1602179055508173ffffffffffffffffffffffffffffffffffffffff168173ffffffffffffffffffffffffffffffffffffffff167f8be0079c531659141344cd1fd0a4f28419497f9722a3daafe3b4186f6b6457e060405160405180910390a35050565b5f80fd5b5f73ffffffffffffffffffffffffffffffffffffffff82169050919050565b5f6101e7826101be565b9050919050565b6101f7816101dd565b8114610201575f80fd5b50565b5f81519050610212816101ee565b92915050565b5f806040838503121561022e5761022d6101ba565b5b5f61023b85828601610204565b925050602061024c85828601610204565b9150509250929050565b61025f816101dd565b82525050565b5f6020820190506102785f830184610256565b92915050565b611a7f8061028b5f395ff3fe608060405234801561000f575f80fd5b50600436106100a7575f3560e01c80638da5cb5b1161006f5780638da5cb5b1461013b578063a888c2cd14610159578063ab1f5b7c1461018d578063ab2adc00146101a9578063bac71e00146101c7578063f2fde38b146101f7576100a7565b806345b46525146100ab578063715018a6146100c75780637257dfc9146100d1578063791309f1146100ed5780638da4d3c91461011d575b5f80fd5b6100c560048036038101906100c09190610f2d565b610213565b005b6100cf610458565b005b6100eb60048036038101906100e69190610f87565b61046b565b005b61010760048036038101906101029190610fd5565b610696565b60405161011491906110b7565b60405180910390f35b610125610788565b60405161013291906110e6565b60405180910390f35b61014361078e565b604051610150919061113e565b60405180910390f35b610173600480360381019061016e9190610f87565b6107b5565b60405161018495949392919061122a565b60405180910390f35b6101a760048036038101906101a29190611282565b610898565b005b6101b16109c1565b6040516101be919061131b565b60405180910390f35b6101e160048036038101906101dc9190610f87565b6109e6565b6040516101ee919061140d565b60405180910390f35b610211600480360381019061020c9190611457565b610b87565b005b60015f9054906101000a900473ffffffffffffffffffffffffffffffffffffffff1673ffffffffffffffffffffffffffffffffffffffff1663a230c524336040518263ffffffff1660e01b815260040161026d919061113e565b602060405180830381865afa158015610288573d5f803e3d5ffd5b505050506040513d601f19601f820116820180604052508101906102ac91906114b7565b6102eb576040517f08c379a00000000000000000000000000000000000000000000000000000000081526004016102e290611552565b60405180910390fd5b5f60035f8154809291906102fe9061159d565b9190505590506040518060a001604052803373ffffffffffffffffffffffffffffffffffffffff1681526020018481526020018381526020014281526020015f60048111156103505761034f6111b7565b5b81525060025f8381526020019081526020015f205f820151815f015f6101000a81548173ffffffffffffffffffffffffffffffffffffffff021916908373ffffffffffffffffffffffffffffffffffffffff1602179055506020820151816001015560408201518160020190816103c791906117d5565b50606082015181600301556080820151816004015f6101000a81548160ff021916908360048111156103fc576103fb6111b7565b5b02179055509050503373ffffffffffffffffffffffffffffffffffffffff16817f01bc0f9d4f6b0c66e2bda5f433d9760d7eb48e89b73ffea517a7ba5e4fe0657d8560405161044b91906110e6565b60405180910390a3505050565b610460610c0b565b6104695f610c92565b565b610473610c0b565b60035481106104b7576040517f08c379a00000000000000000000000000000000000000000000000000000000081526004016104ae906118ee565b60405180910390fd5b5f60025f8381526020019081526020015f209050600260048111156104df576104de6111b7565b5b816004015f9054906101000a900460ff166004811115610502576105016111b7565b5b14610542576040517f08c379a000000000000000000000000000000000000000000000000000000000815260040161053990611956565b60405180910390fd5b6004816004015f6101000a81548160ff02191690836004811115610569576105686111b7565b5b021790555060015f9054906101000a900473ffffffffffffffffffffffffffffffffffffffff1673ffffffffffffffffffffffffffffffffffffffff16636ffc215c825f015f9054906101000a900473ffffffffffffffffffffffffffffffffffffffff1683600101546040518363ffffffff1660e01b81526004016105f0929190611974565b5f604051808303815f87803b158015610607575f80fd5b505af1158015610619573d5f803e3d5ffd5b50505050805f015f9054906101000a900473ffffffffffffffffffffffffffffffffffffffff1673ffffffffffffffffffffffffffffffffffffffff16827faf3c8fdd75d667f71d36d7840b8ef9086c516c9b047ad6a83a5a66151342123a836001015460405161068a91906110e6565b60405180910390a35050565b60605f60035467ffffffffffffffff8111156106b5576106b4610e09565b5b6040519080825280602002602001820160405280156106e35781602001602082028036833780820191505090505b5090505f805b60035481101561077a57846004811115610706576107056111b7565b5b60025f8381526020019081526020015f206004015f9054906101000a900460ff166004811115610739576107386111b7565b5b0361076d57808383815181106107525761075161199b565b5b60200260200101818152505081806107699061159d565b9250505b80806001019150506106e9565b508082528192505050919050565b60035481565b5f805f9054906101000a900473ffffffffffffffffffffffffffffffffffffffff16905090565b6002602052805f5260405f205f91509050805f015f9054906101000a900473ffffffffffffffffffffffffffffffffffffffff16908060010154908060020180546107ff90611611565b80601f016020809104026020016040519081016040528092919081815260200182805461082b90611611565b80156108765780601f1061084d57610100808354040283529160200191610876565b820191905f5260205f20905b81548152906001019060200180831161085957829003601f168201915b505050505090806003015490806004015f9054906101000a900460ff16905085565b6108a0610c0b565b60035482106108e4576040517f08c379a00000000000000000000000000000000000000000000000000000000081526004016108db906118ee565b60405180910390fd5b6004808111156108f7576108f66111b7565b5b81600481111561090a576109096111b7565b5b0361094a576040517f08c379a000000000000000000000000000000000000000000000000000000000815260040161094190611a12565b60405180910390fd5b8060025f8481526020019081526020015f206004015f6101000a81548160ff021916908360048111156109805761097f6111b7565b5b0217905550817f2e7de2377c1e6f85a268dbe00519c60d65c9e38570a118be0eb07feb07fc89be826040516109b59190611a30565b60405180910390a25050565b60015f9054906101000a900473ffffffffffffffffffffffffffffffffffffffff1681565b6109ee610d5a565b6003548210610a32576040517f08c379a0000000000000000000000000000000000000000000000000000000008152600401610a29906118ee565b60405180910390fd5b60025f8381526020019081526020015f206040518060a00160405290815f82015f9054906101000a900473ffffffffffffffffffffffffffffffffffffffff1673ffffffffffffffffffffffffffffffffffffffff1673ffffffffffffffffffffffffffffffffffffffff16815260200160018201548152602001600282018054610abc90611611565b80601f0160208091040260200160405190810160405280929190818152602001828054610ae890611611565b8015610b335780601f10610b0a57610100808354040283529160200191610b33565b820191905f5260205f20905b815481529060010190602001808311610b1657829003601f168201915b5050505050815260200160038201548152602001600482015f9054906101000a900460ff166004811115610b6a57610b696111b7565b5b6004811115610b7c57610b7b6111b7565b5b815250509050919050565b610b8f610c0b565b5f73ffffffffffffffffffffffffffffffffffffffff168173ffffffffffffffffffffffffffffffffffffffff1603610bff575f6040517f1e4fbdf7000000000000000000000000000000000000000000000000000000008152600401610bf6919061113e565b60405180910390fd5b610c0881610c92565b50565b610c13610d53565b73ffffffffffffffffffffffffffffffffffffffff16610c3161078e565b73ffffffffffffffffffffffffffffffffffffffff1614610c9057610c54610d53565b6040517f118cdaa7000000000000000000000000000000000000000000000000000000008152600401610c87919061113e565b60405180910390fd5b565b5f805f9054906101000a900473ffffffffffffffffffffffffffffffffffffffff169050815f806101000a81548173ffffffffffffffffffffffffffffffffffffffff021916908373ffffffffffffffffffffffffffffffffffffffff1602179055508173ffffffffffffffffffffffffffffffffffffffff168173ffffffffffffffffffffffffffffffffffffffff167f8be0079c531659141344cd1fd0a4f28419497f9722a3daafe3b4186f6b6457e060405160405180910390a35050565b5f33905090565b6040518060a001604052805f73ffffffffffffffffffffffffffffffffffffffff1681526020015f8152602001606081526020015f81526020015f6004811115610da757610da66111b7565b5b81525090565b5f604051905090565b5f80fd5b5f80fd5b5f819050919050565b610dd081610dbe565b8114610dda575f80fd5b50565b5f81359050610deb81610dc7565b92915050565b5f80fd5b5f80fd5b5f601f19601f8301169050919050565b7f4e487b71000000000000000000000000000000000000000000000000000000005f52604160045260245ffd5b610e3f82610df9565b810181811067ffffffffffffffff82111715610e5e57610e5d610e09565b5b80604052505050565b5f610e70610dad565b9050610e7c8282610e36565b919050565b5f67ffffffffffffffff821115610e9b57610e9a610e09565b5b610ea482610df9565b9050602081019050919050565b828183375f83830152505050565b5f610ed1610ecc84610e81565b610e67565b905082815260208101848484011115610eed57610eec610df5565b5b610ef8848285610eb1565b509392505050565b5f82601f830112610f1457610f13610df1565b5b8135610f24848260208601610ebf565b91505092915050565b5f8060408385031215610f4357610f42610db6565b5b5f610f5085828601610ddd565b925050602083013567ffffffffffffffff811115610f7157610f70610dba565b5b610f7d85828601610f00565b9150509250929050565b5f60208284031215610f9c57610f9b610db6565b5b5f610fa984828501610ddd565b91505092915050565b60058110610fbe575f80fd5b50565b5f81359050610fcf81610fb2565b92915050565b5f60208284031215610fea57610fe9610db6565b5b5f610ff784828501610fc1565b91505092915050565b5f81519050919050565b5f82825260208201905092915050565b5f819050602082019050919050565b61103281610dbe565b82525050565b5f6110438383611029565b60208301905092915050565b5f602082019050919050565b5f61106582611000565b61106f818561100a565b935061107a8361101a565b805f5b838110156110aa5781516110918882611038565b975061109c8361104f565b92505060018101905061107d565b5085935050505092915050565b5f6020820190508181035f8301526110cf818461105b565b905092915050565b6110e081610dbe565b82525050565b5f6020820190506110f95f8301846110d7565b92915050565b5f73ffffffffffffffffffffffffffffffffffffffff82169050919050565b5f611128826110ff565b9050919050565b6111388161111e565b82525050565b5f6020820190506111515f83018461112f565b92915050565b5f81519050919050565b5f82825260208201905092915050565b8281835e5f83830152505050565b5f61118982611157565b6111938185611161565b93506111a3818560208601611171565b6111ac81610df9565b840191505092915050565b7f4e487b71000000000000000000000000000000000000000000000000000000005f52602160045260245ffd5b600581106111f5576111f46111b7565b5b50565b5f819050611205826111e4565b919050565b5f611214826111f8565b9050919050565b6112248161120a565b82525050565b5f60a08201905061123d5f83018861112f565b61124a60208301876110d7565b818103604083015261125c818661117f565b905061126b60608301856110d7565b611278608083018461121b565b9695505050505050565b5f806040838503121561129857611297610db6565b5b5f6112a585828601610ddd565b92505060206112b685828601610fc1565b9150509250929050565b5f819050919050565b5f6112e36112de6112d9846110ff565b6112c0565b6110ff565b9050919050565b5f6112f4826112c9565b9050919050565b5f611305826112ea565b9050919050565b611315816112fb565b82525050565b5f60208201905061132e5f83018461130c565b92915050565b61133d8161111e565b82525050565b5f82825260208201905092915050565b5f61135d82611157565b6113678185611343565b9350611377818560208601611171565b61138081610df9565b840191505092915050565b6113948161120a565b82525050565b5f60a083015f8301516113af5f860182611334565b5060208301516113c26020860182611029565b50604083015184820360408601526113da8282611353565b91505060608301516113ef6060860182611029565b506080830151611402608086018261138b565b508091505092915050565b5f6020820190508181035f830152611425818461139a565b905092915050565b6114368161111e565b8114611440575f80fd5b50565b5f813590506114518161142d565b92915050565b5f6020828403121561146c5761146b610db6565b5b5f61147984828501611443565b91505092915050565b5f8115159050919050565b61149681611482565b81146114a0575f80fd5b50565b5f815190506114b18161148d565b92915050565b5f602082840312156114cc576114cb610db6565b5b5f6114d9848285016114a3565b91505092915050565b7f4e6f742061206d656d626572206f662074686520696e737572616e636520706f5f8201527f6f6c000000000000000000000000000000000000000000000000000000000000602082015250565b5f61153c602283611161565b9150611547826114e2565b604082019050919050565b5f6020820190508181035f83015261156981611530565b9050919050565b7f4e487b71000000000000000000000000000000000000000000000000000000005f52601160045260245ffd5b5f6115a782610dbe565b91507fffffffffffffffffffffffffffffffffffffffffffffffffffffffffffffffff82036115d9576115d8611570565b5b600182019050919050565b7f4e487b71000000000000000000000000000000000000000000000000000000005f52602260045260245ffd5b5f600282049050600182168061162857607f821691505b60208210810361163b5761163a6115e4565b5b50919050565b5f819050815f5260205f209050919050565b5f6020601f8301049050919050565b5f82821b905092915050565b5f6008830261169d7fffffffffffffffffffffffffffffffffffffffffffffffffffffffffffffffff82611662565b6116a78683611662565b95508019841693508086168417925050509392505050565b5f6116d96116d46116cf84610dbe565b6112c0565b610dbe565b9050919050565b5f819050919050565b6116f2836116bf565b6117066116fe826116e0565b84845461166e565b825550505050565b5f90565b61171a61170e565b6117258184846116e9565b505050565b5b818110156117485761173d5f82611712565b60018101905061172b565b5050565b601f82111561178d5761175e81611641565b61176784611653565b81016020851015611776578190505b61178a61178285611653565b83018261172a565b50505b505050565b5f82821c905092915050565b5f6117ad5f1984600802611792565b1980831691505092915050565b5f6117c5838361179e565b9150826002028217905092915050565b6117de82611157565b67ffffffffffffffff8111156117f7576117f6610e09565b5b6118018254611611565b61180c82828561174c565b5f60209050601f83116001811461183d575f841561182b578287015190505b61183585826117ba565b86555061189c565b601f19841661184b86611641565b5f5b828110156118725784890151825560018201915060208501945060208101905061184d565b8683101561188f578489015161188b601f89168261179e565b8355505b6001600288020188555050505b505050505050565b7f496e76616c696420636c61696d204944000000000000000000000000000000005f82015250565b5f6118d8601083611161565b91506118e3826118a4565b602082019050919050565b5f6020820190508181035f830152611905816118cc565b9050919050565b7f436c61696d206e6f7420617070726f76656400000000000000000000000000005f82015250565b5f611940601283611161565b915061194b8261190c565b602082019050919050565b5f6020820190508181035f83015261196d81611934565b9050919050565b5f6040820190506119875f83018561112f565b61199460208301846110d7565b9392505050565b7f4e487b71000000000000000000000000000000000000000000000000000000005f52603260045260245ffd5b7f5573652070726f63657373436c61696d20666f72207061796d656e74730000005f82015250565b5f6119fc601d83611161565b9150611a07826119c8565b602082019050919050565b5f6020820190508181035f830152611a29816119f0565b9050919050565b5f602082019050611a435f83018461121b565b9291505056fea2646970667358221220a0b2b9db948667a584800907ece9ced9be58c70508e388c8f7e5165ab94914cf64736f6c634300081a0033",
					"opcodes": "PUSH1 0x80 PUSH1 0x40 MSTORE CALLVALUE DUP1 ISZERO PUSH2 0xF JUMPI PUSH0 DUP1 REVERT JUMPDEST POP PUSH1 0x40 MLOAD PUSH2 0x1D0A CODESIZE SUB DUP1 PUSH2 0x1D0A DUP4 CODECOPY DUP2 DUP2 ADD PUSH1 0x40 MSTORE DUP2 ADD SWAP1 PUSH2 0x31 SWAP2 SWAP1 PUSH2 0x218 JUMP JUMPDEST DUP1 PUSH0 PUSH20 0xFFFFFFFFFFFFFFFFFFFFFFFFFFFFFFFFFFFFFFFF AND DUP2 PUSH20 0xFFFFFFFFFFFFFFFFFFFFFFFFFFFFFFFFFFFFFFFF AND SUB PUSH2 0xA2 JUMPI PUSH0 PUSH1 0x40 MLOAD PUSH32 0x1E4FBDF700000000000000000000000000000000000000000000000000000000 DUP2 MSTORE PUSH1 0x4 ADD PUSH2 0x99 SWAP2 SWAP1 PUSH2 0x265 JUMP JUMPDEST PUSH1 0x40 MLOAD DUP1 SWAP2 SUB SWAP1 REVERT JUMPDEST PUSH2 0xB1 DUP2 PUSH2 0xF9 PUSH1 0x20 SHL PUSH1 0x20 SHR JUMP JUMPDEST POP DUP2 PUSH1 0x1 PUSH0 PUSH2 0x100 EXP DUP2 SLOAD DUP2 PUSH20 0xFFFFFFFFFFFFFFFFFFFFFFFFFFFFFFFFFFFFFFFF MUL NOT AND SWAP1 DUP4 PUSH20 0xFFFFFFFFFFFFFFFFFFFFFFFFFFFFFFFFFFFFFFFF AND MUL OR SWAP1 SSTORE POP POP POP PUSH2 0x27E JUMP JUMPDEST PUSH0 DUP1 PUSH0 SWAP1 SLOAD SWAP1 PUSH2 0x100 EXP SWAP1 DIV PUSH20 0xFFFFFFFFFFFFFFFFFFFFFFFFFFFFFFFFFFFFFFFF AND SWAP1 POP DUP2 PUSH0 DUP1 PUSH2 0x100 EXP DUP2 SLOAD DUP2 PUSH20 0xFFFFFFFFFFFFFFFFFFFFFFFFFFFFFFFFFFFFFFFF MUL NOT AND SWAP1 DUP4 PUSH20 0xFFFFFFFFFFFFFFFFFFFFFFFFFFFFFFFFFFFFFFFF AND MUL OR SWAP1 SSTORE POP DUP2 PUSH20 0xFFFFFFFFFFFFFFFFFFFFFFFFFFFFFFFFFFFFFFFF AND DUP2 PUSH20 0xFFFFFFFFFFFFFFFFFFFFFFFFFFFFFFFFFFFFFFFF AND PUSH32 0x8BE0079C531659141344CD1FD0A4F28419497F9722A3DAAFE3B4186F6B6457E0 PUSH1 0x40 MLOAD PUSH1 0x40 MLOAD DUP1 SWAP2 SUB SWAP1 LOG3 POP POP JUMP JUMPDEST PUSH0 DUP1 REVERT JUMPDEST PUSH0 PUSH20 0xFFFFFFFFFFFFFFFFFFFFFFFFFFFFFFFFFFFFFFFF DUP3 AND SWAP1 POP SWAP2 SWAP1 POP JUMP JUMPDEST PUSH0 PUSH2 0x1E7 DUP3 PUSH2 0x1BE JUMP JUMPDEST SWAP1 POP SWAP2 SWAP1 POP JUMP JUMPDEST PUSH2 0x1F7 DUP2 PUSH2 0x1DD JUMP JUMPDEST DUP2 EQ PUSH2 0x201 JUMPI PUSH0 DUP1 REVERT JUMPDEST POP JUMP JUMPDEST PUSH0 DUP2 MLOAD SWAP1 POP PUSH2 0x212 DUP2 PUSH2 0x1EE JUMP JUMPDEST SWAP3 SWAP2 POP POP JUMP JUMPDEST PUSH0 DUP1 PUSH1 0x40 DUP4 DUP6 SUB SLT ISZERO PUSH2 0x22E JUMPI PUSH2 0x22D PUSH2 0x1BA JUMP JUMPDEST JUMPDEST PUSH0 PUSH2 0x23B DUP6 DUP3 DUP7 ADD PUSH2 0x204 JUMP JUMPDEST SWAP3 POP POP PUSH1 0x20 PUSH2 0x24C DUP6 DUP3 DUP7 ADD PUSH2 0x204 JUMP JUMPDEST SWAP2 POP POP SWAP3 POP SWAP3 SWAP1 POP JUMP JUMPDEST PUSH2 0x25F DUP2 PUSH2 0x1DD JUMP JUMPDEST DUP3 MSTORE POP POP JUMP JUMPDEST PUSH0 PUSH1 0x20 DUP3 ADD SWAP1 POP PUSH2 0x278 PUSH0 DUP4 ADD DUP5 PUSH2 0x256 JUMP JUMPDEST SWAP3 SWAP2 POP POP JUMP JUMPDEST PUSH2 0x1A7F DUP1 PUSH2 0x28B PUSH0 CODECOPY PUSH0 RETURN INVALID PUSH1 0x80 PUSH1 0x40 MSTORE CALLVALUE DUP1 ISZERO PUSH2 0xF JUMPI PUSH0 DUP1 REVERT JUMPDEST POP PUSH1 0x4 CALLDATASIZE LT PUSH2 0xA7 JUMPI PUSH0 CALLDATALOAD PUSH1 0xE0 SHR DUP1 PUSH4 0x8DA5CB5B GT PUSH2 0x6F JUMPI DUP1 PUSH4 0x8DA5CB5B EQ PUSH2 0x13B JUMPI DUP1 PUSH4 0xA888C2CD EQ PUSH2 0x159 JUMPI DUP1 PUSH4 0xAB1F5B7C EQ PUSH2 0x18D JUMPI DUP1 PUSH4 0xAB2ADC00 EQ PUSH2 0x1A9 JUMPI DUP1 PUSH4 0xBAC71E00 EQ PUSH2 0x1C7 JUMPI DUP1 PUSH4 0xF2FDE38B EQ PUSH2 0x1F7 JUMPI PUSH2 0xA7 JUMP JUMPDEST DUP1 PUSH4 0x45B46525 EQ PUSH2 0xAB JUMPI DUP1 PUSH4 0x715018A6 EQ PUSH2 0xC7 JUMPI DUP1 PUSH4 0x7257DFC9 EQ PUSH2 0xD1 JUMPI DUP1 PUSH4 0x791309F1 EQ PUSH2 0xED JUMPI DUP1 PUSH4 0x8DA4D3C9 EQ PUSH2 0x11D JUMPI JUMPDEST PUSH0 DUP1 REVERT JUMPDEST PUSH2 0xC5 PUSH1 0x4 DUP1 CALLDATASIZE SUB DUP2 ADD SWAP1 PUSH2 0xC0 SWAP2 SWAP1 PUSH2 0xF2D JUMP JUMPDEST PUSH2 0x213 JUMP JUMPDEST STOP JUMPDEST PUSH2 0xCF PUSH2 0x458 JUMP JUMPDEST STOP JUMPDEST PUSH2 0xEB PUSH1 0x4 DUP1 CALLDATASIZE SUB DUP2 ADD SWAP1 PUSH2 0xE6 SWAP2 SWAP1 PUSH2 0xF87 JUMP JUMPDEST PUSH2 0x46B JUMP JUMPDEST STOP JUMPDEST PUSH2 0x107 PUSH1 0x4 DUP1 CALLDATASIZE SUB DUP2 ADD SWAP1 PUSH2 0x102 SWAP2 SWAP1 PUSH2 0xFD5 JUMP JUMPDEST PUSH2 0x696 JUMP JUMPDEST PUSH1 0x40 MLOAD PUSH2 0x114 SWAP2 SWAP1 PUSH2 0x10B7 JUMP JUMPDEST PUSH1 0x40 MLOAD DUP1 SWAP2 SUB SWAP1 RETURN JUMPDEST PUSH2 0x125 PUSH2 0x788 JUMP JUMPDEST PUSH1 0x40 MLOAD PUSH2 0x132 SWAP2 SWAP1 PUSH2 0x10E6 JUMP JUMPDEST PUSH1 0x40 MLOAD DUP1 SWAP2 SUB SWAP1 RETURN JUMPDEST PUSH2 0x143 PUSH2 0x78E JUMP JUMPDEST PUSH1 0x40 MLOAD PUSH2 0x150 SWAP2 SWAP1 PUSH2 0x113E JUMP JUMPDEST PUSH1 0x40 MLOAD DUP1 SWAP2 SUB SWAP1 RETURN JUMPDEST PUSH2 0x173 PUSH1 0x4 DUP1 CALLDATASIZE SUB DUP2 ADD SWAP1 PUSH2 0x16E SWAP2 SWAP1 PUSH2 0xF87 JUMP JUMPDEST PUSH2 0x7B5 JUMP JUMPDEST PUSH1 0x40 MLOAD PUSH2 0x184 SWAP6 SWAP5 SWAP4 SWAP3 SWAP2 SWAP1 PUSH2 0x122A JUMP JUMPDEST PUSH1 0x40 MLOAD DUP1 SWAP2 SUB SWAP1 RETURN JUMPDEST PUSH2 0x1A7 PUSH1 0x4 DUP1 CALLDATASIZE SUB DUP2 ADD SWAP1 PUSH2 0x1A2 SWAP2 SWAP1 PUSH2 0x1282 JUMP JUMPDEST PUSH2 0x898 JUMP JUMPDEST STOP JUMPDEST PUSH2 0x1B1 PUSH2 0x9C1 JUMP JUMPDEST PUSH1 0x40 MLOAD PUSH2 0x1BE SWAP2 SWAP1 PUSH2 0x131B JUMP JUMPDEST PUSH1 0x40 MLOAD DUP1 SWAP2 SUB SWAP1 RETURN JUMPDEST PUSH2 0x1E1 PUSH1 0x4 DUP1 CALLDATASIZE SUB DUP2 ADD SWAP1 PUSH2 0x1DC SWAP2 SWAP1 PUSH2 0xF87 JUMP JUMPDEST PUSH2 0x9E6 JUMP JUMPDEST PUSH1 0x40 MLOAD PUSH2 0x1EE SWAP2 SWAP1 PUSH2 0x140D JUMP JUMPDEST PUSH1 0x40 MLOAD DUP1 SWAP2 SUB SWAP1 RETURN JUMPDEST PUSH2 0x211 PUSH1 0x4 DUP1 CALLDATASIZE SUB DUP2 ADD SWAP1 PUSH2 0x20C SWAP2 SWAP1 PUSH2 0x1457 JUMP JUMPDEST PUSH2 0xB87 JUMP JUMPDEST STOP JUMPDEST PUSH1 0x1 PUSH0 SWAP1 SLOAD SWAP1 PUSH2 0x100 EXP SWAP1 DIV PUSH20 0xFFFFFFFFFFFFFFFFFFFFFFFFFFFFFFFFFFFFFFFF AND PUSH20 0xFFFFFFFFFFFFFFFFFFFFFFFFFFFFFFFFFFFFFFFF AND PUSH4 0xA230C524 CALLER PUSH1 0x40 MLOAD DUP3 PUSH4 0xFFFFFFFF AND PUSH1 0xE0 SHL DUP2 MSTORE PUSH1 0x4 ADD PUSH2 0x26D SWAP2 SWAP1 PUSH2 0x113E JUMP JUMPDEST PUSH1 0x20 PUSH1 0x40 MLOAD DUP1 DUP4 SUB DUP2 DUP7 GAS STATICCALL ISZERO DUP1 ISZERO PUSH2 0x288 JUMPI RETURNDATASIZE PUSH0 DUP1 RETURNDATACOPY RETURNDATASIZE PUSH0 REVERT JUMPDEST POP POP POP POP PUSH1 0x40 MLOAD RETURNDATASIZE PUSH1 0x1F NOT PUSH1 0x1F DUP3 ADD AND DUP3 ADD DUP1 PUSH1 0x40 MSTORE POP DUP2 ADD SWAP1 PUSH2 0x2AC SWAP2 SWAP1 PUSH2 0x14B7 JUMP JUMPDEST PUSH2 0x2EB JUMPI PUSH1 0x40 MLOAD PUSH32 0x8C379A000000000000000000000000000000000000000000000000000000000 DUP2 MSTORE PUSH1 0x4 ADD PUSH2 0x2E2 SWAP1 PUSH2 0x1552 JUMP JUMPDEST PUSH1 0x40 MLOAD DUP1 SWAP2 SUB SWAP1 REVERT JUMPDEST PUSH0 PUSH1 0x3 PUSH0 DUP2 SLOAD DUP1 SWAP3 SWAP2 SWAP1 PUSH2 0x2FE SWAP1 PUSH2 0x159D JUMP JUMPDEST SWAP2 SWAP1 POP SSTORE SWAP1 POP PUSH1 0x40 MLOAD DUP1 PUSH1 0xA0 ADD PUSH1 0x40 MSTORE DUP1 CALLER PUSH20 0xFFFFFFFFFFFFFFFFFFFFFFFFFFFFFFFFFFFFFFFF AND DUP2 MSTORE PUSH1 0x20 ADD DUP5 DUP2 MSTORE PUSH1 0x20 ADD DUP4 DUP2 MSTORE PUSH1 0x20 ADD TIMESTAMP DUP2 MSTORE PUSH1 0x20 ADD PUSH0 PUSH1 0x4 DUP2 GT ISZERO PUSH2 0x350 JUMPI PUSH2 0x34F PUSH2 0x11B7 JUMP JUMPDEST JUMPDEST DUP2 MSTORE POP PUSH1 0x2 PUSH0 DUP4 DUP2 MSTORE PUSH1 0x20 ADD SWAP1 DUP2 MSTORE PUSH1 0x20 ADD PUSH0 KECCAK256 PUSH0 DUP3 ADD MLOAD DUP2 PUSH0 ADD PUSH0 PUSH2 0x100 EXP DUP2 SLOAD DUP2 PUSH20 0xFFFFFFFFFFFFFFFFFFFFFFFFFFFFFFFFFFFFFFFF MUL NOT AND SWAP1 DUP4 PUSH20 0xFFFFFFFFFFFFFFFFFFFFFFFFFFFFFFFFFFFFFFFF AND MUL OR SWAP1 SSTORE POP PUSH1 0x20 DUP3 ADD MLOAD DUP2 PUSH1 0x1 ADD SSTORE PUSH1 0x40 DUP3 ADD MLOAD DUP2 PUSH1 0x2 ADD SWAP1 DUP2 PUSH2 0x3C7 SWAP2 SWAP1 PUSH2 0x17D5 JUMP JUMPDEST POP PUSH1 0x60 DUP3 ADD MLOAD DUP2 PUSH1 0x3 ADD SSTORE PUSH1 0x80 DUP3 ADD MLOAD DUP2 PUSH1 0x4 ADD PUSH0 PUSH2 0x100 EXP DUP2 SLOAD DUP2 PUSH1 0xFF MUL NOT AND SWAP1 DUP4 PUSH1 0x4 DUP2 GT ISZERO PUSH2 0x3FC JUMPI PUSH2 0x3FB PUSH2 0x11B7 JUMP JUMPDEST JUMPDEST MUL OR SWAP1 SSTORE POP SWAP1 POP POP CALLER PUSH20 0xFFFFFFFFFFFFFFFFFFFFFFFFFFFFFFFFFFFFFFFF AND DUP2 PUSH32 0x1BC0F9D4F6B0C66E2BDA5F433D9760D7EB48E89B73FFEA517A7BA5E4FE0657D DUP6 PUSH1 0x40 MLOAD PUSH2 0x44B SWAP2 SWAP1 PUSH2 0x10E6 JUMP JUMPDEST PUSH1 0x40 MLOAD DUP1 SWAP2 SUB SWAP1 LOG3 POP POP POP JUMP JUMPDEST PUSH2 0x460 PUSH2 0xC0B JUMP JUMPDEST PUSH2 0x469 PUSH0 PUSH2 0xC92 JUMP JUMPDEST JUMP JUMPDEST PUSH2 0x473 PUSH2 0xC0B JUMP JUMPDEST PUSH1 0x3 SLOAD DUP2 LT PUSH2 0x4B7 JUMPI PUSH1 0x40 MLOAD PUSH32 0x8C379A000000000000000000000000000000000000000000000000000000000 DUP2 MSTORE PUSH1 0x4 ADD PUSH2 0x4AE SWAP1 PUSH2 0x18EE JUMP JUMPDEST PUSH1 0x40 MLOAD DUP1 SWAP2 SUB SWAP1 REVERT JUMPDEST PUSH0 PUSH1 0x2 PUSH0 DUP4 DUP2 MSTORE PUSH1 0x20 ADD SWAP1 DUP2 MSTORE PUSH1 0x20 ADD PUSH0 KECCAK256 SWAP1 POP PUSH1 0x2 PUSH1 0x4 DUP2 GT ISZERO PUSH2 0x4DF JUMPI PUSH2 0x4DE PUSH2 0x11B7 JUMP JUMPDEST JUMPDEST DUP2 PUSH1 0x4 ADD PUSH0 SWAP1 SLOAD SWAP1 PUSH2 0x100 EXP SWAP1 DIV PUSH1 0xFF AND PUSH1 0x4 DUP2 GT ISZERO PUSH2 0x502 JUMPI PUSH2 0x501 PUSH2 0x11B7 JUMP JUMPDEST JUMPDEST EQ PUSH2 0x542 JUMPI PUSH1 0x40 MLOAD PUSH32 0x8C379A000000000000000000000000000000000000000000000000000000000 DUP2 MSTORE PUSH1 0x4 ADD PUSH2 0x539 SWAP1 PUSH2 0x1956 JUMP JUMPDEST PUSH1 0x40 MLOAD DUP1 SWAP2 SUB SWAP1 REVERT JUMPDEST PUSH1 0x4 DUP2 PUSH1 0x4 ADD PUSH0 PUSH2 0x100 EXP DUP2 SLOAD DUP2 PUSH1 0xFF MUL NOT AND SWAP1 DUP4 PUSH1 0x4 DUP2 GT ISZERO PUSH2 0x569 JUMPI PUSH2 0x568 PUSH2 0x11B7 JUMP JUMPDEST JUMPDEST MUL OR SWAP1 SSTORE POP PUSH1 0x1 PUSH0 SWAP1 SLOAD SWAP1 PUSH2 0x100 EXP SWAP1 DIV PUSH20 0xFFFFFFFFFFFFFFFFFFFFFFFFFFFFFFFFFFFFFFFF AND PUSH20 0xFFFFFFFFFFFFFFFFFFFFFFFFFFFFFFFFFFFFFFFF AND PUSH4 0x6FFC215C DUP3 PUSH0 ADD PUSH0 SWAP1 SLOAD SWAP1 PUSH2 0x100 EXP SWAP1 DIV PUSH20 0xFFFFFFFFFFFFFFFFFFFFFFFFFFFFFFFFFFFFFFFF AND DUP4 PUSH1 0x1 ADD SLOAD PUSH1 0x40 MLOAD DUP4 PUSH4 0xFFFFFFFF AND PUSH1 0xE0 SHL DUP2 MSTORE PUSH1 0x4 ADD PUSH2 0x5F0 SWAP3 SWAP2 SWAP1 PUSH2 0x1974 JUMP JUMPDEST PUSH0 PUSH1 0x40 MLOAD DUP1 DUP4 SUB DUP2 PUSH0 DUP8 DUP1 EXTCODESIZE ISZERO DUP1 ISZERO PUSH2 0x607 JUMPI PUSH0 DUP1 REVERT JUMPDEST POP GAS CALL ISZERO DUP1 ISZERO PUSH2 0x619 JUMPI RETURNDATASIZE PUSH0 DUP1 RETURNDATACOPY RETURNDATASIZE PUSH0 REVERT JUMPDEST POP POP POP POP DUP1 PUSH0 ADD PUSH0 SWAP1 SLOAD SWAP1 PUSH2 0x100 EXP SWAP1 DIV PUSH20 0xFFFFFFFFFFFFFFFFFFFFFFFFFFFFFFFFFFFFFFFF AND PUSH20 0xFFFFFFFFFFFFFFFFFFFFFFFFFFFFFFFFFFFFFFFF AND DUP3 PUSH32 0xAF3C8FDD75D667F71D36D7840B8EF9086C516C9B047AD6A83A5A66151342123A DUP4 PUSH1 0x1 ADD SLOAD PUSH1 0x40 MLOAD PUSH2 0x68A SWAP2 SWAP1 PUSH2 0x10E6 JUMP JUMPDEST PUSH1 0x40 MLOAD DUP1 SWAP2 SUB SWAP1 LOG3 POP POP JUMP JUMPDEST PUSH1 0x60 PUSH0 PUSH1 0x3 SLOAD PUSH8 0xFFFFFFFFFFFFFFFF DUP2 GT ISZERO PUSH2 0x6B5 JUMPI PUSH2 0x6B4 PUSH2 0xE09 JUMP JUMPDEST JUMPDEST PUSH1 0x40 MLOAD SWAP1 DUP1 DUP3 MSTORE DUP1 PUSH1 0x20 MUL PUSH1 0x20 ADD DUP3 ADD PUSH1 0x40 MSTORE DUP1 ISZERO PUSH2 0x6E3 JUMPI DUP2 PUSH1 0x20 ADD PUSH1 0x20 DUP3 MUL DUP1 CALLDATASIZE DUP4 CALLDATACOPY DUP1 DUP3 ADD SWAP2 POP POP SWAP1 POP JUMPDEST POP SWAP1 POP PUSH0 DUP1 JUMPDEST PUSH1 0x3 SLOAD DUP2 LT ISZERO PUSH2 0x77A JUMPI DUP5 PUSH1 0x4 DUP2 GT ISZERO PUSH2 0x706 JUMPI PUSH2 0x705 PUSH2 0x11B7 JUMP JUMPDEST JUMPDEST PUSH1 0x2 PUSH0 DUP4 DUP2 MSTORE PUSH1 0x20 ADD SWAP1 DUP2 MSTORE PUSH1 0x20 ADD PUSH0 KECCAK256 PUSH1 0x4 ADD PUSH0 SWAP1 SLOAD SWAP1 PUSH2 0x100 EXP SWAP1 DIV PUSH1 0xFF AND PUSH1 0x4 DUP2 GT ISZERO PUSH2 0x739 JUMPI PUSH2 0x738 PUSH2 0x11B7 JUMP JUMPDEST JUMPDEST SUB PUSH2 0x76D JUMPI DUP1 DUP4 DUP4 DUP2 MLOAD DUP2 LT PUSH2 0x752 JUMPI PUSH2 0x751 PUSH2 0x199B JUMP JUMPDEST JUMPDEST PUSH1 0x20 MUL PUSH1 0x20 ADD ADD DUP2 DUP2 MSTORE POP POP DUP2 DUP1 PUSH2 0x769 SWAP1 PUSH2 0x159D JUMP JUMPDEST SWAP3 POP POP JUMPDEST DUP1 DUP1 PUSH1 0x1 ADD SWAP2 POP POP PUSH2 0x6E9 JUMP JUMPDEST POP DUP1 DUP3 MSTORE DUP2 SWAP3 POP POP POP SWAP2 SWAP1 POP JUMP JUMPDEST PUSH1 0x3 SLOAD DUP2 JUMP JUMPDEST PUSH0 DUP1 PUSH0 SWAP1 SLOAD SWAP1 PUSH2 0x100 EXP SWAP1 DIV PUSH20 0xFFFFFFFFFFFFFFFFFFFFFFFFFFFFFFFFFFFFFFFF AND SWAP1 POP SWAP1 JUMP JUMPDEST PUSH1 0x2 PUSH1 0x20 MSTORE DUP1 PUSH0 MSTORE PUSH1 0x40 PUSH0 KECCAK256 PUSH0 SWAP2 POP SWAP1 POP DUP1 PUSH0 ADD PUSH0 SWAP1 SLOAD SWAP1 PUSH2 0x100 EXP SWAP1 DIV PUSH20 0xFFFFFFFFFFFFFFFFFFFFFFFFFFFFFFFFFFFFFFFF AND SWAP1 DUP1 PUSH1 0x1 ADD SLOAD SWAP1 DUP1 PUSH1 0x2 ADD DUP1 SLOAD PUSH2 0x7FF SWAP1 PUSH2 0x1611 JUMP JUMPDEST DUP1 PUSH1 0x1F ADD PUSH1 0x20 DUP1 SWAP2 DIV MUL PUSH1 0x20 ADD PUSH1 0x40 MLOAD SWAP1 DUP2 ADD PUSH1 0x40 MSTORE DUP1 SWAP3 SWAP2 SWAP1 DUP2 DUP2 MSTORE PUSH1 0x20 ADD DUP3 DUP1 SLOAD PUSH2 0x82B SWAP1 PUSH2 0x1611 JUMP JUMPDEST DUP1 ISZERO PUSH2 0x876 JUMPI DUP1 PUSH1 0x1F LT PUSH2 0x84D JUMPI PUSH2 0x100 DUP1 DUP4 SLOAD DIV MUL DUP4 MSTORE SWAP2 PUSH1 0x20 ADD SWAP2 PUSH2 0x876 JUMP JUMPDEST DUP3 ADD SWAP2 SWAP1 PUSH0 MSTORE PUSH1 0x20 PUSH0 KECCAK256 SWAP1 JUMPDEST DUP2 SLOAD DUP2 MSTORE SWAP1 PUSH1 0x1 ADD SWAP1 PUSH1 0x20 ADD DUP1 DUP4 GT PUSH2 0x859 JUMPI DUP3 SWAP1 SUB PUSH1 0x1F AND DUP3 ADD SWAP2 JUMPDEST POP POP POP POP POP SWAP1 DUP1 PUSH1 0x3 ADD SLOAD SWAP1 DUP1 PUSH1 0x4 ADD PUSH0 SWAP1 SLOAD SWAP1 PUSH2 0x100 EXP SWAP1 DIV PUSH1 0xFF AND SWAP1 POP DUP6 JUMP JUMPDEST PUSH2 0x8A0 PUSH2 0xC0B JUMP JUMPDEST PUSH1 0x3 SLOAD DUP3 LT PUSH2 0x8E4 JUMPI PUSH1 0x40 MLOAD PUSH32 0x8C379A000000000000000000000000000000000000000000000000000000000 DUP2 MSTORE PUSH1 0x4 ADD PUSH2 0x8DB SWAP1 PUSH2 0x18EE JUMP JUMPDEST PUSH1 0x40 MLOAD DUP1 SWAP2 SUB SWAP1 REVERT JUMPDEST PUSH1 0x4 DUP1 DUP2 GT ISZERO PUSH2 0x8F7 JUMPI PUSH2 0x8F6 PUSH2 0x11B7 JUMP JUMPDEST JUMPDEST DUP2 PUSH1 0x4 DUP2 GT ISZERO PUSH2 0x90A JUMPI PUSH2 0x909 PUSH2 0x11B7 JUMP JUMPDEST JUMPDEST SUB PUSH2 0x94A JUMPI PUSH1 0x40 MLOAD PUSH32 0x8C379A000000000000000000000000000000000000000000000000000000000 DUP2 MSTORE PUSH1 0x4 ADD PUSH2 0x941 SWAP1 PUSH2 0x1A12 JUMP JUMPDEST PUSH1 0x40 MLOAD DUP1 SWAP2 SUB SWAP1 REVERT JUMPDEST DUP1 PUSH1 0x2 PUSH0 DUP5 DUP2 MSTORE PUSH1 0x20 ADD SWAP1 DUP2 MSTORE PUSH1 0x20 ADD PUSH0 KECCAK256 PUSH1 0x4 ADD PUSH0 PUSH2 0x100 EXP DUP2 SLOAD DUP2 PUSH1 0xFF MUL NOT AND SWAP1 DUP4 PUSH1 0x4 DUP2 GT ISZERO PUSH2 0x980 JUMPI PUSH2 0x97F PUSH2 0x11B7 JUMP JUMPDEST JUMPDEST MUL OR SWAP1 SSTORE POP DUP2 PUSH32 0x2E7DE2377C1E6F85A268DBE00519C60D65C9E38570A118BE0EB07FEB07FC89BE DUP3 PUSH1 0x40 MLOAD PUSH2 0x9B5 SWAP2 SWAP1 PUSH2 0x1A30 JUMP JUMPDEST PUSH1 0x40 MLOAD DUP1 SWAP2 SUB SWAP1 LOG2 POP POP JUMP JUMPDEST PUSH1 0x1 PUSH0 SWAP1 SLOAD SWAP1 PUSH2 0x100 EXP SWAP1 DIV PUSH20 0xFFFFFFFFFFFFFFFFFFFFFFFFFFFFFFFFFFFFFFFF AND DUP2 JUMP JUMPDEST PUSH2 0x9EE PUSH2 0xD5A JUMP JUMPDEST PUSH1 0x3 SLOAD DUP3 LT PUSH2 0xA32 JUMPI PUSH1 0x40 MLOAD PUSH32 0x8C379A000000000000000000000000000000000000000000000000000000000 DUP2 MSTORE PUSH1 0x4 ADD PUSH2 0xA29 SWAP1 PUSH2 0x18EE JUMP JUMPDEST PUSH1 0x40 MLOAD DUP1 SWAP2 SUB SWAP1 REVERT JUMPDEST PUSH1 0x2 PUSH0 DUP4 DUP2 MSTORE PUSH1 0x20 ADD SWAP1 DUP2 MSTORE PUSH1 0x20 ADD PUSH0 KECCAK256 PUSH1 0x40 MLOAD DUP1 PUSH1 0xA0 ADD PUSH1 0x40 MSTORE SWAP1 DUP2 PUSH0 DUP3 ADD PUSH0 SWAP1 SLOAD SWAP1 PUSH2 0x100 EXP SWAP1 DIV PUSH20 0xFFFFFFFFFFFFFFFFFFFFFFFFFFFFFFFFFFFFFFFF AND PUSH20 0xFFFFFFFFFFFFFFFFFFFFFFFFFFFFFFFFFFFFFFFF AND PUSH20 0xFFFFFFFFFFFFFFFFFFFFFFFFFFFFFFFFFFFFFFFF AND DUP2 MSTORE PUSH1 0x20 ADD PUSH1 0x1 DUP3 ADD SLOAD DUP2 MSTORE PUSH1 0x20 ADD PUSH1 0x2 DUP3 ADD DUP1 SLOAD PUSH2 0xABC SWAP1 PUSH2 0x1611 JUMP JUMPDEST DUP1 PUSH1 0x1F ADD PUSH1 0x20 DUP1 SWAP2 DIV MUL PUSH1 0x20 ADD PUSH1 0x40 MLOAD SWAP1 DUP2 ADD PUSH1 0x40 MSTORE DUP1 SWAP3 SWAP2 SWAP1 DUP2 DUP2 MSTORE PUSH1 0x20 ADD DUP3 DUP1 SLOAD PUSH2 0xAE8 SWAP1 PUSH2 0x1611 JUMP JUMPDEST DUP1 ISZERO PUSH2 0xB33 JUMPI DUP1 PUSH1 0x1F LT PUSH2 0xB0A JUMPI PUSH2 0x100 DUP1 DUP4 SLOAD DIV MUL DUP4 MSTORE SWAP2 PUSH1 0x20 ADD SWAP2 PUSH2 0xB33 JUMP JUMPDEST DUP3 ADD SWAP2 SWAP1 PUSH0 MSTORE PUSH1 0x20 PUSH0 KECCAK256 SWAP1 JUMPDEST DUP2 SLOAD DUP2 MSTORE SWAP1 PUSH1 0x1 ADD SWAP1 PUSH1 0x20 ADD DUP1 DUP4 GT PUSH2 0xB16 JUMPI DUP3 SWAP1 SUB PUSH1 0x1F AND DUP3 ADD SWAP2 JUMPDEST POP POP POP POP POP DUP2 MSTORE PUSH1 0x20 ADD PUSH1 0x3 DUP3 ADD SLOAD DUP2 MSTORE PUSH1 0x20 ADD PUSH1 0x4 DUP3 ADD PUSH0 SWAP1 SLOAD SWAP1 PUSH2 0x100 EXP SWAP1 DIV PUSH1 0xFF AND PUSH1 0x4 DUP2 GT ISZERO PUSH2 0xB6A JUMPI PUSH2 0xB69 PUSH2 0x11B7 JUMP JUMPDEST JUMPDEST PUSH1 0x4 DUP2 GT ISZERO PUSH2 0xB7C JUMPI PUSH2 0xB7B PUSH2 0x11B7 JUMP JUMPDEST JUMPDEST DUP2 MSTORE POP POP SWAP1 POP SWAP2 SWAP1 POP JUMP JUMPDEST PUSH2 0xB8F PUSH2 0xC0B JUMP JUMPDEST PUSH0 PUSH20 0xFFFFFFFFFFFFFFFFFFFFFFFFFFFFFFFFFFFFFFFF AND DUP2 PUSH20 0xFFFFFFFFFFFFFFFFFFFFFFFFFFFFFFFFFFFFFFFF AND SUB PUSH2 0xBFF JUMPI PUSH0 PUSH1 0x40 MLOAD PUSH32 0x1E4FBDF700000000000000000000000000000000000000000000000000000000 DUP2 MSTORE PUSH1 0x4 ADD PUSH2 0xBF6 SWAP2 SWAP1 PUSH2 0x113E JUMP JUMPDEST PUSH1 0x40 MLOAD DUP1 SWAP2 SUB SWAP1 REVERT JUMPDEST PUSH2 0xC08 DUP2 PUSH2 0xC92 JUMP JUMPDEST POP JUMP JUMPDEST PUSH2 0xC13 PUSH2 0xD53 JUMP JUMPDEST PUSH20 0xFFFFFFFFFFFFFFFFFFFFFFFFFFFFFFFFFFFFFFFF AND PUSH2 0xC31 PUSH2 0x78E JUMP JUMPDEST PUSH20 0xFFFFFFFFFFFFFFFFFFFFFFFFFFFFFFFFFFFFFFFF AND EQ PUSH2 0xC90 JUMPI PUSH2 0xC54 PUSH2 0xD53 JUMP JUMPDEST PUSH1 0x40 MLOAD PUSH32 0x118CDAA700000000000000000000000000000000000000000000000000000000 DUP2 MSTORE PUSH1 0x4 ADD PUSH2 0xC87 SWAP2 SWAP1 PUSH2 0x113E JUMP JUMPDEST PUSH1 0x40 MLOAD DUP1 SWAP2 SUB SWAP1 REVERT JUMPDEST JUMP JUMPDEST PUSH0 DUP1 PUSH0 SWAP1 SLOAD SWAP1 PUSH2 0x100 EXP SWAP1 DIV PUSH20 0xFFFFFFFFFFFFFFFFFFFFFFFFFFFFFFFFFFFFFFFF AND SWAP1 POP DUP2 PUSH0 DUP1 PUSH2 0x100 EXP DUP2 SLOAD DUP2 PUSH20 0xFFFFFFFFFFFFFFFFFFFFFFFFFFFFFFFFFFFFFFFF MUL NOT AND SWAP1 DUP4 PUSH20 0xFFFFFFFFFFFFFFFFFFFFFFFFFFFFFFFFFFFFFFFF AND MUL OR SWAP1 SSTORE POP DUP2 PUSH20 0xFFFFFFFFFFFFFFFFFFFFFFFFFFFFFFFFFFFFFFFF AND DUP2 PUSH20 0xFFFFFFFFFFFFFFFFFFFFFFFFFFFFFFFFFFFFFFFF AND PUSH32 0x8BE0079C531659141344CD1FD0A4F28419497F9722A3DAAFE3B4186F6B6457E0 PUSH1 0x40 MLOAD PUSH1 0x40 MLOAD DUP1 SWAP2 SUB SWAP1 LOG3 POP POP JUMP JUMPDEST PUSH0 CALLER SWAP1 POP SWAP1 JUMP JUMPDEST PUSH1 0x40 MLOAD DUP1 PUSH1 0xA0 ADD PUSH1 0x40 MSTORE DUP1 PUSH0 PUSH20 0xFFFFFFFFFFFFFFFFFFFFFFFFFFFFFFFFFFFFFFFF AND DUP2 MSTORE PUSH1 0x20 ADD PUSH0 DUP2 MSTORE PUSH1 0x20 ADD PUSH1 0x60 DUP2 MSTORE PUSH1 0x20 ADD PUSH0 DUP2 MSTORE PUSH1 0x20 ADD PUSH0 PUSH1 0x4 DUP2 GT ISZERO PUSH2 0xDA7 JUMPI PUSH2 0xDA6 PUSH2 0x11B7 JUMP JUMPDEST JUMPDEST DUP2 MSTORE POP SWAP1 JUMP JUMPDEST PUSH0 PUSH1 0x40 MLOAD SWAP1 POP SWAP1 JUMP JUMPDEST PUSH0 DUP1 REVERT JUMPDEST PUSH0 DUP1 REVERT JUMPDEST PUSH0 DUP2 SWAP1 POP SWAP2 SWAP1 POP JUMP JUMPDEST PUSH2 0xDD0 DUP2 PUSH2 0xDBE JUMP JUMPDEST DUP2 EQ PUSH2 0xDDA JUMPI PUSH0 DUP1 REVERT JUMPDEST POP JUMP JUMPDEST PUSH0 DUP2 CALLDATALOAD SWAP1 POP PUSH2 0xDEB DUP2 PUSH2 0xDC7 JUMP JUMPDEST SWAP3 SWAP2 POP POP JUMP JUMPDEST PUSH0 DUP1 REVERT JUMPDEST PUSH0 DUP1 REVERT JUMPDEST PUSH0 PUSH1 0x1F NOT PUSH1 0x1F DUP4 ADD AND SWAP1 POP SWAP2 SWAP1 POP JUMP JUMPDEST PUSH32 0x4E487B7100000000000000000000000000000000000000000000000000000000 PUSH0 MSTORE PUSH1 0x41 PUSH1 0x4 MSTORE PUSH1 0x24 PUSH0 REVERT JUMPDEST PUSH2 0xE3F DUP3 PUSH2 0xDF9 JUMP JUMPDEST DUP2 ADD DUP2 DUP2 LT PUSH8 0xFFFFFFFFFFFFFFFF DUP3 GT OR ISZERO PUSH2 0xE5E JUMPI PUSH2 0xE5D PUSH2 0xE09 JUMP JUMPDEST JUMPDEST DUP1 PUSH1 0x40 MSTORE POP POP POP JUMP JUMPDEST PUSH0 PUSH2 0xE70 PUSH2 0xDAD JUMP JUMPDEST SWAP1 POP PUSH2 0xE7C DUP3 DUP3 PUSH2 0xE36 JUMP JUMPDEST SWAP2 SWAP1 POP JUMP JUMPDEST PUSH0 PUSH8 0xFFFFFFFFFFFFFFFF DUP3 GT ISZERO PUSH2 0xE9B JUMPI PUSH2 0xE9A PUSH2 0xE09 JUMP JUMPDEST JUMPDEST PUSH2 0xEA4 DUP3 PUSH2 0xDF9 JUMP JUMPDEST SWAP1 POP PUSH1 0x20 DUP2 ADD SWAP1 POP SWAP2 SWAP1 POP JUMP JUMPDEST DUP3 DUP2 DUP4 CALLDATACOPY PUSH0 DUP4 DUP4 ADD MSTORE POP POP POP JUMP JUMPDEST PUSH0 PUSH2 0xED1 PUSH2 0xECC DUP5 PUSH2 0xE81 JUMP JUMPDEST PUSH2 0xE67 JUMP JUMPDEST SWAP1 POP DUP3 DUP2 MSTORE PUSH1 0x20 DUP2 ADD DUP5 DUP5 DUP5 ADD GT ISZERO PUSH2 0xEED JUMPI PUSH2 0xEEC PUSH2 0xDF5 JUMP JUMPDEST JUMPDEST PUSH2 0xEF8 DUP5 DUP3 DUP6 PUSH2 0xEB1 JUMP JUMPDEST POP SWAP4 SWAP3 POP POP POP JUMP JUMPDEST PUSH0 DUP3 PUSH1 0x1F DUP4 ADD SLT PUSH2 0xF14 JUMPI PUSH2 0xF13 PUSH2 0xDF1 JUMP JUMPDEST JUMPDEST DUP2 CALLDATALOAD PUSH2 0xF24 DUP5 DUP3 PUSH1 0x20 DUP7 ADD PUSH2 0xEBF JUMP JUMPDEST SWAP2 POP POP SWAP3 SWAP2 POP POP JUMP JUMPDEST PUSH0 DUP1 PUSH1 0x40 DUP4 DUP6 SUB SLT ISZERO PUSH2 0xF43 JUMPI PUSH2 0xF42 PUSH2 0xDB6 JUMP JUMPDEST JUMPDEST PUSH0 PUSH2 0xF50 DUP6 DUP3 DUP7 ADD PUSH2 0xDDD JUMP JUMPDEST SWAP3 POP POP PUSH1 0x20 DUP4 ADD CALLDATALOAD PUSH8 0xFFFFFFFFFFFFFFFF DUP2 GT ISZERO PUSH2 0xF71 JUMPI PUSH2 0xF70 PUSH2 0xDBA JUMP JUMPDEST JUMPDEST PUSH2 0xF7D DUP6 DUP3 DUP7 ADD PUSH2 0xF00 JUMP JUMPDEST SWAP2 POP POP SWAP3 POP SWAP3 SWAP1 POP JUMP JUMPDEST PUSH0 PUSH1 0x20 DUP3 DUP5 SUB SLT ISZERO PUSH2 0xF9C JUMPI PUSH2 0xF9B PUSH2 0xDB6 JUMP JUMPDEST JUMPDEST PUSH0 PUSH2 0xFA9 DUP5 DUP3 DUP6 ADD PUSH2 0xDDD JUMP JUMPDEST SWAP2 POP POP SWAP3 SWAP2 POP POP JUMP JUMPDEST PUSH1 0x5 DUP2 LT PUSH2 0xFBE JUMPI PUSH0 DUP1 REVERT JUMPDEST POP JUMP JUMPDEST PUSH0 DUP2 CALLDATALOAD SWAP1 POP PUSH2 0xFCF DUP2 PUSH2 0xFB2 JUMP JUMPDEST SWAP3 SWAP2 POP POP JUMP JUMPDEST PUSH0 PUSH1 0x20 DUP3 DUP5 SUB SLT ISZERO PUSH2 0xFEA JUMPI PUSH2 0xFE9 PUSH2 0xDB6 JUMP JUMPDEST JUMPDEST PUSH0 PUSH2 0xFF7 DUP5 DUP3 DUP6 ADD PUSH2 0xFC1 JUMP JUMPDEST SWAP2 POP POP SWAP3 SWAP2 POP POP JUMP JUMPDEST PUSH0 DUP2 MLOAD SWAP1 POP SWAP2 SWAP1 POP JUMP JUMPDEST PUSH0 DUP3 DUP3 MSTORE PUSH1 0x20 DUP3 ADD SWAP1 POP SWAP3 SWAP2 POP POP JUMP JUMPDEST PUSH0 DUP2 SWAP1 POP PUSH1 0x20 DUP3 ADD SWAP1 POP SWAP2 SWAP1 POP JUMP JUMPDEST PUSH2 0x1032 DUP2 PUSH2 0xDBE JUMP JUMPDEST DUP3 MSTORE POP POP JUMP JUMPDEST PUSH0 PUSH2 0x1043 DUP4 DUP4 PUSH2 0x1029 JUMP JUMPDEST PUSH1 0x20 DUP4 ADD SWAP1 POP SWAP3 SWAP2 POP POP JUMP JUMPDEST PUSH0 PUSH1 0x20 DUP3 ADD SWAP1 POP SWAP2 SWAP1 POP JUMP JUMPDEST PUSH0 PUSH2 0x1065 DUP3 PUSH2 0x1000 JUMP JUMPDEST PUSH2 0x106F DUP2 DUP6 PUSH2 0x100A JUMP JUMPDEST SWAP4 POP PUSH2 0x107A DUP4 PUSH2 0x101A JUMP JUMPDEST DUP1 PUSH0 JUMPDEST DUP4 DUP2 LT ISZERO PUSH2 0x10AA JUMPI DUP2 MLOAD PUSH2 0x1091 DUP9 DUP3 PUSH2 0x1038 JUMP JUMPDEST SWAP8 POP PUSH2 0x109C DUP4 PUSH2 0x104F JUMP JUMPDEST SWAP3 POP POP PUSH1 0x1 DUP2 ADD SWAP1 POP PUSH2 0x107D JUMP JUMPDEST POP DUP6 SWAP4 POP POP POP POP SWAP3 SWAP2 POP POP JUMP JUMPDEST PUSH0 PUSH1 0x20 DUP3 ADD SWAP1 POP DUP2 DUP2 SUB PUSH0 DUP4 ADD MSTORE PUSH2 0x10CF DUP2 DUP5 PUSH2 0x105B JUMP JUMPDEST SWAP1 POP SWAP3 SWAP2 POP POP JUMP JUMPDEST PUSH2 0x10E0 DUP2 PUSH2 0xDBE JUMP JUMPDEST DUP3 MSTORE POP POP JUMP JUMPDEST PUSH0 PUSH1 0x20 DUP3 ADD SWAP1 POP PUSH2 0x10F9 PUSH0 DUP4 ADD DUP5 PUSH2 0x10D7 JUMP JUMPDEST SWAP3 SWAP2 POP POP JUMP JUMPDEST PUSH0 PUSH20 0xFFFFFFFFFFFFFFFFFFFFFFFFFFFFFFFFFFFFFFFF DUP3 AND SWAP1 POP SWAP2 SWAP1 POP JUMP JUMPDEST PUSH0 PUSH2 0x1128 DUP3 PUSH2 0x10FF JUMP JUMPDEST SWAP1 POP SWAP2 SWAP1 POP JUMP JUMPDEST PUSH2 0x1138 DUP2 PUSH2 0x111E JUMP JUMPDEST DUP3 MSTORE POP POP JUMP JUMPDEST PUSH0 PUSH1 0x20 DUP3 ADD SWAP1 POP PUSH2 0x1151 PUSH0 DUP4 ADD DUP5 PUSH2 0x112F JUMP JUMPDEST SWAP3 SWAP2 POP POP JUMP JUMPDEST PUSH0 DUP2 MLOAD SWAP1 POP SWAP2 SWAP1 POP JUMP JUMPDEST PUSH0 DUP3 DUP3 MSTORE PUSH1 0x20 DUP3 ADD SWAP1 POP SWAP3 SWAP2 POP POP JUMP JUMPDEST DUP3 DUP2 DUP4 MCOPY PUSH0 DUP4 DUP4 ADD MSTORE POP POP POP JUMP JUMPDEST PUSH0 PUSH2 0x1189 DUP3 PUSH2 0x1157 JUMP JUMPDEST PUSH2 0x1193 DUP2 DUP6 PUSH2 0x1161 JUMP JUMPDEST SWAP4 POP PUSH2 0x11A3 DUP2 DUP6 PUSH1 0x20 DUP7 ADD PUSH2 0x1171 JUMP JUMPDEST PUSH2 0x11AC DUP2 PUSH2 0xDF9 JUMP JUMPDEST DUP5 ADD SWAP2 POP POP SWAP3 SWAP2 POP POP JUMP JUMPDEST PUSH32 0x4E487B7100000000000000000000000000000000000000000000000000000000 PUSH0 MSTORE PUSH1 0x21 PUSH1 0x4 MSTORE PUSH1 0x24 PUSH0 REVERT JUMPDEST PUSH1 0x5 DUP2 LT PUSH2 0x11F5 JUMPI PUSH2 0x11F4 PUSH2 0x11B7 JUMP JUMPDEST JUMPDEST POP JUMP JUMPDEST PUSH0 DUP2 SWAP1 POP PUSH2 0x1205 DUP3 PUSH2 0x11E4 JUMP JUMPDEST SWAP2 SWAP1 POP JUMP JUMPDEST PUSH0 PUSH2 0x1214 DUP3 PUSH2 0x11F8 JUMP JUMPDEST SWAP1 POP SWAP2 SWAP1 POP JUMP JUMPDEST PUSH2 0x1224 DUP2 PUSH2 0x120A JUMP JUMPDEST DUP3 MSTORE POP POP JUMP JUMPDEST PUSH0 PUSH1 0xA0 DUP3 ADD SWAP1 POP PUSH2 0x123D PUSH0 DUP4 ADD DUP9 PUSH2 0x112F JUMP JUMPDEST PUSH2 0x124A PUSH1 0x20 DUP4 ADD DUP8 PUSH2 0x10D7 JUMP JUMPDEST DUP2 DUP2 SUB PUSH1 0x40 DUP4 ADD MSTORE PUSH2 0x125C DUP2 DUP7 PUSH2 0x117F JUMP JUMPDEST SWAP1 POP PUSH2 0x126B PUSH1 0x60 DUP4 ADD DUP6 PUSH2 0x10D7 JUMP JUMPDEST PUSH2 0x1278 PUSH1 0x80 DUP4 ADD DUP5 PUSH2 0x121B JUMP JUMPDEST SWAP7 SWAP6 POP POP POP POP POP POP JUMP JUMPDEST PUSH0 DUP1 PUSH1 0x40 DUP4 DUP6 SUB SLT ISZERO PUSH2 0x1298 JUMPI PUSH2 0x1297 PUSH2 0xDB6 JUMP JUMPDEST JUMPDEST PUSH0 PUSH2 0x12A5 DUP6 DUP3 DUP7 ADD PUSH2 0xDDD JUMP JUMPDEST SWAP3 POP POP PUSH1 0x20 PUSH2 0x12B6 DUP6 DUP3 DUP7 ADD PUSH2 0xFC1 JUMP JUMPDEST SWAP2 POP POP SWAP3 POP SWAP3 SWAP1 POP JUMP JUMPDEST PUSH0 DUP2 SWAP1 POP SWAP2 SWAP1 POP JUMP JUMPDEST PUSH0 PUSH2 0x12E3 PUSH2 0x12DE PUSH2 0x12D9 DUP5 PUSH2 0x10FF JUMP JUMPDEST PUSH2 0x12C0 JUMP JUMPDEST PUSH2 0x10FF JUMP JUMPDEST SWAP1 POP SWAP2 SWAP1 POP JUMP JUMPDEST PUSH0 PUSH2 0x12F4 DUP3 PUSH2 0x12C9 JUMP JUMPDEST SWAP1 POP SWAP2 SWAP1 POP JUMP JUMPDEST PUSH0 PUSH2 0x1305 DUP3 PUSH2 0x12EA JUMP JUMPDEST SWAP1 POP SWAP2 SWAP1 POP JUMP JUMPDEST PUSH2 0x1315 DUP2 PUSH2 0x12FB JUMP JUMPDEST DUP3 MSTORE POP POP JUMP JUMPDEST PUSH0 PUSH1 0x20 DUP3 ADD SWAP1 POP PUSH2 0x132E PUSH0 DUP4 ADD DUP5 PUSH2 0x130C JUMP JUMPDEST SWAP3 SWAP2 POP POP JUMP JUMPDEST PUSH2 0x133D DUP2 PUSH2 0x111E JUMP JUMPDEST DUP3 MSTORE POP POP JUMP JUMPDEST PUSH0 DUP3 DUP3 MSTORE PUSH1 0x20 DUP3 ADD SWAP1 POP SWAP3 SWAP2 POP POP JUMP JUMPDEST PUSH0 PUSH2 0x135D DUP3 PUSH2 0x1157 JUMP JUMPDEST PUSH2 0x1367 DUP2 DUP6 PUSH2 0x1343 JUMP JUMPDEST SWAP4 POP PUSH2 0x1377 DUP2 DUP6 PUSH1 0x20 DUP7 ADD PUSH2 0x1171 JUMP JUMPDEST PUSH2 0x1380 DUP2 PUSH2 0xDF9 JUMP JUMPDEST DUP5 ADD SWAP2 POP POP SWAP3 SWAP2 POP POP JUMP JUMPDEST PUSH2 0x1394 DUP2 PUSH2 0x120A JUMP JUMPDEST DUP3 MSTORE POP POP JUMP JUMPDEST PUSH0 PUSH1 0xA0 DUP4 ADD PUSH0 DUP4 ADD MLOAD PUSH2 0x13AF PUSH0 DUP7 ADD DUP3 PUSH2 0x1334 JUMP JUMPDEST POP PUSH1 0x20 DUP4 ADD MLOAD PUSH2 0x13C2 PUSH1 0x20 DUP7 ADD DUP3 PUSH2 0x1029 JUMP JUMPDEST POP PUSH1 0x40 DUP4 ADD MLOAD DUP5 DUP3 SUB PUSH1 0x40 DUP7 ADD MSTORE PUSH2 0x13DA DUP3 DUP3 PUSH2 0x1353 JUMP JUMPDEST SWAP2 POP POP PUSH1 0x60 DUP4 ADD MLOAD PUSH2 0x13EF PUSH1 0x60 DUP7 ADD DUP3 PUSH2 0x1029 JUMP JUMPDEST POP PUSH1 0x80 DUP4 ADD MLOAD PUSH2 0x1402 PUSH1 0x80 DUP7 ADD DUP3 PUSH2 0x138B JUMP JUMPDEST POP DUP1 SWAP2 POP POP SWAP3 SWAP2 POP POP JUMP JUMPDEST PUSH0 PUSH1 0x20 DUP3 ADD SWAP1 POP DUP2 DUP2 SUB PUSH0 DUP4 ADD MSTORE PUSH2 0x1425 DUP2 DUP5 PUSH2 0x139A JUMP JUMPDEST SWAP1 POP SWAP3 SWAP2 POP POP JUMP JUMPDEST PUSH2 0x1436 DUP2 PUSH2 0x111E JUMP JUMPDEST DUP2 EQ PUSH2 0x1440 JUMPI PUSH0 DUP1 REVERT JUMPDEST POP JUMP JUMPDEST PUSH0 DUP2 CALLDATALOAD SWAP1 POP PUSH2 0x1451 DUP2 PUSH2 0x142D JUMP JUMPDEST SWAP3 SWAP2 POP POP JUMP JUMPDEST PUSH0 PUSH1 0x20 DUP3 DUP5 SUB SLT ISZERO PUSH2 0x146C JUMPI PUSH2 0x146B PUSH2 0xDB6 JUMP JUMPDEST JUMPDEST PUSH0 PUSH2 0x1479 DUP5 DUP3 DUP6 ADD PUSH2 0x1443 JUMP JUMPDEST SWAP2 POP POP SWAP3 SWAP2 POP POP JUMP JUMPDEST PUSH0 DUP2 ISZERO ISZERO SWAP1 POP SWAP2 SWAP1 POP JUMP JUMPDEST PUSH2 0x1496 DUP2 PUSH2 0x1482 JUMP JUMPDEST DUP2 EQ PUSH2 0x14A0 JUMPI PUSH0 DUP1 REVERT JUMPDEST POP JUMP JUMPDEST PUSH0 DUP2 MLOAD SWAP1 POP PUSH2 0x14B1 DUP2 PUSH2 0x148D JUMP JUMPDEST SWAP3 SWAP2 POP POP JUMP JUMPDEST PUSH0 PUSH1 0x20 DUP3 DUP5 SUB SLT ISZERO PUSH2 0x14CC JUMPI PUSH2 0x14CB PUSH2 0xDB6 JUMP JUMPDEST JUMPDEST PUSH0 PUSH2 0x14D9 DUP5 DUP3 DUP6 ADD PUSH2 0x14A3 JUMP JUMPDEST SWAP2 POP POP SWAP3 SWAP2 POP POP JUMP JUMPDEST PUSH32 0x4E6F742061206D656D626572206F662074686520696E737572616E636520706F PUSH0 DUP3 ADD MSTORE PUSH32 0x6F6C000000000000000000000000000000000000000000000000000000000000 PUSH1 0x20 DUP3 ADD MSTORE POP JUMP JUMPDEST PUSH0 PUSH2 0x153C PUSH1 0x22 DUP4 PUSH2 0x1161 JUMP JUMPDEST SWAP2 POP PUSH2 0x1547 DUP3 PUSH2 0x14E2 JUMP JUMPDEST PUSH1 0x40 DUP3 ADD SWAP1 POP SWAP2 SWAP1 POP JUMP JUMPDEST PUSH0 PUSH1 0x20 DUP3 ADD SWAP1 POP DUP2 DUP2 SUB PUSH0 DUP4 ADD MSTORE PUSH2 0x1569 DUP2 PUSH2 0x1530 JUMP JUMPDEST SWAP1 POP SWAP2 SWAP1 POP JUMP JUMPDEST PUSH32 0x4E487B7100000000000000000000000000000000000000000000000000000000 PUSH0 MSTORE PUSH1 0x11 PUSH1 0x4 MSTORE PUSH1 0x24 PUSH0 REVERT JUMPDEST PUSH0 PUSH2 0x15A7 DUP3 PUSH2 0xDBE JUMP JUMPDEST SWAP2 POP PUSH32 0xFFFFFFFFFFFFFFFFFFFFFFFFFFFFFFFFFFFFFFFFFFFFFFFFFFFFFFFFFFFFFFFF DUP3 SUB PUSH2 0x15D9 JUMPI PUSH2 0x15D8 PUSH2 0x1570 JUMP JUMPDEST JUMPDEST PUSH1 0x1 DUP3 ADD SWAP1 POP SWAP2 SWAP1 POP JUMP JUMPDEST PUSH32 0x4E487B7100000000000000000000000000000000000000000000000000000000 PUSH0 MSTORE PUSH1 0x22 PUSH1 0x4 MSTORE PUSH1 0x24 PUSH0 REVERT JUMPDEST PUSH0 PUSH1 0x2 DUP3 DIV SWAP1 POP PUSH1 0x1 DUP3 AND DUP1 PUSH2 0x1628 JUMPI PUSH1 0x7F DUP3 AND SWAP2 POP JUMPDEST PUSH1 0x20 DUP3 LT DUP2 SUB PUSH2 0x163B JUMPI PUSH2 0x163A PUSH2 0x15E4 JUMP JUMPDEST JUMPDEST POP SWAP2 SWAP1 POP JUMP JUMPDEST PUSH0 DUP2 SWAP1 POP DUP2 PUSH0 MSTORE PUSH1 0x20 PUSH0 KECCAK256 SWAP1 POP SWAP2 SWAP1 POP JUMP JUMPDEST PUSH0 PUSH1 0x20 PUSH1 0x1F DUP4 ADD DIV SWAP1 POP SWAP2 SWAP1 POP JUMP JUMPDEST PUSH0 DUP3 DUP3 SHL SWAP1 POP SWAP3 SWAP2 POP POP JUMP JUMPDEST PUSH0 PUSH1 0x8 DUP4 MUL PUSH2 0x169D PUSH32 0xFFFFFFFFFFFFFFFFFFFFFFFFFFFFFFFFFFFFFFFFFFFFFFFFFFFFFFFFFFFFFFFF DUP3 PUSH2 0x1662 JUMP JUMPDEST PUSH2 0x16A7 DUP7 DUP4 PUSH2 0x1662 JUMP JUMPDEST SWAP6 POP DUP1 NOT DUP5 AND SWAP4 POP DUP1 DUP7 AND DUP5 OR SWAP3 POP POP POP SWAP4 SWAP3 POP POP POP JUMP JUMPDEST PUSH0 PUSH2 0x16D9 PUSH2 0x16D4 PUSH2 0x16CF DUP5 PUSH2 0xDBE JUMP JUMPDEST PUSH2 0x12C0 JUMP JUMPDEST PUSH2 0xDBE JUMP JUMPDEST SWAP1 POP SWAP2 SWAP1 POP JUMP JUMPDEST PUSH0 DUP2 SWAP1 POP SWAP2 SWAP1 POP JUMP JUMPDEST PUSH2 0x16F2 DUP4 PUSH2 0x16BF JUMP JUMPDEST PUSH2 0x1706 PUSH2 0x16FE DUP3 PUSH2 0x16E0 JUMP JUMPDEST DUP5 DUP5 SLOAD PUSH2 0x166E JUMP JUMPDEST DUP3 SSTORE POP POP POP POP JUMP JUMPDEST PUSH0 SWAP1 JUMP JUMPDEST PUSH2 0x171A PUSH2 0x170E JUMP JUMPDEST PUSH2 0x1725 DUP2 DUP5 DUP5 PUSH2 0x16E9 JUMP JUMPDEST POP POP POP JUMP JUMPDEST JUMPDEST DUP2 DUP2 LT ISZERO PUSH2 0x1748 JUMPI PUSH2 0x173D PUSH0 DUP3 PUSH2 0x1712 JUMP JUMPDEST PUSH1 0x1 DUP2 ADD SWAP1 POP PUSH2 0x172B JUMP JUMPDEST POP POP JUMP JUMPDEST PUSH1 0x1F DUP3 GT ISZERO PUSH2 0x178D JUMPI PUSH2 0x175E DUP2 PUSH2 0x1641 JUMP JUMPDEST PUSH2 0x1767 DUP5 PUSH2 0x1653 JUMP JUMPDEST DUP2 ADD PUSH1 0x20 DUP6 LT ISZERO PUSH2 0x1776 JUMPI DUP2 SWAP1 POP JUMPDEST PUSH2 0x178A PUSH2 0x1782 DUP6 PUSH2 0x1653 JUMP JUMPDEST DUP4 ADD DUP3 PUSH2 0x172A JUMP JUMPDEST POP POP JUMPDEST POP POP POP JUMP JUMPDEST PUSH0 DUP3 DUP3 SHR SWAP1 POP SWAP3 SWAP2 POP POP JUMP JUMPDEST PUSH0 PUSH2 0x17AD PUSH0 NOT DUP5 PUSH1 0x8 MUL PUSH2 0x1792 JUMP JUMPDEST NOT DUP1 DUP4 AND SWAP2 POP POP SWAP3 SWAP2 POP POP JUMP JUMPDEST PUSH0 PUSH2 0x17C5 DUP4 DUP4 PUSH2 0x179E JUMP JUMPDEST SWAP2 POP DUP3 PUSH1 0x2 MUL DUP3 OR SWAP1 POP SWAP3 SWAP2 POP POP JUMP JUMPDEST PUSH2 0x17DE DUP3 PUSH2 0x1157 JUMP JUMPDEST PUSH8 0xFFFFFFFFFFFFFFFF DUP2 GT ISZERO PUSH2 0x17F7 JUMPI PUSH2 0x17F6 PUSH2 0xE09 JUMP JUMPDEST JUMPDEST PUSH2 0x1801 DUP3 SLOAD PUSH2 0x1611 JUMP JUMPDEST PUSH2 0x180C DUP3 DUP3 DUP6 PUSH2 0x174C JUMP JUMPDEST PUSH0 PUSH1 0x20 SWAP1 POP PUSH1 0x1F DUP4 GT PUSH1 0x1 DUP2 EQ PUSH2 0x183D JUMPI PUSH0 DUP5 ISZERO PUSH2 0x182B JUMPI DUP3 DUP8 ADD MLOAD SWAP1 POP JUMPDEST PUSH2 0x1835 DUP6 DUP3 PUSH2 0x17BA JUMP JUMPDEST DUP7 SSTORE POP PUSH2 0x189C JUMP JUMPDEST PUSH1 0x1F NOT DUP5 AND PUSH2 0x184B DUP7 PUSH2 0x1641 JUMP JUMPDEST PUSH0 JUMPDEST DUP3 DUP2 LT ISZERO PUSH2 0x1872 JUMPI DUP5 DUP10 ADD MLOAD DUP3 SSTORE PUSH1 0x1 DUP3 ADD SWAP2 POP PUSH1 0x20 DUP6 ADD SWAP5 POP PUSH1 0x20 DUP2 ADD SWAP1 POP PUSH2 0x184D JUMP JUMPDEST DUP7 DUP4 LT ISZERO PUSH2 0x188F JUMPI DUP5 DUP10 ADD MLOAD PUSH2 0x188B PUSH1 0x1F DUP10 AND DUP3 PUSH2 0x179E JUMP JUMPDEST DUP4 SSTORE POP JUMPDEST PUSH1 0x1 PUSH1 0x2 DUP9 MUL ADD DUP9 SSTORE POP POP POP JUMPDEST POP POP POP POP POP POP JUMP JUMPDEST PUSH32 0x496E76616C696420636C61696D20494400000000000000000000000000000000 PUSH0 DUP3 ADD MSTORE POP JUMP JUMPDEST PUSH0 PUSH2 0x18D8 PUSH1 0x10 DUP4 PUSH2 0x1161 JUMP JUMPDEST SWAP2 POP PUSH2 0x18E3 DUP3 PUSH2 0x18A4 JUMP JUMPDEST PUSH1 0x20 DUP3 ADD SWAP1 POP SWAP2 SWAP1 POP JUMP JUMPDEST PUSH0 PUSH1 0x20 DUP3 ADD SWAP1 POP DUP2 DUP2 SUB PUSH0 DUP4 ADD MSTORE PUSH2 0x1905 DUP2 PUSH2 0x18CC JUMP JUMPDEST SWAP1 POP SWAP2 SWAP1 POP JUMP JUMPDEST PUSH32 0x436C61696D206E6F7420617070726F7665640000000000000000000000000000 PUSH0 DUP3 ADD MSTORE POP JUMP JUMPDEST PUSH0 PUSH2 0x1940 PUSH1 0x12 DUP4 PUSH2 0x1161 JUMP JUMPDEST SWAP2 POP PUSH2 0x194B DUP3 PUSH2 0x190C JUMP JUMPDEST PUSH1 0x20 DUP3 ADD SWAP1 POP SWAP2 SWAP1 POP JUMP JUMPDEST PUSH0 PUSH1 0x20 DUP3 ADD SWAP1 POP DUP2 DUP2 SUB PUSH0 DUP4 ADD MSTORE PUSH2 0x196D DUP2 PUSH2 0x1934 JUMP JUMPDEST SWAP1 POP SWAP2 SWAP1 POP JUMP JUMPDEST PUSH0 PUSH1 0x40 DUP3 ADD SWAP1 POP PUSH2 0x1987 PUSH0 DUP4 ADD DUP6 PUSH2 0x112F JUMP JUMPDEST PUSH2 0x1994 PUSH1 0x20 DUP4 ADD DUP5 PUSH2 0x10D7 JUMP JUMPDEST SWAP4 SWAP3 POP POP POP JUMP JUMPDEST PUSH32 0x4E487B7100000000000000000000000000000000000000000000000000000000 PUSH0 MSTORE PUSH1 0x32 PUSH1 0x4 MSTORE PUSH1 0x24 PUSH0 REVERT JUMPDEST PUSH32 0x5573652070726F63657373436C61696D20666F72207061796D656E7473000000 PUSH0 DUP3 ADD MSTORE POP JUMP JUMPDEST PUSH0 PUSH2 0x19FC PUSH1 0x1D DUP4 PUSH2 0x1161 JUMP JUMPDEST SWAP2 POP PUSH2 0x1A07 DUP3 PUSH2 0x19C8 JUMP JUMPDEST PUSH1 0x20 DUP3 ADD SWAP1 POP SWAP2 SWAP1 POP JUMP JUMPDEST PUSH0 PUSH1 0x20 DUP3 ADD SWAP1 POP DUP2 DUP2 SUB PUSH0 DUP4 ADD MSTORE PUSH2 0x1A29 DUP2 PUSH2 0x19F0 JUMP JUMPDEST SWAP1 POP SWAP2 SWAP1 POP JUMP JUMPDEST PUSH0 PUSH1 0x20 DUP3 ADD SWAP1 POP PUSH2 0x1A43 PUSH0 DUP4 ADD DUP5 PUSH2 0x121B JUMP JUMPDEST SWAP3 SWAP2 POP POP JUMP INVALID LOG2 PUSH5 0x6970667358 0x22 SLT KECCAK256 LOG0 0xB2 0xB9 0xDB SWAP5 DUP7 PUSH8 0xA584800907ECE9CE 0xD9 0xBE PC 0xC7 SDIV ADDMOD 0xE3 DUP9 0xC8 0xF7 0xE5 AND GAS 0xB9 BLOBHASH EQ 0xCF PUSH5 0x736F6C6343 STOP ADDMOD BYTE STOP CALLER "
				},
				"gasEstimates": {
					"creation": {
						"codeDepositCost": "1356600",
						"executionCost": "infinite",
						"totalCost": "infinite"
					},
					"external": {
						"claimCount()": "2514",
						"claims(uint256)": "infinite",
						"getClaimDetails(uint256)": "infinite",
						"getClaimsByStatus(uint8)": "infinite",
						"insurancePool()": "infinite",
						"owner()": "2515",
						"processClaim(uint256)": "infinite",
						"renounceOwnership()": "infinite",
						"submitClaim(uint256,string)": "infinite",
						"transferOwnership(address)": "infinite",
						"updateClaimStatus(uint256,uint8)": "infinite"
					}
				},
				"methodIdentifiers": {
					"claimCount()": "8da4d3c9",
					"claims(uint256)": "a888c2cd",
					"getClaimDetails(uint256)": "bac71e00",
					"getClaimsByStatus(uint8)": "791309f1",
					"insurancePool()": "ab2adc00",
					"owner()": "8da5cb5b",
					"processClaim(uint256)": "7257dfc9",
					"renounceOwnership()": "715018a6",
					"submitClaim(uint256,string)": "45b46525",
					"transferOwnership(address)": "f2fde38b",
					"updateClaimStatus(uint256,uint8)": "ab1f5b7c"
				}
			},
			"storageLayout": {
				"storage": [
					{
						"astId": 8,
						"contract": "contracts/ClaimsManagement.sol:ClaimsManagement",
						"label": "_owner",
						"offset": 0,
						"slot": "0",
						"type": "t_address"
					},
					{
						"astId": 264,
						"contract": "contracts/ClaimsManagement.sol:ClaimsManagement",
						"label": "insurancePool",
						"offset": 0,
						"slot": "1",
						"type": "t_contract(InsurancePool)708"
					},
					{
						"astId": 287,
						"contract": "contracts/ClaimsManagement.sol:ClaimsManagement",
						"label": "claims",
						"offset": 0,
						"slot": "2",
						"type": "t_mapping(t_uint256,t_struct(Claim)282_storage)"
					},
					{
						"astId": 289,
						"contract": "contracts/ClaimsManagement.sol:ClaimsManagement",
						"label": "claimCount",
						"offset": 0,
						"slot": "3",
						"type": "t_uint256"
					}
				],
				"types": {
					"t_address": {
						"encoding": "inplace",
						"label": "address",
						"numberOfBytes": "20"
					},
					"t_contract(InsurancePool)708": {
						"encoding": "inplace",
						"label": "contract InsurancePool",
						"numberOfBytes": "20"
					},
					"t_enum(ClaimStatus)270": {
						"encoding": "inplace",
						"label": "enum ClaimsManagement.ClaimStatus",
						"numberOfBytes": "1"
					},
					"t_mapping(t_uint256,t_struct(Claim)282_storage)": {
						"encoding": "mapping",
						"key": "t_uint256",
						"label": "mapping(uint256 => struct ClaimsManagement.Claim)",
						"numberOfBytes": "32",
						"value": "t_struct(Claim)282_storage"
					},
					"t_string_storage": {
						"encoding": "bytes",
						"label": "string",
						"numberOfBytes": "32"
					},
					"t_struct(Claim)282_storage": {
						"encoding": "inplace",
						"label": "struct ClaimsManagement.Claim",
						"members": [
							{
								"astId": 272,
								"contract": "contracts/ClaimsManagement.sol:ClaimsManagement",
								"label": "claimant",
								"offset": 0,
								"slot": "0",
								"type": "t_address"
							},
							{
								"astId": 274,
								"contract": "contracts/ClaimsManagement.sol:ClaimsManagement",
								"label": "amount",
								"offset": 0,
								"slot": "1",
								"type": "t_uint256"
							},
							{
								"astId": 276,
								"contract": "contracts/ClaimsManagement.sol:ClaimsManagement",
								"label": "description",
								"offset": 0,
								"slot": "2",
								"type": "t_string_storage"
							},
							{
								"astId": 278,
								"contract": "contracts/ClaimsManagement.sol:ClaimsManagement",
								"label": "submissionDate",
								"offset": 0,
								"slot": "3",
								"type": "t_uint256"
							},
							{
								"astId": 281,
								"contract": "contracts/ClaimsManagement.sol:ClaimsManagement",
								"label": "status",
								"offset": 0,
								"slot": "4",
								"type": "t_enum(ClaimStatus)270"
							}
						],
						"numberOfBytes": "160"
					},
					"t_uint256": {
						"encoding": "inplace",
						"label": "uint256",
						"numberOfBytes": "32"
					}
				}
			},
			"userdoc": {
				"kind": "user",
				"methods": {},
				"version": 1
			}
		}
	}
}