{
	"contracts/ProfitSharing.sol": {
		"ProfitSharing": {
			"abi": [
				{
					"inputs": [
						{
							"internalType": "address",
							"name": "_insurancePool",
							"type": "address"
						},
						{
							"internalType": "uint256",
							"name": "_coveragePeriodDuration",
							"type": "uint256"
						},
						{
							"internalType": "address",
							"name": "_initialOwner",
							"type": "address"
						}
					],
					"stateMutability": "nonpayable",
					"type": "constructor"
				},
				{
					"inputs": [
						{
							"internalType": "address",
							"name": "owner",
							"type": "address"
						}
					],
					"name": "OwnableInvalidOwner",
					"type": "error"
				},
				{
					"inputs": [
						{
							"internalType": "address",
							"name": "account",
							"type": "address"
						}
					],
					"name": "OwnableUnauthorizedAccount",
					"type": "error"
				},
				{
					"anonymous": false,
					"inputs": [
						{
							"indexed": true,
							"internalType": "address",
							"name": "member",
							"type": "address"
						},
						{
							"indexed": false,
							"internalType": "uint256",
							"name": "amount",
							"type": "uint256"
						}
					],
					"name": "MemberShareClaimed",
					"type": "event"
				},
				{
					"anonymous": false,
					"inputs": [
						{
							"indexed": true,
							"internalType": "address",
							"name": "previousOwner",
							"type": "address"
						},
						{
							"indexed": true,
							"internalType": "address",
							"name": "newOwner",
							"type": "address"
						}
					],
					"name": "OwnershipTransferred",
					"type": "event"
				},
				{
					"anonymous": false,
					"inputs": [
						{
							"indexed": false,
							"internalType": "uint256",
							"name": "totalProfit",
							"type": "uint256"
						}
					],
					"name": "ProfitDistributed",
					"type": "event"
				},
				{
					"inputs": [],
					"name": "claimShare",
					"outputs": [],
					"stateMutability": "nonpayable",
					"type": "function"
				},
				{
					"inputs": [],
					"name": "coveragePeriodEnd",
					"outputs": [
						{
							"internalType": "uint256",
							"name": "",
							"type": "uint256"
						}
					],
					"stateMutability": "view",
					"type": "function"
				},
				{
					"inputs": [],
					"name": "distributeProfits",
					"outputs": [],
					"stateMutability": "nonpayable",
					"type": "function"
				},
				{
					"inputs": [
						{
							"internalType": "address",
							"name": "_member",
							"type": "address"
						}
					],
					"name": "getMemberShare",
					"outputs": [
						{
							"internalType": "uint256",
							"name": "",
							"type": "uint256"
						}
					],
					"stateMutability": "view",
					"type": "function"
				},
				{
					"inputs": [],
					"name": "getTotalUndistributedShares",
					"outputs": [
						{
							"internalType": "uint256",
							"name": "",
							"type": "uint256"
						}
					],
					"stateMutability": "view",
					"type": "function"
				},
				{
					"inputs": [],
					"name": "insurancePool",
					"outputs": [
						{
							"internalType": "contract InsurancePool",
							"name": "",
							"type": "address"
						}
					],
					"stateMutability": "view",
					"type": "function"
				},
				{
					"inputs": [
						{
							"internalType": "address",
							"name": "",
							"type": "address"
						}
					],
					"name": "memberShares",
					"outputs": [
						{
							"internalType": "uint256",
							"name": "",
							"type": "uint256"
						}
					],
					"stateMutability": "view",
					"type": "function"
				},
				{
					"inputs": [],
					"name": "owner",
					"outputs": [
						{
							"internalType": "address",
							"name": "",
							"type": "address"
						}
					],
					"stateMutability": "view",
					"type": "function"
				},
				{
					"inputs": [],
					"name": "premiumToken",
					"outputs": [
						{
							"internalType": "contract IERC20",
							"name": "",
							"type": "address"
						}
					],
					"stateMutability": "view",
					"type": "function"
				},
				{
					"inputs": [],
					"name": "profitDistributed",
					"outputs": [
						{
							"internalType": "bool",
							"name": "",
							"type": "bool"
						}
					],
					"stateMutability": "view",
					"type": "function"
				},
				{
					"inputs": [],
					"name": "renounceOwnership",
					"outputs": [],
					"stateMutability": "nonpayable",
					"type": "function"
				},
				{
					"inputs": [],
					"name": "totalShares",
					"outputs": [
						{
							"internalType": "uint256",
							"name": "",
							"type": "uint256"
						}
					],
					"stateMutability": "view",
					"type": "function"
				},
				{
					"inputs": [
						{
							"internalType": "address",
							"name": "newOwner",
							"type": "address"
						}
					],
					"name": "transferOwnership",
					"outputs": [],
					"stateMutability": "nonpayable",
					"type": "function"
				}
			],
			"devdoc": {
				"errors": {
					"OwnableInvalidOwner(address)": [
						{
							"details": "The owner is not a valid owner account. (eg. `address(0)`)"
						}
					],
					"OwnableUnauthorizedAccount(address)": [
						{
							"details": "The caller account is not authorized to perform an operation."
						}
					]
				},
				"kind": "dev",
				"methods": {
					"owner()": {
						"details": "Returns the address of the current owner."
					},
					"renounceOwnership()": {
						"details": "Leaves the contract without owner. It will not be possible to call `onlyOwner` functions. Can only be called by the current owner. NOTE: Renouncing ownership will leave the contract without an owner, thereby disabling any functionality that is only available to the owner."
					},
					"transferOwnership(address)": {
						"details": "Transfers ownership of the contract to a new account (`newOwner`). Can only be called by the current owner."
					}
				},
				"version": 1
			},
			"evm": {
				"assembly": "    /* \"contracts/ProfitSharing.sol\":198:3162  contract ProfitSharing is Ownable {... */\n  mstore(0x40, 0x80)\n    /* \"contracts/ProfitSharing.sol\":608:917  constructor(address _insurancePool, uint256 _coveragePeriodDuration, address _initialOwner) Ownable(_initialOwner) {... */\n  callvalue\n  dup1\n  iszero\n  tag_1\n  jumpi\n  0x00\n  dup1\n  revert\ntag_1:\n  pop\n  mload(0x40)\n  sub(codesize, bytecodeSize)\n  dup1\n  bytecodeSize\n  dup4\n  codecopy\n  dup2\n  dup2\n  add\n  0x40\n  mstore\n  dup2\n  add\n  swap1\n  tag_2\n  swap2\n  swap1\n  tag_3\n  jump\t// in\ntag_2:\n    /* \"contracts/ProfitSharing.sol\":708:721  _initialOwner */\n  dup1\n    /* \"@openzeppelin/contracts/access/Ownable.sol\":1297:1298  0 */\n  0x00\n    /* \"@openzeppelin/contracts/access/Ownable.sol\":1273:1299  initialOwner == address(0) */\n  0xffffffffffffffffffffffffffffffffffffffff\n  and\n    /* \"@openzeppelin/contracts/access/Ownable.sol\":1273:1285  initialOwner */\n  dup2\n    /* \"@openzeppelin/contracts/access/Ownable.sol\":1273:1299  initialOwner == address(0) */\n  0xffffffffffffffffffffffffffffffffffffffff\n  and\n  sub\n    /* \"@openzeppelin/contracts/access/Ownable.sol\":1269:1364  if (initialOwner == address(0)) {... */\n  tag_7\n  jumpi\n    /* \"@openzeppelin/contracts/access/Ownable.sol\":1350:1351  0 */\n  0x00\n    /* \"@openzeppelin/contracts/access/Ownable.sol\":1322:1353  OwnableInvalidOwner(address(0)) */\n  mload(0x40)\n  0x1e4fbdf700000000000000000000000000000000000000000000000000000000\n  dup2\n  mstore\n  0x04\n  add\n  tag_8\n  swap2\n  swap1\n  tag_9\n  jump\t// in\ntag_8:\n  mload(0x40)\n  dup1\n  swap2\n  sub\n  swap1\n  revert\n    /* \"@openzeppelin/contracts/access/Ownable.sol\":1269:1364  if (initialOwner == address(0)) {... */\ntag_7:\n    /* \"@openzeppelin/contracts/access/Ownable.sol\":1373:1405  _transferOwnership(initialOwner) */\n  tag_10\n    /* \"@openzeppelin/contracts/access/Ownable.sol\":1392:1404  initialOwner */\n  dup2\n    /* \"@openzeppelin/contracts/access/Ownable.sol\":1373:1391  _transferOwnership */\n  shl(0x20, tag_11)\n    /* \"@openzeppelin/contracts/access/Ownable.sol\":1373:1405  _transferOwnership(initialOwner) */\n  0x20\n  shr\n  jump\t// in\ntag_10:\n    /* \"@openzeppelin/contracts/access/Ownable.sol\":1225:1412  constructor(address initialOwner) {... */\n  pop\n    /* \"contracts/ProfitSharing.sol\":763:777  _insurancePool */\n  dup3\n    /* \"contracts/ProfitSharing.sol\":733:746  insurancePool */\n  0x01\n  0x00\n    /* \"contracts/ProfitSharing.sol\":733:778  insurancePool = InsurancePool(_insurancePool) */\n  0x0100\n  exp\n  dup2\n  sload\n  dup2\n  0xffffffffffffffffffffffffffffffffffffffff\n  mul\n  not\n  and\n  swap1\n  dup4\n  0xffffffffffffffffffffffffffffffffffffffff\n  and\n  mul\n  or\n  swap1\n  sstore\n  pop\n    /* \"contracts/ProfitSharing.sol\":810:823  insurancePool */\n  0x01\n  0x00\n  swap1\n  sload\n  swap1\n  0x0100\n  exp\n  swap1\n  div\n  0xffffffffffffffffffffffffffffffffffffffff\n  and\n    /* \"contracts/ProfitSharing.sol\":810:836  insurancePool.premiumToken */\n  0xffffffffffffffffffffffffffffffffffffffff\n  and\n  0xb180783d\n    /* \"contracts/ProfitSharing.sol\":810:838  insurancePool.premiumToken() */\n  mload(0x40)\n  dup2\n  0xffffffff\n  and\n  0xe0\n  shl\n  dup2\n  mstore\n  0x04\n  add\n  0x20\n  mload(0x40)\n  dup1\n  dup4\n  sub\n  dup2\n  dup7\n  gas\n  staticcall\n  iszero\n  dup1\n  iszero\n  tag_14\n  jumpi\n  returndatasize\n  0x00\n  dup1\n  returndatacopy\n  revert(0x00, returndatasize)\ntag_14:\n  pop\n  pop\n  pop\n  pop\n  mload(0x40)\n  returndatasize\n  not(0x1f)\n  0x1f\n  dup3\n  add\n  and\n  dup3\n  add\n  dup1\n  0x40\n  mstore\n  pop\n  dup2\n  add\n  swap1\n  tag_15\n  swap2\n  swap1\n  tag_16\n  jump\t// in\ntag_15:\n    /* \"contracts/ProfitSharing.sol\":788:800  premiumToken */\n  0x02\n  0x00\n    /* \"contracts/ProfitSharing.sol\":788:839  premiumToken = IERC20(insurancePool.premiumToken()) */\n  0x0100\n  exp\n  dup2\n  sload\n  dup2\n  0xffffffffffffffffffffffffffffffffffffffff\n  mul\n  not\n  and\n  swap1\n  dup4\n  0xffffffffffffffffffffffffffffffffffffffff\n  and\n  mul\n  or\n  swap1\n  sstore\n  pop\n    /* \"contracts/ProfitSharing.sol\":887:910  _coveragePeriodDuration */\n  dup2\n    /* \"contracts/ProfitSharing.sol\":869:884  block.timestamp */\n  timestamp\n    /* \"contracts/ProfitSharing.sol\":869:910  block.timestamp + _coveragePeriodDuration */\n  tag_17\n  swap2\n  swap1\n  tag_18\n  jump\t// in\ntag_17:\n    /* \"contracts/ProfitSharing.sol\":849:866  coveragePeriodEnd */\n  0x03\n    /* \"contracts/ProfitSharing.sol\":849:910  coveragePeriodEnd = block.timestamp + _coveragePeriodDuration */\n  dup2\n  swap1\n  sstore\n  pop\n    /* \"contracts/ProfitSharing.sol\":608:917  constructor(address _insurancePool, uint256 _coveragePeriodDuration, address _initialOwner) Ownable(_initialOwner) {... */\n  pop\n  pop\n  pop\n    /* \"contracts/ProfitSharing.sol\":198:3162  contract ProfitSharing is Ownable {... */\n  jump(tag_19)\n    /* \"@openzeppelin/contracts/access/Ownable.sol\":2912:3099  function _transferOwnership(address newOwner) internal virtual {... */\ntag_11:\n    /* \"@openzeppelin/contracts/access/Ownable.sol\":2985:3001  address oldOwner */\n  0x00\n    /* \"@openzeppelin/contracts/access/Ownable.sol\":3004:3010  _owner */\n  dup1\n  0x00\n  swap1\n  sload\n  swap1\n  0x0100\n  exp\n  swap1\n  div\n  0xffffffffffffffffffffffffffffffffffffffff\n  and\n    /* \"@openzeppelin/contracts/access/Ownable.sol\":2985:3010  address oldOwner = _owner */\n  swap1\n  pop\n    /* \"@openzeppelin/contracts/access/Ownable.sol\":3029:3037  newOwner */\n  dup2\n    /* \"@openzeppelin/contracts/access/Ownable.sol\":3020:3026  _owner */\n  0x00\n  dup1\n    /* \"@openzeppelin/contracts/access/Ownable.sol\":3020:3037  _owner = newOwner */\n  0x0100\n  exp\n  dup2\n  sload\n  dup2\n  0xffffffffffffffffffffffffffffffffffffffff\n  mul\n  not\n  and\n  swap1\n  dup4\n  0xffffffffffffffffffffffffffffffffffffffff\n  and\n  mul\n  or\n  swap1\n  sstore\n  pop\n    /* \"@openzeppelin/contracts/access/Ownable.sol\":3083:3091  newOwner */\n  dup2\n    /* \"@openzeppelin/contracts/access/Ownable.sol\":3052:3092  OwnershipTransferred(oldOwner, newOwner) */\n  0xffffffffffffffffffffffffffffffffffffffff\n  and\n    /* \"@openzeppelin/contracts/access/Ownable.sol\":3073:3081  oldOwner */\n  dup2\n    /* \"@openzeppelin/contracts/access/Ownable.sol\":3052:3092  OwnershipTransferred(oldOwner, newOwner) */\n  0xffffffffffffffffffffffffffffffffffffffff\n  and\n  0x8be0079c531659141344cd1fd0a4f28419497f9722a3daafe3b4186f6b6457e0\n  mload(0x40)\n  mload(0x40)\n  dup1\n  swap2\n  sub\n  swap1\n  log3\n    /* \"@openzeppelin/contracts/access/Ownable.sol\":2975:3099  {... */\n  pop\n    /* \"@openzeppelin/contracts/access/Ownable.sol\":2912:3099  function _transferOwnership(address newOwner) internal virtual {... */\n  pop\n  jump\t// out\n    /* \"#utility.yul\":88:205   */\ntag_22:\n    /* \"#utility.yul\":197:198   */\n  0x00\n    /* \"#utility.yul\":194:195   */\n  dup1\n    /* \"#utility.yul\":187:199   */\n  revert\n    /* \"#utility.yul\":334:460   */\ntag_24:\n    /* \"#utility.yul\":371:378   */\n  0x00\n    /* \"#utility.yul\":411:453   */\n  0xffffffffffffffffffffffffffffffffffffffff\n    /* \"#utility.yul\":404:409   */\n  dup3\n    /* \"#utility.yul\":400:454   */\n  and\n    /* \"#utility.yul\":389:454   */\n  swap1\n  pop\n    /* \"#utility.yul\":334:460   */\n  swap2\n  swap1\n  pop\n  jump\t// out\n    /* \"#utility.yul\":466:562   */\ntag_25:\n    /* \"#utility.yul\":503:510   */\n  0x00\n    /* \"#utility.yul\":532:556   */\n  tag_42\n    /* \"#utility.yul\":550:555   */\n  dup3\n    /* \"#utility.yul\":532:556   */\n  tag_24\n  jump\t// in\ntag_42:\n    /* \"#utility.yul\":521:556   */\n  swap1\n  pop\n    /* \"#utility.yul\":466:562   */\n  swap2\n  swap1\n  pop\n  jump\t// out\n    /* \"#utility.yul\":568:690   */\ntag_26:\n    /* \"#utility.yul\":641:665   */\n  tag_44\n    /* \"#utility.yul\":659:664   */\n  dup2\n    /* \"#utility.yul\":641:665   */\n  tag_25\n  jump\t// in\ntag_44:\n    /* \"#utility.yul\":634:639   */\n  dup2\n    /* \"#utility.yul\":631:666   */\n  eq\n    /* \"#utility.yul\":621:684   */\n  tag_45\n  jumpi\n    /* \"#utility.yul\":680:681   */\n  0x00\n    /* \"#utility.yul\":677:678   */\n  dup1\n    /* \"#utility.yul\":670:682   */\n  revert\n    /* \"#utility.yul\":621:684   */\ntag_45:\n    /* \"#utility.yul\":568:690   */\n  pop\n  jump\t// out\n    /* \"#utility.yul\":696:839   */\ntag_27:\n    /* \"#utility.yul\":753:758   */\n  0x00\n    /* \"#utility.yul\":784:790   */\n  dup2\n    /* \"#utility.yul\":778:791   */\n  mload\n    /* \"#utility.yul\":769:791   */\n  swap1\n  pop\n    /* \"#utility.yul\":800:833   */\n  tag_47\n    /* \"#utility.yul\":827:832   */\n  dup2\n    /* \"#utility.yul\":800:833   */\n  tag_26\n  jump\t// in\ntag_47:\n    /* \"#utility.yul\":696:839   */\n  swap3\n  swap2\n  pop\n  pop\n  jump\t// out\n    /* \"#utility.yul\":845:922   */\ntag_28:\n    /* \"#utility.yul\":882:889   */\n  0x00\n    /* \"#utility.yul\":911:916   */\n  dup2\n    /* \"#utility.yul\":900:916   */\n  swap1\n  pop\n    /* \"#utility.yul\":845:922   */\n  swap2\n  swap1\n  pop\n  jump\t// out\n    /* \"#utility.yul\":928:1050   */\ntag_29:\n    /* \"#utility.yul\":1001:1025   */\n  tag_50\n    /* \"#utility.yul\":1019:1024   */\n  dup2\n    /* \"#utility.yul\":1001:1025   */\n  tag_28\n  jump\t// in\ntag_50:\n    /* \"#utility.yul\":994:999   */\n  dup2\n    /* \"#utility.yul\":991:1026   */\n  eq\n    /* \"#utility.yul\":981:1044   */\n  tag_51\n  jumpi\n    /* \"#utility.yul\":1040:1041   */\n  0x00\n    /* \"#utility.yul\":1037:1038   */\n  dup1\n    /* \"#utility.yul\":1030:1042   */\n  revert\n    /* \"#utility.yul\":981:1044   */\ntag_51:\n    /* \"#utility.yul\":928:1050   */\n  pop\n  jump\t// out\n    /* \"#utility.yul\":1056:1199   */\ntag_30:\n    /* \"#utility.yul\":1113:1118   */\n  0x00\n    /* \"#utility.yul\":1144:1150   */\n  dup2\n    /* \"#utility.yul\":1138:1151   */\n  mload\n    /* \"#utility.yul\":1129:1151   */\n  swap1\n  pop\n    /* \"#utility.yul\":1160:1193   */\n  tag_53\n    /* \"#utility.yul\":1187:1192   */\n  dup2\n    /* \"#utility.yul\":1160:1193   */\n  tag_29\n  jump\t// in\ntag_53:\n    /* \"#utility.yul\":1056:1199   */\n  swap3\n  swap2\n  pop\n  pop\n  jump\t// out\n    /* \"#utility.yul\":1205:1868   */\ntag_3:\n    /* \"#utility.yul\":1293:1299   */\n  0x00\n    /* \"#utility.yul\":1301:1307   */\n  dup1\n    /* \"#utility.yul\":1309:1315   */\n  0x00\n    /* \"#utility.yul\":1358:1360   */\n  0x60\n    /* \"#utility.yul\":1346:1355   */\n  dup5\n    /* \"#utility.yul\":1337:1344   */\n  dup7\n    /* \"#utility.yul\":1333:1356   */\n  sub\n    /* \"#utility.yul\":1329:1361   */\n  slt\n    /* \"#utility.yul\":1326:1445   */\n  iszero\n  tag_55\n  jumpi\n    /* \"#utility.yul\":1364:1443   */\n  tag_56\n  tag_22\n  jump\t// in\ntag_56:\n    /* \"#utility.yul\":1326:1445   */\ntag_55:\n    /* \"#utility.yul\":1484:1485   */\n  0x00\n    /* \"#utility.yul\":1509:1573   */\n  tag_57\n    /* \"#utility.yul\":1565:1572   */\n  dup7\n    /* \"#utility.yul\":1556:1562   */\n  dup3\n    /* \"#utility.yul\":1545:1554   */\n  dup8\n    /* \"#utility.yul\":1541:1563   */\n  add\n    /* \"#utility.yul\":1509:1573   */\n  tag_27\n  jump\t// in\ntag_57:\n    /* \"#utility.yul\":1499:1573   */\n  swap4\n  pop\n    /* \"#utility.yul\":1455:1583   */\n  pop\n    /* \"#utility.yul\":1622:1624   */\n  0x20\n    /* \"#utility.yul\":1648:1712   */\n  tag_58\n    /* \"#utility.yul\":1704:1711   */\n  dup7\n    /* \"#utility.yul\":1695:1701   */\n  dup3\n    /* \"#utility.yul\":1684:1693   */\n  dup8\n    /* \"#utility.yul\":1680:1702   */\n  add\n    /* \"#utility.yul\":1648:1712   */\n  tag_30\n  jump\t// in\ntag_58:\n    /* \"#utility.yul\":1638:1712   */\n  swap3\n  pop\n    /* \"#utility.yul\":1593:1722   */\n  pop\n    /* \"#utility.yul\":1761:1763   */\n  0x40\n    /* \"#utility.yul\":1787:1851   */\n  tag_59\n    /* \"#utility.yul\":1843:1850   */\n  dup7\n    /* \"#utility.yul\":1834:1840   */\n  dup3\n    /* \"#utility.yul\":1823:1832   */\n  dup8\n    /* \"#utility.yul\":1819:1841   */\n  add\n    /* \"#utility.yul\":1787:1851   */\n  tag_27\n  jump\t// in\ntag_59:\n    /* \"#utility.yul\":1777:1851   */\n  swap2\n  pop\n    /* \"#utility.yul\":1732:1861   */\n  pop\n    /* \"#utility.yul\":1205:1868   */\n  swap3\n  pop\n  swap3\n  pop\n  swap3\n  jump\t// out\n    /* \"#utility.yul\":1874:1992   */\ntag_31:\n    /* \"#utility.yul\":1961:1985   */\n  tag_61\n    /* \"#utility.yul\":1979:1984   */\n  dup2\n    /* \"#utility.yul\":1961:1985   */\n  tag_25\n  jump\t// in\ntag_61:\n    /* \"#utility.yul\":1956:1959   */\n  dup3\n    /* \"#utility.yul\":1949:1986   */\n  mstore\n    /* \"#utility.yul\":1874:1992   */\n  pop\n  pop\n  jump\t// out\n    /* \"#utility.yul\":1998:2220   */\ntag_9:\n    /* \"#utility.yul\":2091:2095   */\n  0x00\n    /* \"#utility.yul\":2129:2131   */\n  0x20\n    /* \"#utility.yul\":2118:2127   */\n  dup3\n    /* \"#utility.yul\":2114:2132   */\n  add\n    /* \"#utility.yul\":2106:2132   */\n  swap1\n  pop\n    /* \"#utility.yul\":2142:2213   */\n  tag_63\n    /* \"#utility.yul\":2210:2211   */\n  0x00\n    /* \"#utility.yul\":2199:2208   */\n  dup4\n    /* \"#utility.yul\":2195:2212   */\n  add\n    /* \"#utility.yul\":2186:2192   */\n  dup5\n    /* \"#utility.yul\":2142:2213   */\n  tag_31\n  jump\t// in\ntag_63:\n    /* \"#utility.yul\":1998:2220   */\n  swap3\n  swap2\n  pop\n  pop\n  jump\t// out\n    /* \"#utility.yul\":2226:2336   */\ntag_32:\n    /* \"#utility.yul\":2277:2284   */\n  0x00\n    /* \"#utility.yul\":2306:2330   */\n  tag_65\n    /* \"#utility.yul\":2324:2329   */\n  dup3\n    /* \"#utility.yul\":2306:2330   */\n  tag_25\n  jump\t// in\ntag_65:\n    /* \"#utility.yul\":2295:2330   */\n  swap1\n  pop\n    /* \"#utility.yul\":2226:2336   */\n  swap2\n  swap1\n  pop\n  jump\t// out\n    /* \"#utility.yul\":2342:2492   */\ntag_33:\n    /* \"#utility.yul\":2429:2467   */\n  tag_67\n    /* \"#utility.yul\":2461:2466   */\n  dup2\n    /* \"#utility.yul\":2429:2467   */\n  tag_32\n  jump\t// in\ntag_67:\n    /* \"#utility.yul\":2422:2427   */\n  dup2\n    /* \"#utility.yul\":2419:2468   */\n  eq\n    /* \"#utility.yul\":2409:2486   */\n  tag_68\n  jumpi\n    /* \"#utility.yul\":2482:2483   */\n  0x00\n    /* \"#utility.yul\":2479:2480   */\n  dup1\n    /* \"#utility.yul\":2472:2484   */\n  revert\n    /* \"#utility.yul\":2409:2486   */\ntag_68:\n    /* \"#utility.yul\":2342:2492   */\n  pop\n  jump\t// out\n    /* \"#utility.yul\":2498:2669   */\ntag_34:\n    /* \"#utility.yul\":2569:2574   */\n  0x00\n    /* \"#utility.yul\":2600:2606   */\n  dup2\n    /* \"#utility.yul\":2594:2607   */\n  mload\n    /* \"#utility.yul\":2585:2607   */\n  swap1\n  pop\n    /* \"#utility.yul\":2616:2663   */\n  tag_70\n    /* \"#utility.yul\":2657:2662   */\n  dup2\n    /* \"#utility.yul\":2616:2663   */\n  tag_33\n  jump\t// in\ntag_70:\n    /* \"#utility.yul\":2498:2669   */\n  swap3\n  swap2\n  pop\n  pop\n  jump\t// out\n    /* \"#utility.yul\":2675:3054   */\ntag_16:\n    /* \"#utility.yul\":2759:2765   */\n  0x00\n    /* \"#utility.yul\":2808:2810   */\n  0x20\n    /* \"#utility.yul\":2796:2805   */\n  dup3\n    /* \"#utility.yul\":2787:2794   */\n  dup5\n    /* \"#utility.yul\":2783:2806   */\n  sub\n    /* \"#utility.yul\":2779:2811   */\n  slt\n    /* \"#utility.yul\":2776:2895   */\n  iszero\n  tag_72\n  jumpi\n    /* \"#utility.yul\":2814:2893   */\n  tag_73\n  tag_22\n  jump\t// in\ntag_73:\n    /* \"#utility.yul\":2776:2895   */\ntag_72:\n    /* \"#utility.yul\":2934:2935   */\n  0x00\n    /* \"#utility.yul\":2959:3037   */\n  tag_74\n    /* \"#utility.yul\":3029:3036   */\n  dup5\n    /* \"#utility.yul\":3020:3026   */\n  dup3\n    /* \"#utility.yul\":3009:3018   */\n  dup6\n    /* \"#utility.yul\":3005:3027   */\n  add\n    /* \"#utility.yul\":2959:3037   */\n  tag_34\n  jump\t// in\ntag_74:\n    /* \"#utility.yul\":2949:3037   */\n  swap2\n  pop\n    /* \"#utility.yul\":2905:3047   */\n  pop\n    /* \"#utility.yul\":2675:3054   */\n  swap3\n  swap2\n  pop\n  pop\n  jump\t// out\n    /* \"#utility.yul\":3060:3240   */\ntag_35:\n    /* \"#utility.yul\":3108:3185   */\n  0x4e487b7100000000000000000000000000000000000000000000000000000000\n    /* \"#utility.yul\":3105:3106   */\n  0x00\n    /* \"#utility.yul\":3098:3186   */\n  mstore\n    /* \"#utility.yul\":3205:3209   */\n  0x11\n    /* \"#utility.yul\":3202:3203   */\n  0x04\n    /* \"#utility.yul\":3195:3210   */\n  mstore\n    /* \"#utility.yul\":3229:3233   */\n  0x24\n    /* \"#utility.yul\":3226:3227   */\n  0x00\n    /* \"#utility.yul\":3219:3234   */\n  revert\n    /* \"#utility.yul\":3246:3437   */\ntag_18:\n    /* \"#utility.yul\":3286:3289   */\n  0x00\n    /* \"#utility.yul\":3305:3325   */\n  tag_77\n    /* \"#utility.yul\":3323:3324   */\n  dup3\n    /* \"#utility.yul\":3305:3325   */\n  tag_28\n  jump\t// in\ntag_77:\n    /* \"#utility.yul\":3300:3325   */\n  swap2\n  pop\n    /* \"#utility.yul\":3339:3359   */\n  tag_78\n    /* \"#utility.yul\":3357:3358   */\n  dup4\n    /* \"#utility.yul\":3339:3359   */\n  tag_28\n  jump\t// in\ntag_78:\n    /* \"#utility.yul\":3334:3359   */\n  swap3\n  pop\n    /* \"#utility.yul\":3382:3383   */\n  dup3\n    /* \"#utility.yul\":3379:3380   */\n  dup3\n    /* \"#utility.yul\":3375:3384   */\n  add\n    /* \"#utility.yul\":3368:3384   */\n  swap1\n  pop\n    /* \"#utility.yul\":3403:3406   */\n  dup1\n    /* \"#utility.yul\":3400:3401   */\n  dup3\n    /* \"#utility.yul\":3397:3407   */\n  gt\n    /* \"#utility.yul\":3394:3430   */\n  iszero\n  tag_79\n  jumpi\n    /* \"#utility.yul\":3410:3428   */\n  tag_80\n  tag_35\n  jump\t// in\ntag_80:\n    /* \"#utility.yul\":3394:3430   */\ntag_79:\n    /* \"#utility.yul\":3246:3437   */\n  swap3\n  swap2\n  pop\n  pop\n  jump\t// out\n    /* \"contracts/ProfitSharing.sol\":198:3162  contract ProfitSharing is Ownable {... */\ntag_19:\n  dataSize(sub_0)\n  dup1\n  dataOffset(sub_0)\n  0x00\n  codecopy\n  0x00\n  return\nstop\n\nsub_0: assembly {\n        /* \"contracts/ProfitSharing.sol\":198:3162  contract ProfitSharing is Ownable {... */\n      mstore(0x40, 0x80)\n      callvalue\n      dup1\n      iszero\n      tag_1\n      jumpi\n      0x00\n      dup1\n      revert\n    tag_1:\n      pop\n      jumpi(tag_2, lt(calldatasize, 0x04))\n      shr(0xe0, calldataload(0x00))\n      dup1\n      0xa01a22b9\n      gt\n      tag_16\n      jumpi\n      dup1\n      0xb511b30c\n      gt\n      tag_17\n      jumpi\n      dup1\n      0xb511b30c\n      eq\n      tag_12\n      jumpi\n      dup1\n      0xd19197c1\n      eq\n      tag_13\n      jumpi\n      dup1\n      0xda494954\n      eq\n      tag_14\n      jumpi\n      dup1\n      0xf2fde38b\n      eq\n      tag_15\n      jumpi\n      jump(tag_2)\n    tag_17:\n      dup1\n      0xa01a22b9\n      eq\n      tag_9\n      jumpi\n      dup1\n      0xab2adc00\n      eq\n      tag_10\n      jumpi\n      dup1\n      0xb180783d\n      eq\n      tag_11\n      jumpi\n      jump(tag_2)\n    tag_16:\n      dup1\n      0x1fee5ccd\n      eq\n      tag_3\n      jumpi\n      dup1\n      0x3a98ef39\n      eq\n      tag_4\n      jumpi\n      dup1\n      0x62bcad7b\n      eq\n      tag_5\n      jumpi\n      dup1\n      0x666da64f\n      eq\n      tag_6\n      jumpi\n      dup1\n      0x715018a6\n      eq\n      tag_7\n      jumpi\n      dup1\n      0x8da5cb5b\n      eq\n      tag_8\n      jumpi\n    tag_2:\n      0x00\n      dup1\n      revert\n        /* \"contracts/ProfitSharing.sol\":927:1890  function distributeProfits() external onlyOwner {... */\n    tag_3:\n      tag_18\n      tag_19\n      jump\t// in\n    tag_18:\n      stop\n        /* \"contracts/ProfitSharing.sol\":446:472  uint256 public totalShares */\n    tag_4:\n      tag_20\n      tag_21\n      jump\t// in\n    tag_20:\n      mload(0x40)\n      tag_22\n      swap2\n      swap1\n      tag_23\n      jump\t// in\n    tag_22:\n      mload(0x40)\n      dup1\n      swap2\n      sub\n      swap1\n      return\n        /* \"contracts/ProfitSharing.sol\":315:347  uint256 public coveragePeriodEnd */\n    tag_5:\n      tag_24\n      tag_25\n      jump\t// in\n    tag_24:\n      mload(0x40)\n      tag_26\n      swap2\n      swap1\n      tag_23\n      jump\t// in\n    tag_26:\n      mload(0x40)\n      dup1\n      swap2\n      sub\n      swap1\n      return\n        /* \"contracts/ProfitSharing.sol\":1900:2339  function claimShare() external {... */\n    tag_6:\n      tag_27\n      tag_28\n      jump\t// in\n    tag_27:\n      stop\n        /* \"@openzeppelin/contracts/access/Ownable.sol\":2293:2394  function renounceOwnership() public virtual onlyOwner {... */\n    tag_7:\n      tag_29\n      tag_30\n      jump\t// in\n    tag_29:\n      stop\n        /* \"@openzeppelin/contracts/access/Ownable.sol\":1638:1723  function owner() public view virtual returns (address) {... */\n    tag_8:\n      tag_31\n      tag_32\n      jump\t// in\n    tag_31:\n      mload(0x40)\n      tag_33\n      swap2\n      swap1\n      tag_34\n      jump\t// in\n    tag_33:\n      mload(0x40)\n      dup1\n      swap2\n      sub\n      swap1\n      return\n        /* \"contracts/ProfitSharing.sol\":2926:3044  function getMemberShare(address _member) external view returns (uint256) {... */\n    tag_9:\n      tag_35\n      0x04\n      dup1\n      calldatasize\n      sub\n      dup2\n      add\n      swap1\n      tag_36\n      swap2\n      swap1\n      tag_37\n      jump\t// in\n    tag_36:\n      tag_38\n      jump\t// in\n    tag_35:\n      mload(0x40)\n      tag_39\n      swap2\n      swap1\n      tag_23\n      jump\t// in\n    tag_39:\n      mload(0x40)\n      dup1\n      swap2\n      sub\n      swap1\n      return\n        /* \"contracts/ProfitSharing.sol\":238:272  InsurancePool public insurancePool */\n    tag_10:\n      tag_40\n      tag_41\n      jump\t// in\n    tag_40:\n      mload(0x40)\n      tag_42\n      swap2\n      swap1\n      tag_43\n      jump\t// in\n    tag_42:\n      mload(0x40)\n      dup1\n      swap2\n      sub\n      swap1\n      return\n        /* \"contracts/ProfitSharing.sol\":278:304  IERC20 public premiumToken */\n    tag_11:\n      tag_44\n      tag_45\n      jump\t// in\n    tag_44:\n      mload(0x40)\n      tag_46\n      swap2\n      swap1\n      tag_47\n      jump\t// in\n    tag_46:\n      mload(0x40)\n      dup1\n      swap2\n      sub\n      swap1\n      return\n        /* \"contracts/ProfitSharing.sol\":353:382  bool public profitDistributed */\n    tag_12:\n      tag_48\n      tag_49\n      jump\t// in\n    tag_48:\n      mload(0x40)\n      tag_50\n      swap2\n      swap1\n      tag_51\n      jump\t// in\n    tag_50:\n      mload(0x40)\n      dup1\n      swap2\n      sub\n      swap1\n      return\n        /* \"contracts/ProfitSharing.sol\":3054:3160  function getTotalUndistributedShares() external view returns (uint256) {... */\n    tag_13:\n      tag_52\n      tag_53\n      jump\t// in\n    tag_52:\n      mload(0x40)\n      tag_54\n      swap2\n      swap1\n      tag_23\n      jump\t// in\n    tag_54:\n      mload(0x40)\n      dup1\n      swap2\n      sub\n      swap1\n      return\n        /* \"contracts/ProfitSharing.sol\":393:440  mapping(address => uint256) public memberShares */\n    tag_14:\n      tag_55\n      0x04\n      dup1\n      calldatasize\n      sub\n      dup2\n      add\n      swap1\n      tag_56\n      swap2\n      swap1\n      tag_37\n      jump\t// in\n    tag_56:\n      tag_57\n      jump\t// in\n    tag_55:\n      mload(0x40)\n      tag_58\n      swap2\n      swap1\n      tag_23\n      jump\t// in\n    tag_58:\n      mload(0x40)\n      dup1\n      swap2\n      sub\n      swap1\n      return\n        /* \"@openzeppelin/contracts/access/Ownable.sol\":2543:2758  function transferOwnership(address newOwner) public virtual onlyOwner {... */\n    tag_15:\n      tag_59\n      0x04\n      dup1\n      calldatasize\n      sub\n      dup2\n      add\n      swap1\n      tag_60\n      swap2\n      swap1\n      tag_37\n      jump\t// in\n    tag_60:\n      tag_61\n      jump\t// in\n    tag_59:\n      stop\n        /* \"contracts/ProfitSharing.sol\":927:1890  function distributeProfits() external onlyOwner {... */\n    tag_19:\n        /* \"@openzeppelin/contracts/access/Ownable.sol\":1531:1544  _checkOwner() */\n      tag_63\n        /* \"@openzeppelin/contracts/access/Ownable.sol\":1531:1542  _checkOwner */\n      tag_64\n        /* \"@openzeppelin/contracts/access/Ownable.sol\":1531:1544  _checkOwner() */\n      jump\t// in\n    tag_63:\n        /* \"contracts/ProfitSharing.sol\":1012:1029  coveragePeriodEnd */\n      sload(0x03)\n        /* \"contracts/ProfitSharing.sol\":993:1008  block.timestamp */\n      timestamp\n        /* \"contracts/ProfitSharing.sol\":993:1029  block.timestamp >= coveragePeriodEnd */\n      lt\n      iszero\n        /* \"contracts/ProfitSharing.sol\":985:1059  require(block.timestamp >= coveragePeriodEnd, \"Coverage period not ended\") */\n      tag_66\n      jumpi\n      mload(0x40)\n      0x08c379a000000000000000000000000000000000000000000000000000000000\n      dup2\n      mstore\n      0x04\n      add\n      tag_67\n      swap1\n      tag_68\n      jump\t// in\n    tag_67:\n      mload(0x40)\n      dup1\n      swap2\n      sub\n      swap1\n      revert\n    tag_66:\n        /* \"contracts/ProfitSharing.sol\":1078:1095  profitDistributed */\n      0x04\n      0x00\n      swap1\n      sload\n      swap1\n      0x0100\n      exp\n      swap1\n      div\n      0xff\n      and\n        /* \"contracts/ProfitSharing.sol\":1077:1095  !profitDistributed */\n      iszero\n        /* \"contracts/ProfitSharing.sol\":1069:1127  require(!profitDistributed, \"Profits already distributed\") */\n      tag_69\n      jumpi\n      mload(0x40)\n      0x08c379a000000000000000000000000000000000000000000000000000000000\n      dup2\n      mstore\n      0x04\n      add\n      tag_70\n      swap1\n      tag_71\n      jump\t// in\n    tag_70:\n      mload(0x40)\n      dup1\n      swap2\n      sub\n      swap1\n      revert\n    tag_69:\n        /* \"contracts/ProfitSharing.sol\":1146:1167  uint256 totalPremiums */\n      0x00\n        /* \"contracts/ProfitSharing.sol\":1170:1183  insurancePool */\n      0x01\n      0x00\n      swap1\n      sload\n      swap1\n      0x0100\n      exp\n      swap1\n      div\n      0xffffffffffffffffffffffffffffffffffffffff\n      and\n        /* \"contracts/ProfitSharing.sol\":1170:1197  insurancePool.totalPremiums */\n      0xffffffffffffffffffffffffffffffffffffffff\n      and\n      0x5bda1584\n        /* \"contracts/ProfitSharing.sol\":1170:1199  insurancePool.totalPremiums() */\n      mload(0x40)\n      dup2\n      0xffffffff\n      and\n      0xe0\n      shl\n      dup2\n      mstore\n      0x04\n      add\n      0x20\n      mload(0x40)\n      dup1\n      dup4\n      sub\n      dup2\n      dup7\n      gas\n      staticcall\n      iszero\n      dup1\n      iszero\n      tag_73\n      jumpi\n      returndatasize\n      0x00\n      dup1\n      returndatacopy\n      revert(0x00, returndatasize)\n    tag_73:\n      pop\n      pop\n      pop\n      pop\n      mload(0x40)\n      returndatasize\n      not(0x1f)\n      0x1f\n      dup3\n      add\n      and\n      dup3\n      add\n      dup1\n      0x40\n      mstore\n      pop\n      dup2\n      add\n      swap1\n      tag_74\n      swap2\n      swap1\n      tag_75\n      jump\t// in\n    tag_74:\n        /* \"contracts/ProfitSharing.sol\":1146:1199  uint256 totalPremiums = insurancePool.totalPremiums() */\n      swap1\n      pop\n        /* \"contracts/ProfitSharing.sol\":1209:1229  uint256 totalPayouts */\n      0x00\n        /* \"contracts/ProfitSharing.sol\":1232:1245  insurancePool */\n      0x01\n      0x00\n      swap1\n      sload\n      swap1\n      0x0100\n      exp\n      swap1\n      div\n      0xffffffffffffffffffffffffffffffffffffffff\n      and\n        /* \"contracts/ProfitSharing.sol\":1232:1258  insurancePool.totalPayouts */\n      0xffffffffffffffffffffffffffffffffffffffff\n      and\n      0x4089b170\n        /* \"contracts/ProfitSharing.sol\":1232:1260  insurancePool.totalPayouts() */\n      mload(0x40)\n      dup2\n      0xffffffff\n      and\n      0xe0\n      shl\n      dup2\n      mstore\n      0x04\n      add\n      0x20\n      mload(0x40)\n      dup1\n      dup4\n      sub\n      dup2\n      dup7\n      gas\n      staticcall\n      iszero\n      dup1\n      iszero\n      tag_77\n      jumpi\n      returndatasize\n      0x00\n      dup1\n      returndatacopy\n      revert(0x00, returndatasize)\n    tag_77:\n      pop\n      pop\n      pop\n      pop\n      mload(0x40)\n      returndatasize\n      not(0x1f)\n      0x1f\n      dup3\n      add\n      and\n      dup3\n      add\n      dup1\n      0x40\n      mstore\n      pop\n      dup2\n      add\n      swap1\n      tag_78\n      swap2\n      swap1\n      tag_75\n      jump\t// in\n    tag_78:\n        /* \"contracts/ProfitSharing.sol\":1209:1260  uint256 totalPayouts = insurancePool.totalPayouts() */\n      swap1\n      pop\n        /* \"contracts/ProfitSharing.sol\":1270:1284  uint256 profit */\n      0x00\n        /* \"contracts/ProfitSharing.sol\":1303:1315  totalPayouts */\n      dup2\n        /* \"contracts/ProfitSharing.sol\":1287:1300  totalPremiums */\n      dup4\n        /* \"contracts/ProfitSharing.sol\":1287:1315  totalPremiums > totalPayouts */\n      gt\n        /* \"contracts/ProfitSharing.sol\":1287:1350  totalPremiums > totalPayouts ? totalPremiums - totalPayouts : 0 */\n      tag_79\n      jumpi\n        /* \"contracts/ProfitSharing.sol\":1349:1350  0 */\n      0x00\n        /* \"contracts/ProfitSharing.sol\":1287:1350  totalPremiums > totalPayouts ? totalPremiums - totalPayouts : 0 */\n      jump(tag_80)\n    tag_79:\n        /* \"contracts/ProfitSharing.sol\":1334:1346  totalPayouts */\n      dup2\n        /* \"contracts/ProfitSharing.sol\":1318:1331  totalPremiums */\n      dup4\n        /* \"contracts/ProfitSharing.sol\":1318:1346  totalPremiums - totalPayouts */\n      tag_81\n      swap2\n      swap1\n      tag_82\n      jump\t// in\n    tag_81:\n        /* \"contracts/ProfitSharing.sol\":1287:1350  totalPremiums > totalPayouts ? totalPremiums - totalPayouts : 0 */\n    tag_80:\n        /* \"contracts/ProfitSharing.sol\":1270:1350  uint256 profit = totalPremiums > totalPayouts ? totalPremiums - totalPayouts : 0 */\n      swap1\n      pop\n        /* \"contracts/ProfitSharing.sol\":1382:1383  0 */\n      0x00\n        /* \"contracts/ProfitSharing.sol\":1373:1379  profit */\n      dup2\n        /* \"contracts/ProfitSharing.sol\":1373:1383  profit > 0 */\n      gt\n        /* \"contracts/ProfitSharing.sol\":1369:1801  if (profit > 0) {... */\n      iszero\n      tag_83\n      jumpi\n        /* \"contracts/ProfitSharing.sol\":1399:1423  address[] memory members */\n      0x00\n        /* \"contracts/ProfitSharing.sol\":1426:1438  getMembers() */\n      tag_84\n        /* \"contracts/ProfitSharing.sol\":1426:1436  getMembers */\n      tag_85\n        /* \"contracts/ProfitSharing.sol\":1426:1438  getMembers() */\n      jump\t// in\n    tag_84:\n        /* \"contracts/ProfitSharing.sol\":1399:1438  address[] memory members = getMembers() */\n      swap1\n      pop\n        /* \"contracts/ProfitSharing.sol\":1457:1466  uint256 i */\n      0x00\n        /* \"contracts/ProfitSharing.sol\":1452:1791  for (uint256 i = 0; i < members.length; i++) {... */\n    tag_86:\n        /* \"contracts/ProfitSharing.sol\":1476:1483  members */\n      dup2\n        /* \"contracts/ProfitSharing.sol\":1476:1490  members.length */\n      mload\n        /* \"contracts/ProfitSharing.sol\":1472:1473  i */\n      dup2\n        /* \"contracts/ProfitSharing.sol\":1472:1490  i < members.length */\n      lt\n        /* \"contracts/ProfitSharing.sol\":1452:1791  for (uint256 i = 0; i < members.length; i++) {... */\n      iszero\n      tag_87\n      jumpi\n        /* \"contracts/ProfitSharing.sol\":1515:1529  address member */\n      0x00\n        /* \"contracts/ProfitSharing.sol\":1532:1539  members */\n      dup3\n        /* \"contracts/ProfitSharing.sol\":1540:1541  i */\n      dup3\n        /* \"contracts/ProfitSharing.sol\":1532:1542  members[i] */\n      dup2\n      mload\n      dup2\n      lt\n      tag_89\n      jumpi\n      tag_90\n      tag_91\n      jump\t// in\n    tag_90:\n    tag_89:\n      0x20\n      mul\n      0x20\n      add\n      add\n      mload\n        /* \"contracts/ProfitSharing.sol\":1515:1542  address member = members[i] */\n      swap1\n      pop\n        /* \"contracts/ProfitSharing.sol\":1560:1581  uint256 memberPremium */\n      0x00\n        /* \"contracts/ProfitSharing.sol\":1584:1597  insurancePool */\n      0x01\n      0x00\n      swap1\n      sload\n      swap1\n      0x0100\n      exp\n      swap1\n      div\n      0xffffffffffffffffffffffffffffffffffffffff\n      and\n        /* \"contracts/ProfitSharing.sol\":1584:1610  insurancePool.premiumsPaid */\n      0xffffffffffffffffffffffffffffffffffffffff\n      and\n      0x293e571c\n        /* \"contracts/ProfitSharing.sol\":1611:1617  member */\n      dup4\n        /* \"contracts/ProfitSharing.sol\":1584:1618  insurancePool.premiumsPaid(member) */\n      mload(0x40)\n      dup3\n      0xffffffff\n      and\n      0xe0\n      shl\n      dup2\n      mstore\n      0x04\n      add\n      tag_92\n      swap2\n      swap1\n      tag_34\n      jump\t// in\n    tag_92:\n      0x20\n      mload(0x40)\n      dup1\n      dup4\n      sub\n      dup2\n      dup7\n      gas\n      staticcall\n      iszero\n      dup1\n      iszero\n      tag_94\n      jumpi\n      returndatasize\n      0x00\n      dup1\n      returndatacopy\n      revert(0x00, returndatasize)\n    tag_94:\n      pop\n      pop\n      pop\n      pop\n      mload(0x40)\n      returndatasize\n      not(0x1f)\n      0x1f\n      dup3\n      add\n      and\n      dup3\n      add\n      dup1\n      0x40\n      mstore\n      pop\n      dup2\n      add\n      swap1\n      tag_95\n      swap2\n      swap1\n      tag_75\n      jump\t// in\n    tag_95:\n        /* \"contracts/ProfitSharing.sol\":1560:1618  uint256 memberPremium = insurancePool.premiumsPaid(member) */\n      swap1\n      pop\n        /* \"contracts/ProfitSharing.sol\":1636:1649  uint256 share */\n      0x00\n        /* \"contracts/ProfitSharing.sol\":1679:1692  totalPremiums */\n      dup8\n        /* \"contracts/ProfitSharing.sol\":1662:1675  memberPremium */\n      dup3\n        /* \"contracts/ProfitSharing.sol\":1653:1659  profit */\n      dup8\n        /* \"contracts/ProfitSharing.sol\":1653:1675  profit * memberPremium */\n      tag_96\n      swap2\n      swap1\n      tag_97\n      jump\t// in\n    tag_96:\n        /* \"contracts/ProfitSharing.sol\":1652:1692  (profit * memberPremium) / totalPremiums */\n      tag_98\n      swap2\n      swap1\n      tag_99\n      jump\t// in\n    tag_98:\n        /* \"contracts/ProfitSharing.sol\":1636:1692  uint256 share = (profit * memberPremium) / totalPremiums */\n      swap1\n      pop\n        /* \"contracts/ProfitSharing.sol\":1733:1738  share */\n      dup1\n        /* \"contracts/ProfitSharing.sol\":1710:1722  memberShares */\n      0x05\n        /* \"contracts/ProfitSharing.sol\":1710:1730  memberShares[member] */\n      0x00\n        /* \"contracts/ProfitSharing.sol\":1723:1729  member */\n      dup6\n        /* \"contracts/ProfitSharing.sol\":1710:1730  memberShares[member] */\n      0xffffffffffffffffffffffffffffffffffffffff\n      and\n      0xffffffffffffffffffffffffffffffffffffffff\n      and\n      dup2\n      mstore\n      0x20\n      add\n      swap1\n      dup2\n      mstore\n      0x20\n      add\n      0x00\n      keccak256\n        /* \"contracts/ProfitSharing.sol\":1710:1738  memberShares[member] = share */\n      dup2\n      swap1\n      sstore\n      pop\n        /* \"contracts/ProfitSharing.sol\":1771:1776  share */\n      dup1\n        /* \"contracts/ProfitSharing.sol\":1756:1767  totalShares */\n      0x06\n      0x00\n        /* \"contracts/ProfitSharing.sol\":1756:1776  totalShares += share */\n      dup3\n      dup3\n      sload\n      tag_100\n      swap2\n      swap1\n      tag_101\n      jump\t// in\n    tag_100:\n      swap3\n      pop\n      pop\n      dup2\n      swap1\n      sstore\n      pop\n        /* \"contracts/ProfitSharing.sol\":1497:1791  {... */\n      pop\n      pop\n      pop\n        /* \"contracts/ProfitSharing.sol\":1492:1495  i++ */\n      dup1\n      dup1\n      0x01\n      add\n      swap2\n      pop\n      pop\n        /* \"contracts/ProfitSharing.sol\":1452:1791  for (uint256 i = 0; i < members.length; i++) {... */\n      jump(tag_86)\n    tag_87:\n      pop\n        /* \"contracts/ProfitSharing.sol\":1385:1801  {... */\n      pop\n        /* \"contracts/ProfitSharing.sol\":1369:1801  if (profit > 0) {... */\n    tag_83:\n        /* \"contracts/ProfitSharing.sol\":1839:1843  true */\n      0x01\n        /* \"contracts/ProfitSharing.sol\":1819:1836  profitDistributed */\n      0x04\n      0x00\n        /* \"contracts/ProfitSharing.sol\":1819:1843  profitDistributed = true */\n      0x0100\n      exp\n      dup2\n      sload\n      dup2\n      0xff\n      mul\n      not\n      and\n      swap1\n      dup4\n      iszero\n      iszero\n      mul\n      or\n      swap1\n      sstore\n      pop\n        /* \"contracts/ProfitSharing.sol\":1858:1883  ProfitDistributed(profit) */\n      0x939df96a3b47dbfb83da233006cef1eb233fc5cba50ea94fecdebea4d99423e6\n        /* \"contracts/ProfitSharing.sol\":1876:1882  profit */\n      dup2\n        /* \"contracts/ProfitSharing.sol\":1858:1883  ProfitDistributed(profit) */\n      mload(0x40)\n      tag_102\n      swap2\n      swap1\n      tag_23\n      jump\t// in\n    tag_102:\n      mload(0x40)\n      dup1\n      swap2\n      sub\n      swap1\n      log1\n        /* \"contracts/ProfitSharing.sol\":975:1890  {... */\n      pop\n      pop\n      pop\n        /* \"contracts/ProfitSharing.sol\":927:1890  function distributeProfits() external onlyOwner {... */\n      jump\t// out\n        /* \"contracts/ProfitSharing.sol\":446:472  uint256 public totalShares */\n    tag_21:\n      sload(0x06)\n      dup2\n      jump\t// out\n        /* \"contracts/ProfitSharing.sol\":315:347  uint256 public coveragePeriodEnd */\n    tag_25:\n      sload(0x03)\n      dup2\n      jump\t// out\n        /* \"contracts/ProfitSharing.sol\":1900:2339  function claimShare() external {... */\n    tag_28:\n        /* \"contracts/ProfitSharing.sol\":1949:1966  profitDistributed */\n      0x04\n      0x00\n      swap1\n      sload\n      swap1\n      0x0100\n      exp\n      swap1\n      div\n      0xff\n      and\n        /* \"contracts/ProfitSharing.sol\":1941:1998  require(profitDistributed, \"Profits not distributed yet\") */\n      tag_104\n      jumpi\n      mload(0x40)\n      0x08c379a000000000000000000000000000000000000000000000000000000000\n      dup2\n      mstore\n      0x04\n      add\n      tag_105\n      swap1\n      tag_106\n      jump\t// in\n    tag_105:\n      mload(0x40)\n      dup1\n      swap2\n      sub\n      swap1\n      revert\n    tag_104:\n        /* \"contracts/ProfitSharing.sol\":2043:2044  0 */\n      0x00\n        /* \"contracts/ProfitSharing.sol\":2016:2028  memberShares */\n      0x05\n        /* \"contracts/ProfitSharing.sol\":2016:2040  memberShares[msg.sender] */\n      0x00\n        /* \"contracts/ProfitSharing.sol\":2029:2039  msg.sender */\n      caller\n        /* \"contracts/ProfitSharing.sol\":2016:2040  memberShares[msg.sender] */\n      0xffffffffffffffffffffffffffffffffffffffff\n      and\n      0xffffffffffffffffffffffffffffffffffffffff\n      and\n      dup2\n      mstore\n      0x20\n      add\n      swap1\n      dup2\n      mstore\n      0x20\n      add\n      0x00\n      keccak256\n      sload\n        /* \"contracts/ProfitSharing.sol\":2016:2044  memberShares[msg.sender] > 0 */\n      gt\n        /* \"contracts/ProfitSharing.sol\":2008:2066  require(memberShares[msg.sender] > 0, \"No share to claim\") */\n      tag_107\n      jumpi\n      mload(0x40)\n      0x08c379a000000000000000000000000000000000000000000000000000000000\n      dup2\n      mstore\n      0x04\n      add\n      tag_108\n      swap1\n      tag_109\n      jump\t// in\n    tag_108:\n      mload(0x40)\n      dup1\n      swap2\n      sub\n      swap1\n      revert\n    tag_107:\n        /* \"contracts/ProfitSharing.sol\":2085:2098  uint256 share */\n      0x00\n        /* \"contracts/ProfitSharing.sol\":2101:2113  memberShares */\n      0x05\n        /* \"contracts/ProfitSharing.sol\":2101:2125  memberShares[msg.sender] */\n      0x00\n        /* \"contracts/ProfitSharing.sol\":2114:2124  msg.sender */\n      caller\n        /* \"contracts/ProfitSharing.sol\":2101:2125  memberShares[msg.sender] */\n      0xffffffffffffffffffffffffffffffffffffffff\n      and\n      0xffffffffffffffffffffffffffffffffffffffff\n      and\n      dup2\n      mstore\n      0x20\n      add\n      swap1\n      dup2\n      mstore\n      0x20\n      add\n      0x00\n      keccak256\n      sload\n        /* \"contracts/ProfitSharing.sol\":2085:2125  uint256 share = memberShares[msg.sender] */\n      swap1\n      pop\n        /* \"contracts/ProfitSharing.sol\":2162:2163  0 */\n      0x00\n        /* \"contracts/ProfitSharing.sol\":2135:2147  memberShares */\n      0x05\n        /* \"contracts/ProfitSharing.sol\":2135:2159  memberShares[msg.sender] */\n      0x00\n        /* \"contracts/ProfitSharing.sol\":2148:2158  msg.sender */\n      caller\n        /* \"contracts/ProfitSharing.sol\":2135:2159  memberShares[msg.sender] */\n      0xffffffffffffffffffffffffffffffffffffffff\n      and\n      0xffffffffffffffffffffffffffffffffffffffff\n      and\n      dup2\n      mstore\n      0x20\n      add\n      swap1\n      dup2\n      mstore\n      0x20\n      add\n      0x00\n      keccak256\n        /* \"contracts/ProfitSharing.sol\":2135:2163  memberShares[msg.sender] = 0 */\n      dup2\n      swap1\n      sstore\n      pop\n        /* \"contracts/ProfitSharing.sol\":2188:2193  share */\n      dup1\n        /* \"contracts/ProfitSharing.sol\":2173:2184  totalShares */\n      0x06\n      0x00\n        /* \"contracts/ProfitSharing.sol\":2173:2193  totalShares -= share */\n      dup3\n      dup3\n      sload\n      tag_110\n      swap2\n      swap1\n      tag_82\n      jump\t// in\n    tag_110:\n      swap3\n      pop\n      pop\n      dup2\n      swap1\n      sstore\n      pop\n        /* \"contracts/ProfitSharing.sol\":2220:2232  premiumToken */\n      0x02\n      0x00\n      swap1\n      sload\n      swap1\n      0x0100\n      exp\n      swap1\n      div\n      0xffffffffffffffffffffffffffffffffffffffff\n      and\n        /* \"contracts/ProfitSharing.sol\":2220:2241  premiumToken.transfer */\n      0xffffffffffffffffffffffffffffffffffffffff\n      and\n      0xa9059cbb\n        /* \"contracts/ProfitSharing.sol\":2242:2252  msg.sender */\n      caller\n        /* \"contracts/ProfitSharing.sol\":2254:2259  share */\n      dup4\n        /* \"contracts/ProfitSharing.sol\":2220:2260  premiumToken.transfer(msg.sender, share) */\n      mload(0x40)\n      dup4\n      0xffffffff\n      and\n      0xe0\n      shl\n      dup2\n      mstore\n      0x04\n      add\n      tag_111\n      swap3\n      swap2\n      swap1\n      tag_112\n      jump\t// in\n    tag_111:\n      0x20\n      mload(0x40)\n      dup1\n      dup4\n      sub\n      dup2\n      0x00\n      dup8\n      gas\n      call\n      iszero\n      dup1\n      iszero\n      tag_114\n      jumpi\n      returndatasize\n      0x00\n      dup1\n      returndatacopy\n      revert(0x00, returndatasize)\n    tag_114:\n      pop\n      pop\n      pop\n      pop\n      mload(0x40)\n      returndatasize\n      not(0x1f)\n      0x1f\n      dup3\n      add\n      and\n      dup3\n      add\n      dup1\n      0x40\n      mstore\n      pop\n      dup2\n      add\n      swap1\n      tag_115\n      swap2\n      swap1\n      tag_116\n      jump\t// in\n    tag_115:\n        /* \"contracts/ProfitSharing.sol\":2212:2280  require(premiumToken.transfer(msg.sender, share), \"Transfer failed\") */\n      tag_117\n      jumpi\n      mload(0x40)\n      0x08c379a000000000000000000000000000000000000000000000000000000000\n      dup2\n      mstore\n      0x04\n      add\n      tag_118\n      swap1\n      tag_119\n      jump\t// in\n    tag_118:\n      mload(0x40)\n      dup1\n      swap2\n      sub\n      swap1\n      revert\n    tag_117:\n        /* \"contracts/ProfitSharing.sol\":2314:2324  msg.sender */\n      caller\n        /* \"contracts/ProfitSharing.sol\":2295:2332  MemberShareClaimed(msg.sender, share) */\n      0xffffffffffffffffffffffffffffffffffffffff\n      and\n      0x6e166a59dcd35058fdbbf1db0aff7f20de4d17f2914ea5922322afd9c7db21c6\n        /* \"contracts/ProfitSharing.sol\":2326:2331  share */\n      dup3\n        /* \"contracts/ProfitSharing.sol\":2295:2332  MemberShareClaimed(msg.sender, share) */\n      mload(0x40)\n      tag_120\n      swap2\n      swap1\n      tag_23\n      jump\t// in\n    tag_120:\n      mload(0x40)\n      dup1\n      swap2\n      sub\n      swap1\n      log2\n        /* \"contracts/ProfitSharing.sol\":1931:2339  {... */\n      pop\n        /* \"contracts/ProfitSharing.sol\":1900:2339  function claimShare() external {... */\n      jump\t// out\n        /* \"@openzeppelin/contracts/access/Ownable.sol\":2293:2394  function renounceOwnership() public virtual onlyOwner {... */\n    tag_30:\n        /* \"@openzeppelin/contracts/access/Ownable.sol\":1531:1544  _checkOwner() */\n      tag_122\n        /* \"@openzeppelin/contracts/access/Ownable.sol\":1531:1542  _checkOwner */\n      tag_64\n        /* \"@openzeppelin/contracts/access/Ownable.sol\":1531:1544  _checkOwner() */\n      jump\t// in\n    tag_122:\n        /* \"@openzeppelin/contracts/access/Ownable.sol\":2357:2387  _transferOwnership(address(0)) */\n      tag_124\n        /* \"@openzeppelin/contracts/access/Ownable.sol\":2384:2385  0 */\n      0x00\n        /* \"@openzeppelin/contracts/access/Ownable.sol\":2357:2375  _transferOwnership */\n      tag_125\n        /* \"@openzeppelin/contracts/access/Ownable.sol\":2357:2387  _transferOwnership(address(0)) */\n      jump\t// in\n    tag_124:\n        /* \"@openzeppelin/contracts/access/Ownable.sol\":2293:2394  function renounceOwnership() public virtual onlyOwner {... */\n      jump\t// out\n        /* \"@openzeppelin/contracts/access/Ownable.sol\":1638:1723  function owner() public view virtual returns (address) {... */\n    tag_32:\n        /* \"@openzeppelin/contracts/access/Ownable.sol\":1684:1691  address */\n      0x00\n        /* \"@openzeppelin/contracts/access/Ownable.sol\":1710:1716  _owner */\n      dup1\n      0x00\n      swap1\n      sload\n      swap1\n      0x0100\n      exp\n      swap1\n      div\n      0xffffffffffffffffffffffffffffffffffffffff\n      and\n        /* \"@openzeppelin/contracts/access/Ownable.sol\":1703:1716  return _owner */\n      swap1\n      pop\n        /* \"@openzeppelin/contracts/access/Ownable.sol\":1638:1723  function owner() public view virtual returns (address) {... */\n      swap1\n      jump\t// out\n        /* \"contracts/ProfitSharing.sol\":2926:3044  function getMemberShare(address _member) external view returns (uint256) {... */\n    tag_38:\n        /* \"contracts/ProfitSharing.sol\":2990:2997  uint256 */\n      0x00\n        /* \"contracts/ProfitSharing.sol\":3016:3028  memberShares */\n      0x05\n        /* \"contracts/ProfitSharing.sol\":3016:3037  memberShares[_member] */\n      0x00\n        /* \"contracts/ProfitSharing.sol\":3029:3036  _member */\n      dup4\n        /* \"contracts/ProfitSharing.sol\":3016:3037  memberShares[_member] */\n      0xffffffffffffffffffffffffffffffffffffffff\n      and\n      0xffffffffffffffffffffffffffffffffffffffff\n      and\n      dup2\n      mstore\n      0x20\n      add\n      swap1\n      dup2\n      mstore\n      0x20\n      add\n      0x00\n      keccak256\n      sload\n        /* \"contracts/ProfitSharing.sol\":3009:3037  return memberShares[_member] */\n      swap1\n      pop\n        /* \"contracts/ProfitSharing.sol\":2926:3044  function getMemberShare(address _member) external view returns (uint256) {... */\n      swap2\n      swap1\n      pop\n      jump\t// out\n        /* \"contracts/ProfitSharing.sol\":238:272  InsurancePool public insurancePool */\n    tag_41:\n      0x01\n      0x00\n      swap1\n      sload\n      swap1\n      0x0100\n      exp\n      swap1\n      div\n      0xffffffffffffffffffffffffffffffffffffffff\n      and\n      dup2\n      jump\t// out\n        /* \"contracts/ProfitSharing.sol\":278:304  IERC20 public premiumToken */\n    tag_45:\n      0x02\n      0x00\n      swap1\n      sload\n      swap1\n      0x0100\n      exp\n      swap1\n      div\n      0xffffffffffffffffffffffffffffffffffffffff\n      and\n      dup2\n      jump\t// out\n        /* \"contracts/ProfitSharing.sol\":353:382  bool public profitDistributed */\n    tag_49:\n      0x04\n      0x00\n      swap1\n      sload\n      swap1\n      0x0100\n      exp\n      swap1\n      div\n      0xff\n      and\n      dup2\n      jump\t// out\n        /* \"contracts/ProfitSharing.sol\":3054:3160  function getTotalUndistributedShares() external view returns (uint256) {... */\n    tag_53:\n        /* \"contracts/ProfitSharing.sol\":3116:3123  uint256 */\n      0x00\n        /* \"contracts/ProfitSharing.sol\":3142:3153  totalShares */\n      sload(0x06)\n        /* \"contracts/ProfitSharing.sol\":3135:3153  return totalShares */\n      swap1\n      pop\n        /* \"contracts/ProfitSharing.sol\":3054:3160  function getTotalUndistributedShares() external view returns (uint256) {... */\n      swap1\n      jump\t// out\n        /* \"contracts/ProfitSharing.sol\":393:440  mapping(address => uint256) public memberShares */\n    tag_57:\n      mstore(0x20, 0x05)\n      dup1\n      0x00\n      mstore\n      keccak256(0x00, 0x40)\n      0x00\n      swap2\n      pop\n      swap1\n      pop\n      sload\n      dup2\n      jump\t// out\n        /* \"@openzeppelin/contracts/access/Ownable.sol\":2543:2758  function transferOwnership(address newOwner) public virtual onlyOwner {... */\n    tag_61:\n        /* \"@openzeppelin/contracts/access/Ownable.sol\":1531:1544  _checkOwner() */\n      tag_130\n        /* \"@openzeppelin/contracts/access/Ownable.sol\":1531:1542  _checkOwner */\n      tag_64\n        /* \"@openzeppelin/contracts/access/Ownable.sol\":1531:1544  _checkOwner() */\n      jump\t// in\n    tag_130:\n        /* \"@openzeppelin/contracts/access/Ownable.sol\":2647:2648  0 */\n      0x00\n        /* \"@openzeppelin/contracts/access/Ownable.sol\":2627:2649  newOwner == address(0) */\n      0xffffffffffffffffffffffffffffffffffffffff\n      and\n        /* \"@openzeppelin/contracts/access/Ownable.sol\":2627:2635  newOwner */\n      dup2\n        /* \"@openzeppelin/contracts/access/Ownable.sol\":2627:2649  newOwner == address(0) */\n      0xffffffffffffffffffffffffffffffffffffffff\n      and\n      sub\n        /* \"@openzeppelin/contracts/access/Ownable.sol\":2623:2714  if (newOwner == address(0)) {... */\n      tag_132\n      jumpi\n        /* \"@openzeppelin/contracts/access/Ownable.sol\":2700:2701  0 */\n      0x00\n        /* \"@openzeppelin/contracts/access/Ownable.sol\":2672:2703  OwnableInvalidOwner(address(0)) */\n      mload(0x40)\n      0x1e4fbdf700000000000000000000000000000000000000000000000000000000\n      dup2\n      mstore\n      0x04\n      add\n      tag_133\n      swap2\n      swap1\n      tag_34\n      jump\t// in\n    tag_133:\n      mload(0x40)\n      dup1\n      swap2\n      sub\n      swap1\n      revert\n        /* \"@openzeppelin/contracts/access/Ownable.sol\":2623:2714  if (newOwner == address(0)) {... */\n    tag_132:\n        /* \"@openzeppelin/contracts/access/Ownable.sol\":2723:2751  _transferOwnership(newOwner) */\n      tag_134\n        /* \"@openzeppelin/contracts/access/Ownable.sol\":2742:2750  newOwner */\n      dup2\n        /* \"@openzeppelin/contracts/access/Ownable.sol\":2723:2741  _transferOwnership */\n      tag_125\n        /* \"@openzeppelin/contracts/access/Ownable.sol\":2723:2751  _transferOwnership(newOwner) */\n      jump\t// in\n    tag_134:\n        /* \"@openzeppelin/contracts/access/Ownable.sol\":2543:2758  function transferOwnership(address newOwner) public virtual onlyOwner {... */\n      pop\n      jump\t// out\n        /* \"@openzeppelin/contracts/access/Ownable.sol\":1796:1958  function _checkOwner() internal view virtual {... */\n    tag_64:\n        /* \"@openzeppelin/contracts/access/Ownable.sol\":1866:1878  _msgSender() */\n      tag_136\n        /* \"@openzeppelin/contracts/access/Ownable.sol\":1866:1876  _msgSender */\n      tag_137\n        /* \"@openzeppelin/contracts/access/Ownable.sol\":1866:1878  _msgSender() */\n      jump\t// in\n    tag_136:\n        /* \"@openzeppelin/contracts/access/Ownable.sol\":1855:1878  owner() != _msgSender() */\n      0xffffffffffffffffffffffffffffffffffffffff\n      and\n        /* \"@openzeppelin/contracts/access/Ownable.sol\":1855:1862  owner() */\n      tag_138\n        /* \"@openzeppelin/contracts/access/Ownable.sol\":1855:1860  owner */\n      tag_32\n        /* \"@openzeppelin/contracts/access/Ownable.sol\":1855:1862  owner() */\n      jump\t// in\n    tag_138:\n        /* \"@openzeppelin/contracts/access/Ownable.sol\":1855:1878  owner() != _msgSender() */\n      0xffffffffffffffffffffffffffffffffffffffff\n      and\n      eq\n        /* \"@openzeppelin/contracts/access/Ownable.sol\":1851:1952  if (owner() != _msgSender()) {... */\n      tag_139\n      jumpi\n        /* \"@openzeppelin/contracts/access/Ownable.sol\":1928:1940  _msgSender() */\n      tag_140\n        /* \"@openzeppelin/contracts/access/Ownable.sol\":1928:1938  _msgSender */\n      tag_137\n        /* \"@openzeppelin/contracts/access/Ownable.sol\":1928:1940  _msgSender() */\n      jump\t// in\n    tag_140:\n        /* \"@openzeppelin/contracts/access/Ownable.sol\":1901:1941  OwnableUnauthorizedAccount(_msgSender()) */\n      mload(0x40)\n      0x118cdaa700000000000000000000000000000000000000000000000000000000\n      dup2\n      mstore\n      0x04\n      add\n      tag_141\n      swap2\n      swap1\n      tag_34\n      jump\t// in\n    tag_141:\n      mload(0x40)\n      dup1\n      swap2\n      sub\n      swap1\n      revert\n        /* \"@openzeppelin/contracts/access/Ownable.sol\":1851:1952  if (owner() != _msgSender()) {... */\n    tag_139:\n        /* \"@openzeppelin/contracts/access/Ownable.sol\":1796:1958  function _checkOwner() internal view virtual {... */\n      jump\t// out\n        /* \"contracts/ProfitSharing.sol\":2349:2916  function getMembers() internal view returns (address[] memory) {... */\n    tag_85:\n        /* \"contracts/ProfitSharing.sol\":2394:2410  address[] memory */\n      0x60\n        /* \"contracts/ProfitSharing.sol\":2422:2441  uint256 memberCount */\n      0x00\n        /* \"contracts/ProfitSharing.sol\":2444:2457  insurancePool */\n      0x01\n      0x00\n      swap1\n      sload\n      swap1\n      0x0100\n      exp\n      swap1\n      div\n      0xffffffffffffffffffffffffffffffffffffffff\n      and\n        /* \"contracts/ProfitSharing.sol\":2444:2469  insurancePool.memberCount */\n      0xffffffffffffffffffffffffffffffffffffffff\n      and\n      0x11aee380\n        /* \"contracts/ProfitSharing.sol\":2444:2471  insurancePool.memberCount() */\n      mload(0x40)\n      dup2\n      0xffffffff\n      and\n      0xe0\n      shl\n      dup2\n      mstore\n      0x04\n      add\n      0x20\n      mload(0x40)\n      dup1\n      dup4\n      sub\n      dup2\n      dup7\n      gas\n      staticcall\n      iszero\n      dup1\n      iszero\n      tag_144\n      jumpi\n      returndatasize\n      0x00\n      dup1\n      returndatacopy\n      revert(0x00, returndatasize)\n    tag_144:\n      pop\n      pop\n      pop\n      pop\n      mload(0x40)\n      returndatasize\n      not(0x1f)\n      0x1f\n      dup3\n      add\n      and\n      dup3\n      add\n      dup1\n      0x40\n      mstore\n      pop\n      dup2\n      add\n      swap1\n      tag_145\n      swap2\n      swap1\n      tag_75\n      jump\t// in\n    tag_145:\n        /* \"contracts/ProfitSharing.sol\":2422:2471  uint256 memberCount = insurancePool.memberCount() */\n      swap1\n      pop\n        /* \"contracts/ProfitSharing.sol\":2481:2505  address[] memory members */\n      0x00\n        /* \"contracts/ProfitSharing.sol\":2522:2533  memberCount */\n      dup2\n        /* \"contracts/ProfitSharing.sol\":2508:2534  new address[](memberCount) */\n      0xffffffffffffffff\n      dup2\n      gt\n      iszero\n      tag_146\n      jumpi\n      tag_147\n      tag_148\n      jump\t// in\n    tag_147:\n    tag_146:\n      mload(0x40)\n      swap1\n      dup1\n      dup3\n      mstore\n      dup1\n      0x20\n      mul\n      0x20\n      add\n      dup3\n      add\n      0x40\n      mstore\n      dup1\n      iszero\n      tag_149\n      jumpi\n      dup2\n      0x20\n      add\n      0x20\n      dup3\n      mul\n      dup1\n      calldatasize\n      dup4\n      calldatacopy\n      dup1\n      dup3\n      add\n      swap2\n      pop\n      pop\n      swap1\n      pop\n    tag_149:\n      pop\n        /* \"contracts/ProfitSharing.sol\":2481:2534  address[] memory members = new address[](memberCount) */\n      swap1\n      pop\n        /* \"contracts/ProfitSharing.sol\":2544:2557  uint256 index */\n      0x00\n        /* \"contracts/ProfitSharing.sol\":2585:2594  uint256 i */\n      dup1\n        /* \"contracts/ProfitSharing.sol\":2580:2877  for (uint256 i = 0; i < memberCount; i++) {... */\n    tag_150:\n        /* \"contracts/ProfitSharing.sol\":2604:2615  memberCount */\n      dup4\n        /* \"contracts/ProfitSharing.sol\":2600:2601  i */\n      dup2\n        /* \"contracts/ProfitSharing.sol\":2600:2615  i < memberCount */\n      lt\n        /* \"contracts/ProfitSharing.sol\":2580:2877  for (uint256 i = 0; i < memberCount; i++) {... */\n      iszero\n      tag_151\n      jumpi\n        /* \"contracts/ProfitSharing.sol\":2636:2650  address member */\n      0x00\n        /* \"contracts/ProfitSharing.sol\":2669:2670  i */\n      dup2\n        /* \"contracts/ProfitSharing.sol\":2636:2672  address member = address(uint160(i)) */\n      swap1\n      pop\n        /* \"contracts/ProfitSharing.sol\":2754:2767  insurancePool */\n      0x01\n      0x00\n      swap1\n      sload\n      swap1\n      0x0100\n      exp\n      swap1\n      div\n      0xffffffffffffffffffffffffffffffffffffffff\n      and\n        /* \"contracts/ProfitSharing.sol\":2754:2776  insurancePool.isMember */\n      0xffffffffffffffffffffffffffffffffffffffff\n      and\n      0xa230c524\n        /* \"contracts/ProfitSharing.sol\":2777:2783  member */\n      dup3\n        /* \"contracts/ProfitSharing.sol\":2754:2784  insurancePool.isMember(member) */\n      mload(0x40)\n      dup3\n      0xffffffff\n      and\n      0xe0\n      shl\n      dup2\n      mstore\n      0x04\n      add\n      tag_153\n      swap2\n      swap1\n      tag_34\n      jump\t// in\n    tag_153:\n      0x20\n      mload(0x40)\n      dup1\n      dup4\n      sub\n      dup2\n      dup7\n      gas\n      staticcall\n      iszero\n      dup1\n      iszero\n      tag_155\n      jumpi\n      returndatasize\n      0x00\n      dup1\n      returndatacopy\n      revert(0x00, returndatasize)\n    tag_155:\n      pop\n      pop\n      pop\n      pop\n      mload(0x40)\n      returndatasize\n      not(0x1f)\n      0x1f\n      dup3\n      add\n      and\n      dup3\n      add\n      dup1\n      0x40\n      mstore\n      pop\n      dup2\n      add\n      swap1\n      tag_156\n      swap2\n      swap1\n      tag_116\n      jump\t// in\n    tag_156:\n        /* \"contracts/ProfitSharing.sol\":2750:2867  if (insurancePool.isMember(member)) {... */\n      iszero\n      tag_157\n      jumpi\n        /* \"contracts/ProfitSharing.sol\":2821:2827  member */\n      dup1\n        /* \"contracts/ProfitSharing.sol\":2804:2811  members */\n      dup5\n        /* \"contracts/ProfitSharing.sol\":2812:2817  index */\n      dup5\n        /* \"contracts/ProfitSharing.sol\":2804:2818  members[index] */\n      dup2\n      mload\n      dup2\n      lt\n      tag_158\n      jumpi\n      tag_159\n      tag_91\n      jump\t// in\n    tag_159:\n    tag_158:\n      0x20\n      mul\n      0x20\n      add\n      add\n        /* \"contracts/ProfitSharing.sol\":2804:2827  members[index] = member */\n      swap1\n      0xffffffffffffffffffffffffffffffffffffffff\n      and\n      swap1\n      dup2\n      0xffffffffffffffffffffffffffffffffffffffff\n      and\n      dup2\n      mstore\n      pop\n      pop\n        /* \"contracts/ProfitSharing.sol\":2845:2852  index++ */\n      dup3\n      dup1\n      tag_160\n      swap1\n      tag_161\n      jump\t// in\n    tag_160:\n      swap4\n      pop\n      pop\n        /* \"contracts/ProfitSharing.sol\":2750:2867  if (insurancePool.isMember(member)) {... */\n    tag_157:\n        /* \"contracts/ProfitSharing.sol\":2622:2877  {... */\n      pop\n        /* \"contracts/ProfitSharing.sol\":2617:2620  i++ */\n      dup1\n      dup1\n      0x01\n      add\n      swap2\n      pop\n      pop\n        /* \"contracts/ProfitSharing.sol\":2580:2877  for (uint256 i = 0; i < memberCount; i++) {... */\n      jump(tag_150)\n    tag_151:\n      pop\n        /* \"contracts/ProfitSharing.sol\":2902:2909  members */\n      dup2\n        /* \"contracts/ProfitSharing.sol\":2895:2909  return members */\n      swap4\n      pop\n      pop\n      pop\n      pop\n        /* \"contracts/ProfitSharing.sol\":2349:2916  function getMembers() internal view returns (address[] memory) {... */\n      swap1\n      jump\t// out\n        /* \"@openzeppelin/contracts/access/Ownable.sol\":2912:3099  function _transferOwnership(address newOwner) internal virtual {... */\n    tag_125:\n        /* \"@openzeppelin/contracts/access/Ownable.sol\":2985:3001  address oldOwner */\n      0x00\n        /* \"@openzeppelin/contracts/access/Ownable.sol\":3004:3010  _owner */\n      dup1\n      0x00\n      swap1\n      sload\n      swap1\n      0x0100\n      exp\n      swap1\n      div\n      0xffffffffffffffffffffffffffffffffffffffff\n      and\n        /* \"@openzeppelin/contracts/access/Ownable.sol\":2985:3010  address oldOwner = _owner */\n      swap1\n      pop\n        /* \"@openzeppelin/contracts/access/Ownable.sol\":3029:3037  newOwner */\n      dup2\n        /* \"@openzeppelin/contracts/access/Ownable.sol\":3020:3026  _owner */\n      0x00\n      dup1\n        /* \"@openzeppelin/contracts/access/Ownable.sol\":3020:3037  _owner = newOwner */\n      0x0100\n      exp\n      dup2\n      sload\n      dup2\n      0xffffffffffffffffffffffffffffffffffffffff\n      mul\n      not\n      and\n      swap1\n      dup4\n      0xffffffffffffffffffffffffffffffffffffffff\n      and\n      mul\n      or\n      swap1\n      sstore\n      pop\n        /* \"@openzeppelin/contracts/access/Ownable.sol\":3083:3091  newOwner */\n      dup2\n        /* \"@openzeppelin/contracts/access/Ownable.sol\":3052:3092  OwnershipTransferred(oldOwner, newOwner) */\n      0xffffffffffffffffffffffffffffffffffffffff\n      and\n        /* \"@openzeppelin/contracts/access/Ownable.sol\":3073:3081  oldOwner */\n      dup2\n        /* \"@openzeppelin/contracts/access/Ownable.sol\":3052:3092  OwnershipTransferred(oldOwner, newOwner) */\n      0xffffffffffffffffffffffffffffffffffffffff\n      and\n      0x8be0079c531659141344cd1fd0a4f28419497f9722a3daafe3b4186f6b6457e0\n      mload(0x40)\n      mload(0x40)\n      dup1\n      swap2\n      sub\n      swap1\n      log3\n        /* \"@openzeppelin/contracts/access/Ownable.sol\":2975:3099  {... */\n      pop\n        /* \"@openzeppelin/contracts/access/Ownable.sol\":2912:3099  function _transferOwnership(address newOwner) internal virtual {... */\n      pop\n      jump\t// out\n        /* \"@openzeppelin/contracts/utils/Context.sol\":656:752  function _msgSender() internal view virtual returns (address) {... */\n    tag_137:\n        /* \"@openzeppelin/contracts/utils/Context.sol\":709:716  address */\n      0x00\n        /* \"@openzeppelin/contracts/utils/Context.sol\":735:745  msg.sender */\n      caller\n        /* \"@openzeppelin/contracts/utils/Context.sol\":728:745  return msg.sender */\n      swap1\n      pop\n        /* \"@openzeppelin/contracts/utils/Context.sol\":656:752  function _msgSender() internal view virtual returns (address) {... */\n      swap1\n      jump\t// out\n        /* \"#utility.yul\":7:84   */\n    tag_164:\n        /* \"#utility.yul\":44:51   */\n      0x00\n        /* \"#utility.yul\":73:78   */\n      dup2\n        /* \"#utility.yul\":62:78   */\n      swap1\n      pop\n        /* \"#utility.yul\":7:84   */\n      swap2\n      swap1\n      pop\n      jump\t// out\n        /* \"#utility.yul\":90:208   */\n    tag_165:\n        /* \"#utility.yul\":177:201   */\n      tag_203\n        /* \"#utility.yul\":195:200   */\n      dup2\n        /* \"#utility.yul\":177:201   */\n      tag_164\n      jump\t// in\n    tag_203:\n        /* \"#utility.yul\":172:175   */\n      dup3\n        /* \"#utility.yul\":165:202   */\n      mstore\n        /* \"#utility.yul\":90:208   */\n      pop\n      pop\n      jump\t// out\n        /* \"#utility.yul\":214:436   */\n    tag_23:\n        /* \"#utility.yul\":307:311   */\n      0x00\n        /* \"#utility.yul\":345:347   */\n      0x20\n        /* \"#utility.yul\":334:343   */\n      dup3\n        /* \"#utility.yul\":330:348   */\n      add\n        /* \"#utility.yul\":322:348   */\n      swap1\n      pop\n        /* \"#utility.yul\":358:429   */\n      tag_205\n        /* \"#utility.yul\":426:427   */\n      0x00\n        /* \"#utility.yul\":415:424   */\n      dup4\n        /* \"#utility.yul\":411:428   */\n      add\n        /* \"#utility.yul\":402:408   */\n      dup5\n        /* \"#utility.yul\":358:429   */\n      tag_165\n      jump\t// in\n    tag_205:\n        /* \"#utility.yul\":214:436   */\n      swap3\n      swap2\n      pop\n      pop\n      jump\t// out\n        /* \"#utility.yul\":442:568   */\n    tag_166:\n        /* \"#utility.yul\":479:486   */\n      0x00\n        /* \"#utility.yul\":519:561   */\n      0xffffffffffffffffffffffffffffffffffffffff\n        /* \"#utility.yul\":512:517   */\n      dup3\n        /* \"#utility.yul\":508:562   */\n      and\n        /* \"#utility.yul\":497:562   */\n      swap1\n      pop\n        /* \"#utility.yul\":442:568   */\n      swap2\n      swap1\n      pop\n      jump\t// out\n        /* \"#utility.yul\":574:670   */\n    tag_167:\n        /* \"#utility.yul\":611:618   */\n      0x00\n        /* \"#utility.yul\":640:664   */\n      tag_208\n        /* \"#utility.yul\":658:663   */\n      dup3\n        /* \"#utility.yul\":640:664   */\n      tag_166\n      jump\t// in\n    tag_208:\n        /* \"#utility.yul\":629:664   */\n      swap1\n      pop\n        /* \"#utility.yul\":574:670   */\n      swap2\n      swap1\n      pop\n      jump\t// out\n        /* \"#utility.yul\":676:794   */\n    tag_168:\n        /* \"#utility.yul\":763:787   */\n      tag_210\n        /* \"#utility.yul\":781:786   */\n      dup2\n        /* \"#utility.yul\":763:787   */\n      tag_167\n      jump\t// in\n    tag_210:\n        /* \"#utility.yul\":758:761   */\n      dup3\n        /* \"#utility.yul\":751:788   */\n      mstore\n        /* \"#utility.yul\":676:794   */\n      pop\n      pop\n      jump\t// out\n        /* \"#utility.yul\":800:1022   */\n    tag_34:\n        /* \"#utility.yul\":893:897   */\n      0x00\n        /* \"#utility.yul\":931:933   */\n      0x20\n        /* \"#utility.yul\":920:929   */\n      dup3\n        /* \"#utility.yul\":916:934   */\n      add\n        /* \"#utility.yul\":908:934   */\n      swap1\n      pop\n        /* \"#utility.yul\":944:1015   */\n      tag_212\n        /* \"#utility.yul\":1012:1013   */\n      0x00\n        /* \"#utility.yul\":1001:1010   */\n      dup4\n        /* \"#utility.yul\":997:1014   */\n      add\n        /* \"#utility.yul\":988:994   */\n      dup5\n        /* \"#utility.yul\":944:1015   */\n      tag_168\n      jump\t// in\n    tag_212:\n        /* \"#utility.yul\":800:1022   */\n      swap3\n      swap2\n      pop\n      pop\n      jump\t// out\n        /* \"#utility.yul\":1109:1226   */\n    tag_170:\n        /* \"#utility.yul\":1218:1219   */\n      0x00\n        /* \"#utility.yul\":1215:1216   */\n      dup1\n        /* \"#utility.yul\":1208:1220   */\n      revert\n        /* \"#utility.yul\":1355:1477   */\n    tag_172:\n        /* \"#utility.yul\":1428:1452   */\n      tag_217\n        /* \"#utility.yul\":1446:1451   */\n      dup2\n        /* \"#utility.yul\":1428:1452   */\n      tag_167\n      jump\t// in\n    tag_217:\n        /* \"#utility.yul\":1421:1426   */\n      dup2\n        /* \"#utility.yul\":1418:1453   */\n      eq\n        /* \"#utility.yul\":1408:1471   */\n      tag_218\n      jumpi\n        /* \"#utility.yul\":1467:1468   */\n      0x00\n        /* \"#utility.yul\":1464:1465   */\n      dup1\n        /* \"#utility.yul\":1457:1469   */\n      revert\n        /* \"#utility.yul\":1408:1471   */\n    tag_218:\n        /* \"#utility.yul\":1355:1477   */\n      pop\n      jump\t// out\n        /* \"#utility.yul\":1483:1622   */\n    tag_173:\n        /* \"#utility.yul\":1529:1534   */\n      0x00\n        /* \"#utility.yul\":1567:1573   */\n      dup2\n        /* \"#utility.yul\":1554:1574   */\n      calldataload\n        /* \"#utility.yul\":1545:1574   */\n      swap1\n      pop\n        /* \"#utility.yul\":1583:1616   */\n      tag_220\n        /* \"#utility.yul\":1610:1615   */\n      dup2\n        /* \"#utility.yul\":1583:1616   */\n      tag_172\n      jump\t// in\n    tag_220:\n        /* \"#utility.yul\":1483:1622   */\n      swap3\n      swap2\n      pop\n      pop\n      jump\t// out\n        /* \"#utility.yul\":1628:1957   */\n    tag_37:\n        /* \"#utility.yul\":1687:1693   */\n      0x00\n        /* \"#utility.yul\":1736:1738   */\n      0x20\n        /* \"#utility.yul\":1724:1733   */\n      dup3\n        /* \"#utility.yul\":1715:1722   */\n      dup5\n        /* \"#utility.yul\":1711:1734   */\n      sub\n        /* \"#utility.yul\":1707:1739   */\n      slt\n        /* \"#utility.yul\":1704:1823   */\n      iszero\n      tag_222\n      jumpi\n        /* \"#utility.yul\":1742:1821   */\n      tag_223\n      tag_170\n      jump\t// in\n    tag_223:\n        /* \"#utility.yul\":1704:1823   */\n    tag_222:\n        /* \"#utility.yul\":1862:1863   */\n      0x00\n        /* \"#utility.yul\":1887:1940   */\n      tag_224\n        /* \"#utility.yul\":1932:1939   */\n      dup5\n        /* \"#utility.yul\":1923:1929   */\n      dup3\n        /* \"#utility.yul\":1912:1921   */\n      dup6\n        /* \"#utility.yul\":1908:1930   */\n      add\n        /* \"#utility.yul\":1887:1940   */\n      tag_173\n      jump\t// in\n    tag_224:\n        /* \"#utility.yul\":1877:1940   */\n      swap2\n      pop\n        /* \"#utility.yul\":1833:1950   */\n      pop\n        /* \"#utility.yul\":1628:1957   */\n      swap3\n      swap2\n      pop\n      pop\n      jump\t// out\n        /* \"#utility.yul\":1963:2023   */\n    tag_174:\n        /* \"#utility.yul\":1991:1994   */\n      0x00\n        /* \"#utility.yul\":2012:2017   */\n      dup2\n        /* \"#utility.yul\":2005:2017   */\n      swap1\n      pop\n        /* \"#utility.yul\":1963:2023   */\n      swap2\n      swap1\n      pop\n      jump\t// out\n        /* \"#utility.yul\":2029:2171   */\n    tag_175:\n        /* \"#utility.yul\":2079:2088   */\n      0x00\n        /* \"#utility.yul\":2112:2165   */\n      tag_227\n        /* \"#utility.yul\":2130:2164   */\n      tag_228\n        /* \"#utility.yul\":2139:2163   */\n      tag_229\n        /* \"#utility.yul\":2157:2162   */\n      dup5\n        /* \"#utility.yul\":2139:2163   */\n      tag_166\n      jump\t// in\n    tag_229:\n        /* \"#utility.yul\":2130:2164   */\n      tag_174\n      jump\t// in\n    tag_228:\n        /* \"#utility.yul\":2112:2165   */\n      tag_166\n      jump\t// in\n    tag_227:\n        /* \"#utility.yul\":2099:2165   */\n      swap1\n      pop\n        /* \"#utility.yul\":2029:2171   */\n      swap2\n      swap1\n      pop\n      jump\t// out\n        /* \"#utility.yul\":2177:2303   */\n    tag_176:\n        /* \"#utility.yul\":2227:2236   */\n      0x00\n        /* \"#utility.yul\":2260:2297   */\n      tag_231\n        /* \"#utility.yul\":2291:2296   */\n      dup3\n        /* \"#utility.yul\":2260:2297   */\n      tag_175\n      jump\t// in\n    tag_231:\n        /* \"#utility.yul\":2247:2297   */\n      swap1\n      pop\n        /* \"#utility.yul\":2177:2303   */\n      swap2\n      swap1\n      pop\n      jump\t// out\n        /* \"#utility.yul\":2309:2456   */\n    tag_177:\n        /* \"#utility.yul\":2380:2389   */\n      0x00\n        /* \"#utility.yul\":2413:2450   */\n      tag_233\n        /* \"#utility.yul\":2444:2449   */\n      dup3\n        /* \"#utility.yul\":2413:2450   */\n      tag_176\n      jump\t// in\n    tag_233:\n        /* \"#utility.yul\":2400:2450   */\n      swap1\n      pop\n        /* \"#utility.yul\":2309:2456   */\n      swap2\n      swap1\n      pop\n      jump\t// out\n        /* \"#utility.yul\":2462:2635   */\n    tag_178:\n        /* \"#utility.yul\":2570:2628   */\n      tag_235\n        /* \"#utility.yul\":2622:2627   */\n      dup2\n        /* \"#utility.yul\":2570:2628   */\n      tag_177\n      jump\t// in\n    tag_235:\n        /* \"#utility.yul\":2565:2568   */\n      dup3\n        /* \"#utility.yul\":2558:2629   */\n      mstore\n        /* \"#utility.yul\":2462:2635   */\n      pop\n      pop\n      jump\t// out\n        /* \"#utility.yul\":2641:2905   */\n    tag_43:\n        /* \"#utility.yul\":2755:2759   */\n      0x00\n        /* \"#utility.yul\":2793:2795   */\n      0x20\n        /* \"#utility.yul\":2782:2791   */\n      dup3\n        /* \"#utility.yul\":2778:2796   */\n      add\n        /* \"#utility.yul\":2770:2796   */\n      swap1\n      pop\n        /* \"#utility.yul\":2806:2898   */\n      tag_237\n        /* \"#utility.yul\":2895:2896   */\n      0x00\n        /* \"#utility.yul\":2884:2893   */\n      dup4\n        /* \"#utility.yul\":2880:2897   */\n      add\n        /* \"#utility.yul\":2871:2877   */\n      dup5\n        /* \"#utility.yul\":2806:2898   */\n      tag_178\n      jump\t// in\n    tag_237:\n        /* \"#utility.yul\":2641:2905   */\n      swap3\n      swap2\n      pop\n      pop\n      jump\t// out\n        /* \"#utility.yul\":2911:3051   */\n    tag_179:\n        /* \"#utility.yul\":2975:2984   */\n      0x00\n        /* \"#utility.yul\":3008:3045   */\n      tag_239\n        /* \"#utility.yul\":3039:3044   */\n      dup3\n        /* \"#utility.yul\":3008:3045   */\n      tag_176\n      jump\t// in\n    tag_239:\n        /* \"#utility.yul\":2995:3045   */\n      swap1\n      pop\n        /* \"#utility.yul\":2911:3051   */\n      swap2\n      swap1\n      pop\n      jump\t// out\n        /* \"#utility.yul\":3057:3216   */\n    tag_180:\n        /* \"#utility.yul\":3158:3209   */\n      tag_241\n        /* \"#utility.yul\":3203:3208   */\n      dup2\n        /* \"#utility.yul\":3158:3209   */\n      tag_179\n      jump\t// in\n    tag_241:\n        /* \"#utility.yul\":3153:3156   */\n      dup3\n        /* \"#utility.yul\":3146:3210   */\n      mstore\n        /* \"#utility.yul\":3057:3216   */\n      pop\n      pop\n      jump\t// out\n        /* \"#utility.yul\":3222:3472   */\n    tag_47:\n        /* \"#utility.yul\":3329:3333   */\n      0x00\n        /* \"#utility.yul\":3367:3369   */\n      0x20\n        /* \"#utility.yul\":3356:3365   */\n      dup3\n        /* \"#utility.yul\":3352:3370   */\n      add\n        /* \"#utility.yul\":3344:3370   */\n      swap1\n      pop\n        /* \"#utility.yul\":3380:3465   */\n      tag_243\n        /* \"#utility.yul\":3462:3463   */\n      0x00\n        /* \"#utility.yul\":3451:3460   */\n      dup4\n        /* \"#utility.yul\":3447:3464   */\n      add\n        /* \"#utility.yul\":3438:3444   */\n      dup5\n        /* \"#utility.yul\":3380:3465   */\n      tag_180\n      jump\t// in\n    tag_243:\n        /* \"#utility.yul\":3222:3472   */\n      swap3\n      swap2\n      pop\n      pop\n      jump\t// out\n        /* \"#utility.yul\":3478:3568   */\n    tag_181:\n        /* \"#utility.yul\":3512:3519   */\n      0x00\n        /* \"#utility.yul\":3555:3560   */\n      dup2\n        /* \"#utility.yul\":3548:3561   */\n      iszero\n        /* \"#utility.yul\":3541:3562   */\n      iszero\n        /* \"#utility.yul\":3530:3562   */\n      swap1\n      pop\n        /* \"#utility.yul\":3478:3568   */\n      swap2\n      swap1\n      pop\n      jump\t// out\n        /* \"#utility.yul\":3574:3683   */\n    tag_182:\n        /* \"#utility.yul\":3655:3676   */\n      tag_246\n        /* \"#utility.yul\":3670:3675   */\n      dup2\n        /* \"#utility.yul\":3655:3676   */\n      tag_181\n      jump\t// in\n    tag_246:\n        /* \"#utility.yul\":3650:3653   */\n      dup3\n        /* \"#utility.yul\":3643:3677   */\n      mstore\n        /* \"#utility.yul\":3574:3683   */\n      pop\n      pop\n      jump\t// out\n        /* \"#utility.yul\":3689:3899   */\n    tag_51:\n        /* \"#utility.yul\":3776:3780   */\n      0x00\n        /* \"#utility.yul\":3814:3816   */\n      0x20\n        /* \"#utility.yul\":3803:3812   */\n      dup3\n        /* \"#utility.yul\":3799:3817   */\n      add\n        /* \"#utility.yul\":3791:3817   */\n      swap1\n      pop\n        /* \"#utility.yul\":3827:3892   */\n      tag_248\n        /* \"#utility.yul\":3889:3890   */\n      0x00\n        /* \"#utility.yul\":3878:3887   */\n      dup4\n        /* \"#utility.yul\":3874:3891   */\n      add\n        /* \"#utility.yul\":3865:3871   */\n      dup5\n        /* \"#utility.yul\":3827:3892   */\n      tag_182\n      jump\t// in\n    tag_248:\n        /* \"#utility.yul\":3689:3899   */\n      swap3\n      swap2\n      pop\n      pop\n      jump\t// out\n        /* \"#utility.yul\":3905:4074   */\n    tag_183:\n        /* \"#utility.yul\":3989:4000   */\n      0x00\n        /* \"#utility.yul\":4023:4029   */\n      dup3\n        /* \"#utility.yul\":4018:4021   */\n      dup3\n        /* \"#utility.yul\":4011:4030   */\n      mstore\n        /* \"#utility.yul\":4063:4067   */\n      0x20\n        /* \"#utility.yul\":4058:4061   */\n      dup3\n        /* \"#utility.yul\":4054:4068   */\n      add\n        /* \"#utility.yul\":4039:4068   */\n      swap1\n      pop\n        /* \"#utility.yul\":3905:4074   */\n      swap3\n      swap2\n      pop\n      pop\n      jump\t// out\n        /* \"#utility.yul\":4080:4255   */\n    tag_184:\n        /* \"#utility.yul\":4220:4247   */\n      0x436f76657261676520706572696f64206e6f7420656e64656400000000000000\n        /* \"#utility.yul\":4216:4217   */\n      0x00\n        /* \"#utility.yul\":4208:4214   */\n      dup3\n        /* \"#utility.yul\":4204:4218   */\n      add\n        /* \"#utility.yul\":4197:4248   */\n      mstore\n        /* \"#utility.yul\":4080:4255   */\n      pop\n      jump\t// out\n        /* \"#utility.yul\":4261:4627   */\n    tag_185:\n        /* \"#utility.yul\":4403:4406   */\n      0x00\n        /* \"#utility.yul\":4424:4491   */\n      tag_252\n        /* \"#utility.yul\":4488:4490   */\n      0x19\n        /* \"#utility.yul\":4483:4486   */\n      dup4\n        /* \"#utility.yul\":4424:4491   */\n      tag_183\n      jump\t// in\n    tag_252:\n        /* \"#utility.yul\":4417:4491   */\n      swap2\n      pop\n        /* \"#utility.yul\":4500:4593   */\n      tag_253\n        /* \"#utility.yul\":4589:4592   */\n      dup3\n        /* \"#utility.yul\":4500:4593   */\n      tag_184\n      jump\t// in\n    tag_253:\n        /* \"#utility.yul\":4618:4620   */\n      0x20\n        /* \"#utility.yul\":4613:4616   */\n      dup3\n        /* \"#utility.yul\":4609:4621   */\n      add\n        /* \"#utility.yul\":4602:4621   */\n      swap1\n      pop\n        /* \"#utility.yul\":4261:4627   */\n      swap2\n      swap1\n      pop\n      jump\t// out\n        /* \"#utility.yul\":4633:5052   */\n    tag_68:\n        /* \"#utility.yul\":4799:4803   */\n      0x00\n        /* \"#utility.yul\":4837:4839   */\n      0x20\n        /* \"#utility.yul\":4826:4835   */\n      dup3\n        /* \"#utility.yul\":4822:4840   */\n      add\n        /* \"#utility.yul\":4814:4840   */\n      swap1\n      pop\n        /* \"#utility.yul\":4886:4895   */\n      dup2\n        /* \"#utility.yul\":4880:4884   */\n      dup2\n        /* \"#utility.yul\":4876:4896   */\n      sub\n        /* \"#utility.yul\":4872:4873   */\n      0x00\n        /* \"#utility.yul\":4861:4870   */\n      dup4\n        /* \"#utility.yul\":4857:4874   */\n      add\n        /* \"#utility.yul\":4850:4897   */\n      mstore\n        /* \"#utility.yul\":4914:5045   */\n      tag_255\n        /* \"#utility.yul\":5040:5044   */\n      dup2\n        /* \"#utility.yul\":4914:5045   */\n      tag_185\n      jump\t// in\n    tag_255:\n        /* \"#utility.yul\":4906:5045   */\n      swap1\n      pop\n        /* \"#utility.yul\":4633:5052   */\n      swap2\n      swap1\n      pop\n      jump\t// out\n        /* \"#utility.yul\":5058:5235   */\n    tag_186:\n        /* \"#utility.yul\":5198:5227   */\n      0x50726f6669747320616c72656164792064697374726962757465640000000000\n        /* \"#utility.yul\":5194:5195   */\n      0x00\n        /* \"#utility.yul\":5186:5192   */\n      dup3\n        /* \"#utility.yul\":5182:5196   */\n      add\n        /* \"#utility.yul\":5175:5228   */\n      mstore\n        /* \"#utility.yul\":5058:5235   */\n      pop\n      jump\t// out\n        /* \"#utility.yul\":5241:5607   */\n    tag_187:\n        /* \"#utility.yul\":5383:5386   */\n      0x00\n        /* \"#utility.yul\":5404:5471   */\n      tag_258\n        /* \"#utility.yul\":5468:5470   */\n      0x1b\n        /* \"#utility.yul\":5463:5466   */\n      dup4\n        /* \"#utility.yul\":5404:5471   */\n      tag_183\n      jump\t// in\n    tag_258:\n        /* \"#utility.yul\":5397:5471   */\n      swap2\n      pop\n        /* \"#utility.yul\":5480:5573   */\n      tag_259\n        /* \"#utility.yul\":5569:5572   */\n      dup3\n        /* \"#utility.yul\":5480:5573   */\n      tag_186\n      jump\t// in\n    tag_259:\n        /* \"#utility.yul\":5598:5600   */\n      0x20\n        /* \"#utility.yul\":5593:5596   */\n      dup3\n        /* \"#utility.yul\":5589:5601   */\n      add\n        /* \"#utility.yul\":5582:5601   */\n      swap1\n      pop\n        /* \"#utility.yul\":5241:5607   */\n      swap2\n      swap1\n      pop\n      jump\t// out\n        /* \"#utility.yul\":5613:6032   */\n    tag_71:\n        /* \"#utility.yul\":5779:5783   */\n      0x00\n        /* \"#utility.yul\":5817:5819   */\n      0x20\n        /* \"#utility.yul\":5806:5815   */\n      dup3\n        /* \"#utility.yul\":5802:5820   */\n      add\n        /* \"#utility.yul\":5794:5820   */\n      swap1\n      pop\n        /* \"#utility.yul\":5866:5875   */\n      dup2\n        /* \"#utility.yul\":5860:5864   */\n      dup2\n        /* \"#utility.yul\":5856:5876   */\n      sub\n        /* \"#utility.yul\":5852:5853   */\n      0x00\n        /* \"#utility.yul\":5841:5850   */\n      dup4\n        /* \"#utility.yul\":5837:5854   */\n      add\n        /* \"#utility.yul\":5830:5877   */\n      mstore\n        /* \"#utility.yul\":5894:6025   */\n      tag_261\n        /* \"#utility.yul\":6020:6024   */\n      dup2\n        /* \"#utility.yul\":5894:6025   */\n      tag_187\n      jump\t// in\n    tag_261:\n        /* \"#utility.yul\":5886:6025   */\n      swap1\n      pop\n        /* \"#utility.yul\":5613:6032   */\n      swap2\n      swap1\n      pop\n      jump\t// out\n        /* \"#utility.yul\":6038:6160   */\n    tag_188:\n        /* \"#utility.yul\":6111:6135   */\n      tag_263\n        /* \"#utility.yul\":6129:6134   */\n      dup2\n        /* \"#utility.yul\":6111:6135   */\n      tag_164\n      jump\t// in\n    tag_263:\n        /* \"#utility.yul\":6104:6109   */\n      dup2\n        /* \"#utility.yul\":6101:6136   */\n      eq\n        /* \"#utility.yul\":6091:6154   */\n      tag_264\n      jumpi\n        /* \"#utility.yul\":6150:6151   */\n      0x00\n        /* \"#utility.yul\":6147:6148   */\n      dup1\n        /* \"#utility.yul\":6140:6152   */\n      revert\n        /* \"#utility.yul\":6091:6154   */\n    tag_264:\n        /* \"#utility.yul\":6038:6160   */\n      pop\n      jump\t// out\n        /* \"#utility.yul\":6166:6309   */\n    tag_189:\n        /* \"#utility.yul\":6223:6228   */\n      0x00\n        /* \"#utility.yul\":6254:6260   */\n      dup2\n        /* \"#utility.yul\":6248:6261   */\n      mload\n        /* \"#utility.yul\":6239:6261   */\n      swap1\n      pop\n        /* \"#utility.yul\":6270:6303   */\n      tag_266\n        /* \"#utility.yul\":6297:6302   */\n      dup2\n        /* \"#utility.yul\":6270:6303   */\n      tag_188\n      jump\t// in\n    tag_266:\n        /* \"#utility.yul\":6166:6309   */\n      swap3\n      swap2\n      pop\n      pop\n      jump\t// out\n        /* \"#utility.yul\":6315:6666   */\n    tag_75:\n        /* \"#utility.yul\":6385:6391   */\n      0x00\n        /* \"#utility.yul\":6434:6436   */\n      0x20\n        /* \"#utility.yul\":6422:6431   */\n      dup3\n        /* \"#utility.yul\":6413:6420   */\n      dup5\n        /* \"#utility.yul\":6409:6432   */\n      sub\n        /* \"#utility.yul\":6405:6437   */\n      slt\n        /* \"#utility.yul\":6402:6521   */\n      iszero\n      tag_268\n      jumpi\n        /* \"#utility.yul\":6440:6519   */\n      tag_269\n      tag_170\n      jump\t// in\n    tag_269:\n        /* \"#utility.yul\":6402:6521   */\n    tag_268:\n        /* \"#utility.yul\":6560:6561   */\n      0x00\n        /* \"#utility.yul\":6585:6649   */\n      tag_270\n        /* \"#utility.yul\":6641:6648   */\n      dup5\n        /* \"#utility.yul\":6632:6638   */\n      dup3\n        /* \"#utility.yul\":6621:6630   */\n      dup6\n        /* \"#utility.yul\":6617:6639   */\n      add\n        /* \"#utility.yul\":6585:6649   */\n      tag_189\n      jump\t// in\n    tag_270:\n        /* \"#utility.yul\":6575:6649   */\n      swap2\n      pop\n        /* \"#utility.yul\":6531:6659   */\n      pop\n        /* \"#utility.yul\":6315:6666   */\n      swap3\n      swap2\n      pop\n      pop\n      jump\t// out\n        /* \"#utility.yul\":6672:6852   */\n    tag_190:\n        /* \"#utility.yul\":6720:6797   */\n      0x4e487b7100000000000000000000000000000000000000000000000000000000\n        /* \"#utility.yul\":6717:6718   */\n      0x00\n        /* \"#utility.yul\":6710:6798   */\n      mstore\n        /* \"#utility.yul\":6817:6821   */\n      0x11\n        /* \"#utility.yul\":6814:6815   */\n      0x04\n        /* \"#utility.yul\":6807:6822   */\n      mstore\n        /* \"#utility.yul\":6841:6845   */\n      0x24\n        /* \"#utility.yul\":6838:6839   */\n      0x00\n        /* \"#utility.yul\":6831:6846   */\n      revert\n        /* \"#utility.yul\":6858:7052   */\n    tag_82:\n        /* \"#utility.yul\":6898:6902   */\n      0x00\n        /* \"#utility.yul\":6918:6938   */\n      tag_273\n        /* \"#utility.yul\":6936:6937   */\n      dup3\n        /* \"#utility.yul\":6918:6938   */\n      tag_164\n      jump\t// in\n    tag_273:\n        /* \"#utility.yul\":6913:6938   */\n      swap2\n      pop\n        /* \"#utility.yul\":6952:6972   */\n      tag_274\n        /* \"#utility.yul\":6970:6971   */\n      dup4\n        /* \"#utility.yul\":6952:6972   */\n      tag_164\n      jump\t// in\n    tag_274:\n        /* \"#utility.yul\":6947:6972   */\n      swap3\n      pop\n        /* \"#utility.yul\":6996:6997   */\n      dup3\n        /* \"#utility.yul\":6993:6994   */\n      dup3\n        /* \"#utility.yul\":6989:6998   */\n      sub\n        /* \"#utility.yul\":6981:6998   */\n      swap1\n      pop\n        /* \"#utility.yul\":7020:7021   */\n      dup2\n        /* \"#utility.yul\":7014:7018   */\n      dup2\n        /* \"#utility.yul\":7011:7022   */\n      gt\n        /* \"#utility.yul\":7008:7045   */\n      iszero\n      tag_275\n      jumpi\n        /* \"#utility.yul\":7025:7043   */\n      tag_276\n      tag_190\n      jump\t// in\n    tag_276:\n        /* \"#utility.yul\":7008:7045   */\n    tag_275:\n        /* \"#utility.yul\":6858:7052   */\n      swap3\n      swap2\n      pop\n      pop\n      jump\t// out\n        /* \"#utility.yul\":7058:7238   */\n    tag_91:\n        /* \"#utility.yul\":7106:7183   */\n      0x4e487b7100000000000000000000000000000000000000000000000000000000\n        /* \"#utility.yul\":7103:7104   */\n      0x00\n        /* \"#utility.yul\":7096:7184   */\n      mstore\n        /* \"#utility.yul\":7203:7207   */\n      0x32\n        /* \"#utility.yul\":7200:7201   */\n      0x04\n        /* \"#utility.yul\":7193:7208   */\n      mstore\n        /* \"#utility.yul\":7227:7231   */\n      0x24\n        /* \"#utility.yul\":7224:7225   */\n      0x00\n        /* \"#utility.yul\":7217:7232   */\n      revert\n        /* \"#utility.yul\":7244:7654   */\n    tag_97:\n        /* \"#utility.yul\":7284:7291   */\n      0x00\n        /* \"#utility.yul\":7307:7327   */\n      tag_279\n        /* \"#utility.yul\":7325:7326   */\n      dup3\n        /* \"#utility.yul\":7307:7327   */\n      tag_164\n      jump\t// in\n    tag_279:\n        /* \"#utility.yul\":7302:7327   */\n      swap2\n      pop\n        /* \"#utility.yul\":7341:7361   */\n      tag_280\n        /* \"#utility.yul\":7359:7360   */\n      dup4\n        /* \"#utility.yul\":7341:7361   */\n      tag_164\n      jump\t// in\n    tag_280:\n        /* \"#utility.yul\":7336:7361   */\n      swap3\n      pop\n        /* \"#utility.yul\":7396:7397   */\n      dup3\n        /* \"#utility.yul\":7393:7394   */\n      dup3\n        /* \"#utility.yul\":7389:7398   */\n      mul\n        /* \"#utility.yul\":7418:7448   */\n      tag_281\n        /* \"#utility.yul\":7436:7447   */\n      dup2\n        /* \"#utility.yul\":7418:7448   */\n      tag_164\n      jump\t// in\n    tag_281:\n        /* \"#utility.yul\":7407:7448   */\n      swap2\n      pop\n        /* \"#utility.yul\":7597:7598   */\n      dup3\n        /* \"#utility.yul\":7588:7595   */\n      dup3\n        /* \"#utility.yul\":7584:7599   */\n      div\n        /* \"#utility.yul\":7581:7582   */\n      dup5\n        /* \"#utility.yul\":7578:7600   */\n      eq\n        /* \"#utility.yul\":7558:7559   */\n      dup4\n        /* \"#utility.yul\":7551:7560   */\n      iszero\n        /* \"#utility.yul\":7531:7614   */\n      or\n        /* \"#utility.yul\":7508:7647   */\n      tag_282\n      jumpi\n        /* \"#utility.yul\":7627:7645   */\n      tag_283\n      tag_190\n      jump\t// in\n    tag_283:\n        /* \"#utility.yul\":7508:7647   */\n    tag_282:\n        /* \"#utility.yul\":7292:7654   */\n      pop\n        /* \"#utility.yul\":7244:7654   */\n      swap3\n      swap2\n      pop\n      pop\n      jump\t// out\n        /* \"#utility.yul\":7660:7840   */\n    tag_191:\n        /* \"#utility.yul\":7708:7785   */\n      0x4e487b7100000000000000000000000000000000000000000000000000000000\n        /* \"#utility.yul\":7705:7706   */\n      0x00\n        /* \"#utility.yul\":7698:7786   */\n      mstore\n        /* \"#utility.yul\":7805:7809   */\n      0x12\n        /* \"#utility.yul\":7802:7803   */\n      0x04\n        /* \"#utility.yul\":7795:7810   */\n      mstore\n        /* \"#utility.yul\":7829:7833   */\n      0x24\n        /* \"#utility.yul\":7826:7827   */\n      0x00\n        /* \"#utility.yul\":7819:7834   */\n      revert\n        /* \"#utility.yul\":7846:8031   */\n    tag_99:\n        /* \"#utility.yul\":7886:7887   */\n      0x00\n        /* \"#utility.yul\":7903:7923   */\n      tag_286\n        /* \"#utility.yul\":7921:7922   */\n      dup3\n        /* \"#utility.yul\":7903:7923   */\n      tag_164\n      jump\t// in\n    tag_286:\n        /* \"#utility.yul\":7898:7923   */\n      swap2\n      pop\n        /* \"#utility.yul\":7937:7957   */\n      tag_287\n        /* \"#utility.yul\":7955:7956   */\n      dup4\n        /* \"#utility.yul\":7937:7957   */\n      tag_164\n      jump\t// in\n    tag_287:\n        /* \"#utility.yul\":7932:7957   */\n      swap3\n      pop\n        /* \"#utility.yul\":7976:7977   */\n      dup3\n        /* \"#utility.yul\":7966:8001   */\n      tag_288\n      jumpi\n        /* \"#utility.yul\":7981:7999   */\n      tag_289\n      tag_191\n      jump\t// in\n    tag_289:\n        /* \"#utility.yul\":7966:8001   */\n    tag_288:\n        /* \"#utility.yul\":8023:8024   */\n      dup3\n        /* \"#utility.yul\":8020:8021   */\n      dup3\n        /* \"#utility.yul\":8016:8025   */\n      div\n        /* \"#utility.yul\":8011:8025   */\n      swap1\n      pop\n        /* \"#utility.yul\":7846:8031   */\n      swap3\n      swap2\n      pop\n      pop\n      jump\t// out\n        /* \"#utility.yul\":8037:8228   */\n    tag_101:\n        /* \"#utility.yul\":8077:8080   */\n      0x00\n        /* \"#utility.yul\":8096:8116   */\n      tag_291\n        /* \"#utility.yul\":8114:8115   */\n      dup3\n        /* \"#utility.yul\":8096:8116   */\n      tag_164\n      jump\t// in\n    tag_291:\n        /* \"#utility.yul\":8091:8116   */\n      swap2\n      pop\n        /* \"#utility.yul\":8130:8150   */\n      tag_292\n        /* \"#utility.yul\":8148:8149   */\n      dup4\n        /* \"#utility.yul\":8130:8150   */\n      tag_164\n      jump\t// in\n    tag_292:\n        /* \"#utility.yul\":8125:8150   */\n      swap3\n      pop\n        /* \"#utility.yul\":8173:8174   */\n      dup3\n        /* \"#utility.yul\":8170:8171   */\n      dup3\n        /* \"#utility.yul\":8166:8175   */\n      add\n        /* \"#utility.yul\":8159:8175   */\n      swap1\n      pop\n        /* \"#utility.yul\":8194:8197   */\n      dup1\n        /* \"#utility.yul\":8191:8192   */\n      dup3\n        /* \"#utility.yul\":8188:8198   */\n      gt\n        /* \"#utility.yul\":8185:8221   */\n      iszero\n      tag_293\n      jumpi\n        /* \"#utility.yul\":8201:8219   */\n      tag_294\n      tag_190\n      jump\t// in\n    tag_294:\n        /* \"#utility.yul\":8185:8221   */\n    tag_293:\n        /* \"#utility.yul\":8037:8228   */\n      swap3\n      swap2\n      pop\n      pop\n      jump\t// out\n        /* \"#utility.yul\":8234:8411   */\n    tag_192:\n        /* \"#utility.yul\":8374:8403   */\n      0x50726f66697473206e6f74206469737472696275746564207965740000000000\n        /* \"#utility.yul\":8370:8371   */\n      0x00\n        /* \"#utility.yul\":8362:8368   */\n      dup3\n        /* \"#utility.yul\":8358:8372   */\n      add\n        /* \"#utility.yul\":8351:8404   */\n      mstore\n        /* \"#utility.yul\":8234:8411   */\n      pop\n      jump\t// out\n        /* \"#utility.yul\":8417:8783   */\n    tag_193:\n        /* \"#utility.yul\":8559:8562   */\n      0x00\n        /* \"#utility.yul\":8580:8647   */\n      tag_297\n        /* \"#utility.yul\":8644:8646   */\n      0x1b\n        /* \"#utility.yul\":8639:8642   */\n      dup4\n        /* \"#utility.yul\":8580:8647   */\n      tag_183\n      jump\t// in\n    tag_297:\n        /* \"#utility.yul\":8573:8647   */\n      swap2\n      pop\n        /* \"#utility.yul\":8656:8749   */\n      tag_298\n        /* \"#utility.yul\":8745:8748   */\n      dup3\n        /* \"#utility.yul\":8656:8749   */\n      tag_192\n      jump\t// in\n    tag_298:\n        /* \"#utility.yul\":8774:8776   */\n      0x20\n        /* \"#utility.yul\":8769:8772   */\n      dup3\n        /* \"#utility.yul\":8765:8777   */\n      add\n        /* \"#utility.yul\":8758:8777   */\n      swap1\n      pop\n        /* \"#utility.yul\":8417:8783   */\n      swap2\n      swap1\n      pop\n      jump\t// out\n        /* \"#utility.yul\":8789:9208   */\n    tag_106:\n        /* \"#utility.yul\":8955:8959   */\n      0x00\n        /* \"#utility.yul\":8993:8995   */\n      0x20\n        /* \"#utility.yul\":8982:8991   */\n      dup3\n        /* \"#utility.yul\":8978:8996   */\n      add\n        /* \"#utility.yul\":8970:8996   */\n      swap1\n      pop\n        /* \"#utility.yul\":9042:9051   */\n      dup2\n        /* \"#utility.yul\":9036:9040   */\n      dup2\n        /* \"#utility.yul\":9032:9052   */\n      sub\n        /* \"#utility.yul\":9028:9029   */\n      0x00\n        /* \"#utility.yul\":9017:9026   */\n      dup4\n        /* \"#utility.yul\":9013:9030   */\n      add\n        /* \"#utility.yul\":9006:9053   */\n      mstore\n        /* \"#utility.yul\":9070:9201   */\n      tag_300\n        /* \"#utility.yul\":9196:9200   */\n      dup2\n        /* \"#utility.yul\":9070:9201   */\n      tag_193\n      jump\t// in\n    tag_300:\n        /* \"#utility.yul\":9062:9201   */\n      swap1\n      pop\n        /* \"#utility.yul\":8789:9208   */\n      swap2\n      swap1\n      pop\n      jump\t// out\n        /* \"#utility.yul\":9214:9381   */\n    tag_194:\n        /* \"#utility.yul\":9354:9373   */\n      0x4e6f20736861726520746f20636c61696d000000000000000000000000000000\n        /* \"#utility.yul\":9350:9351   */\n      0x00\n        /* \"#utility.yul\":9342:9348   */\n      dup3\n        /* \"#utility.yul\":9338:9352   */\n      add\n        /* \"#utility.yul\":9331:9374   */\n      mstore\n        /* \"#utility.yul\":9214:9381   */\n      pop\n      jump\t// out\n        /* \"#utility.yul\":9387:9753   */\n    tag_195:\n        /* \"#utility.yul\":9529:9532   */\n      0x00\n        /* \"#utility.yul\":9550:9617   */\n      tag_303\n        /* \"#utility.yul\":9614:9616   */\n      0x11\n        /* \"#utility.yul\":9609:9612   */\n      dup4\n        /* \"#utility.yul\":9550:9617   */\n      tag_183\n      jump\t// in\n    tag_303:\n        /* \"#utility.yul\":9543:9617   */\n      swap2\n      pop\n        /* \"#utility.yul\":9626:9719   */\n      tag_304\n        /* \"#utility.yul\":9715:9718   */\n      dup3\n        /* \"#utility.yul\":9626:9719   */\n      tag_194\n      jump\t// in\n    tag_304:\n        /* \"#utility.yul\":9744:9746   */\n      0x20\n        /* \"#utility.yul\":9739:9742   */\n      dup3\n        /* \"#utility.yul\":9735:9747   */\n      add\n        /* \"#utility.yul\":9728:9747   */\n      swap1\n      pop\n        /* \"#utility.yul\":9387:9753   */\n      swap2\n      swap1\n      pop\n      jump\t// out\n        /* \"#utility.yul\":9759:10178   */\n    tag_109:\n        /* \"#utility.yul\":9925:9929   */\n      0x00\n        /* \"#utility.yul\":9963:9965   */\n      0x20\n        /* \"#utility.yul\":9952:9961   */\n      dup3\n        /* \"#utility.yul\":9948:9966   */\n      add\n        /* \"#utility.yul\":9940:9966   */\n      swap1\n      pop\n        /* \"#utility.yul\":10012:10021   */\n      dup2\n        /* \"#utility.yul\":10006:10010   */\n      dup2\n        /* \"#utility.yul\":10002:10022   */\n      sub\n        /* \"#utility.yul\":9998:9999   */\n      0x00\n        /* \"#utility.yul\":9987:9996   */\n      dup4\n        /* \"#utility.yul\":9983:10000   */\n      add\n        /* \"#utility.yul\":9976:10023   */\n      mstore\n        /* \"#utility.yul\":10040:10171   */\n      tag_306\n        /* \"#utility.yul\":10166:10170   */\n      dup2\n        /* \"#utility.yul\":10040:10171   */\n      tag_195\n      jump\t// in\n    tag_306:\n        /* \"#utility.yul\":10032:10171   */\n      swap1\n      pop\n        /* \"#utility.yul\":9759:10178   */\n      swap2\n      swap1\n      pop\n      jump\t// out\n        /* \"#utility.yul\":10184:10516   */\n    tag_112:\n        /* \"#utility.yul\":10305:10309   */\n      0x00\n        /* \"#utility.yul\":10343:10345   */\n      0x40\n        /* \"#utility.yul\":10332:10341   */\n      dup3\n        /* \"#utility.yul\":10328:10346   */\n      add\n        /* \"#utility.yul\":10320:10346   */\n      swap1\n      pop\n        /* \"#utility.yul\":10356:10427   */\n      tag_308\n        /* \"#utility.yul\":10424:10425   */\n      0x00\n        /* \"#utility.yul\":10413:10422   */\n      dup4\n        /* \"#utility.yul\":10409:10426   */\n      add\n        /* \"#utility.yul\":10400:10406   */\n      dup6\n        /* \"#utility.yul\":10356:10427   */\n      tag_168\n      jump\t// in\n    tag_308:\n        /* \"#utility.yul\":10437:10509   */\n      tag_309\n        /* \"#utility.yul\":10505:10507   */\n      0x20\n        /* \"#utility.yul\":10494:10503   */\n      dup4\n        /* \"#utility.yul\":10490:10508   */\n      add\n        /* \"#utility.yul\":10481:10487   */\n      dup5\n        /* \"#utility.yul\":10437:10509   */\n      tag_165\n      jump\t// in\n    tag_309:\n        /* \"#utility.yul\":10184:10516   */\n      swap4\n      swap3\n      pop\n      pop\n      pop\n      jump\t// out\n        /* \"#utility.yul\":10522:10638   */\n    tag_196:\n        /* \"#utility.yul\":10592:10613   */\n      tag_311\n        /* \"#utility.yul\":10607:10612   */\n      dup2\n        /* \"#utility.yul\":10592:10613   */\n      tag_181\n      jump\t// in\n    tag_311:\n        /* \"#utility.yul\":10585:10590   */\n      dup2\n        /* \"#utility.yul\":10582:10614   */\n      eq\n        /* \"#utility.yul\":10572:10632   */\n      tag_312\n      jumpi\n        /* \"#utility.yul\":10628:10629   */\n      0x00\n        /* \"#utility.yul\":10625:10626   */\n      dup1\n        /* \"#utility.yul\":10618:10630   */\n      revert\n        /* \"#utility.yul\":10572:10632   */\n    tag_312:\n        /* \"#utility.yul\":10522:10638   */\n      pop\n      jump\t// out\n        /* \"#utility.yul\":10644:10781   */\n    tag_197:\n        /* \"#utility.yul\":10698:10703   */\n      0x00\n        /* \"#utility.yul\":10729:10735   */\n      dup2\n        /* \"#utility.yul\":10723:10736   */\n      mload\n        /* \"#utility.yul\":10714:10736   */\n      swap1\n      pop\n        /* \"#utility.yul\":10745:10775   */\n      tag_314\n        /* \"#utility.yul\":10769:10774   */\n      dup2\n        /* \"#utility.yul\":10745:10775   */\n      tag_196\n      jump\t// in\n    tag_314:\n        /* \"#utility.yul\":10644:10781   */\n      swap3\n      swap2\n      pop\n      pop\n      jump\t// out\n        /* \"#utility.yul\":10787:11132   */\n    tag_116:\n        /* \"#utility.yul\":10854:10860   */\n      0x00\n        /* \"#utility.yul\":10903:10905   */\n      0x20\n        /* \"#utility.yul\":10891:10900   */\n      dup3\n        /* \"#utility.yul\":10882:10889   */\n      dup5\n        /* \"#utility.yul\":10878:10901   */\n      sub\n        /* \"#utility.yul\":10874:10906   */\n      slt\n        /* \"#utility.yul\":10871:10990   */\n      iszero\n      tag_316\n      jumpi\n        /* \"#utility.yul\":10909:10988   */\n      tag_317\n      tag_170\n      jump\t// in\n    tag_317:\n        /* \"#utility.yul\":10871:10990   */\n    tag_316:\n        /* \"#utility.yul\":11029:11030   */\n      0x00\n        /* \"#utility.yul\":11054:11115   */\n      tag_318\n        /* \"#utility.yul\":11107:11114   */\n      dup5\n        /* \"#utility.yul\":11098:11104   */\n      dup3\n        /* \"#utility.yul\":11087:11096   */\n      dup6\n        /* \"#utility.yul\":11083:11105   */\n      add\n        /* \"#utility.yul\":11054:11115   */\n      tag_197\n      jump\t// in\n    tag_318:\n        /* \"#utility.yul\":11044:11115   */\n      swap2\n      pop\n        /* \"#utility.yul\":11000:11125   */\n      pop\n        /* \"#utility.yul\":10787:11132   */\n      swap3\n      swap2\n      pop\n      pop\n      jump\t// out\n        /* \"#utility.yul\":11138:11303   */\n    tag_198:\n        /* \"#utility.yul\":11278:11295   */\n      0x5472616e73666572206661696c65640000000000000000000000000000000000\n        /* \"#utility.yul\":11274:11275   */\n      0x00\n        /* \"#utility.yul\":11266:11272   */\n      dup3\n        /* \"#utility.yul\":11262:11276   */\n      add\n        /* \"#utility.yul\":11255:11296   */\n      mstore\n        /* \"#utility.yul\":11138:11303   */\n      pop\n      jump\t// out\n        /* \"#utility.yul\":11309:11675   */\n    tag_199:\n        /* \"#utility.yul\":11451:11454   */\n      0x00\n        /* \"#utility.yul\":11472:11539   */\n      tag_321\n        /* \"#utility.yul\":11536:11538   */\n      0x0f\n        /* \"#utility.yul\":11531:11534   */\n      dup4\n        /* \"#utility.yul\":11472:11539   */\n      tag_183\n      jump\t// in\n    tag_321:\n        /* \"#utility.yul\":11465:11539   */\n      swap2\n      pop\n        /* \"#utility.yul\":11548:11641   */\n      tag_322\n        /* \"#utility.yul\":11637:11640   */\n      dup3\n        /* \"#utility.yul\":11548:11641   */\n      tag_198\n      jump\t// in\n    tag_322:\n        /* \"#utility.yul\":11666:11668   */\n      0x20\n        /* \"#utility.yul\":11661:11664   */\n      dup3\n        /* \"#utility.yul\":11657:11669   */\n      add\n        /* \"#utility.yul\":11650:11669   */\n      swap1\n      pop\n        /* \"#utility.yul\":11309:11675   */\n      swap2\n      swap1\n      pop\n      jump\t// out\n        /* \"#utility.yul\":11681:12100   */\n    tag_119:\n        /* \"#utility.yul\":11847:11851   */\n      0x00\n        /* \"#utility.yul\":11885:11887   */\n      0x20\n        /* \"#utility.yul\":11874:11883   */\n      dup3\n        /* \"#utility.yul\":11870:11888   */\n      add\n        /* \"#utility.yul\":11862:11888   */\n      swap1\n      pop\n        /* \"#utility.yul\":11934:11943   */\n      dup2\n        /* \"#utility.yul\":11928:11932   */\n      dup2\n        /* \"#utility.yul\":11924:11944   */\n      sub\n        /* \"#utility.yul\":11920:11921   */\n      0x00\n        /* \"#utility.yul\":11909:11918   */\n      dup4\n        /* \"#utility.yul\":11905:11922   */\n      add\n        /* \"#utility.yul\":11898:11945   */\n      mstore\n        /* \"#utility.yul\":11962:12093   */\n      tag_324\n        /* \"#utility.yul\":12088:12092   */\n      dup2\n        /* \"#utility.yul\":11962:12093   */\n      tag_199\n      jump\t// in\n    tag_324:\n        /* \"#utility.yul\":11954:12093   */\n      swap1\n      pop\n        /* \"#utility.yul\":11681:12100   */\n      swap2\n      swap1\n      pop\n      jump\t// out\n        /* \"#utility.yul\":12106:12286   */\n    tag_148:\n        /* \"#utility.yul\":12154:12231   */\n      0x4e487b7100000000000000000000000000000000000000000000000000000000\n        /* \"#utility.yul\":12151:12152   */\n      0x00\n        /* \"#utility.yul\":12144:12232   */\n      mstore\n        /* \"#utility.yul\":12251:12255   */\n      0x41\n        /* \"#utility.yul\":12248:12249   */\n      0x04\n        /* \"#utility.yul\":12241:12256   */\n      mstore\n        /* \"#utility.yul\":12275:12279   */\n      0x24\n        /* \"#utility.yul\":12272:12273   */\n      0x00\n        /* \"#utility.yul\":12265:12280   */\n      revert\n        /* \"#utility.yul\":12292:12525   */\n    tag_161:\n        /* \"#utility.yul\":12331:12334   */\n      0x00\n        /* \"#utility.yul\":12354:12378   */\n      tag_327\n        /* \"#utility.yul\":12372:12377   */\n      dup3\n        /* \"#utility.yul\":12354:12378   */\n      tag_164\n      jump\t// in\n    tag_327:\n        /* \"#utility.yul\":12345:12378   */\n      swap2\n      pop\n        /* \"#utility.yul\":12400:12466   */\n      0xffffffffffffffffffffffffffffffffffffffffffffffffffffffffffffffff\n        /* \"#utility.yul\":12393:12398   */\n      dup3\n        /* \"#utility.yul\":12390:12467   */\n      sub\n        /* \"#utility.yul\":12387:12490   */\n      tag_328\n      jumpi\n        /* \"#utility.yul\":12470:12488   */\n      tag_329\n      tag_190\n      jump\t// in\n    tag_329:\n        /* \"#utility.yul\":12387:12490   */\n    tag_328:\n        /* \"#utility.yul\":12517:12518   */\n      0x01\n        /* \"#utility.yul\":12510:12515   */\n      dup3\n        /* \"#utility.yul\":12506:12519   */\n      add\n        /* \"#utility.yul\":12499:12519   */\n      swap1\n      pop\n        /* \"#utility.yul\":12292:12525   */\n      swap2\n      swap1\n      pop\n      jump\t// out\n\n    auxdata: 0xa26469706673582212205b208b76196e09711391e58cb9b33c8388fa8b2e7c92e115214f2d5170f4386564736f6c634300081a0033\n}\n",
				"bytecode": {
					"linkReferences": {},
					"object": "608060405234801561000f575f80fd5b506040516118643803806118648339818101604052810190610031919061032b565b805f73ffffffffffffffffffffffffffffffffffffffff168173ffffffffffffffffffffffffffffffffffffffff16036100a2575f6040517f1e4fbdf7000000000000000000000000000000000000000000000000000000008152600401610099919061038a565b60405180910390fd5b6100b1816101d960201b60201c565b508260015f6101000a81548173ffffffffffffffffffffffffffffffffffffffff021916908373ffffffffffffffffffffffffffffffffffffffff16021790555060015f9054906101000a900473ffffffffffffffffffffffffffffffffffffffff1673ffffffffffffffffffffffffffffffffffffffff1663b180783d6040518163ffffffff1660e01b8152600401602060405180830381865afa15801561015c573d5f803e3d5ffd5b505050506040513d601f19601f8201168201806040525081019061018091906103de565b60025f6101000a81548173ffffffffffffffffffffffffffffffffffffffff021916908373ffffffffffffffffffffffffffffffffffffffff16021790555081426101cb9190610436565b600381905550505050610469565b5f805f9054906101000a900473ffffffffffffffffffffffffffffffffffffffff169050815f806101000a81548173ffffffffffffffffffffffffffffffffffffffff021916908373ffffffffffffffffffffffffffffffffffffffff1602179055508173ffffffffffffffffffffffffffffffffffffffff168173ffffffffffffffffffffffffffffffffffffffff167f8be0079c531659141344cd1fd0a4f28419497f9722a3daafe3b4186f6b6457e060405160405180910390a35050565b5f80fd5b5f73ffffffffffffffffffffffffffffffffffffffff82169050919050565b5f6102c78261029e565b9050919050565b6102d7816102bd565b81146102e1575f80fd5b50565b5f815190506102f2816102ce565b92915050565b5f819050919050565b61030a816102f8565b8114610314575f80fd5b50565b5f8151905061032581610301565b92915050565b5f805f606084860312156103425761034161029a565b5b5f61034f868287016102e4565b935050602061036086828701610317565b9250506040610371868287016102e4565b9150509250925092565b610384816102bd565b82525050565b5f60208201905061039d5f83018461037b565b92915050565b5f6103ad826102bd565b9050919050565b6103bd816103a3565b81146103c7575f80fd5b50565b5f815190506103d8816103b4565b92915050565b5f602082840312156103f3576103f261029a565b5b5f610400848285016103ca565b91505092915050565b7f4e487b71000000000000000000000000000000000000000000000000000000005f52601160045260245ffd5b5f610440826102f8565b915061044b836102f8565b925082820190508082111561046357610462610409565b5b92915050565b6113ee806104765f395ff3fe608060405234801561000f575f80fd5b50600436106100cd575f3560e01c8063a01a22b91161008a578063b511b30c11610064578063b511b30c146101b5578063d19197c1146101d3578063da494954146101f1578063f2fde38b14610221576100cd565b8063a01a22b914610149578063ab2adc0014610179578063b180783d14610197576100cd565b80631fee5ccd146100d15780633a98ef39146100db57806362bcad7b146100f9578063666da64f14610117578063715018a6146101215780638da5cb5b1461012b575b5f80fd5b6100d961023d565b005b6100e36105cd565b6040516100f09190610d53565b60405180910390f35b6101016105d3565b60405161010e9190610d53565b60405180910390f35b61011f6105d9565b005b61012961086d565b005b610133610880565b6040516101409190610dab565b60405180910390f35b610163600480360381019061015e9190610df2565b6108a7565b6040516101709190610d53565b60405180910390f35b6101816108ed565b60405161018e9190610e78565b60405180910390f35b61019f610912565b6040516101ac9190610eb1565b60405180910390f35b6101bd610937565b6040516101ca9190610ee4565b60405180910390f35b6101db610949565b6040516101e89190610d53565b60405180910390f35b61020b60048036038101906102069190610df2565b610952565b6040516102189190610d53565b60405180910390f35b61023b60048036038101906102369190610df2565b610967565b005b6102456109eb565b60035442101561028a576040517f08c379a000000000000000000000000000000000000000000000000000000000815260040161028190610f57565b60405180910390fd5b60045f9054906101000a900460ff16156102d9576040517f08c379a00000000000000000000000000000000000000000000000000000000081526004016102d090610fbf565b60405180910390fd5b5f60015f9054906101000a900473ffffffffffffffffffffffffffffffffffffffff1673ffffffffffffffffffffffffffffffffffffffff16635bda15846040518163ffffffff1660e01b8152600401602060405180830381865afa158015610344573d5f803e3d5ffd5b505050506040513d601f19601f820116820180604052508101906103689190611007565b90505f60015f9054906101000a900473ffffffffffffffffffffffffffffffffffffffff1673ffffffffffffffffffffffffffffffffffffffff16634089b1706040518163ffffffff1660e01b8152600401602060405180830381865afa1580156103d5573d5f803e3d5ffd5b505050506040513d601f19601f820116820180604052508101906103f99190611007565b90505f818311610409575f610416565b8183610415919061105f565b5b90505f811115610577575f610429610a72565b90505f5b8151811015610574575f82828151811061044a57610449611092565b5b602002602001015190505f60015f9054906101000a900473ffffffffffffffffffffffffffffffffffffffff1673ffffffffffffffffffffffffffffffffffffffff1663293e571c836040518263ffffffff1660e01b81526004016104af9190610dab565b602060405180830381865afa1580156104ca573d5f803e3d5ffd5b505050506040513d601f19601f820116820180604052508101906104ee9190611007565b90505f8782876104fe91906110bf565b610508919061112d565b90508060055f8573ffffffffffffffffffffffffffffffffffffffff1673ffffffffffffffffffffffffffffffffffffffff1681526020019081526020015f20819055508060065f82825461055d919061115d565b92505081905550505050808060010191505061042d565b50505b600160045f6101000a81548160ff0219169083151502179055507f939df96a3b47dbfb83da233006cef1eb233fc5cba50ea94fecdebea4d99423e6816040516105c09190610d53565b60405180910390a1505050565b60065481565b60035481565b60045f9054906101000a900460ff16610627576040517f08c379a000000000000000000000000000000000000000000000000000000000815260040161061e906111da565b60405180910390fd5b5f60055f3373ffffffffffffffffffffffffffffffffffffffff1673ffffffffffffffffffffffffffffffffffffffff1681526020019081526020015f2054116106a6576040517f08c379a000000000000000000000000000000000000000000000000000000000815260040161069d90611242565b60405180910390fd5b5f60055f3373ffffffffffffffffffffffffffffffffffffffff1673ffffffffffffffffffffffffffffffffffffffff1681526020019081526020015f205490505f60055f3373ffffffffffffffffffffffffffffffffffffffff1673ffffffffffffffffffffffffffffffffffffffff1681526020019081526020015f20819055508060065f82825461073a919061105f565b9250508190555060025f9054906101000a900473ffffffffffffffffffffffffffffffffffffffff1673ffffffffffffffffffffffffffffffffffffffff1663a9059cbb33836040518363ffffffff1660e01b815260040161079d929190611260565b6020604051808303815f875af11580156107b9573d5f803e3d5ffd5b505050506040513d601f19601f820116820180604052508101906107dd91906112b1565b61081c576040517f08c379a000000000000000000000000000000000000000000000000000000000815260040161081390611326565b60405180910390fd5b3373ffffffffffffffffffffffffffffffffffffffff167f6e166a59dcd35058fdbbf1db0aff7f20de4d17f2914ea5922322afd9c7db21c6826040516108629190610d53565b60405180910390a250565b6108756109eb565b61087e5f610c73565b565b5f805f9054906101000a900473ffffffffffffffffffffffffffffffffffffffff16905090565b5f60055f8373ffffffffffffffffffffffffffffffffffffffff1673ffffffffffffffffffffffffffffffffffffffff1681526020019081526020015f20549050919050565b60015f9054906101000a900473ffffffffffffffffffffffffffffffffffffffff1681565b60025f9054906101000a900473ffffffffffffffffffffffffffffffffffffffff1681565b60045f9054906101000a900460ff1681565b5f600654905090565b6005602052805f5260405f205f915090505481565b61096f6109eb565b5f73ffffffffffffffffffffffffffffffffffffffff168173ffffffffffffffffffffffffffffffffffffffff16036109df575f6040517f1e4fbdf70000000000000000000000000000000000000000000000000000000081526004016109d69190610dab565b60405180910390fd5b6109e881610c73565b50565b6109f3610d34565b73ffffffffffffffffffffffffffffffffffffffff16610a11610880565b73ffffffffffffffffffffffffffffffffffffffff1614610a7057610a34610d34565b6040517f118cdaa7000000000000000000000000000000000000000000000000000000008152600401610a679190610dab565b60405180910390fd5b565b60605f60015f9054906101000a900473ffffffffffffffffffffffffffffffffffffffff1673ffffffffffffffffffffffffffffffffffffffff166311aee3806040518163ffffffff1660e01b8152600401602060405180830381865afa158015610adf573d5f803e3d5ffd5b505050506040513d601f19601f82011682018060405250810190610b039190611007565b90505f8167ffffffffffffffff811115610b2057610b1f611344565b5b604051908082528060200260200182016040528015610b4e5781602001602082028036833780820191505090505b5090505f805b83811015610c69575f81905060015f9054906101000a900473ffffffffffffffffffffffffffffffffffffffff1673ffffffffffffffffffffffffffffffffffffffff1663a230c524826040518263ffffffff1660e01b8152600401610bba9190610dab565b602060405180830381865afa158015610bd5573d5f803e3d5ffd5b505050506040513d601f19601f82011682018060405250810190610bf991906112b1565b15610c5b5780848481518110610c1257610c11611092565b5b602002602001019073ffffffffffffffffffffffffffffffffffffffff16908173ffffffffffffffffffffffffffffffffffffffff16815250508280610c5790611371565b9350505b508080600101915050610b54565b5081935050505090565b5f805f9054906101000a900473ffffffffffffffffffffffffffffffffffffffff169050815f806101000a81548173ffffffffffffffffffffffffffffffffffffffff021916908373ffffffffffffffffffffffffffffffffffffffff1602179055508173ffffffffffffffffffffffffffffffffffffffff168173ffffffffffffffffffffffffffffffffffffffff167f8be0079c531659141344cd1fd0a4f28419497f9722a3daafe3b4186f6b6457e060405160405180910390a35050565b5f33905090565b5f819050919050565b610d4d81610d3b565b82525050565b5f602082019050610d665f830184610d44565b92915050565b5f73ffffffffffffffffffffffffffffffffffffffff82169050919050565b5f610d9582610d6c565b9050919050565b610da581610d8b565b82525050565b5f602082019050610dbe5f830184610d9c565b92915050565b5f80fd5b610dd181610d8b565b8114610ddb575f80fd5b50565b5f81359050610dec81610dc8565b92915050565b5f60208284031215610e0757610e06610dc4565b5b5f610e1484828501610dde565b91505092915050565b5f819050919050565b5f610e40610e3b610e3684610d6c565b610e1d565b610d6c565b9050919050565b5f610e5182610e26565b9050919050565b5f610e6282610e47565b9050919050565b610e7281610e58565b82525050565b5f602082019050610e8b5f830184610e69565b92915050565b5f610e9b82610e47565b9050919050565b610eab81610e91565b82525050565b5f602082019050610ec45f830184610ea2565b92915050565b5f8115159050919050565b610ede81610eca565b82525050565b5f602082019050610ef75f830184610ed5565b92915050565b5f82825260208201905092915050565b7f436f76657261676520706572696f64206e6f7420656e646564000000000000005f82015250565b5f610f41601983610efd565b9150610f4c82610f0d565b602082019050919050565b5f6020820190508181035f830152610f6e81610f35565b9050919050565b7f50726f6669747320616c726561647920646973747269627574656400000000005f82015250565b5f610fa9601b83610efd565b9150610fb482610f75565b602082019050919050565b5f6020820190508181035f830152610fd681610f9d565b9050919050565b610fe681610d3b565b8114610ff0575f80fd5b50565b5f8151905061100181610fdd565b92915050565b5f6020828403121561101c5761101b610dc4565b5b5f61102984828501610ff3565b91505092915050565b7f4e487b71000000000000000000000000000000000000000000000000000000005f52601160045260245ffd5b5f61106982610d3b565b915061107483610d3b565b925082820390508181111561108c5761108b611032565b5b92915050565b7f4e487b71000000000000000000000000000000000000000000000000000000005f52603260045260245ffd5b5f6110c982610d3b565b91506110d483610d3b565b92508282026110e281610d3b565b915082820484148315176110f9576110f8611032565b5b5092915050565b7f4e487b71000000000000000000000000000000000000000000000000000000005f52601260045260245ffd5b5f61113782610d3b565b915061114283610d3b565b92508261115257611151611100565b5b828204905092915050565b5f61116782610d3b565b915061117283610d3b565b925082820190508082111561118a57611189611032565b5b92915050565b7f50726f66697473206e6f742064697374726962757465642079657400000000005f82015250565b5f6111c4601b83610efd565b91506111cf82611190565b602082019050919050565b5f6020820190508181035f8301526111f1816111b8565b9050919050565b7f4e6f20736861726520746f20636c61696d0000000000000000000000000000005f82015250565b5f61122c601183610efd565b9150611237826111f8565b602082019050919050565b5f6020820190508181035f83015261125981611220565b9050919050565b5f6040820190506112735f830185610d9c565b6112806020830184610d44565b9392505050565b61129081610eca565b811461129a575f80fd5b50565b5f815190506112ab81611287565b92915050565b5f602082840312156112c6576112c5610dc4565b5b5f6112d38482850161129d565b91505092915050565b7f5472616e73666572206661696c656400000000000000000000000000000000005f82015250565b5f611310600f83610efd565b915061131b826112dc565b602082019050919050565b5f6020820190508181035f83015261133d81611304565b9050919050565b7f4e487b71000000000000000000000000000000000000000000000000000000005f52604160045260245ffd5b5f61137b82610d3b565b91507fffffffffffffffffffffffffffffffffffffffffffffffffffffffffffffffff82036113ad576113ac611032565b5b60018201905091905056fea26469706673582212205b208b76196e09711391e58cb9b33c8388fa8b2e7c92e115214f2d5170f4386564736f6c634300081a0033",
					"opcodes": "PUSH1 0x80 PUSH1 0x40 MSTORE CALLVALUE DUP1 ISZERO PUSH2 0xF JUMPI PUSH0 DUP1 REVERT JUMPDEST POP PUSH1 0x40 MLOAD PUSH2 0x1864 CODESIZE SUB DUP1 PUSH2 0x1864 DUP4 CODECOPY DUP2 DUP2 ADD PUSH1 0x40 MSTORE DUP2 ADD SWAP1 PUSH2 0x31 SWAP2 SWAP1 PUSH2 0x32B JUMP JUMPDEST DUP1 PUSH0 PUSH20 0xFFFFFFFFFFFFFFFFFFFFFFFFFFFFFFFFFFFFFFFF AND DUP2 PUSH20 0xFFFFFFFFFFFFFFFFFFFFFFFFFFFFFFFFFFFFFFFF AND SUB PUSH2 0xA2 JUMPI PUSH0 PUSH1 0x40 MLOAD PUSH32 0x1E4FBDF700000000000000000000000000000000000000000000000000000000 DUP2 MSTORE PUSH1 0x4 ADD PUSH2 0x99 SWAP2 SWAP1 PUSH2 0x38A JUMP JUMPDEST PUSH1 0x40 MLOAD DUP1 SWAP2 SUB SWAP1 REVERT JUMPDEST PUSH2 0xB1 DUP2 PUSH2 0x1D9 PUSH1 0x20 SHL PUSH1 0x20 SHR JUMP JUMPDEST POP DUP3 PUSH1 0x1 PUSH0 PUSH2 0x100 EXP DUP2 SLOAD DUP2 PUSH20 0xFFFFFFFFFFFFFFFFFFFFFFFFFFFFFFFFFFFFFFFF MUL NOT AND SWAP1 DUP4 PUSH20 0xFFFFFFFFFFFFFFFFFFFFFFFFFFFFFFFFFFFFFFFF AND MUL OR SWAP1 SSTORE POP PUSH1 0x1 PUSH0 SWAP1 SLOAD SWAP1 PUSH2 0x100 EXP SWAP1 DIV PUSH20 0xFFFFFFFFFFFFFFFFFFFFFFFFFFFFFFFFFFFFFFFF AND PUSH20 0xFFFFFFFFFFFFFFFFFFFFFFFFFFFFFFFFFFFFFFFF AND PUSH4 0xB180783D PUSH1 0x40 MLOAD DUP2 PUSH4 0xFFFFFFFF AND PUSH1 0xE0 SHL DUP2 MSTORE PUSH1 0x4 ADD PUSH1 0x20 PUSH1 0x40 MLOAD DUP1 DUP4 SUB DUP2 DUP7 GAS STATICCALL ISZERO DUP1 ISZERO PUSH2 0x15C JUMPI RETURNDATASIZE PUSH0 DUP1 RETURNDATACOPY RETURNDATASIZE PUSH0 REVERT JUMPDEST POP POP POP POP PUSH1 0x40 MLOAD RETURNDATASIZE PUSH1 0x1F NOT PUSH1 0x1F DUP3 ADD AND DUP3 ADD DUP1 PUSH1 0x40 MSTORE POP DUP2 ADD SWAP1 PUSH2 0x180 SWAP2 SWAP1 PUSH2 0x3DE JUMP JUMPDEST PUSH1 0x2 PUSH0 PUSH2 0x100 EXP DUP2 SLOAD DUP2 PUSH20 0xFFFFFFFFFFFFFFFFFFFFFFFFFFFFFFFFFFFFFFFF MUL NOT AND SWAP1 DUP4 PUSH20 0xFFFFFFFFFFFFFFFFFFFFFFFFFFFFFFFFFFFFFFFF AND MUL OR SWAP1 SSTORE POP DUP2 TIMESTAMP PUSH2 0x1CB SWAP2 SWAP1 PUSH2 0x436 JUMP JUMPDEST PUSH1 0x3 DUP2 SWAP1 SSTORE POP POP POP POP PUSH2 0x469 JUMP JUMPDEST PUSH0 DUP1 PUSH0 SWAP1 SLOAD SWAP1 PUSH2 0x100 EXP SWAP1 DIV PUSH20 0xFFFFFFFFFFFFFFFFFFFFFFFFFFFFFFFFFFFFFFFF AND SWAP1 POP DUP2 PUSH0 DUP1 PUSH2 0x100 EXP DUP2 SLOAD DUP2 PUSH20 0xFFFFFFFFFFFFFFFFFFFFFFFFFFFFFFFFFFFFFFFF MUL NOT AND SWAP1 DUP4 PUSH20 0xFFFFFFFFFFFFFFFFFFFFFFFFFFFFFFFFFFFFFFFF AND MUL OR SWAP1 SSTORE POP DUP2 PUSH20 0xFFFFFFFFFFFFFFFFFFFFFFFFFFFFFFFFFFFFFFFF AND DUP2 PUSH20 0xFFFFFFFFFFFFFFFFFFFFFFFFFFFFFFFFFFFFFFFF AND PUSH32 0x8BE0079C531659141344CD1FD0A4F28419497F9722A3DAAFE3B4186F6B6457E0 PUSH1 0x40 MLOAD PUSH1 0x40 MLOAD DUP1 SWAP2 SUB SWAP1 LOG3 POP POP JUMP JUMPDEST PUSH0 DUP1 REVERT JUMPDEST PUSH0 PUSH20 0xFFFFFFFFFFFFFFFFFFFFFFFFFFFFFFFFFFFFFFFF DUP3 AND SWAP1 POP SWAP2 SWAP1 POP JUMP JUMPDEST PUSH0 PUSH2 0x2C7 DUP3 PUSH2 0x29E JUMP JUMPDEST SWAP1 POP SWAP2 SWAP1 POP JUMP JUMPDEST PUSH2 0x2D7 DUP2 PUSH2 0x2BD JUMP JUMPDEST DUP2 EQ PUSH2 0x2E1 JUMPI PUSH0 DUP1 REVERT JUMPDEST POP JUMP JUMPDEST PUSH0 DUP2 MLOAD SWAP1 POP PUSH2 0x2F2 DUP2 PUSH2 0x2CE JUMP JUMPDEST SWAP3 SWAP2 POP POP JUMP JUMPDEST PUSH0 DUP2 SWAP1 POP SWAP2 SWAP1 POP JUMP JUMPDEST PUSH2 0x30A DUP2 PUSH2 0x2F8 JUMP JUMPDEST DUP2 EQ PUSH2 0x314 JUMPI PUSH0 DUP1 REVERT JUMPDEST POP JUMP JUMPDEST PUSH0 DUP2 MLOAD SWAP1 POP PUSH2 0x325 DUP2 PUSH2 0x301 JUMP JUMPDEST SWAP3 SWAP2 POP POP JUMP JUMPDEST PUSH0 DUP1 PUSH0 PUSH1 0x60 DUP5 DUP7 SUB SLT ISZERO PUSH2 0x342 JUMPI PUSH2 0x341 PUSH2 0x29A JUMP JUMPDEST JUMPDEST PUSH0 PUSH2 0x34F DUP7 DUP3 DUP8 ADD PUSH2 0x2E4 JUMP JUMPDEST SWAP4 POP POP PUSH1 0x20 PUSH2 0x360 DUP7 DUP3 DUP8 ADD PUSH2 0x317 JUMP JUMPDEST SWAP3 POP POP PUSH1 0x40 PUSH2 0x371 DUP7 DUP3 DUP8 ADD PUSH2 0x2E4 JUMP JUMPDEST SWAP2 POP POP SWAP3 POP SWAP3 POP SWAP3 JUMP JUMPDEST PUSH2 0x384 DUP2 PUSH2 0x2BD JUMP JUMPDEST DUP3 MSTORE POP POP JUMP JUMPDEST PUSH0 PUSH1 0x20 DUP3 ADD SWAP1 POP PUSH2 0x39D PUSH0 DUP4 ADD DUP5 PUSH2 0x37B JUMP JUMPDEST SWAP3 SWAP2 POP POP JUMP JUMPDEST PUSH0 PUSH2 0x3AD DUP3 PUSH2 0x2BD JUMP JUMPDEST SWAP1 POP SWAP2 SWAP1 POP JUMP JUMPDEST PUSH2 0x3BD DUP2 PUSH2 0x3A3 JUMP JUMPDEST DUP2 EQ PUSH2 0x3C7 JUMPI PUSH0 DUP1 REVERT JUMPDEST POP JUMP JUMPDEST PUSH0 DUP2 MLOAD SWAP1 POP PUSH2 0x3D8 DUP2 PUSH2 0x3B4 JUMP JUMPDEST SWAP3 SWAP2 POP POP JUMP JUMPDEST PUSH0 PUSH1 0x20 DUP3 DUP5 SUB SLT ISZERO PUSH2 0x3F3 JUMPI PUSH2 0x3F2 PUSH2 0x29A JUMP JUMPDEST JUMPDEST PUSH0 PUSH2 0x400 DUP5 DUP3 DUP6 ADD PUSH2 0x3CA JUMP JUMPDEST SWAP2 POP POP SWAP3 SWAP2 POP POP JUMP JUMPDEST PUSH32 0x4E487B7100000000000000000000000000000000000000000000000000000000 PUSH0 MSTORE PUSH1 0x11 PUSH1 0x4 MSTORE PUSH1 0x24 PUSH0 REVERT JUMPDEST PUSH0 PUSH2 0x440 DUP3 PUSH2 0x2F8 JUMP JUMPDEST SWAP2 POP PUSH2 0x44B DUP4 PUSH2 0x2F8 JUMP JUMPDEST SWAP3 POP DUP3 DUP3 ADD SWAP1 POP DUP1 DUP3 GT ISZERO PUSH2 0x463 JUMPI PUSH2 0x462 PUSH2 0x409 JUMP JUMPDEST JUMPDEST SWAP3 SWAP2 POP POP JUMP JUMPDEST PUSH2 0x13EE DUP1 PUSH2 0x476 PUSH0 CODECOPY PUSH0 RETURN INVALID PUSH1 0x80 PUSH1 0x40 MSTORE CALLVALUE DUP1 ISZERO PUSH2 0xF JUMPI PUSH0 DUP1 REVERT JUMPDEST POP PUSH1 0x4 CALLDATASIZE LT PUSH2 0xCD JUMPI PUSH0 CALLDATALOAD PUSH1 0xE0 SHR DUP1 PUSH4 0xA01A22B9 GT PUSH2 0x8A JUMPI DUP1 PUSH4 0xB511B30C GT PUSH2 0x64 JUMPI DUP1 PUSH4 0xB511B30C EQ PUSH2 0x1B5 JUMPI DUP1 PUSH4 0xD19197C1 EQ PUSH2 0x1D3 JUMPI DUP1 PUSH4 0xDA494954 EQ PUSH2 0x1F1 JUMPI DUP1 PUSH4 0xF2FDE38B EQ PUSH2 0x221 JUMPI PUSH2 0xCD JUMP JUMPDEST DUP1 PUSH4 0xA01A22B9 EQ PUSH2 0x149 JUMPI DUP1 PUSH4 0xAB2ADC00 EQ PUSH2 0x179 JUMPI DUP1 PUSH4 0xB180783D EQ PUSH2 0x197 JUMPI PUSH2 0xCD JUMP JUMPDEST DUP1 PUSH4 0x1FEE5CCD EQ PUSH2 0xD1 JUMPI DUP1 PUSH4 0x3A98EF39 EQ PUSH2 0xDB JUMPI DUP1 PUSH4 0x62BCAD7B EQ PUSH2 0xF9 JUMPI DUP1 PUSH4 0x666DA64F EQ PUSH2 0x117 JUMPI DUP1 PUSH4 0x715018A6 EQ PUSH2 0x121 JUMPI DUP1 PUSH4 0x8DA5CB5B EQ PUSH2 0x12B JUMPI JUMPDEST PUSH0 DUP1 REVERT JUMPDEST PUSH2 0xD9 PUSH2 0x23D JUMP JUMPDEST STOP JUMPDEST PUSH2 0xE3 PUSH2 0x5CD JUMP JUMPDEST PUSH1 0x40 MLOAD PUSH2 0xF0 SWAP2 SWAP1 PUSH2 0xD53 JUMP JUMPDEST PUSH1 0x40 MLOAD DUP1 SWAP2 SUB SWAP1 RETURN JUMPDEST PUSH2 0x101 PUSH2 0x5D3 JUMP JUMPDEST PUSH1 0x40 MLOAD PUSH2 0x10E SWAP2 SWAP1 PUSH2 0xD53 JUMP JUMPDEST PUSH1 0x40 MLOAD DUP1 SWAP2 SUB SWAP1 RETURN JUMPDEST PUSH2 0x11F PUSH2 0x5D9 JUMP JUMPDEST STOP JUMPDEST PUSH2 0x129 PUSH2 0x86D JUMP JUMPDEST STOP JUMPDEST PUSH2 0x133 PUSH2 0x880 JUMP JUMPDEST PUSH1 0x40 MLOAD PUSH2 0x140 SWAP2 SWAP1 PUSH2 0xDAB JUMP JUMPDEST PUSH1 0x40 MLOAD DUP1 SWAP2 SUB SWAP1 RETURN JUMPDEST PUSH2 0x163 PUSH1 0x4 DUP1 CALLDATASIZE SUB DUP2 ADD SWAP1 PUSH2 0x15E SWAP2 SWAP1 PUSH2 0xDF2 JUMP JUMPDEST PUSH2 0x8A7 JUMP JUMPDEST PUSH1 0x40 MLOAD PUSH2 0x170 SWAP2 SWAP1 PUSH2 0xD53 JUMP JUMPDEST PUSH1 0x40 MLOAD DUP1 SWAP2 SUB SWAP1 RETURN JUMPDEST PUSH2 0x181 PUSH2 0x8ED JUMP JUMPDEST PUSH1 0x40 MLOAD PUSH2 0x18E SWAP2 SWAP1 PUSH2 0xE78 JUMP JUMPDEST PUSH1 0x40 MLOAD DUP1 SWAP2 SUB SWAP1 RETURN JUMPDEST PUSH2 0x19F PUSH2 0x912 JUMP JUMPDEST PUSH1 0x40 MLOAD PUSH2 0x1AC SWAP2 SWAP1 PUSH2 0xEB1 JUMP JUMPDEST PUSH1 0x40 MLOAD DUP1 SWAP2 SUB SWAP1 RETURN JUMPDEST PUSH2 0x1BD PUSH2 0x937 JUMP JUMPDEST PUSH1 0x40 MLOAD PUSH2 0x1CA SWAP2 SWAP1 PUSH2 0xEE4 JUMP JUMPDEST PUSH1 0x40 MLOAD DUP1 SWAP2 SUB SWAP1 RETURN JUMPDEST PUSH2 0x1DB PUSH2 0x949 JUMP JUMPDEST PUSH1 0x40 MLOAD PUSH2 0x1E8 SWAP2 SWAP1 PUSH2 0xD53 JUMP JUMPDEST PUSH1 0x40 MLOAD DUP1 SWAP2 SUB SWAP1 RETURN JUMPDEST PUSH2 0x20B PUSH1 0x4 DUP1 CALLDATASIZE SUB DUP2 ADD SWAP1 PUSH2 0x206 SWAP2 SWAP1 PUSH2 0xDF2 JUMP JUMPDEST PUSH2 0x952 JUMP JUMPDEST PUSH1 0x40 MLOAD PUSH2 0x218 SWAP2 SWAP1 PUSH2 0xD53 JUMP JUMPDEST PUSH1 0x40 MLOAD DUP1 SWAP2 SUB SWAP1 RETURN JUMPDEST PUSH2 0x23B PUSH1 0x4 DUP1 CALLDATASIZE SUB DUP2 ADD SWAP1 PUSH2 0x236 SWAP2 SWAP1 PUSH2 0xDF2 JUMP JUMPDEST PUSH2 0x967 JUMP JUMPDEST STOP JUMPDEST PUSH2 0x245 PUSH2 0x9EB JUMP JUMPDEST PUSH1 0x3 SLOAD TIMESTAMP LT ISZERO PUSH2 0x28A JUMPI PUSH1 0x40 MLOAD PUSH32 0x8C379A000000000000000000000000000000000000000000000000000000000 DUP2 MSTORE PUSH1 0x4 ADD PUSH2 0x281 SWAP1 PUSH2 0xF57 JUMP JUMPDEST PUSH1 0x40 MLOAD DUP1 SWAP2 SUB SWAP1 REVERT JUMPDEST PUSH1 0x4 PUSH0 SWAP1 SLOAD SWAP1 PUSH2 0x100 EXP SWAP1 DIV PUSH1 0xFF AND ISZERO PUSH2 0x2D9 JUMPI PUSH1 0x40 MLOAD PUSH32 0x8C379A000000000000000000000000000000000000000000000000000000000 DUP2 MSTORE PUSH1 0x4 ADD PUSH2 0x2D0 SWAP1 PUSH2 0xFBF JUMP JUMPDEST PUSH1 0x40 MLOAD DUP1 SWAP2 SUB SWAP1 REVERT JUMPDEST PUSH0 PUSH1 0x1 PUSH0 SWAP1 SLOAD SWAP1 PUSH2 0x100 EXP SWAP1 DIV PUSH20 0xFFFFFFFFFFFFFFFFFFFFFFFFFFFFFFFFFFFFFFFF AND PUSH20 0xFFFFFFFFFFFFFFFFFFFFFFFFFFFFFFFFFFFFFFFF AND PUSH4 0x5BDA1584 PUSH1 0x40 MLOAD DUP2 PUSH4 0xFFFFFFFF AND PUSH1 0xE0 SHL DUP2 MSTORE PUSH1 0x4 ADD PUSH1 0x20 PUSH1 0x40 MLOAD DUP1 DUP4 SUB DUP2 DUP7 GAS STATICCALL ISZERO DUP1 ISZERO PUSH2 0x344 JUMPI RETURNDATASIZE PUSH0 DUP1 RETURNDATACOPY RETURNDATASIZE PUSH0 REVERT JUMPDEST POP POP POP POP PUSH1 0x40 MLOAD RETURNDATASIZE PUSH1 0x1F NOT PUSH1 0x1F DUP3 ADD AND DUP3 ADD DUP1 PUSH1 0x40 MSTORE POP DUP2 ADD SWAP1 PUSH2 0x368 SWAP2 SWAP1 PUSH2 0x1007 JUMP JUMPDEST SWAP1 POP PUSH0 PUSH1 0x1 PUSH0 SWAP1 SLOAD SWAP1 PUSH2 0x100 EXP SWAP1 DIV PUSH20 0xFFFFFFFFFFFFFFFFFFFFFFFFFFFFFFFFFFFFFFFF AND PUSH20 0xFFFFFFFFFFFFFFFFFFFFFFFFFFFFFFFFFFFFFFFF AND PUSH4 0x4089B170 PUSH1 0x40 MLOAD DUP2 PUSH4 0xFFFFFFFF AND PUSH1 0xE0 SHL DUP2 MSTORE PUSH1 0x4 ADD PUSH1 0x20 PUSH1 0x40 MLOAD DUP1 DUP4 SUB DUP2 DUP7 GAS STATICCALL ISZERO DUP1 ISZERO PUSH2 0x3D5 JUMPI RETURNDATASIZE PUSH0 DUP1 RETURNDATACOPY RETURNDATASIZE PUSH0 REVERT JUMPDEST POP POP POP POP PUSH1 0x40 MLOAD RETURNDATASIZE PUSH1 0x1F NOT PUSH1 0x1F DUP3 ADD AND DUP3 ADD DUP1 PUSH1 0x40 MSTORE POP DUP2 ADD SWAP1 PUSH2 0x3F9 SWAP2 SWAP1 PUSH2 0x1007 JUMP JUMPDEST SWAP1 POP PUSH0 DUP2 DUP4 GT PUSH2 0x409 JUMPI PUSH0 PUSH2 0x416 JUMP JUMPDEST DUP2 DUP4 PUSH2 0x415 SWAP2 SWAP1 PUSH2 0x105F JUMP JUMPDEST JUMPDEST SWAP1 POP PUSH0 DUP2 GT ISZERO PUSH2 0x577 JUMPI PUSH0 PUSH2 0x429 PUSH2 0xA72 JUMP JUMPDEST SWAP1 POP PUSH0 JUMPDEST DUP2 MLOAD DUP2 LT ISZERO PUSH2 0x574 JUMPI PUSH0 DUP3 DUP3 DUP2 MLOAD DUP2 LT PUSH2 0x44A JUMPI PUSH2 0x449 PUSH2 0x1092 JUMP JUMPDEST JUMPDEST PUSH1 0x20 MUL PUSH1 0x20 ADD ADD MLOAD SWAP1 POP PUSH0 PUSH1 0x1 PUSH0 SWAP1 SLOAD SWAP1 PUSH2 0x100 EXP SWAP1 DIV PUSH20 0xFFFFFFFFFFFFFFFFFFFFFFFFFFFFFFFFFFFFFFFF AND PUSH20 0xFFFFFFFFFFFFFFFFFFFFFFFFFFFFFFFFFFFFFFFF AND PUSH4 0x293E571C DUP4 PUSH1 0x40 MLOAD DUP3 PUSH4 0xFFFFFFFF AND PUSH1 0xE0 SHL DUP2 MSTORE PUSH1 0x4 ADD PUSH2 0x4AF SWAP2 SWAP1 PUSH2 0xDAB JUMP JUMPDEST PUSH1 0x20 PUSH1 0x40 MLOAD DUP1 DUP4 SUB DUP2 DUP7 GAS STATICCALL ISZERO DUP1 ISZERO PUSH2 0x4CA JUMPI RETURNDATASIZE PUSH0 DUP1 RETURNDATACOPY RETURNDATASIZE PUSH0 REVERT JUMPDEST POP POP POP POP PUSH1 0x40 MLOAD RETURNDATASIZE PUSH1 0x1F NOT PUSH1 0x1F DUP3 ADD AND DUP3 ADD DUP1 PUSH1 0x40 MSTORE POP DUP2 ADD SWAP1 PUSH2 0x4EE SWAP2 SWAP1 PUSH2 0x1007 JUMP JUMPDEST SWAP1 POP PUSH0 DUP8 DUP3 DUP8 PUSH2 0x4FE SWAP2 SWAP1 PUSH2 0x10BF JUMP JUMPDEST PUSH2 0x508 SWAP2 SWAP1 PUSH2 0x112D JUMP JUMPDEST SWAP1 POP DUP1 PUSH1 0x5 PUSH0 DUP6 PUSH20 0xFFFFFFFFFFFFFFFFFFFFFFFFFFFFFFFFFFFFFFFF AND PUSH20 0xFFFFFFFFFFFFFFFFFFFFFFFFFFFFFFFFFFFFFFFF AND DUP2 MSTORE PUSH1 0x20 ADD SWAP1 DUP2 MSTORE PUSH1 0x20 ADD PUSH0 KECCAK256 DUP2 SWAP1 SSTORE POP DUP1 PUSH1 0x6 PUSH0 DUP3 DUP3 SLOAD PUSH2 0x55D SWAP2 SWAP1 PUSH2 0x115D JUMP JUMPDEST SWAP3 POP POP DUP2 SWAP1 SSTORE POP POP POP POP DUP1 DUP1 PUSH1 0x1 ADD SWAP2 POP POP PUSH2 0x42D JUMP JUMPDEST POP POP JUMPDEST PUSH1 0x1 PUSH1 0x4 PUSH0 PUSH2 0x100 EXP DUP2 SLOAD DUP2 PUSH1 0xFF MUL NOT AND SWAP1 DUP4 ISZERO ISZERO MUL OR SWAP1 SSTORE POP PUSH32 0x939DF96A3B47DBFB83DA233006CEF1EB233FC5CBA50EA94FECDEBEA4D99423E6 DUP2 PUSH1 0x40 MLOAD PUSH2 0x5C0 SWAP2 SWAP1 PUSH2 0xD53 JUMP JUMPDEST PUSH1 0x40 MLOAD DUP1 SWAP2 SUB SWAP1 LOG1 POP POP POP JUMP JUMPDEST PUSH1 0x6 SLOAD DUP2 JUMP JUMPDEST PUSH1 0x3 SLOAD DUP2 JUMP JUMPDEST PUSH1 0x4 PUSH0 SWAP1 SLOAD SWAP1 PUSH2 0x100 EXP SWAP1 DIV PUSH1 0xFF AND PUSH2 0x627 JUMPI PUSH1 0x40 MLOAD PUSH32 0x8C379A000000000000000000000000000000000000000000000000000000000 DUP2 MSTORE PUSH1 0x4 ADD PUSH2 0x61E SWAP1 PUSH2 0x11DA JUMP JUMPDEST PUSH1 0x40 MLOAD DUP1 SWAP2 SUB SWAP1 REVERT JUMPDEST PUSH0 PUSH1 0x5 PUSH0 CALLER PUSH20 0xFFFFFFFFFFFFFFFFFFFFFFFFFFFFFFFFFFFFFFFF AND PUSH20 0xFFFFFFFFFFFFFFFFFFFFFFFFFFFFFFFFFFFFFFFF AND DUP2 MSTORE PUSH1 0x20 ADD SWAP1 DUP2 MSTORE PUSH1 0x20 ADD PUSH0 KECCAK256 SLOAD GT PUSH2 0x6A6 JUMPI PUSH1 0x40 MLOAD PUSH32 0x8C379A000000000000000000000000000000000000000000000000000000000 DUP2 MSTORE PUSH1 0x4 ADD PUSH2 0x69D SWAP1 PUSH2 0x1242 JUMP JUMPDEST PUSH1 0x40 MLOAD DUP1 SWAP2 SUB SWAP1 REVERT JUMPDEST PUSH0 PUSH1 0x5 PUSH0 CALLER PUSH20 0xFFFFFFFFFFFFFFFFFFFFFFFFFFFFFFFFFFFFFFFF AND PUSH20 0xFFFFFFFFFFFFFFFFFFFFFFFFFFFFFFFFFFFFFFFF AND DUP2 MSTORE PUSH1 0x20 ADD SWAP1 DUP2 MSTORE PUSH1 0x20 ADD PUSH0 KECCAK256 SLOAD SWAP1 POP PUSH0 PUSH1 0x5 PUSH0 CALLER PUSH20 0xFFFFFFFFFFFFFFFFFFFFFFFFFFFFFFFFFFFFFFFF AND PUSH20 0xFFFFFFFFFFFFFFFFFFFFFFFFFFFFFFFFFFFFFFFF AND DUP2 MSTORE PUSH1 0x20 ADD SWAP1 DUP2 MSTORE PUSH1 0x20 ADD PUSH0 KECCAK256 DUP2 SWAP1 SSTORE POP DUP1 PUSH1 0x6 PUSH0 DUP3 DUP3 SLOAD PUSH2 0x73A SWAP2 SWAP1 PUSH2 0x105F JUMP JUMPDEST SWAP3 POP POP DUP2 SWAP1 SSTORE POP PUSH1 0x2 PUSH0 SWAP1 SLOAD SWAP1 PUSH2 0x100 EXP SWAP1 DIV PUSH20 0xFFFFFFFFFFFFFFFFFFFFFFFFFFFFFFFFFFFFFFFF AND PUSH20 0xFFFFFFFFFFFFFFFFFFFFFFFFFFFFFFFFFFFFFFFF AND PUSH4 0xA9059CBB CALLER DUP4 PUSH1 0x40 MLOAD DUP4 PUSH4 0xFFFFFFFF AND PUSH1 0xE0 SHL DUP2 MSTORE PUSH1 0x4 ADD PUSH2 0x79D SWAP3 SWAP2 SWAP1 PUSH2 0x1260 JUMP JUMPDEST PUSH1 0x20 PUSH1 0x40 MLOAD DUP1 DUP4 SUB DUP2 PUSH0 DUP8 GAS CALL ISZERO DUP1 ISZERO PUSH2 0x7B9 JUMPI RETURNDATASIZE PUSH0 DUP1 RETURNDATACOPY RETURNDATASIZE PUSH0 REVERT JUMPDEST POP POP POP POP PUSH1 0x40 MLOAD RETURNDATASIZE PUSH1 0x1F NOT PUSH1 0x1F DUP3 ADD AND DUP3 ADD DUP1 PUSH1 0x40 MSTORE POP DUP2 ADD SWAP1 PUSH2 0x7DD SWAP2 SWAP1 PUSH2 0x12B1 JUMP JUMPDEST PUSH2 0x81C JUMPI PUSH1 0x40 MLOAD PUSH32 0x8C379A000000000000000000000000000000000000000000000000000000000 DUP2 MSTORE PUSH1 0x4 ADD PUSH2 0x813 SWAP1 PUSH2 0x1326 JUMP JUMPDEST PUSH1 0x40 MLOAD DUP1 SWAP2 SUB SWAP1 REVERT JUMPDEST CALLER PUSH20 0xFFFFFFFFFFFFFFFFFFFFFFFFFFFFFFFFFFFFFFFF AND PUSH32 0x6E166A59DCD35058FDBBF1DB0AFF7F20DE4D17F2914EA5922322AFD9C7DB21C6 DUP3 PUSH1 0x40 MLOAD PUSH2 0x862 SWAP2 SWAP1 PUSH2 0xD53 JUMP JUMPDEST PUSH1 0x40 MLOAD DUP1 SWAP2 SUB SWAP1 LOG2 POP JUMP JUMPDEST PUSH2 0x875 PUSH2 0x9EB JUMP JUMPDEST PUSH2 0x87E PUSH0 PUSH2 0xC73 JUMP JUMPDEST JUMP JUMPDEST PUSH0 DUP1 PUSH0 SWAP1 SLOAD SWAP1 PUSH2 0x100 EXP SWAP1 DIV PUSH20 0xFFFFFFFFFFFFFFFFFFFFFFFFFFFFFFFFFFFFFFFF AND SWAP1 POP SWAP1 JUMP JUMPDEST PUSH0 PUSH1 0x5 PUSH0 DUP4 PUSH20 0xFFFFFFFFFFFFFFFFFFFFFFFFFFFFFFFFFFFFFFFF AND PUSH20 0xFFFFFFFFFFFFFFFFFFFFFFFFFFFFFFFFFFFFFFFF AND DUP2 MSTORE PUSH1 0x20 ADD SWAP1 DUP2 MSTORE PUSH1 0x20 ADD PUSH0 KECCAK256 SLOAD SWAP1 POP SWAP2 SWAP1 POP JUMP JUMPDEST PUSH1 0x1 PUSH0 SWAP1 SLOAD SWAP1 PUSH2 0x100 EXP SWAP1 DIV PUSH20 0xFFFFFFFFFFFFFFFFFFFFFFFFFFFFFFFFFFFFFFFF AND DUP2 JUMP JUMPDEST PUSH1 0x2 PUSH0 SWAP1 SLOAD SWAP1 PUSH2 0x100 EXP SWAP1 DIV PUSH20 0xFFFFFFFFFFFFFFFFFFFFFFFFFFFFFFFFFFFFFFFF AND DUP2 JUMP JUMPDEST PUSH1 0x4 PUSH0 SWAP1 SLOAD SWAP1 PUSH2 0x100 EXP SWAP1 DIV PUSH1 0xFF AND DUP2 JUMP JUMPDEST PUSH0 PUSH1 0x6 SLOAD SWAP1 POP SWAP1 JUMP JUMPDEST PUSH1 0x5 PUSH1 0x20 MSTORE DUP1 PUSH0 MSTORE PUSH1 0x40 PUSH0 KECCAK256 PUSH0 SWAP2 POP SWAP1 POP SLOAD DUP2 JUMP JUMPDEST PUSH2 0x96F PUSH2 0x9EB JUMP JUMPDEST PUSH0 PUSH20 0xFFFFFFFFFFFFFFFFFFFFFFFFFFFFFFFFFFFFFFFF AND DUP2 PUSH20 0xFFFFFFFFFFFFFFFFFFFFFFFFFFFFFFFFFFFFFFFF AND SUB PUSH2 0x9DF JUMPI PUSH0 PUSH1 0x40 MLOAD PUSH32 0x1E4FBDF700000000000000000000000000000000000000000000000000000000 DUP2 MSTORE PUSH1 0x4 ADD PUSH2 0x9D6 SWAP2 SWAP1 PUSH2 0xDAB JUMP JUMPDEST PUSH1 0x40 MLOAD DUP1 SWAP2 SUB SWAP1 REVERT JUMPDEST PUSH2 0x9E8 DUP2 PUSH2 0xC73 JUMP JUMPDEST POP JUMP JUMPDEST PUSH2 0x9F3 PUSH2 0xD34 JUMP JUMPDEST PUSH20 0xFFFFFFFFFFFFFFFFFFFFFFFFFFFFFFFFFFFFFFFF AND PUSH2 0xA11 PUSH2 0x880 JUMP JUMPDEST PUSH20 0xFFFFFFFFFFFFFFFFFFFFFFFFFFFFFFFFFFFFFFFF AND EQ PUSH2 0xA70 JUMPI PUSH2 0xA34 PUSH2 0xD34 JUMP JUMPDEST PUSH1 0x40 MLOAD PUSH32 0x118CDAA700000000000000000000000000000000000000000000000000000000 DUP2 MSTORE PUSH1 0x4 ADD PUSH2 0xA67 SWAP2 SWAP1 PUSH2 0xDAB JUMP JUMPDEST PUSH1 0x40 MLOAD DUP1 SWAP2 SUB SWAP1 REVERT JUMPDEST JUMP JUMPDEST PUSH1 0x60 PUSH0 PUSH1 0x1 PUSH0 SWAP1 SLOAD SWAP1 PUSH2 0x100 EXP SWAP1 DIV PUSH20 0xFFFFFFFFFFFFFFFFFFFFFFFFFFFFFFFFFFFFFFFF AND PUSH20 0xFFFFFFFFFFFFFFFFFFFFFFFFFFFFFFFFFFFFFFFF AND PUSH4 0x11AEE380 PUSH1 0x40 MLOAD DUP2 PUSH4 0xFFFFFFFF AND PUSH1 0xE0 SHL DUP2 MSTORE PUSH1 0x4 ADD PUSH1 0x20 PUSH1 0x40 MLOAD DUP1 DUP4 SUB DUP2 DUP7 GAS STATICCALL ISZERO DUP1 ISZERO PUSH2 0xADF JUMPI RETURNDATASIZE PUSH0 DUP1 RETURNDATACOPY RETURNDATASIZE PUSH0 REVERT JUMPDEST POP POP POP POP PUSH1 0x40 MLOAD RETURNDATASIZE PUSH1 0x1F NOT PUSH1 0x1F DUP3 ADD AND DUP3 ADD DUP1 PUSH1 0x40 MSTORE POP DUP2 ADD SWAP1 PUSH2 0xB03 SWAP2 SWAP1 PUSH2 0x1007 JUMP JUMPDEST SWAP1 POP PUSH0 DUP2 PUSH8 0xFFFFFFFFFFFFFFFF DUP2 GT ISZERO PUSH2 0xB20 JUMPI PUSH2 0xB1F PUSH2 0x1344 JUMP JUMPDEST JUMPDEST PUSH1 0x40 MLOAD SWAP1 DUP1 DUP3 MSTORE DUP1 PUSH1 0x20 MUL PUSH1 0x20 ADD DUP3 ADD PUSH1 0x40 MSTORE DUP1 ISZERO PUSH2 0xB4E JUMPI DUP2 PUSH1 0x20 ADD PUSH1 0x20 DUP3 MUL DUP1 CALLDATASIZE DUP4 CALLDATACOPY DUP1 DUP3 ADD SWAP2 POP POP SWAP1 POP JUMPDEST POP SWAP1 POP PUSH0 DUP1 JUMPDEST DUP4 DUP2 LT ISZERO PUSH2 0xC69 JUMPI PUSH0 DUP2 SWAP1 POP PUSH1 0x1 PUSH0 SWAP1 SLOAD SWAP1 PUSH2 0x100 EXP SWAP1 DIV PUSH20 0xFFFFFFFFFFFFFFFFFFFFFFFFFFFFFFFFFFFFFFFF AND PUSH20 0xFFFFFFFFFFFFFFFFFFFFFFFFFFFFFFFFFFFFFFFF AND PUSH4 0xA230C524 DUP3 PUSH1 0x40 MLOAD DUP3 PUSH4 0xFFFFFFFF AND PUSH1 0xE0 SHL DUP2 MSTORE PUSH1 0x4 ADD PUSH2 0xBBA SWAP2 SWAP1 PUSH2 0xDAB JUMP JUMPDEST PUSH1 0x20 PUSH1 0x40 MLOAD DUP1 DUP4 SUB DUP2 DUP7 GAS STATICCALL ISZERO DUP1 ISZERO PUSH2 0xBD5 JUMPI RETURNDATASIZE PUSH0 DUP1 RETURNDATACOPY RETURNDATASIZE PUSH0 REVERT JUMPDEST POP POP POP POP PUSH1 0x40 MLOAD RETURNDATASIZE PUSH1 0x1F NOT PUSH1 0x1F DUP3 ADD AND DUP3 ADD DUP1 PUSH1 0x40 MSTORE POP DUP2 ADD SWAP1 PUSH2 0xBF9 SWAP2 SWAP1 PUSH2 0x12B1 JUMP JUMPDEST ISZERO PUSH2 0xC5B JUMPI DUP1 DUP5 DUP5 DUP2 MLOAD DUP2 LT PUSH2 0xC12 JUMPI PUSH2 0xC11 PUSH2 0x1092 JUMP JUMPDEST JUMPDEST PUSH1 0x20 MUL PUSH1 0x20 ADD ADD SWAP1 PUSH20 0xFFFFFFFFFFFFFFFFFFFFFFFFFFFFFFFFFFFFFFFF AND SWAP1 DUP2 PUSH20 0xFFFFFFFFFFFFFFFFFFFFFFFFFFFFFFFFFFFFFFFF AND DUP2 MSTORE POP POP DUP3 DUP1 PUSH2 0xC57 SWAP1 PUSH2 0x1371 JUMP JUMPDEST SWAP4 POP POP JUMPDEST POP DUP1 DUP1 PUSH1 0x1 ADD SWAP2 POP POP PUSH2 0xB54 JUMP JUMPDEST POP DUP2 SWAP4 POP POP POP POP SWAP1 JUMP JUMPDEST PUSH0 DUP1 PUSH0 SWAP1 SLOAD SWAP1 PUSH2 0x100 EXP SWAP1 DIV PUSH20 0xFFFFFFFFFFFFFFFFFFFFFFFFFFFFFFFFFFFFFFFF AND SWAP1 POP DUP2 PUSH0 DUP1 PUSH2 0x100 EXP DUP2 SLOAD DUP2 PUSH20 0xFFFFFFFFFFFFFFFFFFFFFFFFFFFFFFFFFFFFFFFF MUL NOT AND SWAP1 DUP4 PUSH20 0xFFFFFFFFFFFFFFFFFFFFFFFFFFFFFFFFFFFFFFFF AND MUL OR SWAP1 SSTORE POP DUP2 PUSH20 0xFFFFFFFFFFFFFFFFFFFFFFFFFFFFFFFFFFFFFFFF AND DUP2 PUSH20 0xFFFFFFFFFFFFFFFFFFFFFFFFFFFFFFFFFFFFFFFF AND PUSH32 0x8BE0079C531659141344CD1FD0A4F28419497F9722A3DAAFE3B4186F6B6457E0 PUSH1 0x40 MLOAD PUSH1 0x40 MLOAD DUP1 SWAP2 SUB SWAP1 LOG3 POP POP JUMP JUMPDEST PUSH0 CALLER SWAP1 POP SWAP1 JUMP JUMPDEST PUSH0 DUP2 SWAP1 POP SWAP2 SWAP1 POP JUMP JUMPDEST PUSH2 0xD4D DUP2 PUSH2 0xD3B JUMP JUMPDEST DUP3 MSTORE POP POP JUMP JUMPDEST PUSH0 PUSH1 0x20 DUP3 ADD SWAP1 POP PUSH2 0xD66 PUSH0 DUP4 ADD DUP5 PUSH2 0xD44 JUMP JUMPDEST SWAP3 SWAP2 POP POP JUMP JUMPDEST PUSH0 PUSH20 0xFFFFFFFFFFFFFFFFFFFFFFFFFFFFFFFFFFFFFFFF DUP3 AND SWAP1 POP SWAP2 SWAP1 POP JUMP JUMPDEST PUSH0 PUSH2 0xD95 DUP3 PUSH2 0xD6C JUMP JUMPDEST SWAP1 POP SWAP2 SWAP1 POP JUMP JUMPDEST PUSH2 0xDA5 DUP2 PUSH2 0xD8B JUMP JUMPDEST DUP3 MSTORE POP POP JUMP JUMPDEST PUSH0 PUSH1 0x20 DUP3 ADD SWAP1 POP PUSH2 0xDBE PUSH0 DUP4 ADD DUP5 PUSH2 0xD9C JUMP JUMPDEST SWAP3 SWAP2 POP POP JUMP JUMPDEST PUSH0 DUP1 REVERT JUMPDEST PUSH2 0xDD1 DUP2 PUSH2 0xD8B JUMP JUMPDEST DUP2 EQ PUSH2 0xDDB JUMPI PUSH0 DUP1 REVERT JUMPDEST POP JUMP JUMPDEST PUSH0 DUP2 CALLDATALOAD SWAP1 POP PUSH2 0xDEC DUP2 PUSH2 0xDC8 JUMP JUMPDEST SWAP3 SWAP2 POP POP JUMP JUMPDEST PUSH0 PUSH1 0x20 DUP3 DUP5 SUB SLT ISZERO PUSH2 0xE07 JUMPI PUSH2 0xE06 PUSH2 0xDC4 JUMP JUMPDEST JUMPDEST PUSH0 PUSH2 0xE14 DUP5 DUP3 DUP6 ADD PUSH2 0xDDE JUMP JUMPDEST SWAP2 POP POP SWAP3 SWAP2 POP POP JUMP JUMPDEST PUSH0 DUP2 SWAP1 POP SWAP2 SWAP1 POP JUMP JUMPDEST PUSH0 PUSH2 0xE40 PUSH2 0xE3B PUSH2 0xE36 DUP5 PUSH2 0xD6C JUMP JUMPDEST PUSH2 0xE1D JUMP JUMPDEST PUSH2 0xD6C JUMP JUMPDEST SWAP1 POP SWAP2 SWAP1 POP JUMP JUMPDEST PUSH0 PUSH2 0xE51 DUP3 PUSH2 0xE26 JUMP JUMPDEST SWAP1 POP SWAP2 SWAP1 POP JUMP JUMPDEST PUSH0 PUSH2 0xE62 DUP3 PUSH2 0xE47 JUMP JUMPDEST SWAP1 POP SWAP2 SWAP1 POP JUMP JUMPDEST PUSH2 0xE72 DUP2 PUSH2 0xE58 JUMP JUMPDEST DUP3 MSTORE POP POP JUMP JUMPDEST PUSH0 PUSH1 0x20 DUP3 ADD SWAP1 POP PUSH2 0xE8B PUSH0 DUP4 ADD DUP5 PUSH2 0xE69 JUMP JUMPDEST SWAP3 SWAP2 POP POP JUMP JUMPDEST PUSH0 PUSH2 0xE9B DUP3 PUSH2 0xE47 JUMP JUMPDEST SWAP1 POP SWAP2 SWAP1 POP JUMP JUMPDEST PUSH2 0xEAB DUP2 PUSH2 0xE91 JUMP JUMPDEST DUP3 MSTORE POP POP JUMP JUMPDEST PUSH0 PUSH1 0x20 DUP3 ADD SWAP1 POP PUSH2 0xEC4 PUSH0 DUP4 ADD DUP5 PUSH2 0xEA2 JUMP JUMPDEST SWAP3 SWAP2 POP POP JUMP JUMPDEST PUSH0 DUP2 ISZERO ISZERO SWAP1 POP SWAP2 SWAP1 POP JUMP JUMPDEST PUSH2 0xEDE DUP2 PUSH2 0xECA JUMP JUMPDEST DUP3 MSTORE POP POP JUMP JUMPDEST PUSH0 PUSH1 0x20 DUP3 ADD SWAP1 POP PUSH2 0xEF7 PUSH0 DUP4 ADD DUP5 PUSH2 0xED5 JUMP JUMPDEST SWAP3 SWAP2 POP POP JUMP JUMPDEST PUSH0 DUP3 DUP3 MSTORE PUSH1 0x20 DUP3 ADD SWAP1 POP SWAP3 SWAP2 POP POP JUMP JUMPDEST PUSH32 0x436F76657261676520706572696F64206E6F7420656E64656400000000000000 PUSH0 DUP3 ADD MSTORE POP JUMP JUMPDEST PUSH0 PUSH2 0xF41 PUSH1 0x19 DUP4 PUSH2 0xEFD JUMP JUMPDEST SWAP2 POP PUSH2 0xF4C DUP3 PUSH2 0xF0D JUMP JUMPDEST PUSH1 0x20 DUP3 ADD SWAP1 POP SWAP2 SWAP1 POP JUMP JUMPDEST PUSH0 PUSH1 0x20 DUP3 ADD SWAP1 POP DUP2 DUP2 SUB PUSH0 DUP4 ADD MSTORE PUSH2 0xF6E DUP2 PUSH2 0xF35 JUMP JUMPDEST SWAP1 POP SWAP2 SWAP1 POP JUMP JUMPDEST PUSH32 0x50726F6669747320616C72656164792064697374726962757465640000000000 PUSH0 DUP3 ADD MSTORE POP JUMP JUMPDEST PUSH0 PUSH2 0xFA9 PUSH1 0x1B DUP4 PUSH2 0xEFD JUMP JUMPDEST SWAP2 POP PUSH2 0xFB4 DUP3 PUSH2 0xF75 JUMP JUMPDEST PUSH1 0x20 DUP3 ADD SWAP1 POP SWAP2 SWAP1 POP JUMP JUMPDEST PUSH0 PUSH1 0x20 DUP3 ADD SWAP1 POP DUP2 DUP2 SUB PUSH0 DUP4 ADD MSTORE PUSH2 0xFD6 DUP2 PUSH2 0xF9D JUMP JUMPDEST SWAP1 POP SWAP2 SWAP1 POP JUMP JUMPDEST PUSH2 0xFE6 DUP2 PUSH2 0xD3B JUMP JUMPDEST DUP2 EQ PUSH2 0xFF0 JUMPI PUSH0 DUP1 REVERT JUMPDEST POP JUMP JUMPDEST PUSH0 DUP2 MLOAD SWAP1 POP PUSH2 0x1001 DUP2 PUSH2 0xFDD JUMP JUMPDEST SWAP3 SWAP2 POP POP JUMP JUMPDEST PUSH0 PUSH1 0x20 DUP3 DUP5 SUB SLT ISZERO PUSH2 0x101C JUMPI PUSH2 0x101B PUSH2 0xDC4 JUMP JUMPDEST JUMPDEST PUSH0 PUSH2 0x1029 DUP5 DUP3 DUP6 ADD PUSH2 0xFF3 JUMP JUMPDEST SWAP2 POP POP SWAP3 SWAP2 POP POP JUMP JUMPDEST PUSH32 0x4E487B7100000000000000000000000000000000000000000000000000000000 PUSH0 MSTORE PUSH1 0x11 PUSH1 0x4 MSTORE PUSH1 0x24 PUSH0 REVERT JUMPDEST PUSH0 PUSH2 0x1069 DUP3 PUSH2 0xD3B JUMP JUMPDEST SWAP2 POP PUSH2 0x1074 DUP4 PUSH2 0xD3B JUMP JUMPDEST SWAP3 POP DUP3 DUP3 SUB SWAP1 POP DUP2 DUP2 GT ISZERO PUSH2 0x108C JUMPI PUSH2 0x108B PUSH2 0x1032 JUMP JUMPDEST JUMPDEST SWAP3 SWAP2 POP POP JUMP JUMPDEST PUSH32 0x4E487B7100000000000000000000000000000000000000000000000000000000 PUSH0 MSTORE PUSH1 0x32 PUSH1 0x4 MSTORE PUSH1 0x24 PUSH0 REVERT JUMPDEST PUSH0 PUSH2 0x10C9 DUP3 PUSH2 0xD3B JUMP JUMPDEST SWAP2 POP PUSH2 0x10D4 DUP4 PUSH2 0xD3B JUMP JUMPDEST SWAP3 POP DUP3 DUP3 MUL PUSH2 0x10E2 DUP2 PUSH2 0xD3B JUMP JUMPDEST SWAP2 POP DUP3 DUP3 DIV DUP5 EQ DUP4 ISZERO OR PUSH2 0x10F9 JUMPI PUSH2 0x10F8 PUSH2 0x1032 JUMP JUMPDEST JUMPDEST POP SWAP3 SWAP2 POP POP JUMP JUMPDEST PUSH32 0x4E487B7100000000000000000000000000000000000000000000000000000000 PUSH0 MSTORE PUSH1 0x12 PUSH1 0x4 MSTORE PUSH1 0x24 PUSH0 REVERT JUMPDEST PUSH0 PUSH2 0x1137 DUP3 PUSH2 0xD3B JUMP JUMPDEST SWAP2 POP PUSH2 0x1142 DUP4 PUSH2 0xD3B JUMP JUMPDEST SWAP3 POP DUP3 PUSH2 0x1152 JUMPI PUSH2 0x1151 PUSH2 0x1100 JUMP JUMPDEST JUMPDEST DUP3 DUP3 DIV SWAP1 POP SWAP3 SWAP2 POP POP JUMP JUMPDEST PUSH0 PUSH2 0x1167 DUP3 PUSH2 0xD3B JUMP JUMPDEST SWAP2 POP PUSH2 0x1172 DUP4 PUSH2 0xD3B JUMP JUMPDEST SWAP3 POP DUP3 DUP3 ADD SWAP1 POP DUP1 DUP3 GT ISZERO PUSH2 0x118A JUMPI PUSH2 0x1189 PUSH2 0x1032 JUMP JUMPDEST JUMPDEST SWAP3 SWAP2 POP POP JUMP JUMPDEST PUSH32 0x50726F66697473206E6F74206469737472696275746564207965740000000000 PUSH0 DUP3 ADD MSTORE POP JUMP JUMPDEST PUSH0 PUSH2 0x11C4 PUSH1 0x1B DUP4 PUSH2 0xEFD JUMP JUMPDEST SWAP2 POP PUSH2 0x11CF DUP3 PUSH2 0x1190 JUMP JUMPDEST PUSH1 0x20 DUP3 ADD SWAP1 POP SWAP2 SWAP1 POP JUMP JUMPDEST PUSH0 PUSH1 0x20 DUP3 ADD SWAP1 POP DUP2 DUP2 SUB PUSH0 DUP4 ADD MSTORE PUSH2 0x11F1 DUP2 PUSH2 0x11B8 JUMP JUMPDEST SWAP1 POP SWAP2 SWAP1 POP JUMP JUMPDEST PUSH32 0x4E6F20736861726520746F20636C61696D000000000000000000000000000000 PUSH0 DUP3 ADD MSTORE POP JUMP JUMPDEST PUSH0 PUSH2 0x122C PUSH1 0x11 DUP4 PUSH2 0xEFD JUMP JUMPDEST SWAP2 POP PUSH2 0x1237 DUP3 PUSH2 0x11F8 JUMP JUMPDEST PUSH1 0x20 DUP3 ADD SWAP1 POP SWAP2 SWAP1 POP JUMP JUMPDEST PUSH0 PUSH1 0x20 DUP3 ADD SWAP1 POP DUP2 DUP2 SUB PUSH0 DUP4 ADD MSTORE PUSH2 0x1259 DUP2 PUSH2 0x1220 JUMP JUMPDEST SWAP1 POP SWAP2 SWAP1 POP JUMP JUMPDEST PUSH0 PUSH1 0x40 DUP3 ADD SWAP1 POP PUSH2 0x1273 PUSH0 DUP4 ADD DUP6 PUSH2 0xD9C JUMP JUMPDEST PUSH2 0x1280 PUSH1 0x20 DUP4 ADD DUP5 PUSH2 0xD44 JUMP JUMPDEST SWAP4 SWAP3 POP POP POP JUMP JUMPDEST PUSH2 0x1290 DUP2 PUSH2 0xECA JUMP JUMPDEST DUP2 EQ PUSH2 0x129A JUMPI PUSH0 DUP1 REVERT JUMPDEST POP JUMP JUMPDEST PUSH0 DUP2 MLOAD SWAP1 POP PUSH2 0x12AB DUP2 PUSH2 0x1287 JUMP JUMPDEST SWAP3 SWAP2 POP POP JUMP JUMPDEST PUSH0 PUSH1 0x20 DUP3 DUP5 SUB SLT ISZERO PUSH2 0x12C6 JUMPI PUSH2 0x12C5 PUSH2 0xDC4 JUMP JUMPDEST JUMPDEST PUSH0 PUSH2 0x12D3 DUP5 DUP3 DUP6 ADD PUSH2 0x129D JUMP JUMPDEST SWAP2 POP POP SWAP3 SWAP2 POP POP JUMP JUMPDEST PUSH32 0x5472616E73666572206661696C65640000000000000000000000000000000000 PUSH0 DUP3 ADD MSTORE POP JUMP JUMPDEST PUSH0 PUSH2 0x1310 PUSH1 0xF DUP4 PUSH2 0xEFD JUMP JUMPDEST SWAP2 POP PUSH2 0x131B DUP3 PUSH2 0x12DC JUMP JUMPDEST PUSH1 0x20 DUP3 ADD SWAP1 POP SWAP2 SWAP1 POP JUMP JUMPDEST PUSH0 PUSH1 0x20 DUP3 ADD SWAP1 POP DUP2 DUP2 SUB PUSH0 DUP4 ADD MSTORE PUSH2 0x133D DUP2 PUSH2 0x1304 JUMP JUMPDEST SWAP1 POP SWAP2 SWAP1 POP JUMP JUMPDEST PUSH32 0x4E487B7100000000000000000000000000000000000000000000000000000000 PUSH0 MSTORE PUSH1 0x41 PUSH1 0x4 MSTORE PUSH1 0x24 PUSH0 REVERT JUMPDEST PUSH0 PUSH2 0x137B DUP3 PUSH2 0xD3B JUMP JUMPDEST SWAP2 POP PUSH32 0xFFFFFFFFFFFFFFFFFFFFFFFFFFFFFFFFFFFFFFFFFFFFFFFFFFFFFFFFFFFFFFFF DUP3 SUB PUSH2 0x13AD JUMPI PUSH2 0x13AC PUSH2 0x1032 JUMP JUMPDEST JUMPDEST PUSH1 0x1 DUP3 ADD SWAP1 POP SWAP2 SWAP1 POP JUMP INVALID LOG2 PUSH5 0x6970667358 0x22 SLT KECCAK256 JUMPDEST KECCAK256 DUP12 PUSH23 0x196E09711391E58CB9B33C8388FA8B2E7C92E115214F2D MLOAD PUSH17 0xF4386564736F6C634300081A0033000000 "
				},
				"gasEstimates": {
					"creation": {
						"codeDepositCost": "1020400",
						"executionCost": "infinite",
						"totalCost": "infinite"
					},
					"external": {
						"claimShare()": "infinite",
						"coveragePeriodEnd()": "2470",
						"distributeProfits()": "infinite",
						"getMemberShare(address)": "2852",
						"getTotalUndistributedShares()": "2476",
						"insurancePool()": "infinite",
						"memberShares(address)": "2868",
						"owner()": "2626",
						"premiumToken()": "infinite",
						"profitDistributed()": "2488",
						"renounceOwnership()": "infinite",
						"totalShares()": "2448",
						"transferOwnership(address)": "infinite"
					},
					"internal": {
						"getMembers()": "infinite"
					}
				},
				"methodIdentifiers": {
					"claimShare()": "666da64f",
					"coveragePeriodEnd()": "62bcad7b",
					"distributeProfits()": "1fee5ccd",
					"getMemberShare(address)": "a01a22b9",
					"getTotalUndistributedShares()": "d19197c1",
					"insurancePool()": "ab2adc00",
					"memberShares(address)": "da494954",
					"owner()": "8da5cb5b",
					"premiumToken()": "b180783d",
					"profitDistributed()": "b511b30c",
					"renounceOwnership()": "715018a6",
					"totalShares()": "3a98ef39",
					"transferOwnership(address)": "f2fde38b"
				}
			},
			"storageLayout": {
				"storage": [
					{
						"astId": 8,
						"contract": "contracts/ProfitSharing.sol:ProfitSharing",
						"label": "_owner",
						"offset": 0,
						"slot": "0",
						"type": "t_address"
					},
					{
						"astId": 429,
						"contract": "contracts/ProfitSharing.sol:ProfitSharing",
						"label": "insurancePool",
						"offset": 0,
						"slot": "1",
						"type": "t_contract(InsurancePool)419"
					},
					{
						"astId": 432,
						"contract": "contracts/ProfitSharing.sol:ProfitSharing",
						"label": "premiumToken",
						"offset": 0,
						"slot": "2",
						"type": "t_contract(IERC20)225"
					},
					{
						"astId": 434,
						"contract": "contracts/ProfitSharing.sol:ProfitSharing",
						"label": "coveragePeriodEnd",
						"offset": 0,
						"slot": "3",
						"type": "t_uint256"
					},
					{
						"astId": 436,
						"contract": "contracts/ProfitSharing.sol:ProfitSharing",
						"label": "profitDistributed",
						"offset": 0,
						"slot": "4",
						"type": "t_bool"
					},
					{
						"astId": 440,
						"contract": "contracts/ProfitSharing.sol:ProfitSharing",
						"label": "memberShares",
						"offset": 0,
						"slot": "5",
						"type": "t_mapping(t_address,t_uint256)"
					},
					{
						"astId": 442,
						"contract": "contracts/ProfitSharing.sol:ProfitSharing",
						"label": "totalShares",
						"offset": 0,
						"slot": "6",
						"type": "t_uint256"
					}
				],
				"types": {
					"t_address": {
						"encoding": "inplace",
						"label": "address",
						"numberOfBytes": "20"
					},
					"t_bool": {
						"encoding": "inplace",
						"label": "bool",
						"numberOfBytes": "1"
					},
					"t_contract(IERC20)225": {
						"encoding": "inplace",
						"label": "contract IERC20",
						"numberOfBytes": "20"
					},
					"t_contract(InsurancePool)419": {
						"encoding": "inplace",
						"label": "contract InsurancePool",
						"numberOfBytes": "20"
					},
					"t_mapping(t_address,t_uint256)": {
						"encoding": "mapping",
						"key": "t_address",
						"label": "mapping(address => uint256)",
						"numberOfBytes": "32",
						"value": "t_uint256"
					},
					"t_uint256": {
						"encoding": "inplace",
						"label": "uint256",
						"numberOfBytes": "32"
					}
				}
			},
			"userdoc": {
				"kind": "user",
				"methods": {},
				"version": 1
			}
		}
	}
}