{
	"data": {
		"bytecode": {
			"linkReferences": {},
			"object": "608060405234801561000f575f80fd5b50604051610ef3380380610ef383398181016040528101906100319190610218565b805f73ffffffffffffffffffffffffffffffffffffffff168173ffffffffffffffffffffffffffffffffffffffff16036100a2575f6040517f1e4fbdf70000000000000000000000000000000000000000000000000000000081526004016100999190610265565b60405180910390fd5b6100b1816100f960201b60201c565b508160015f6101000a81548173ffffffffffffffffffffffffffffffffffffffff021916908373ffffffffffffffffffffffffffffffffffffffff160217905550505061027e565b5f805f9054906101000a900473ffffffffffffffffffffffffffffffffffffffff169050815f806101000a81548173ffffffffffffffffffffffffffffffffffffffff021916908373ffffffffffffffffffffffffffffffffffffffff1602179055508173ffffffffffffffffffffffffffffffffffffffff168173ffffffffffffffffffffffffffffffffffffffff167f8be0079c531659141344cd1fd0a4f28419497f9722a3daafe3b4186f6b6457e060405160405180910390a35050565b5f80fd5b5f73ffffffffffffffffffffffffffffffffffffffff82169050919050565b5f6101e7826101be565b9050919050565b6101f7816101dd565b8114610201575f80fd5b50565b5f81519050610212816101ee565b92915050565b5f806040838503121561022e5761022d6101ba565b5b5f61023b85828601610204565b925050602061024c85828601610204565b9150509250929050565b61025f816101dd565b82525050565b5f6020820190506102785f830184610256565b92915050565b610c688061028b5f395ff3fe608060405234801561000f575f80fd5b50600436106100b2575f3560e01c80636ffc215c1161006f5780636ffc215c14610178578063715018a6146101945780638da5cb5b1461019e578063a230c524146101bc578063b180783d146101ec578063f2fde38b1461020a576100b2565b8063117de2fd146100b657806311aee380146100d2578063293e571c146100f05780634089b170146101205780634364b26e1461013e5780635bda15841461015a575b5f80fd5b6100d060048036038101906100cb91906108d7565b610226565b005b6100da610325565b6040516100e79190610924565b60405180910390f35b61010a6004803603810190610105919061093d565b61039f565b6040516101179190610924565b60405180910390f35b6101286103b4565b6040516101359190610924565b60405180910390f35b61015860048036038101906101539190610968565b6103ba565b005b6101626104c7565b60405161016f9190610924565b60405180910390f35b610192600480360381019061018d91906108d7565b6104cd565b005b61019c6105cc565b005b6101a66105df565b6040516101b391906109a2565b60405180910390f35b6101d660048036038101906101d1919061093d565b610606565b6040516101e391906109d5565b60405180910390f35b6101f461064e565b6040516102019190610a49565b60405180910390f35b610224600480360381019061021f919061093d565b610673565b005b61022e6106f7565b60015f9054906101000a900473ffffffffffffffffffffffffffffffffffffffff1673ffffffffffffffffffffffffffffffffffffffff1663a9059cbb83836040518363ffffffff1660e01b815260040161028a929190610a62565b6020604051808303815f875af11580156102a6573d5f803e3d5ffd5b505050506040513d601f19601f820116820180604052508101906102ca9190610ab3565b610309576040517f08c379a000000000000000000000000000000000000000000000000000000000815260040161030090610b38565b60405180910390fd5b8060045f82825461031a9190610b83565b925050819055505050565b5f805f90505f5b600354811015610397575f60025f8373ffffffffffffffffffffffffffffffffffffffff1673ffffffffffffffffffffffffffffffffffffffff1681526020019081526020015f2054111561038a57818061038690610bb6565b9250505b808060010191505061032c565b508091505090565b6002602052805f5260405f205f915090505481565b60045481565b60015f9054906101000a900473ffffffffffffffffffffffffffffffffffffffff1673ffffffffffffffffffffffffffffffffffffffff166323b872dd3330846040518463ffffffff1660e01b815260040161041893929190610bfd565b6020604051808303815f875af1158015610434573d5f803e3d5ffd5b505050506040513d601f19601f820116820180604052508101906104589190610ab3565b508060025f3373ffffffffffffffffffffffffffffffffffffffff1673ffffffffffffffffffffffffffffffffffffffff1681526020019081526020015f205f8282546104a59190610b83565b925050819055508060035f8282546104bd9190610b83565b9250508190555050565b60035481565b6104d56106f7565b60015f9054906101000a900473ffffffffffffffffffffffffffffffffffffffff1673ffffffffffffffffffffffffffffffffffffffff1663a9059cbb83836040518363ffffffff1660e01b8152600401610531929190610a62565b6020604051808303815f875af115801561054d573d5f803e3d5ffd5b505050506040513d601f19601f820116820180604052508101906105719190610ab3565b6105b0576040517f08c379a00000000000000000000000000000000000000000000000000000000081526004016105a790610b38565b60405180910390fd5b8060045f8282546105c19190610b83565b925050819055505050565b6105d46106f7565b6105dd5f61077e565b565b5f805f9054906101000a900473ffffffffffffffffffffffffffffffffffffffff16905090565b5f8060025f8473ffffffffffffffffffffffffffffffffffffffff1673ffffffffffffffffffffffffffffffffffffffff1681526020019081526020015f2054119050919050565b60015f9054906101000a900473ffffffffffffffffffffffffffffffffffffffff1681565b61067b6106f7565b5f73ffffffffffffffffffffffffffffffffffffffff168173ffffffffffffffffffffffffffffffffffffffff16036106eb575f6040517f1e4fbdf70000000000000000000000000000000000000000000000000000000081526004016106e291906109a2565b60405180910390fd5b6106f48161077e565b50565b6106ff61083f565b73ffffffffffffffffffffffffffffffffffffffff1661071d6105df565b73ffffffffffffffffffffffffffffffffffffffff161461077c5761074061083f565b6040517f118cdaa700000000000000000000000000000000000000000000000000000000815260040161077391906109a2565b60405180910390fd5b565b5f805f9054906101000a900473ffffffffffffffffffffffffffffffffffffffff169050815f806101000a81548173ffffffffffffffffffffffffffffffffffffffff021916908373ffffffffffffffffffffffffffffffffffffffff1602179055508173ffffffffffffffffffffffffffffffffffffffff168173ffffffffffffffffffffffffffffffffffffffff167f8be0079c531659141344cd1fd0a4f28419497f9722a3daafe3b4186f6b6457e060405160405180910390a35050565b5f33905090565b5f80fd5b5f73ffffffffffffffffffffffffffffffffffffffff82169050919050565b5f6108738261084a565b9050919050565b61088381610869565b811461088d575f80fd5b50565b5f8135905061089e8161087a565b92915050565b5f819050919050565b6108b6816108a4565b81146108c0575f80fd5b50565b5f813590506108d1816108ad565b92915050565b5f80604083850312156108ed576108ec610846565b5b5f6108fa85828601610890565b925050602061090b858286016108c3565b9150509250929050565b61091e816108a4565b82525050565b5f6020820190506109375f830184610915565b92915050565b5f6020828403121561095257610951610846565b5b5f61095f84828501610890565b91505092915050565b5f6020828403121561097d5761097c610846565b5b5f61098a848285016108c3565b91505092915050565b61099c81610869565b82525050565b5f6020820190506109b55f830184610993565b92915050565b5f8115159050919050565b6109cf816109bb565b82525050565b5f6020820190506109e85f8301846109c6565b92915050565b5f819050919050565b5f610a11610a0c610a078461084a565b6109ee565b61084a565b9050919050565b5f610a22826109f7565b9050919050565b5f610a3382610a18565b9050919050565b610a4381610a29565b82525050565b5f602082019050610a5c5f830184610a3a565b92915050565b5f604082019050610a755f830185610993565b610a826020830184610915565b9392505050565b610a92816109bb565b8114610a9c575f80fd5b50565b5f81519050610aad81610a89565b92915050565b5f60208284031215610ac857610ac7610846565b5b5f610ad584828501610a9f565b91505092915050565b5f82825260208201905092915050565b7f5472616e73666572206661696c656400000000000000000000000000000000005f82015250565b5f610b22600f83610ade565b9150610b2d82610aee565b602082019050919050565b5f6020820190508181035f830152610b4f81610b16565b9050919050565b7f4e487b71000000000000000000000000000000000000000000000000000000005f52601160045260245ffd5b5f610b8d826108a4565b9150610b98836108a4565b9250828201905080821115610bb057610baf610b56565b5b92915050565b5f610bc0826108a4565b91507fffffffffffffffffffffffffffffffffffffffffffffffffffffffffffffffff8203610bf257610bf1610b56565b5b600182019050919050565b5f606082019050610c105f830186610993565b610c1d6020830185610993565b610c2a6040830184610915565b94935050505056fea2646970667358221220d1b7e43f4b39523f8c0781845820a42309db8d3613e804dab576b10e6c60eddc64736f6c634300081a0033",
			"opcodes": "PUSH1 0x80 PUSH1 0x40 MSTORE CALLVALUE DUP1 ISZERO PUSH2 0xF JUMPI PUSH0 DUP1 REVERT JUMPDEST POP PUSH1 0x40 MLOAD PUSH2 0xEF3 CODESIZE SUB DUP1 PUSH2 0xEF3 DUP4 CODECOPY DUP2 DUP2 ADD PUSH1 0x40 MSTORE DUP2 ADD SWAP1 PUSH2 0x31 SWAP2 SWAP1 PUSH2 0x218 JUMP JUMPDEST DUP1 PUSH0 PUSH20 0xFFFFFFFFFFFFFFFFFFFFFFFFFFFFFFFFFFFFFFFF AND DUP2 PUSH20 0xFFFFFFFFFFFFFFFFFFFFFFFFFFFFFFFFFFFFFFFF AND SUB PUSH2 0xA2 JUMPI PUSH0 PUSH1 0x40 MLOAD PUSH32 0x1E4FBDF700000000000000000000000000000000000000000000000000000000 DUP2 MSTORE PUSH1 0x4 ADD PUSH2 0x99 SWAP2 SWAP1 PUSH2 0x265 JUMP JUMPDEST PUSH1 0x40 MLOAD DUP1 SWAP2 SUB SWAP1 REVERT JUMPDEST PUSH2 0xB1 DUP2 PUSH2 0xF9 PUSH1 0x20 SHL PUSH1 0x20 SHR JUMP JUMPDEST POP DUP2 PUSH1 0x1 PUSH0 PUSH2 0x100 EXP DUP2 SLOAD DUP2 PUSH20 0xFFFFFFFFFFFFFFFFFFFFFFFFFFFFFFFFFFFFFFFF MUL NOT AND SWAP1 DUP4 PUSH20 0xFFFFFFFFFFFFFFFFFFFFFFFFFFFFFFFFFFFFFFFF AND MUL OR SWAP1 SSTORE POP POP POP PUSH2 0x27E JUMP JUMPDEST PUSH0 DUP1 PUSH0 SWAP1 SLOAD SWAP1 PUSH2 0x100 EXP SWAP1 DIV PUSH20 0xFFFFFFFFFFFFFFFFFFFFFFFFFFFFFFFFFFFFFFFF AND SWAP1 POP DUP2 PUSH0 DUP1 PUSH2 0x100 EXP DUP2 SLOAD DUP2 PUSH20 0xFFFFFFFFFFFFFFFFFFFFFFFFFFFFFFFFFFFFFFFF MUL NOT AND SWAP1 DUP4 PUSH20 0xFFFFFFFFFFFFFFFFFFFFFFFFFFFFFFFFFFFFFFFF AND MUL OR SWAP1 SSTORE POP DUP2 PUSH20 0xFFFFFFFFFFFFFFFFFFFFFFFFFFFFFFFFFFFFFFFF AND DUP2 PUSH20 0xFFFFFFFFFFFFFFFFFFFFFFFFFFFFFFFFFFFFFFFF AND PUSH32 0x8BE0079C531659141344CD1FD0A4F28419497F9722A3DAAFE3B4186F6B6457E0 PUSH1 0x40 MLOAD PUSH1 0x40 MLOAD DUP1 SWAP2 SUB SWAP1 LOG3 POP POP JUMP JUMPDEST PUSH0 DUP1 REVERT JUMPDEST PUSH0 PUSH20 0xFFFFFFFFFFFFFFFFFFFFFFFFFFFFFFFFFFFFFFFF DUP3 AND SWAP1 POP SWAP2 SWAP1 POP JUMP JUMPDEST PUSH0 PUSH2 0x1E7 DUP3 PUSH2 0x1BE JUMP JUMPDEST SWAP1 POP SWAP2 SWAP1 POP JUMP JUMPDEST PUSH2 0x1F7 DUP2 PUSH2 0x1DD JUMP JUMPDEST DUP2 EQ PUSH2 0x201 JUMPI PUSH0 DUP1 REVERT JUMPDEST POP JUMP JUMPDEST PUSH0 DUP2 MLOAD SWAP1 POP PUSH2 0x212 DUP2 PUSH2 0x1EE JUMP JUMPDEST SWAP3 SWAP2 POP POP JUMP JUMPDEST PUSH0 DUP1 PUSH1 0x40 DUP4 DUP6 SUB SLT ISZERO PUSH2 0x22E JUMPI PUSH2 0x22D PUSH2 0x1BA JUMP JUMPDEST JUMPDEST PUSH0 PUSH2 0x23B DUP6 DUP3 DUP7 ADD PUSH2 0x204 JUMP JUMPDEST SWAP3 POP POP PUSH1 0x20 PUSH2 0x24C DUP6 DUP3 DUP7 ADD PUSH2 0x204 JUMP JUMPDEST SWAP2 POP POP SWAP3 POP SWAP3 SWAP1 POP JUMP JUMPDEST PUSH2 0x25F DUP2 PUSH2 0x1DD JUMP JUMPDEST DUP3 MSTORE POP POP JUMP JUMPDEST PUSH0 PUSH1 0x20 DUP3 ADD SWAP1 POP PUSH2 0x278 PUSH0 DUP4 ADD DUP5 PUSH2 0x256 JUMP JUMPDEST SWAP3 SWAP2 POP POP JUMP JUMPDEST PUSH2 0xC68 DUP1 PUSH2 0x28B PUSH0 CODECOPY PUSH0 RETURN INVALID PUSH1 0x80 PUSH1 0x40 MSTORE CALLVALUE DUP1 ISZERO PUSH2 0xF JUMPI PUSH0 DUP1 REVERT JUMPDEST POP PUSH1 0x4 CALLDATASIZE LT PUSH2 0xB2 JUMPI PUSH0 CALLDATALOAD PUSH1 0xE0 SHR DUP1 PUSH4 0x6FFC215C GT PUSH2 0x6F JUMPI DUP1 PUSH4 0x6FFC215C EQ PUSH2 0x178 JUMPI DUP1 PUSH4 0x715018A6 EQ PUSH2 0x194 JUMPI DUP1 PUSH4 0x8DA5CB5B EQ PUSH2 0x19E JUMPI DUP1 PUSH4 0xA230C524 EQ PUSH2 0x1BC JUMPI DUP1 PUSH4 0xB180783D EQ PUSH2 0x1EC JUMPI DUP1 PUSH4 0xF2FDE38B EQ PUSH2 0x20A JUMPI PUSH2 0xB2 JUMP JUMPDEST DUP1 PUSH4 0x117DE2FD EQ PUSH2 0xB6 JUMPI DUP1 PUSH4 0x11AEE380 EQ PUSH2 0xD2 JUMPI DUP1 PUSH4 0x293E571C EQ PUSH2 0xF0 JUMPI DUP1 PUSH4 0x4089B170 EQ PUSH2 0x120 JUMPI DUP1 PUSH4 0x4364B26E EQ PUSH2 0x13E JUMPI DUP1 PUSH4 0x5BDA1584 EQ PUSH2 0x15A JUMPI JUMPDEST PUSH0 DUP1 REVERT JUMPDEST PUSH2 0xD0 PUSH1 0x4 DUP1 CALLDATASIZE SUB DUP2 ADD SWAP1 PUSH2 0xCB SWAP2 SWAP1 PUSH2 0x8D7 JUMP JUMPDEST PUSH2 0x226 JUMP JUMPDEST STOP JUMPDEST PUSH2 0xDA PUSH2 0x325 JUMP JUMPDEST PUSH1 0x40 MLOAD PUSH2 0xE7 SWAP2 SWAP1 PUSH2 0x924 JUMP JUMPDEST PUSH1 0x40 MLOAD DUP1 SWAP2 SUB SWAP1 RETURN JUMPDEST PUSH2 0x10A PUSH1 0x4 DUP1 CALLDATASIZE SUB DUP2 ADD SWAP1 PUSH2 0x105 SWAP2 SWAP1 PUSH2 0x93D JUMP JUMPDEST PUSH2 0x39F JUMP JUMPDEST PUSH1 0x40 MLOAD PUSH2 0x117 SWAP2 SWAP1 PUSH2 0x924 JUMP JUMPDEST PUSH1 0x40 MLOAD DUP1 SWAP2 SUB SWAP1 RETURN JUMPDEST PUSH2 0x128 PUSH2 0x3B4 JUMP JUMPDEST PUSH1 0x40 MLOAD PUSH2 0x135 SWAP2 SWAP1 PUSH2 0x924 JUMP JUMPDEST PUSH1 0x40 MLOAD DUP1 SWAP2 SUB SWAP1 RETURN JUMPDEST PUSH2 0x158 PUSH1 0x4 DUP1 CALLDATASIZE SUB DUP2 ADD SWAP1 PUSH2 0x153 SWAP2 SWAP1 PUSH2 0x968 JUMP JUMPDEST PUSH2 0x3BA JUMP JUMPDEST STOP JUMPDEST PUSH2 0x162 PUSH2 0x4C7 JUMP JUMPDEST PUSH1 0x40 MLOAD PUSH2 0x16F SWAP2 SWAP1 PUSH2 0x924 JUMP JUMPDEST PUSH1 0x40 MLOAD DUP1 SWAP2 SUB SWAP1 RETURN JUMPDEST PUSH2 0x192 PUSH1 0x4 DUP1 CALLDATASIZE SUB DUP2 ADD SWAP1 PUSH2 0x18D SWAP2 SWAP1 PUSH2 0x8D7 JUMP JUMPDEST PUSH2 0x4CD JUMP JUMPDEST STOP JUMPDEST PUSH2 0x19C PUSH2 0x5CC JUMP JUMPDEST STOP JUMPDEST PUSH2 0x1A6 PUSH2 0x5DF JUMP JUMPDEST PUSH1 0x40 MLOAD PUSH2 0x1B3 SWAP2 SWAP1 PUSH2 0x9A2 JUMP JUMPDEST PUSH1 0x40 MLOAD DUP1 SWAP2 SUB SWAP1 RETURN JUMPDEST PUSH2 0x1D6 PUSH1 0x4 DUP1 CALLDATASIZE SUB DUP2 ADD SWAP1 PUSH2 0x1D1 SWAP2 SWAP1 PUSH2 0x93D JUMP JUMPDEST PUSH2 0x606 JUMP JUMPDEST PUSH1 0x40 MLOAD PUSH2 0x1E3 SWAP2 SWAP1 PUSH2 0x9D5 JUMP JUMPDEST PUSH1 0x40 MLOAD DUP1 SWAP2 SUB SWAP1 RETURN JUMPDEST PUSH2 0x1F4 PUSH2 0x64E JUMP JUMPDEST PUSH1 0x40 MLOAD PUSH2 0x201 SWAP2 SWAP1 PUSH2 0xA49 JUMP JUMPDEST PUSH1 0x40 MLOAD DUP1 SWAP2 SUB SWAP1 RETURN JUMPDEST PUSH2 0x224 PUSH1 0x4 DUP1 CALLDATASIZE SUB DUP2 ADD SWAP1 PUSH2 0x21F SWAP2 SWAP1 PUSH2 0x93D JUMP JUMPDEST PUSH2 0x673 JUMP JUMPDEST STOP JUMPDEST PUSH2 0x22E PUSH2 0x6F7 JUMP JUMPDEST PUSH1 0x1 PUSH0 SWAP1 SLOAD SWAP1 PUSH2 0x100 EXP SWAP1 DIV PUSH20 0xFFFFFFFFFFFFFFFFFFFFFFFFFFFFFFFFFFFFFFFF AND PUSH20 0xFFFFFFFFFFFFFFFFFFFFFFFFFFFFFFFFFFFFFFFF AND PUSH4 0xA9059CBB DUP4 DUP4 PUSH1 0x40 MLOAD DUP4 PUSH4 0xFFFFFFFF AND PUSH1 0xE0 SHL DUP2 MSTORE PUSH1 0x4 ADD PUSH2 0x28A SWAP3 SWAP2 SWAP1 PUSH2 0xA62 JUMP JUMPDEST PUSH1 0x20 PUSH1 0x40 MLOAD DUP1 DUP4 SUB DUP2 PUSH0 DUP8 GAS CALL ISZERO DUP1 ISZERO PUSH2 0x2A6 JUMPI RETURNDATASIZE PUSH0 DUP1 RETURNDATACOPY RETURNDATASIZE PUSH0 REVERT JUMPDEST POP POP POP POP PUSH1 0x40 MLOAD RETURNDATASIZE PUSH1 0x1F NOT PUSH1 0x1F DUP3 ADD AND DUP3 ADD DUP1 PUSH1 0x40 MSTORE POP DUP2 ADD SWAP1 PUSH2 0x2CA SWAP2 SWAP1 PUSH2 0xAB3 JUMP JUMPDEST PUSH2 0x309 JUMPI PUSH1 0x40 MLOAD PUSH32 0x8C379A000000000000000000000000000000000000000000000000000000000 DUP2 MSTORE PUSH1 0x4 ADD PUSH2 0x300 SWAP1 PUSH2 0xB38 JUMP JUMPDEST PUSH1 0x40 MLOAD DUP1 SWAP2 SUB SWAP1 REVERT JUMPDEST DUP1 PUSH1 0x4 PUSH0 DUP3 DUP3 SLOAD PUSH2 0x31A SWAP2 SWAP1 PUSH2 0xB83 JUMP JUMPDEST SWAP3 POP POP DUP2 SWAP1 SSTORE POP POP POP JUMP JUMPDEST PUSH0 DUP1 PUSH0 SWAP1 POP PUSH0 JUMPDEST PUSH1 0x3 SLOAD DUP2 LT ISZERO PUSH2 0x397 JUMPI PUSH0 PUSH1 0x2 PUSH0 DUP4 PUSH20 0xFFFFFFFFFFFFFFFFFFFFFFFFFFFFFFFFFFFFFFFF AND PUSH20 0xFFFFFFFFFFFFFFFFFFFFFFFFFFFFFFFFFFFFFFFF AND DUP2 MSTORE PUSH1 0x20 ADD SWAP1 DUP2 MSTORE PUSH1 0x20 ADD PUSH0 KECCAK256 SLOAD GT ISZERO PUSH2 0x38A JUMPI DUP2 DUP1 PUSH2 0x386 SWAP1 PUSH2 0xBB6 JUMP JUMPDEST SWAP3 POP POP JUMPDEST DUP1 DUP1 PUSH1 0x1 ADD SWAP2 POP POP PUSH2 0x32C JUMP JUMPDEST POP DUP1 SWAP2 POP POP SWAP1 JUMP JUMPDEST PUSH1 0x2 PUSH1 0x20 MSTORE DUP1 PUSH0 MSTORE PUSH1 0x40 PUSH0 KECCAK256 PUSH0 SWAP2 POP SWAP1 POP SLOAD DUP2 JUMP JUMPDEST PUSH1 0x4 SLOAD DUP2 JUMP JUMPDEST PUSH1 0x1 PUSH0 SWAP1 SLOAD SWAP1 PUSH2 0x100 EXP SWAP1 DIV PUSH20 0xFFFFFFFFFFFFFFFFFFFFFFFFFFFFFFFFFFFFFFFF AND PUSH20 0xFFFFFFFFFFFFFFFFFFFFFFFFFFFFFFFFFFFFFFFF AND PUSH4 0x23B872DD CALLER ADDRESS DUP5 PUSH1 0x40 MLOAD DUP5 PUSH4 0xFFFFFFFF AND PUSH1 0xE0 SHL DUP2 MSTORE PUSH1 0x4 ADD PUSH2 0x418 SWAP4 SWAP3 SWAP2 SWAP1 PUSH2 0xBFD JUMP JUMPDEST PUSH1 0x20 PUSH1 0x40 MLOAD DUP1 DUP4 SUB DUP2 PUSH0 DUP8 GAS CALL ISZERO DUP1 ISZERO PUSH2 0x434 JUMPI RETURNDATASIZE PUSH0 DUP1 RETURNDATACOPY RETURNDATASIZE PUSH0 REVERT JUMPDEST POP POP POP POP PUSH1 0x40 MLOAD RETURNDATASIZE PUSH1 0x1F NOT PUSH1 0x1F DUP3 ADD AND DUP3 ADD DUP1 PUSH1 0x40 MSTORE POP DUP2 ADD SWAP1 PUSH2 0x458 SWAP2 SWAP1 PUSH2 0xAB3 JUMP JUMPDEST POP DUP1 PUSH1 0x2 PUSH0 CALLER PUSH20 0xFFFFFFFFFFFFFFFFFFFFFFFFFFFFFFFFFFFFFFFF AND PUSH20 0xFFFFFFFFFFFFFFFFFFFFFFFFFFFFFFFFFFFFFFFF AND DUP2 MSTORE PUSH1 0x20 ADD SWAP1 DUP2 MSTORE PUSH1 0x20 ADD PUSH0 KECCAK256 PUSH0 DUP3 DUP3 SLOAD PUSH2 0x4A5 SWAP2 SWAP1 PUSH2 0xB83 JUMP JUMPDEST SWAP3 POP POP DUP2 SWAP1 SSTORE POP DUP1 PUSH1 0x3 PUSH0 DUP3 DUP3 SLOAD PUSH2 0x4BD SWAP2 SWAP1 PUSH2 0xB83 JUMP JUMPDEST SWAP3 POP POP DUP2 SWAP1 SSTORE POP POP JUMP JUMPDEST PUSH1 0x3 SLOAD DUP2 JUMP JUMPDEST PUSH2 0x4D5 PUSH2 0x6F7 JUMP JUMPDEST PUSH1 0x1 PUSH0 SWAP1 SLOAD SWAP1 PUSH2 0x100 EXP SWAP1 DIV PUSH20 0xFFFFFFFFFFFFFFFFFFFFFFFFFFFFFFFFFFFFFFFF AND PUSH20 0xFFFFFFFFFFFFFFFFFFFFFFFFFFFFFFFFFFFFFFFF AND PUSH4 0xA9059CBB DUP4 DUP4 PUSH1 0x40 MLOAD DUP4 PUSH4 0xFFFFFFFF AND PUSH1 0xE0 SHL DUP2 MSTORE PUSH1 0x4 ADD PUSH2 0x531 SWAP3 SWAP2 SWAP1 PUSH2 0xA62 JUMP JUMPDEST PUSH1 0x20 PUSH1 0x40 MLOAD DUP1 DUP4 SUB DUP2 PUSH0 DUP8 GAS CALL ISZERO DUP1 ISZERO PUSH2 0x54D JUMPI RETURNDATASIZE PUSH0 DUP1 RETURNDATACOPY RETURNDATASIZE PUSH0 REVERT JUMPDEST POP POP POP POP PUSH1 0x40 MLOAD RETURNDATASIZE PUSH1 0x1F NOT PUSH1 0x1F DUP3 ADD AND DUP3 ADD DUP1 PUSH1 0x40 MSTORE POP DUP2 ADD SWAP1 PUSH2 0x571 SWAP2 SWAP1 PUSH2 0xAB3 JUMP JUMPDEST PUSH2 0x5B0 JUMPI PUSH1 0x40 MLOAD PUSH32 0x8C379A000000000000000000000000000000000000000000000000000000000 DUP2 MSTORE PUSH1 0x4 ADD PUSH2 0x5A7 SWAP1 PUSH2 0xB38 JUMP JUMPDEST PUSH1 0x40 MLOAD DUP1 SWAP2 SUB SWAP1 REVERT JUMPDEST DUP1 PUSH1 0x4 PUSH0 DUP3 DUP3 SLOAD PUSH2 0x5C1 SWAP2 SWAP1 PUSH2 0xB83 JUMP JUMPDEST SWAP3 POP POP DUP2 SWAP1 SSTORE POP POP POP JUMP JUMPDEST PUSH2 0x5D4 PUSH2 0x6F7 JUMP JUMPDEST PUSH2 0x5DD PUSH0 PUSH2 0x77E JUMP JUMPDEST JUMP JUMPDEST PUSH0 DUP1 PUSH0 SWAP1 SLOAD SWAP1 PUSH2 0x100 EXP SWAP1 DIV PUSH20 0xFFFFFFFFFFFFFFFFFFFFFFFFFFFFFFFFFFFFFFFF AND SWAP1 POP SWAP1 JUMP JUMPDEST PUSH0 DUP1 PUSH1 0x2 PUSH0 DUP5 PUSH20 0xFFFFFFFFFFFFFFFFFFFFFFFFFFFFFFFFFFFFFFFF AND PUSH20 0xFFFFFFFFFFFFFFFFFFFFFFFFFFFFFFFFFFFFFFFF AND DUP2 MSTORE PUSH1 0x20 ADD SWAP1 DUP2 MSTORE PUSH1 0x20 ADD PUSH0 KECCAK256 SLOAD GT SWAP1 POP SWAP2 SWAP1 POP JUMP JUMPDEST PUSH1 0x1 PUSH0 SWAP1 SLOAD SWAP1 PUSH2 0x100 EXP SWAP1 DIV PUSH20 0xFFFFFFFFFFFFFFFFFFFFFFFFFFFFFFFFFFFFFFFF AND DUP2 JUMP JUMPDEST PUSH2 0x67B PUSH2 0x6F7 JUMP JUMPDEST PUSH0 PUSH20 0xFFFFFFFFFFFFFFFFFFFFFFFFFFFFFFFFFFFFFFFF AND DUP2 PUSH20 0xFFFFFFFFFFFFFFFFFFFFFFFFFFFFFFFFFFFFFFFF AND SUB PUSH2 0x6EB JUMPI PUSH0 PUSH1 0x40 MLOAD PUSH32 0x1E4FBDF700000000000000000000000000000000000000000000000000000000 DUP2 MSTORE PUSH1 0x4 ADD PUSH2 0x6E2 SWAP2 SWAP1 PUSH2 0x9A2 JUMP JUMPDEST PUSH1 0x40 MLOAD DUP1 SWAP2 SUB SWAP1 REVERT JUMPDEST PUSH2 0x6F4 DUP2 PUSH2 0x77E JUMP JUMPDEST POP JUMP JUMPDEST PUSH2 0x6FF PUSH2 0x83F JUMP JUMPDEST PUSH20 0xFFFFFFFFFFFFFFFFFFFFFFFFFFFFFFFFFFFFFFFF AND PUSH2 0x71D PUSH2 0x5DF JUMP JUMPDEST PUSH20 0xFFFFFFFFFFFFFFFFFFFFFFFFFFFFFFFFFFFFFFFF AND EQ PUSH2 0x77C JUMPI PUSH2 0x740 PUSH2 0x83F JUMP JUMPDEST PUSH1 0x40 MLOAD PUSH32 0x118CDAA700000000000000000000000000000000000000000000000000000000 DUP2 MSTORE PUSH1 0x4 ADD PUSH2 0x773 SWAP2 SWAP1 PUSH2 0x9A2 JUMP JUMPDEST PUSH1 0x40 MLOAD DUP1 SWAP2 SUB SWAP1 REVERT JUMPDEST JUMP JUMPDEST PUSH0 DUP1 PUSH0 SWAP1 SLOAD SWAP1 PUSH2 0x100 EXP SWAP1 DIV PUSH20 0xFFFFFFFFFFFFFFFFFFFFFFFFFFFFFFFFFFFFFFFF AND SWAP1 POP DUP2 PUSH0 DUP1 PUSH2 0x100 EXP DUP2 SLOAD DUP2 PUSH20 0xFFFFFFFFFFFFFFFFFFFFFFFFFFFFFFFFFFFFFFFF MUL NOT AND SWAP1 DUP4 PUSH20 0xFFFFFFFFFFFFFFFFFFFFFFFFFFFFFFFFFFFFFFFF AND MUL OR SWAP1 SSTORE POP DUP2 PUSH20 0xFFFFFFFFFFFFFFFFFFFFFFFFFFFFFFFFFFFFFFFF AND DUP2 PUSH20 0xFFFFFFFFFFFFFFFFFFFFFFFFFFFFFFFFFFFFFFFF AND PUSH32 0x8BE0079C531659141344CD1FD0A4F28419497F9722A3DAAFE3B4186F6B6457E0 PUSH1 0x40 MLOAD PUSH1 0x40 MLOAD DUP1 SWAP2 SUB SWAP1 LOG3 POP POP JUMP JUMPDEST PUSH0 CALLER SWAP1 POP SWAP1 JUMP JUMPDEST PUSH0 DUP1 REVERT JUMPDEST PUSH0 PUSH20 0xFFFFFFFFFFFFFFFFFFFFFFFFFFFFFFFFFFFFFFFF DUP3 AND SWAP1 POP SWAP2 SWAP1 POP JUMP JUMPDEST PUSH0 PUSH2 0x873 DUP3 PUSH2 0x84A JUMP JUMPDEST SWAP1 POP SWAP2 SWAP1 POP JUMP JUMPDEST PUSH2 0x883 DUP2 PUSH2 0x869 JUMP JUMPDEST DUP2 EQ PUSH2 0x88D JUMPI PUSH0 DUP1 REVERT JUMPDEST POP JUMP JUMPDEST PUSH0 DUP2 CALLDATALOAD SWAP1 POP PUSH2 0x89E DUP2 PUSH2 0x87A JUMP JUMPDEST SWAP3 SWAP2 POP POP JUMP JUMPDEST PUSH0 DUP2 SWAP1 POP SWAP2 SWAP1 POP JUMP JUMPDEST PUSH2 0x8B6 DUP2 PUSH2 0x8A4 JUMP JUMPDEST DUP2 EQ PUSH2 0x8C0 JUMPI PUSH0 DUP1 REVERT JUMPDEST POP JUMP JUMPDEST PUSH0 DUP2 CALLDATALOAD SWAP1 POP PUSH2 0x8D1 DUP2 PUSH2 0x8AD JUMP JUMPDEST SWAP3 SWAP2 POP POP JUMP JUMPDEST PUSH0 DUP1 PUSH1 0x40 DUP4 DUP6 SUB SLT ISZERO PUSH2 0x8ED JUMPI PUSH2 0x8EC PUSH2 0x846 JUMP JUMPDEST JUMPDEST PUSH0 PUSH2 0x8FA DUP6 DUP3 DUP7 ADD PUSH2 0x890 JUMP JUMPDEST SWAP3 POP POP PUSH1 0x20 PUSH2 0x90B DUP6 DUP3 DUP7 ADD PUSH2 0x8C3 JUMP JUMPDEST SWAP2 POP POP SWAP3 POP SWAP3 SWAP1 POP JUMP JUMPDEST PUSH2 0x91E DUP2 PUSH2 0x8A4 JUMP JUMPDEST DUP3 MSTORE POP POP JUMP JUMPDEST PUSH0 PUSH1 0x20 DUP3 ADD SWAP1 POP PUSH2 0x937 PUSH0 DUP4 ADD DUP5 PUSH2 0x915 JUMP JUMPDEST SWAP3 SWAP2 POP POP JUMP JUMPDEST PUSH0 PUSH1 0x20 DUP3 DUP5 SUB SLT ISZERO PUSH2 0x952 JUMPI PUSH2 0x951 PUSH2 0x846 JUMP JUMPDEST JUMPDEST PUSH0 PUSH2 0x95F DUP5 DUP3 DUP6 ADD PUSH2 0x890 JUMP JUMPDEST SWAP2 POP POP SWAP3 SWAP2 POP POP JUMP JUMPDEST PUSH0 PUSH1 0x20 DUP3 DUP5 SUB SLT ISZERO PUSH2 0x97D JUMPI PUSH2 0x97C PUSH2 0x846 JUMP JUMPDEST JUMPDEST PUSH0 PUSH2 0x98A DUP5 DUP3 DUP6 ADD PUSH2 0x8C3 JUMP JUMPDEST SWAP2 POP POP SWAP3 SWAP2 POP POP JUMP JUMPDEST PUSH2 0x99C DUP2 PUSH2 0x869 JUMP JUMPDEST DUP3 MSTORE POP POP JUMP JUMPDEST PUSH0 PUSH1 0x20 DUP3 ADD SWAP1 POP PUSH2 0x9B5 PUSH0 DUP4 ADD DUP5 PUSH2 0x993 JUMP JUMPDEST SWAP3 SWAP2 POP POP JUMP JUMPDEST PUSH0 DUP2 ISZERO ISZERO SWAP1 POP SWAP2 SWAP1 POP JUMP JUMPDEST PUSH2 0x9CF DUP2 PUSH2 0x9BB JUMP JUMPDEST DUP3 MSTORE POP POP JUMP JUMPDEST PUSH0 PUSH1 0x20 DUP3 ADD SWAP1 POP PUSH2 0x9E8 PUSH0 DUP4 ADD DUP5 PUSH2 0x9C6 JUMP JUMPDEST SWAP3 SWAP2 POP POP JUMP JUMPDEST PUSH0 DUP2 SWAP1 POP SWAP2 SWAP1 POP JUMP JUMPDEST PUSH0 PUSH2 0xA11 PUSH2 0xA0C PUSH2 0xA07 DUP5 PUSH2 0x84A JUMP JUMPDEST PUSH2 0x9EE JUMP JUMPDEST PUSH2 0x84A JUMP JUMPDEST SWAP1 POP SWAP2 SWAP1 POP JUMP JUMPDEST PUSH0 PUSH2 0xA22 DUP3 PUSH2 0x9F7 JUMP JUMPDEST SWAP1 POP SWAP2 SWAP1 POP JUMP JUMPDEST PUSH0 PUSH2 0xA33 DUP3 PUSH2 0xA18 JUMP JUMPDEST SWAP1 POP SWAP2 SWAP1 POP JUMP JUMPDEST PUSH2 0xA43 DUP2 PUSH2 0xA29 JUMP JUMPDEST DUP3 MSTORE POP POP JUMP JUMPDEST PUSH0 PUSH1 0x20 DUP3 ADD SWAP1 POP PUSH2 0xA5C PUSH0 DUP4 ADD DUP5 PUSH2 0xA3A JUMP JUMPDEST SWAP3 SWAP2 POP POP JUMP JUMPDEST PUSH0 PUSH1 0x40 DUP3 ADD SWAP1 POP PUSH2 0xA75 PUSH0 DUP4 ADD DUP6 PUSH2 0x993 JUMP JUMPDEST PUSH2 0xA82 PUSH1 0x20 DUP4 ADD DUP5 PUSH2 0x915 JUMP JUMPDEST SWAP4 SWAP3 POP POP POP JUMP JUMPDEST PUSH2 0xA92 DUP2 PUSH2 0x9BB JUMP JUMPDEST DUP2 EQ PUSH2 0xA9C JUMPI PUSH0 DUP1 REVERT JUMPDEST POP JUMP JUMPDEST PUSH0 DUP2 MLOAD SWAP1 POP PUSH2 0xAAD DUP2 PUSH2 0xA89 JUMP JUMPDEST SWAP3 SWAP2 POP POP JUMP JUMPDEST PUSH0 PUSH1 0x20 DUP3 DUP5 SUB SLT ISZERO PUSH2 0xAC8 JUMPI PUSH2 0xAC7 PUSH2 0x846 JUMP JUMPDEST JUMPDEST PUSH0 PUSH2 0xAD5 DUP5 DUP3 DUP6 ADD PUSH2 0xA9F JUMP JUMPDEST SWAP2 POP POP SWAP3 SWAP2 POP POP JUMP JUMPDEST PUSH0 DUP3 DUP3 MSTORE PUSH1 0x20 DUP3 ADD SWAP1 POP SWAP3 SWAP2 POP POP JUMP JUMPDEST PUSH32 0x5472616E73666572206661696C65640000000000000000000000000000000000 PUSH0 DUP3 ADD MSTORE POP JUMP JUMPDEST PUSH0 PUSH2 0xB22 PUSH1 0xF DUP4 PUSH2 0xADE JUMP JUMPDEST SWAP2 POP PUSH2 0xB2D DUP3 PUSH2 0xAEE JUMP JUMPDEST PUSH1 0x20 DUP3 ADD SWAP1 POP SWAP2 SWAP1 POP JUMP JUMPDEST PUSH0 PUSH1 0x20 DUP3 ADD SWAP1 POP DUP2 DUP2 SUB PUSH0 DUP4 ADD MSTORE PUSH2 0xB4F DUP2 PUSH2 0xB16 JUMP JUMPDEST SWAP1 POP SWAP2 SWAP1 POP JUMP JUMPDEST PUSH32 0x4E487B7100000000000000000000000000000000000000000000000000000000 PUSH0 MSTORE PUSH1 0x11 PUSH1 0x4 MSTORE PUSH1 0x24 PUSH0 REVERT JUMPDEST PUSH0 PUSH2 0xB8D DUP3 PUSH2 0x8A4 JUMP JUMPDEST SWAP2 POP PUSH2 0xB98 DUP4 PUSH2 0x8A4 JUMP JUMPDEST SWAP3 POP DUP3 DUP3 ADD SWAP1 POP DUP1 DUP3 GT ISZERO PUSH2 0xBB0 JUMPI PUSH2 0xBAF PUSH2 0xB56 JUMP JUMPDEST JUMPDEST SWAP3 SWAP2 POP POP JUMP JUMPDEST PUSH0 PUSH2 0xBC0 DUP3 PUSH2 0x8A4 JUMP JUMPDEST SWAP2 POP PUSH32 0xFFFFFFFFFFFFFFFFFFFFFFFFFFFFFFFFFFFFFFFFFFFFFFFFFFFFFFFFFFFFFFFF DUP3 SUB PUSH2 0xBF2 JUMPI PUSH2 0xBF1 PUSH2 0xB56 JUMP JUMPDEST JUMPDEST PUSH1 0x1 DUP3 ADD SWAP1 POP SWAP2 SWAP1 POP JUMP JUMPDEST PUSH0 PUSH1 0x60 DUP3 ADD SWAP1 POP PUSH2 0xC10 PUSH0 DUP4 ADD DUP7 PUSH2 0x993 JUMP JUMPDEST PUSH2 0xC1D PUSH1 0x20 DUP4 ADD DUP6 PUSH2 0x993 JUMP JUMPDEST PUSH2 0xC2A PUSH1 0x40 DUP4 ADD DUP5 PUSH2 0x915 JUMP JUMPDEST SWAP5 SWAP4 POP POP POP POP JUMP INVALID LOG2 PUSH5 0x6970667358 0x22 SLT KECCAK256 0xD1 0xB7 0xE4 EXTCODEHASH 0x4B CODECOPY MSTORE EXTCODEHASH DUP13 SMOD DUP2 DUP5 PC KECCAK256 LOG4 0x23 MULMOD 0xDB DUP14 CALLDATASIZE SGT 0xE8 DIV 0xDA 0xB5 PUSH23 0xB10E6C60EDDC64736F6C634300081A0033000000000000 "
		},
		"gasEstimates": {
			"creation": {
				"codeDepositCost": "635200",
				"executionCost": "infinite",
				"totalCost": "infinite"
			},
			"external": {
				"isMember(address)": "2907",
				"memberCount()": "infinite",
				"owner()": "2559",
				"payPremium(uint256)": "infinite",
				"payout(address,uint256)": "infinite",
				"premiumToken()": "infinite",
				"premiumsPaid(address)": "2847",
				"processClaim(address,uint256)": "infinite",
				"renounceOwnership()": "infinite",
				"totalPayouts()": "2492",
				"totalPremiums()": "2536",
				"transferOwnership(address)": "infinite"
			}
		},
		"methodIdentifiers": {
			"isMember(address)": "a230c524",
			"memberCount()": "11aee380",
			"owner()": "8da5cb5b",
			"payPremium(uint256)": "4364b26e",
			"payout(address,uint256)": "117de2fd",
			"premiumToken()": "b180783d",
			"premiumsPaid(address)": "293e571c",
			"processClaim(address,uint256)": "6ffc215c",
			"renounceOwnership()": "715018a6",
			"totalPayouts()": "4089b170",
			"totalPremiums()": "5bda1584",
			"transferOwnership(address)": "f2fde38b"
		}
	},
	"abi": [
		{
			"inputs": [
				{
					"internalType": "address",
					"name": "_premiumToken",
					"type": "address"
				},
				{
					"internalType": "address",
					"name": "_initialOwner",
					"type": "address"
				}
			],
			"stateMutability": "nonpayable",
			"type": "constructor"
		},
		{
			"inputs": [
				{
					"internalType": "address",
					"name": "owner",
					"type": "address"
				}
			],
			"name": "OwnableInvalidOwner",
			"type": "error"
		},
		{
			"inputs": [
				{
					"internalType": "address",
					"name": "account",
					"type": "address"
				}
			],
			"name": "OwnableUnauthorizedAccount",
			"type": "error"
		},
		{
			"anonymous": false,
			"inputs": [
				{
					"indexed": true,
					"internalType": "address",
					"name": "previousOwner",
					"type": "address"
				},
				{
					"indexed": true,
					"internalType": "address",
					"name": "newOwner",
					"type": "address"
				}
			],
			"name": "OwnershipTransferred",
			"type": "event"
		},
		{
			"inputs": [
				{
					"internalType": "address",
					"name": "member",
					"type": "address"
				}
			],
			"name": "isMember",
			"outputs": [
				{
					"internalType": "bool",
					"name": "",
					"type": "bool"
				}
			],
			"stateMutability": "view",
			"type": "function"
		},
		{
			"inputs": [],
			"name": "memberCount",
			"outputs": [
				{
					"internalType": "uint256",
					"name": "",
					"type": "uint256"
				}
			],
			"stateMutability": "view",
			"type": "function"
		},
		{
			"inputs": [],
			"name": "owner",
			"outputs": [
				{
					"internalType": "address",
					"name": "",
					"type": "address"
				}
			],
			"stateMutability": "view",
			"type": "function"
		},
		{
			"inputs": [
				{
					"internalType": "uint256",
					"name": "amount",
					"type": "uint256"
				}
			],
			"name": "payPremium",
			"outputs": [],
			"stateMutability": "nonpayable",
			"type": "function"
		},
		{
			"inputs": [
				{
					"internalType": "address",
					"name": "to",
					"type": "address"
				},
				{
					"internalType": "uint256",
					"name": "amount",
					"type": "uint256"
				}
			],
			"name": "payout",
			"outputs": [],
			"stateMutability": "nonpayable",
			"type": "function"
		},
		{
			"inputs": [],
			"name": "premiumToken",
			"outputs": [
				{
					"internalType": "contract IERC20",
					"name": "",
					"type": "address"
				}
			],
			"stateMutability": "view",
			"type": "function"
		},
		{
			"inputs": [
				{
					"internalType": "address",
					"name": "",
					"type": "address"
				}
			],
			"name": "premiumsPaid",
			"outputs": [
				{
					"internalType": "uint256",
					"name": "",
					"type": "uint256"
				}
			],
			"stateMutability": "view",
			"type": "function"
		},
		{
			"inputs": [
				{
					"internalType": "address",
					"name": "to",
					"type": "address"
				},
				{
					"internalType": "uint256",
					"name": "amount",
					"type": "uint256"
				}
			],
			"name": "processClaim",
			"outputs": [],
			"stateMutability": "nonpayable",
			"type": "function"
		},
		{
			"inputs": [],
			"name": "renounceOwnership",
			"outputs": [],
			"stateMutability": "nonpayable",
			"type": "function"
		},
		{
			"inputs": [],
			"name": "totalPayouts",
			"outputs": [
				{
					"internalType": "uint256",
					"name": "",
					"type": "uint256"
				}
			],
			"stateMutability": "view",
			"type": "function"
		},
		{
			"inputs": [],
			"name": "totalPremiums",
			"outputs": [
				{
					"internalType": "uint256",
					"name": "",
					"type": "uint256"
				}
			],
			"stateMutability": "view",
			"type": "function"
		},
		{
			"inputs": [
				{
					"internalType": "address",
					"name": "newOwner",
					"type": "address"
				}
			],
			"name": "transferOwnership",
			"outputs": [],
			"stateMutability": "nonpayable",
			"type": "function"
		}
	]
}