{
	"data": {
		"bytecode": {
			"linkReferences": {},
			"object": "608060405234801561000f575f80fd5b50604051610dcd380380610dcd83398181016040528101906100319190610218565b805f73ffffffffffffffffffffffffffffffffffffffff168173ffffffffffffffffffffffffffffffffffffffff16036100a2575f6040517f1e4fbdf70000000000000000000000000000000000000000000000000000000081526004016100999190610265565b60405180910390fd5b6100b1816100f960201b60201c565b508160015f6101000a81548173ffffffffffffffffffffffffffffffffffffffff021916908373ffffffffffffffffffffffffffffffffffffffff160217905550505061027e565b5f805f9054906101000a900473ffffffffffffffffffffffffffffffffffffffff169050815f806101000a81548173ffffffffffffffffffffffffffffffffffffffff021916908373ffffffffffffffffffffffffffffffffffffffff1602179055508173ffffffffffffffffffffffffffffffffffffffff168173ffffffffffffffffffffffffffffffffffffffff167f8be0079c531659141344cd1fd0a4f28419497f9722a3daafe3b4186f6b6457e060405160405180910390a35050565b5f80fd5b5f73ffffffffffffffffffffffffffffffffffffffff82169050919050565b5f6101e7826101be565b9050919050565b6101f7816101dd565b8114610201575f80fd5b50565b5f81519050610212816101ee565b92915050565b5f806040838503121561022e5761022d6101ba565b5b5f61023b85828601610204565b925050602061024c85828601610204565b9150509250929050565b61025f816101dd565b82525050565b5f6020820190506102785f830184610256565b92915050565b610b428061028b5f395ff3fe608060405234801561000f575f80fd5b50600436106100a7575f3560e01c80635bda15841161006f5780635bda15841461014f578063715018a61461016d5780638da5cb5b14610177578063a230c52414610195578063b180783d146101c5578063f2fde38b146101e3576100a7565b8063117de2fd146100ab57806311aee380146100c7578063293e571c146100e55780634089b170146101155780634364b26e14610133575b5f80fd5b6100c560048036038101906100c091906107b1565b6101ff565b005b6100cf6102fe565b6040516100dc91906107fe565b60405180910390f35b6100ff60048036038101906100fa9190610817565b610378565b60405161010c91906107fe565b60405180910390f35b61011d61038d565b60405161012a91906107fe565b60405180910390f35b61014d60048036038101906101489190610842565b610393565b005b6101576104a0565b60405161016491906107fe565b60405180910390f35b6101756104a6565b005b61017f6104b9565b60405161018c919061087c565b60405180910390f35b6101af60048036038101906101aa9190610817565b6104e0565b6040516101bc91906108af565b60405180910390f35b6101cd610528565b6040516101da9190610923565b60405180910390f35b6101fd60048036038101906101f89190610817565b61054d565b005b6102076105d1565b60015f9054906101000a900473ffffffffffffffffffffffffffffffffffffffff1673ffffffffffffffffffffffffffffffffffffffff1663a9059cbb83836040518363ffffffff1660e01b815260040161026392919061093c565b6020604051808303815f875af115801561027f573d5f803e3d5ffd5b505050506040513d601f19601f820116820180604052508101906102a3919061098d565b6102e2576040517f08c379a00000000000000000000000000000000000000000000000000000000081526004016102d990610a12565b60405180910390fd5b8060045f8282546102f39190610a5d565b925050819055505050565b5f805f90505f5b600354811015610370575f60025f8373ffffffffffffffffffffffffffffffffffffffff1673ffffffffffffffffffffffffffffffffffffffff1681526020019081526020015f2054111561036357818061035f90610a90565b9250505b8080600101915050610305565b508091505090565b6002602052805f5260405f205f915090505481565b60045481565b60015f9054906101000a900473ffffffffffffffffffffffffffffffffffffffff1673ffffffffffffffffffffffffffffffffffffffff166323b872dd3330846040518463ffffffff1660e01b81526004016103f193929190610ad7565b6020604051808303815f875af115801561040d573d5f803e3d5ffd5b505050506040513d601f19601f82011682018060405250810190610431919061098d565b508060025f3373ffffffffffffffffffffffffffffffffffffffff1673ffffffffffffffffffffffffffffffffffffffff1681526020019081526020015f205f82825461047e9190610a5d565b925050819055508060035f8282546104969190610a5d565b9250508190555050565b60035481565b6104ae6105d1565b6104b75f610658565b565b5f805f9054906101000a900473ffffffffffffffffffffffffffffffffffffffff16905090565b5f8060025f8473ffffffffffffffffffffffffffffffffffffffff1673ffffffffffffffffffffffffffffffffffffffff1681526020019081526020015f2054119050919050565b60015f9054906101000a900473ffffffffffffffffffffffffffffffffffffffff1681565b6105556105d1565b5f73ffffffffffffffffffffffffffffffffffffffff168173ffffffffffffffffffffffffffffffffffffffff16036105c5575f6040517f1e4fbdf70000000000000000000000000000000000000000000000000000000081526004016105bc919061087c565b60405180910390fd5b6105ce81610658565b50565b6105d9610719565b73ffffffffffffffffffffffffffffffffffffffff166105f76104b9565b73ffffffffffffffffffffffffffffffffffffffff16146106565761061a610719565b6040517f118cdaa700000000000000000000000000000000000000000000000000000000815260040161064d919061087c565b60405180910390fd5b565b5f805f9054906101000a900473ffffffffffffffffffffffffffffffffffffffff169050815f806101000a81548173ffffffffffffffffffffffffffffffffffffffff021916908373ffffffffffffffffffffffffffffffffffffffff1602179055508173ffffffffffffffffffffffffffffffffffffffff168173ffffffffffffffffffffffffffffffffffffffff167f8be0079c531659141344cd1fd0a4f28419497f9722a3daafe3b4186f6b6457e060405160405180910390a35050565b5f33905090565b5f80fd5b5f73ffffffffffffffffffffffffffffffffffffffff82169050919050565b5f61074d82610724565b9050919050565b61075d81610743565b8114610767575f80fd5b50565b5f8135905061077881610754565b92915050565b5f819050919050565b6107908161077e565b811461079a575f80fd5b50565b5f813590506107ab81610787565b92915050565b5f80604083850312156107c7576107c6610720565b5b5f6107d48582860161076a565b92505060206107e58582860161079d565b9150509250929050565b6107f88161077e565b82525050565b5f6020820190506108115f8301846107ef565b92915050565b5f6020828403121561082c5761082b610720565b5b5f6108398482850161076a565b91505092915050565b5f6020828403121561085757610856610720565b5b5f6108648482850161079d565b91505092915050565b61087681610743565b82525050565b5f60208201905061088f5f83018461086d565b92915050565b5f8115159050919050565b6108a981610895565b82525050565b5f6020820190506108c25f8301846108a0565b92915050565b5f819050919050565b5f6108eb6108e66108e184610724565b6108c8565b610724565b9050919050565b5f6108fc826108d1565b9050919050565b5f61090d826108f2565b9050919050565b61091d81610903565b82525050565b5f6020820190506109365f830184610914565b92915050565b5f60408201905061094f5f83018561086d565b61095c60208301846107ef565b9392505050565b61096c81610895565b8114610976575f80fd5b50565b5f8151905061098781610963565b92915050565b5f602082840312156109a2576109a1610720565b5b5f6109af84828501610979565b91505092915050565b5f82825260208201905092915050565b7f5472616e73666572206661696c656400000000000000000000000000000000005f82015250565b5f6109fc600f836109b8565b9150610a07826109c8565b602082019050919050565b5f6020820190508181035f830152610a29816109f0565b9050919050565b7f4e487b71000000000000000000000000000000000000000000000000000000005f52601160045260245ffd5b5f610a678261077e565b9150610a728361077e565b9250828201905080821115610a8a57610a89610a30565b5b92915050565b5f610a9a8261077e565b91507fffffffffffffffffffffffffffffffffffffffffffffffffffffffffffffffff8203610acc57610acb610a30565b5b600182019050919050565b5f606082019050610aea5f83018661086d565b610af7602083018561086d565b610b0460408301846107ef565b94935050505056fea2646970667358221220fca39365bd57c17a9d6c19777eebc81f62db8b3afa7617764d0a7b8ba74d4a9964736f6c634300081a0033",
			"opcodes": "PUSH1 0x80 PUSH1 0x40 MSTORE CALLVALUE DUP1 ISZERO PUSH2 0xF JUMPI PUSH0 DUP1 REVERT JUMPDEST POP PUSH1 0x40 MLOAD PUSH2 0xDCD CODESIZE SUB DUP1 PUSH2 0xDCD DUP4 CODECOPY DUP2 DUP2 ADD PUSH1 0x40 MSTORE DUP2 ADD SWAP1 PUSH2 0x31 SWAP2 SWAP1 PUSH2 0x218 JUMP JUMPDEST DUP1 PUSH0 PUSH20 0xFFFFFFFFFFFFFFFFFFFFFFFFFFFFFFFFFFFFFFFF AND DUP2 PUSH20 0xFFFFFFFFFFFFFFFFFFFFFFFFFFFFFFFFFFFFFFFF AND SUB PUSH2 0xA2 JUMPI PUSH0 PUSH1 0x40 MLOAD PUSH32 0x1E4FBDF700000000000000000000000000000000000000000000000000000000 DUP2 MSTORE PUSH1 0x4 ADD PUSH2 0x99 SWAP2 SWAP1 PUSH2 0x265 JUMP JUMPDEST PUSH1 0x40 MLOAD DUP1 SWAP2 SUB SWAP1 REVERT JUMPDEST PUSH2 0xB1 DUP2 PUSH2 0xF9 PUSH1 0x20 SHL PUSH1 0x20 SHR JUMP JUMPDEST POP DUP2 PUSH1 0x1 PUSH0 PUSH2 0x100 EXP DUP2 SLOAD DUP2 PUSH20 0xFFFFFFFFFFFFFFFFFFFFFFFFFFFFFFFFFFFFFFFF MUL NOT AND SWAP1 DUP4 PUSH20 0xFFFFFFFFFFFFFFFFFFFFFFFFFFFFFFFFFFFFFFFF AND MUL OR SWAP1 SSTORE POP POP POP PUSH2 0x27E JUMP JUMPDEST PUSH0 DUP1 PUSH0 SWAP1 SLOAD SWAP1 PUSH2 0x100 EXP SWAP1 DIV PUSH20 0xFFFFFFFFFFFFFFFFFFFFFFFFFFFFFFFFFFFFFFFF AND SWAP1 POP DUP2 PUSH0 DUP1 PUSH2 0x100 EXP DUP2 SLOAD DUP2 PUSH20 0xFFFFFFFFFFFFFFFFFFFFFFFFFFFFFFFFFFFFFFFF MUL NOT AND SWAP1 DUP4 PUSH20 0xFFFFFFFFFFFFFFFFFFFFFFFFFFFFFFFFFFFFFFFF AND MUL OR SWAP1 SSTORE POP DUP2 PUSH20 0xFFFFFFFFFFFFFFFFFFFFFFFFFFFFFFFFFFFFFFFF AND DUP2 PUSH20 0xFFFFFFFFFFFFFFFFFFFFFFFFFFFFFFFFFFFFFFFF AND PUSH32 0x8BE0079C531659141344CD1FD0A4F28419497F9722A3DAAFE3B4186F6B6457E0 PUSH1 0x40 MLOAD PUSH1 0x40 MLOAD DUP1 SWAP2 SUB SWAP1 LOG3 POP POP JUMP JUMPDEST PUSH0 DUP1 REVERT JUMPDEST PUSH0 PUSH20 0xFFFFFFFFFFFFFFFFFFFFFFFFFFFFFFFFFFFFFFFF DUP3 AND SWAP1 POP SWAP2 SWAP1 POP JUMP JUMPDEST PUSH0 PUSH2 0x1E7 DUP3 PUSH2 0x1BE JUMP JUMPDEST SWAP1 POP SWAP2 SWAP1 POP JUMP JUMPDEST PUSH2 0x1F7 DUP2 PUSH2 0x1DD JUMP JUMPDEST DUP2 EQ PUSH2 0x201 JUMPI PUSH0 DUP1 REVERT JUMPDEST POP JUMP JUMPDEST PUSH0 DUP2 MLOAD SWAP1 POP PUSH2 0x212 DUP2 PUSH2 0x1EE JUMP JUMPDEST SWAP3 SWAP2 POP POP JUMP JUMPDEST PUSH0 DUP1 PUSH1 0x40 DUP4 DUP6 SUB SLT ISZERO PUSH2 0x22E JUMPI PUSH2 0x22D PUSH2 0x1BA JUMP JUMPDEST JUMPDEST PUSH0 PUSH2 0x23B DUP6 DUP3 DUP7 ADD PUSH2 0x204 JUMP JUMPDEST SWAP3 POP POP PUSH1 0x20 PUSH2 0x24C DUP6 DUP3 DUP7 ADD PUSH2 0x204 JUMP JUMPDEST SWAP2 POP POP SWAP3 POP SWAP3 SWAP1 POP JUMP JUMPDEST PUSH2 0x25F DUP2 PUSH2 0x1DD JUMP JUMPDEST DUP3 MSTORE POP POP JUMP JUMPDEST PUSH0 PUSH1 0x20 DUP3 ADD SWAP1 POP PUSH2 0x278 PUSH0 DUP4 ADD DUP5 PUSH2 0x256 JUMP JUMPDEST SWAP3 SWAP2 POP POP JUMP JUMPDEST PUSH2 0xB42 DUP1 PUSH2 0x28B PUSH0 CODECOPY PUSH0 RETURN INVALID PUSH1 0x80 PUSH1 0x40 MSTORE CALLVALUE DUP1 ISZERO PUSH2 0xF JUMPI PUSH0 DUP1 REVERT JUMPDEST POP PUSH1 0x4 CALLDATASIZE LT PUSH2 0xA7 JUMPI PUSH0 CALLDATALOAD PUSH1 0xE0 SHR DUP1 PUSH4 0x5BDA1584 GT PUSH2 0x6F JUMPI DUP1 PUSH4 0x5BDA1584 EQ PUSH2 0x14F JUMPI DUP1 PUSH4 0x715018A6 EQ PUSH2 0x16D JUMPI DUP1 PUSH4 0x8DA5CB5B EQ PUSH2 0x177 JUMPI DUP1 PUSH4 0xA230C524 EQ PUSH2 0x195 JUMPI DUP1 PUSH4 0xB180783D EQ PUSH2 0x1C5 JUMPI DUP1 PUSH4 0xF2FDE38B EQ PUSH2 0x1E3 JUMPI PUSH2 0xA7 JUMP JUMPDEST DUP1 PUSH4 0x117DE2FD EQ PUSH2 0xAB JUMPI DUP1 PUSH4 0x11AEE380 EQ PUSH2 0xC7 JUMPI DUP1 PUSH4 0x293E571C EQ PUSH2 0xE5 JUMPI DUP1 PUSH4 0x4089B170 EQ PUSH2 0x115 JUMPI DUP1 PUSH4 0x4364B26E EQ PUSH2 0x133 JUMPI JUMPDEST PUSH0 DUP1 REVERT JUMPDEST PUSH2 0xC5 PUSH1 0x4 DUP1 CALLDATASIZE SUB DUP2 ADD SWAP1 PUSH2 0xC0 SWAP2 SWAP1 PUSH2 0x7B1 JUMP JUMPDEST PUSH2 0x1FF JUMP JUMPDEST STOP JUMPDEST PUSH2 0xCF PUSH2 0x2FE JUMP JUMPDEST PUSH1 0x40 MLOAD PUSH2 0xDC SWAP2 SWAP1 PUSH2 0x7FE JUMP JUMPDEST PUSH1 0x40 MLOAD DUP1 SWAP2 SUB SWAP1 RETURN JUMPDEST PUSH2 0xFF PUSH1 0x4 DUP1 CALLDATASIZE SUB DUP2 ADD SWAP1 PUSH2 0xFA SWAP2 SWAP1 PUSH2 0x817 JUMP JUMPDEST PUSH2 0x378 JUMP JUMPDEST PUSH1 0x40 MLOAD PUSH2 0x10C SWAP2 SWAP1 PUSH2 0x7FE JUMP JUMPDEST PUSH1 0x40 MLOAD DUP1 SWAP2 SUB SWAP1 RETURN JUMPDEST PUSH2 0x11D PUSH2 0x38D JUMP JUMPDEST PUSH1 0x40 MLOAD PUSH2 0x12A SWAP2 SWAP1 PUSH2 0x7FE JUMP JUMPDEST PUSH1 0x40 MLOAD DUP1 SWAP2 SUB SWAP1 RETURN JUMPDEST PUSH2 0x14D PUSH1 0x4 DUP1 CALLDATASIZE SUB DUP2 ADD SWAP1 PUSH2 0x148 SWAP2 SWAP1 PUSH2 0x842 JUMP JUMPDEST PUSH2 0x393 JUMP JUMPDEST STOP JUMPDEST PUSH2 0x157 PUSH2 0x4A0 JUMP JUMPDEST PUSH1 0x40 MLOAD PUSH2 0x164 SWAP2 SWAP1 PUSH2 0x7FE JUMP JUMPDEST PUSH1 0x40 MLOAD DUP1 SWAP2 SUB SWAP1 RETURN JUMPDEST PUSH2 0x175 PUSH2 0x4A6 JUMP JUMPDEST STOP JUMPDEST PUSH2 0x17F PUSH2 0x4B9 JUMP JUMPDEST PUSH1 0x40 MLOAD PUSH2 0x18C SWAP2 SWAP1 PUSH2 0x87C JUMP JUMPDEST PUSH1 0x40 MLOAD DUP1 SWAP2 SUB SWAP1 RETURN JUMPDEST PUSH2 0x1AF PUSH1 0x4 DUP1 CALLDATASIZE SUB DUP2 ADD SWAP1 PUSH2 0x1AA SWAP2 SWAP1 PUSH2 0x817 JUMP JUMPDEST PUSH2 0x4E0 JUMP JUMPDEST PUSH1 0x40 MLOAD PUSH2 0x1BC SWAP2 SWAP1 PUSH2 0x8AF JUMP JUMPDEST PUSH1 0x40 MLOAD DUP1 SWAP2 SUB SWAP1 RETURN JUMPDEST PUSH2 0x1CD PUSH2 0x528 JUMP JUMPDEST PUSH1 0x40 MLOAD PUSH2 0x1DA SWAP2 SWAP1 PUSH2 0x923 JUMP JUMPDEST PUSH1 0x40 MLOAD DUP1 SWAP2 SUB SWAP1 RETURN JUMPDEST PUSH2 0x1FD PUSH1 0x4 DUP1 CALLDATASIZE SUB DUP2 ADD SWAP1 PUSH2 0x1F8 SWAP2 SWAP1 PUSH2 0x817 JUMP JUMPDEST PUSH2 0x54D JUMP JUMPDEST STOP JUMPDEST PUSH2 0x207 PUSH2 0x5D1 JUMP JUMPDEST PUSH1 0x1 PUSH0 SWAP1 SLOAD SWAP1 PUSH2 0x100 EXP SWAP1 DIV PUSH20 0xFFFFFFFFFFFFFFFFFFFFFFFFFFFFFFFFFFFFFFFF AND PUSH20 0xFFFFFFFFFFFFFFFFFFFFFFFFFFFFFFFFFFFFFFFF AND PUSH4 0xA9059CBB DUP4 DUP4 PUSH1 0x40 MLOAD DUP4 PUSH4 0xFFFFFFFF AND PUSH1 0xE0 SHL DUP2 MSTORE PUSH1 0x4 ADD PUSH2 0x263 SWAP3 SWAP2 SWAP1 PUSH2 0x93C JUMP JUMPDEST PUSH1 0x20 PUSH1 0x40 MLOAD DUP1 DUP4 SUB DUP2 PUSH0 DUP8 GAS CALL ISZERO DUP1 ISZERO PUSH2 0x27F JUMPI RETURNDATASIZE PUSH0 DUP1 RETURNDATACOPY RETURNDATASIZE PUSH0 REVERT JUMPDEST POP POP POP POP PUSH1 0x40 MLOAD RETURNDATASIZE PUSH1 0x1F NOT PUSH1 0x1F DUP3 ADD AND DUP3 ADD DUP1 PUSH1 0x40 MSTORE POP DUP2 ADD SWAP1 PUSH2 0x2A3 SWAP2 SWAP1 PUSH2 0x98D JUMP JUMPDEST PUSH2 0x2E2 JUMPI PUSH1 0x40 MLOAD PUSH32 0x8C379A000000000000000000000000000000000000000000000000000000000 DUP2 MSTORE PUSH1 0x4 ADD PUSH2 0x2D9 SWAP1 PUSH2 0xA12 JUMP JUMPDEST PUSH1 0x40 MLOAD DUP1 SWAP2 SUB SWAP1 REVERT JUMPDEST DUP1 PUSH1 0x4 PUSH0 DUP3 DUP3 SLOAD PUSH2 0x2F3 SWAP2 SWAP1 PUSH2 0xA5D JUMP JUMPDEST SWAP3 POP POP DUP2 SWAP1 SSTORE POP POP POP JUMP JUMPDEST PUSH0 DUP1 PUSH0 SWAP1 POP PUSH0 JUMPDEST PUSH1 0x3 SLOAD DUP2 LT ISZERO PUSH2 0x370 JUMPI PUSH0 PUSH1 0x2 PUSH0 DUP4 PUSH20 0xFFFFFFFFFFFFFFFFFFFFFFFFFFFFFFFFFFFFFFFF AND PUSH20 0xFFFFFFFFFFFFFFFFFFFFFFFFFFFFFFFFFFFFFFFF AND DUP2 MSTORE PUSH1 0x20 ADD SWAP1 DUP2 MSTORE PUSH1 0x20 ADD PUSH0 KECCAK256 SLOAD GT ISZERO PUSH2 0x363 JUMPI DUP2 DUP1 PUSH2 0x35F SWAP1 PUSH2 0xA90 JUMP JUMPDEST SWAP3 POP POP JUMPDEST DUP1 DUP1 PUSH1 0x1 ADD SWAP2 POP POP PUSH2 0x305 JUMP JUMPDEST POP DUP1 SWAP2 POP POP SWAP1 JUMP JUMPDEST PUSH1 0x2 PUSH1 0x20 MSTORE DUP1 PUSH0 MSTORE PUSH1 0x40 PUSH0 KECCAK256 PUSH0 SWAP2 POP SWAP1 POP SLOAD DUP2 JUMP JUMPDEST PUSH1 0x4 SLOAD DUP2 JUMP JUMPDEST PUSH1 0x1 PUSH0 SWAP1 SLOAD SWAP1 PUSH2 0x100 EXP SWAP1 DIV PUSH20 0xFFFFFFFFFFFFFFFFFFFFFFFFFFFFFFFFFFFFFFFF AND PUSH20 0xFFFFFFFFFFFFFFFFFFFFFFFFFFFFFFFFFFFFFFFF AND PUSH4 0x23B872DD CALLER ADDRESS DUP5 PUSH1 0x40 MLOAD DUP5 PUSH4 0xFFFFFFFF AND PUSH1 0xE0 SHL DUP2 MSTORE PUSH1 0x4 ADD PUSH2 0x3F1 SWAP4 SWAP3 SWAP2 SWAP1 PUSH2 0xAD7 JUMP JUMPDEST PUSH1 0x20 PUSH1 0x40 MLOAD DUP1 DUP4 SUB DUP2 PUSH0 DUP8 GAS CALL ISZERO DUP1 ISZERO PUSH2 0x40D JUMPI RETURNDATASIZE PUSH0 DUP1 RETURNDATACOPY RETURNDATASIZE PUSH0 REVERT JUMPDEST POP POP POP POP PUSH1 0x40 MLOAD RETURNDATASIZE PUSH1 0x1F NOT PUSH1 0x1F DUP3 ADD AND DUP3 ADD DUP1 PUSH1 0x40 MSTORE POP DUP2 ADD SWAP1 PUSH2 0x431 SWAP2 SWAP1 PUSH2 0x98D JUMP JUMPDEST POP DUP1 PUSH1 0x2 PUSH0 CALLER PUSH20 0xFFFFFFFFFFFFFFFFFFFFFFFFFFFFFFFFFFFFFFFF AND PUSH20 0xFFFFFFFFFFFFFFFFFFFFFFFFFFFFFFFFFFFFFFFF AND DUP2 MSTORE PUSH1 0x20 ADD SWAP1 DUP2 MSTORE PUSH1 0x20 ADD PUSH0 KECCAK256 PUSH0 DUP3 DUP3 SLOAD PUSH2 0x47E SWAP2 SWAP1 PUSH2 0xA5D JUMP JUMPDEST SWAP3 POP POP DUP2 SWAP1 SSTORE POP DUP1 PUSH1 0x3 PUSH0 DUP3 DUP3 SLOAD PUSH2 0x496 SWAP2 SWAP1 PUSH2 0xA5D JUMP JUMPDEST SWAP3 POP POP DUP2 SWAP1 SSTORE POP POP JUMP JUMPDEST PUSH1 0x3 SLOAD DUP2 JUMP JUMPDEST PUSH2 0x4AE PUSH2 0x5D1 JUMP JUMPDEST PUSH2 0x4B7 PUSH0 PUSH2 0x658 JUMP JUMPDEST JUMP JUMPDEST PUSH0 DUP1 PUSH0 SWAP1 SLOAD SWAP1 PUSH2 0x100 EXP SWAP1 DIV PUSH20 0xFFFFFFFFFFFFFFFFFFFFFFFFFFFFFFFFFFFFFFFF AND SWAP1 POP SWAP1 JUMP JUMPDEST PUSH0 DUP1 PUSH1 0x2 PUSH0 DUP5 PUSH20 0xFFFFFFFFFFFFFFFFFFFFFFFFFFFFFFFFFFFFFFFF AND PUSH20 0xFFFFFFFFFFFFFFFFFFFFFFFFFFFFFFFFFFFFFFFF AND DUP2 MSTORE PUSH1 0x20 ADD SWAP1 DUP2 MSTORE PUSH1 0x20 ADD PUSH0 KECCAK256 SLOAD GT SWAP1 POP SWAP2 SWAP1 POP JUMP JUMPDEST PUSH1 0x1 PUSH0 SWAP1 SLOAD SWAP1 PUSH2 0x100 EXP SWAP1 DIV PUSH20 0xFFFFFFFFFFFFFFFFFFFFFFFFFFFFFFFFFFFFFFFF AND DUP2 JUMP JUMPDEST PUSH2 0x555 PUSH2 0x5D1 JUMP JUMPDEST PUSH0 PUSH20 0xFFFFFFFFFFFFFFFFFFFFFFFFFFFFFFFFFFFFFFFF AND DUP2 PUSH20 0xFFFFFFFFFFFFFFFFFFFFFFFFFFFFFFFFFFFFFFFF AND SUB PUSH2 0x5C5 JUMPI PUSH0 PUSH1 0x40 MLOAD PUSH32 0x1E4FBDF700000000000000000000000000000000000000000000000000000000 DUP2 MSTORE PUSH1 0x4 ADD PUSH2 0x5BC SWAP2 SWAP1 PUSH2 0x87C JUMP JUMPDEST PUSH1 0x40 MLOAD DUP1 SWAP2 SUB SWAP1 REVERT JUMPDEST PUSH2 0x5CE DUP2 PUSH2 0x658 JUMP JUMPDEST POP JUMP JUMPDEST PUSH2 0x5D9 PUSH2 0x719 JUMP JUMPDEST PUSH20 0xFFFFFFFFFFFFFFFFFFFFFFFFFFFFFFFFFFFFFFFF AND PUSH2 0x5F7 PUSH2 0x4B9 JUMP JUMPDEST PUSH20 0xFFFFFFFFFFFFFFFFFFFFFFFFFFFFFFFFFFFFFFFF AND EQ PUSH2 0x656 JUMPI PUSH2 0x61A PUSH2 0x719 JUMP JUMPDEST PUSH1 0x40 MLOAD PUSH32 0x118CDAA700000000000000000000000000000000000000000000000000000000 DUP2 MSTORE PUSH1 0x4 ADD PUSH2 0x64D SWAP2 SWAP1 PUSH2 0x87C JUMP JUMPDEST PUSH1 0x40 MLOAD DUP1 SWAP2 SUB SWAP1 REVERT JUMPDEST JUMP JUMPDEST PUSH0 DUP1 PUSH0 SWAP1 SLOAD SWAP1 PUSH2 0x100 EXP SWAP1 DIV PUSH20 0xFFFFFFFFFFFFFFFFFFFFFFFFFFFFFFFFFFFFFFFF AND SWAP1 POP DUP2 PUSH0 DUP1 PUSH2 0x100 EXP DUP2 SLOAD DUP2 PUSH20 0xFFFFFFFFFFFFFFFFFFFFFFFFFFFFFFFFFFFFFFFF MUL NOT AND SWAP1 DUP4 PUSH20 0xFFFFFFFFFFFFFFFFFFFFFFFFFFFFFFFFFFFFFFFF AND MUL OR SWAP1 SSTORE POP DUP2 PUSH20 0xFFFFFFFFFFFFFFFFFFFFFFFFFFFFFFFFFFFFFFFF AND DUP2 PUSH20 0xFFFFFFFFFFFFFFFFFFFFFFFFFFFFFFFFFFFFFFFF AND PUSH32 0x8BE0079C531659141344CD1FD0A4F28419497F9722A3DAAFE3B4186F6B6457E0 PUSH1 0x40 MLOAD PUSH1 0x40 MLOAD DUP1 SWAP2 SUB SWAP1 LOG3 POP POP JUMP JUMPDEST PUSH0 CALLER SWAP1 POP SWAP1 JUMP JUMPDEST PUSH0 DUP1 REVERT JUMPDEST PUSH0 PUSH20 0xFFFFFFFFFFFFFFFFFFFFFFFFFFFFFFFFFFFFFFFF DUP3 AND SWAP1 POP SWAP2 SWAP1 POP JUMP JUMPDEST PUSH0 PUSH2 0x74D DUP3 PUSH2 0x724 JUMP JUMPDEST SWAP1 POP SWAP2 SWAP1 POP JUMP JUMPDEST PUSH2 0x75D DUP2 PUSH2 0x743 JUMP JUMPDEST DUP2 EQ PUSH2 0x767 JUMPI PUSH0 DUP1 REVERT JUMPDEST POP JUMP JUMPDEST PUSH0 DUP2 CALLDATALOAD SWAP1 POP PUSH2 0x778 DUP2 PUSH2 0x754 JUMP JUMPDEST SWAP3 SWAP2 POP POP JUMP JUMPDEST PUSH0 DUP2 SWAP1 POP SWAP2 SWAP1 POP JUMP JUMPDEST PUSH2 0x790 DUP2 PUSH2 0x77E JUMP JUMPDEST DUP2 EQ PUSH2 0x79A JUMPI PUSH0 DUP1 REVERT JUMPDEST POP JUMP JUMPDEST PUSH0 DUP2 CALLDATALOAD SWAP1 POP PUSH2 0x7AB DUP2 PUSH2 0x787 JUMP JUMPDEST SWAP3 SWAP2 POP POP JUMP JUMPDEST PUSH0 DUP1 PUSH1 0x40 DUP4 DUP6 SUB SLT ISZERO PUSH2 0x7C7 JUMPI PUSH2 0x7C6 PUSH2 0x720 JUMP JUMPDEST JUMPDEST PUSH0 PUSH2 0x7D4 DUP6 DUP3 DUP7 ADD PUSH2 0x76A JUMP JUMPDEST SWAP3 POP POP PUSH1 0x20 PUSH2 0x7E5 DUP6 DUP3 DUP7 ADD PUSH2 0x79D JUMP JUMPDEST SWAP2 POP POP SWAP3 POP SWAP3 SWAP1 POP JUMP JUMPDEST PUSH2 0x7F8 DUP2 PUSH2 0x77E JUMP JUMPDEST DUP3 MSTORE POP POP JUMP JUMPDEST PUSH0 PUSH1 0x20 DUP3 ADD SWAP1 POP PUSH2 0x811 PUSH0 DUP4 ADD DUP5 PUSH2 0x7EF JUMP JUMPDEST SWAP3 SWAP2 POP POP JUMP JUMPDEST PUSH0 PUSH1 0x20 DUP3 DUP5 SUB SLT ISZERO PUSH2 0x82C JUMPI PUSH2 0x82B PUSH2 0x720 JUMP JUMPDEST JUMPDEST PUSH0 PUSH2 0x839 DUP5 DUP3 DUP6 ADD PUSH2 0x76A JUMP JUMPDEST SWAP2 POP POP SWAP3 SWAP2 POP POP JUMP JUMPDEST PUSH0 PUSH1 0x20 DUP3 DUP5 SUB SLT ISZERO PUSH2 0x857 JUMPI PUSH2 0x856 PUSH2 0x720 JUMP JUMPDEST JUMPDEST PUSH0 PUSH2 0x864 DUP5 DUP3 DUP6 ADD PUSH2 0x79D JUMP JUMPDEST SWAP2 POP POP SWAP3 SWAP2 POP POP JUMP JUMPDEST PUSH2 0x876 DUP2 PUSH2 0x743 JUMP JUMPDEST DUP3 MSTORE POP POP JUMP JUMPDEST PUSH0 PUSH1 0x20 DUP3 ADD SWAP1 POP PUSH2 0x88F PUSH0 DUP4 ADD DUP5 PUSH2 0x86D JUMP JUMPDEST SWAP3 SWAP2 POP POP JUMP JUMPDEST PUSH0 DUP2 ISZERO ISZERO SWAP1 POP SWAP2 SWAP1 POP JUMP JUMPDEST PUSH2 0x8A9 DUP2 PUSH2 0x895 JUMP JUMPDEST DUP3 MSTORE POP POP JUMP JUMPDEST PUSH0 PUSH1 0x20 DUP3 ADD SWAP1 POP PUSH2 0x8C2 PUSH0 DUP4 ADD DUP5 PUSH2 0x8A0 JUMP JUMPDEST SWAP3 SWAP2 POP POP JUMP JUMPDEST PUSH0 DUP2 SWAP1 POP SWAP2 SWAP1 POP JUMP JUMPDEST PUSH0 PUSH2 0x8EB PUSH2 0x8E6 PUSH2 0x8E1 DUP5 PUSH2 0x724 JUMP JUMPDEST PUSH2 0x8C8 JUMP JUMPDEST PUSH2 0x724 JUMP JUMPDEST SWAP1 POP SWAP2 SWAP1 POP JUMP JUMPDEST PUSH0 PUSH2 0x8FC DUP3 PUSH2 0x8D1 JUMP JUMPDEST SWAP1 POP SWAP2 SWAP1 POP JUMP JUMPDEST PUSH0 PUSH2 0x90D DUP3 PUSH2 0x8F2 JUMP JUMPDEST SWAP1 POP SWAP2 SWAP1 POP JUMP JUMPDEST PUSH2 0x91D DUP2 PUSH2 0x903 JUMP JUMPDEST DUP3 MSTORE POP POP JUMP JUMPDEST PUSH0 PUSH1 0x20 DUP3 ADD SWAP1 POP PUSH2 0x936 PUSH0 DUP4 ADD DUP5 PUSH2 0x914 JUMP JUMPDEST SWAP3 SWAP2 POP POP JUMP JUMPDEST PUSH0 PUSH1 0x40 DUP3 ADD SWAP1 POP PUSH2 0x94F PUSH0 DUP4 ADD DUP6 PUSH2 0x86D JUMP JUMPDEST PUSH2 0x95C PUSH1 0x20 DUP4 ADD DUP5 PUSH2 0x7EF JUMP JUMPDEST SWAP4 SWAP3 POP POP POP JUMP JUMPDEST PUSH2 0x96C DUP2 PUSH2 0x895 JUMP JUMPDEST DUP2 EQ PUSH2 0x976 JUMPI PUSH0 DUP1 REVERT JUMPDEST POP JUMP JUMPDEST PUSH0 DUP2 MLOAD SWAP1 POP PUSH2 0x987 DUP2 PUSH2 0x963 JUMP JUMPDEST SWAP3 SWAP2 POP POP JUMP JUMPDEST PUSH0 PUSH1 0x20 DUP3 DUP5 SUB SLT ISZERO PUSH2 0x9A2 JUMPI PUSH2 0x9A1 PUSH2 0x720 JUMP JUMPDEST JUMPDEST PUSH0 PUSH2 0x9AF DUP5 DUP3 DUP6 ADD PUSH2 0x979 JUMP JUMPDEST SWAP2 POP POP SWAP3 SWAP2 POP POP JUMP JUMPDEST PUSH0 DUP3 DUP3 MSTORE PUSH1 0x20 DUP3 ADD SWAP1 POP SWAP3 SWAP2 POP POP JUMP JUMPDEST PUSH32 0x5472616E73666572206661696C65640000000000000000000000000000000000 PUSH0 DUP3 ADD MSTORE POP JUMP JUMPDEST PUSH0 PUSH2 0x9FC PUSH1 0xF DUP4 PUSH2 0x9B8 JUMP JUMPDEST SWAP2 POP PUSH2 0xA07 DUP3 PUSH2 0x9C8 JUMP JUMPDEST PUSH1 0x20 DUP3 ADD SWAP1 POP SWAP2 SWAP1 POP JUMP JUMPDEST PUSH0 PUSH1 0x20 DUP3 ADD SWAP1 POP DUP2 DUP2 SUB PUSH0 DUP4 ADD MSTORE PUSH2 0xA29 DUP2 PUSH2 0x9F0 JUMP JUMPDEST SWAP1 POP SWAP2 SWAP1 POP JUMP JUMPDEST PUSH32 0x4E487B7100000000000000000000000000000000000000000000000000000000 PUSH0 MSTORE PUSH1 0x11 PUSH1 0x4 MSTORE PUSH1 0x24 PUSH0 REVERT JUMPDEST PUSH0 PUSH2 0xA67 DUP3 PUSH2 0x77E JUMP JUMPDEST SWAP2 POP PUSH2 0xA72 DUP4 PUSH2 0x77E JUMP JUMPDEST SWAP3 POP DUP3 DUP3 ADD SWAP1 POP DUP1 DUP3 GT ISZERO PUSH2 0xA8A JUMPI PUSH2 0xA89 PUSH2 0xA30 JUMP JUMPDEST JUMPDEST SWAP3 SWAP2 POP POP JUMP JUMPDEST PUSH0 PUSH2 0xA9A DUP3 PUSH2 0x77E JUMP JUMPDEST SWAP2 POP PUSH32 0xFFFFFFFFFFFFFFFFFFFFFFFFFFFFFFFFFFFFFFFFFFFFFFFFFFFFFFFFFFFFFFFF DUP3 SUB PUSH2 0xACC JUMPI PUSH2 0xACB PUSH2 0xA30 JUMP JUMPDEST JUMPDEST PUSH1 0x1 DUP3 ADD SWAP1 POP SWAP2 SWAP1 POP JUMP JUMPDEST PUSH0 PUSH1 0x60 DUP3 ADD SWAP1 POP PUSH2 0xAEA PUSH0 DUP4 ADD DUP7 PUSH2 0x86D JUMP JUMPDEST PUSH2 0xAF7 PUSH1 0x20 DUP4 ADD DUP6 PUSH2 0x86D JUMP JUMPDEST PUSH2 0xB04 PUSH1 0x40 DUP4 ADD DUP5 PUSH2 0x7EF JUMP JUMPDEST SWAP5 SWAP4 POP POP POP POP JUMP INVALID LOG2 PUSH5 0x6970667358 0x22 SLT KECCAK256 0xFC LOG3 SWAP4 PUSH6 0xBD57C17A9D6C NOT PUSH24 0x7EEBC81F62DB8B3AFA7617764D0A7B8BA74D4A9964736F6C PUSH4 0x4300081A STOP CALLER "
		},
		"gasEstimates": {
			"creation": {
				"codeDepositCost": "576400",
				"executionCost": "infinite",
				"totalCost": "infinite"
			},
			"external": {
				"isMember(address)": "2907",
				"memberCount()": "infinite",
				"owner()": "2559",
				"payPremium(uint256)": "infinite",
				"payout(address,uint256)": "infinite",
				"premiumToken()": "infinite",
				"premiumsPaid(address)": "2847",
				"renounceOwnership()": "infinite",
				"totalPayouts()": "2492",
				"totalPremiums()": "2425",
				"transferOwnership(address)": "infinite"
			}
		},
		"methodIdentifiers": {
			"isMember(address)": "a230c524",
			"memberCount()": "11aee380",
			"owner()": "8da5cb5b",
			"payPremium(uint256)": "4364b26e",
			"payout(address,uint256)": "117de2fd",
			"premiumToken()": "b180783d",
			"premiumsPaid(address)": "293e571c",
			"renounceOwnership()": "715018a6",
			"totalPayouts()": "4089b170",
			"totalPremiums()": "5bda1584",
			"transferOwnership(address)": "f2fde38b"
		}
	},
	"abi": [
		{
			"inputs": [
				{
					"internalType": "address",
					"name": "_premiumToken",
					"type": "address"
				},
				{
					"internalType": "address",
					"name": "_initialOwner",
					"type": "address"
				}
			],
			"stateMutability": "nonpayable",
			"type": "constructor"
		},
		{
			"inputs": [
				{
					"internalType": "address",
					"name": "owner",
					"type": "address"
				}
			],
			"name": "OwnableInvalidOwner",
			"type": "error"
		},
		{
			"inputs": [
				{
					"internalType": "address",
					"name": "account",
					"type": "address"
				}
			],
			"name": "OwnableUnauthorizedAccount",
			"type": "error"
		},
		{
			"anonymous": false,
			"inputs": [
				{
					"indexed": true,
					"internalType": "address",
					"name": "previousOwner",
					"type": "address"
				},
				{
					"indexed": true,
					"internalType": "address",
					"name": "newOwner",
					"type": "address"
				}
			],
			"name": "OwnershipTransferred",
			"type": "event"
		},
		{
			"inputs": [
				{
					"internalType": "address",
					"name": "member",
					"type": "address"
				}
			],
			"name": "isMember",
			"outputs": [
				{
					"internalType": "bool",
					"name": "",
					"type": "bool"
				}
			],
			"stateMutability": "view",
			"type": "function"
		},
		{
			"inputs": [],
			"name": "memberCount",
			"outputs": [
				{
					"internalType": "uint256",
					"name": "",
					"type": "uint256"
				}
			],
			"stateMutability": "view",
			"type": "function"
		},
		{
			"inputs": [],
			"name": "owner",
			"outputs": [
				{
					"internalType": "address",
					"name": "",
					"type": "address"
				}
			],
			"stateMutability": "view",
			"type": "function"
		},
		{
			"inputs": [
				{
					"internalType": "uint256",
					"name": "amount",
					"type": "uint256"
				}
			],
			"name": "payPremium",
			"outputs": [],
			"stateMutability": "nonpayable",
			"type": "function"
		},
		{
			"inputs": [
				{
					"internalType": "address",
					"name": "to",
					"type": "address"
				},
				{
					"internalType": "uint256",
					"name": "amount",
					"type": "uint256"
				}
			],
			"name": "payout",
			"outputs": [],
			"stateMutability": "nonpayable",
			"type": "function"
		},
		{
			"inputs": [],
			"name": "premiumToken",
			"outputs": [
				{
					"internalType": "contract IERC20",
					"name": "",
					"type": "address"
				}
			],
			"stateMutability": "view",
			"type": "function"
		},
		{
			"inputs": [
				{
					"internalType": "address",
					"name": "",
					"type": "address"
				}
			],
			"name": "premiumsPaid",
			"outputs": [
				{
					"internalType": "uint256",
					"name": "",
					"type": "uint256"
				}
			],
			"stateMutability": "view",
			"type": "function"
		},
		{
			"inputs": [],
			"name": "renounceOwnership",
			"outputs": [],
			"stateMutability": "nonpayable",
			"type": "function"
		},
		{
			"inputs": [],
			"name": "totalPayouts",
			"outputs": [
				{
					"internalType": "uint256",
					"name": "",
					"type": "uint256"
				}
			],
			"stateMutability": "view",
			"type": "function"
		},
		{
			"inputs": [],
			"name": "totalPremiums",
			"outputs": [
				{
					"internalType": "uint256",
					"name": "",
					"type": "uint256"
				}
			],
			"stateMutability": "view",
			"type": "function"
		},
		{
			"inputs": [
				{
					"internalType": "address",
					"name": "newOwner",
					"type": "address"
				}
			],
			"name": "transferOwnership",
			"outputs": [],
			"stateMutability": "nonpayable",
			"type": "function"
		}
	]
}