{
	"data": {
		"bytecode": {
			"linkReferences": {},
			"object": "608060405234801561000f575f80fd5b506040516118643803806118648339818101604052810190610031919061032b565b805f73ffffffffffffffffffffffffffffffffffffffff168173ffffffffffffffffffffffffffffffffffffffff16036100a2575f6040517f1e4fbdf7000000000000000000000000000000000000000000000000000000008152600401610099919061038a565b60405180910390fd5b6100b1816101d960201b60201c565b508260015f6101000a81548173ffffffffffffffffffffffffffffffffffffffff021916908373ffffffffffffffffffffffffffffffffffffffff16021790555060015f9054906101000a900473ffffffffffffffffffffffffffffffffffffffff1673ffffffffffffffffffffffffffffffffffffffff1663b180783d6040518163ffffffff1660e01b8152600401602060405180830381865afa15801561015c573d5f803e3d5ffd5b505050506040513d601f19601f8201168201806040525081019061018091906103de565b60025f6101000a81548173ffffffffffffffffffffffffffffffffffffffff021916908373ffffffffffffffffffffffffffffffffffffffff16021790555081426101cb9190610436565b600381905550505050610469565b5f805f9054906101000a900473ffffffffffffffffffffffffffffffffffffffff169050815f806101000a81548173ffffffffffffffffffffffffffffffffffffffff021916908373ffffffffffffffffffffffffffffffffffffffff1602179055508173ffffffffffffffffffffffffffffffffffffffff168173ffffffffffffffffffffffffffffffffffffffff167f8be0079c531659141344cd1fd0a4f28419497f9722a3daafe3b4186f6b6457e060405160405180910390a35050565b5f80fd5b5f73ffffffffffffffffffffffffffffffffffffffff82169050919050565b5f6102c78261029e565b9050919050565b6102d7816102bd565b81146102e1575f80fd5b50565b5f815190506102f2816102ce565b92915050565b5f819050919050565b61030a816102f8565b8114610314575f80fd5b50565b5f8151905061032581610301565b92915050565b5f805f606084860312156103425761034161029a565b5b5f61034f868287016102e4565b935050602061036086828701610317565b9250506040610371868287016102e4565b9150509250925092565b610384816102bd565b82525050565b5f60208201905061039d5f83018461037b565b92915050565b5f6103ad826102bd565b9050919050565b6103bd816103a3565b81146103c7575f80fd5b50565b5f815190506103d8816103b4565b92915050565b5f602082840312156103f3576103f261029a565b5b5f610400848285016103ca565b91505092915050565b7f4e487b71000000000000000000000000000000000000000000000000000000005f52601160045260245ffd5b5f610440826102f8565b915061044b836102f8565b925082820190508082111561046357610462610409565b5b92915050565b6113ee806104765f395ff3fe608060405234801561000f575f80fd5b50600436106100cd575f3560e01c8063a01a22b91161008a578063b511b30c11610064578063b511b30c146101b5578063d19197c1146101d3578063da494954146101f1578063f2fde38b14610221576100cd565b8063a01a22b914610149578063ab2adc0014610179578063b180783d14610197576100cd565b80631fee5ccd146100d15780633a98ef39146100db57806362bcad7b146100f9578063666da64f14610117578063715018a6146101215780638da5cb5b1461012b575b5f80fd5b6100d961023d565b005b6100e36105cd565b6040516100f09190610d53565b60405180910390f35b6101016105d3565b60405161010e9190610d53565b60405180910390f35b61011f6105d9565b005b61012961086d565b005b610133610880565b6040516101409190610dab565b60405180910390f35b610163600480360381019061015e9190610df2565b6108a7565b6040516101709190610d53565b60405180910390f35b6101816108ed565b60405161018e9190610e78565b60405180910390f35b61019f610912565b6040516101ac9190610eb1565b60405180910390f35b6101bd610937565b6040516101ca9190610ee4565b60405180910390f35b6101db610949565b6040516101e89190610d53565b60405180910390f35b61020b60048036038101906102069190610df2565b610952565b6040516102189190610d53565b60405180910390f35b61023b60048036038101906102369190610df2565b610967565b005b6102456109eb565b60035442101561028a576040517f08c379a000000000000000000000000000000000000000000000000000000000815260040161028190610f57565b60405180910390fd5b60045f9054906101000a900460ff16156102d9576040517f08c379a00000000000000000000000000000000000000000000000000000000081526004016102d090610fbf565b60405180910390fd5b5f60015f9054906101000a900473ffffffffffffffffffffffffffffffffffffffff1673ffffffffffffffffffffffffffffffffffffffff16635bda15846040518163ffffffff1660e01b8152600401602060405180830381865afa158015610344573d5f803e3d5ffd5b505050506040513d601f19601f820116820180604052508101906103689190611007565b90505f60015f9054906101000a900473ffffffffffffffffffffffffffffffffffffffff1673ffffffffffffffffffffffffffffffffffffffff16634089b1706040518163ffffffff1660e01b8152600401602060405180830381865afa1580156103d5573d5f803e3d5ffd5b505050506040513d601f19601f820116820180604052508101906103f99190611007565b90505f818311610409575f610416565b8183610415919061105f565b5b90505f811115610577575f610429610a72565b90505f5b8151811015610574575f82828151811061044a57610449611092565b5b602002602001015190505f60015f9054906101000a900473ffffffffffffffffffffffffffffffffffffffff1673ffffffffffffffffffffffffffffffffffffffff1663293e571c836040518263ffffffff1660e01b81526004016104af9190610dab565b602060405180830381865afa1580156104ca573d5f803e3d5ffd5b505050506040513d601f19601f820116820180604052508101906104ee9190611007565b90505f8782876104fe91906110bf565b610508919061112d565b90508060055f8573ffffffffffffffffffffffffffffffffffffffff1673ffffffffffffffffffffffffffffffffffffffff1681526020019081526020015f20819055508060065f82825461055d919061115d565b92505081905550505050808060010191505061042d565b50505b600160045f6101000a81548160ff0219169083151502179055507f939df96a3b47dbfb83da233006cef1eb233fc5cba50ea94fecdebea4d99423e6816040516105c09190610d53565b60405180910390a1505050565b60065481565b60035481565b60045f9054906101000a900460ff16610627576040517f08c379a000000000000000000000000000000000000000000000000000000000815260040161061e906111da565b60405180910390fd5b5f60055f3373ffffffffffffffffffffffffffffffffffffffff1673ffffffffffffffffffffffffffffffffffffffff1681526020019081526020015f2054116106a6576040517f08c379a000000000000000000000000000000000000000000000000000000000815260040161069d90611242565b60405180910390fd5b5f60055f3373ffffffffffffffffffffffffffffffffffffffff1673ffffffffffffffffffffffffffffffffffffffff1681526020019081526020015f205490505f60055f3373ffffffffffffffffffffffffffffffffffffffff1673ffffffffffffffffffffffffffffffffffffffff1681526020019081526020015f20819055508060065f82825461073a919061105f565b9250508190555060025f9054906101000a900473ffffffffffffffffffffffffffffffffffffffff1673ffffffffffffffffffffffffffffffffffffffff1663a9059cbb33836040518363ffffffff1660e01b815260040161079d929190611260565b6020604051808303815f875af11580156107b9573d5f803e3d5ffd5b505050506040513d601f19601f820116820180604052508101906107dd91906112b1565b61081c576040517f08c379a000000000000000000000000000000000000000000000000000000000815260040161081390611326565b60405180910390fd5b3373ffffffffffffffffffffffffffffffffffffffff167f6e166a59dcd35058fdbbf1db0aff7f20de4d17f2914ea5922322afd9c7db21c6826040516108629190610d53565b60405180910390a250565b6108756109eb565b61087e5f610c73565b565b5f805f9054906101000a900473ffffffffffffffffffffffffffffffffffffffff16905090565b5f60055f8373ffffffffffffffffffffffffffffffffffffffff1673ffffffffffffffffffffffffffffffffffffffff1681526020019081526020015f20549050919050565b60015f9054906101000a900473ffffffffffffffffffffffffffffffffffffffff1681565b60025f9054906101000a900473ffffffffffffffffffffffffffffffffffffffff1681565b60045f9054906101000a900460ff1681565b5f600654905090565b6005602052805f5260405f205f915090505481565b61096f6109eb565b5f73ffffffffffffffffffffffffffffffffffffffff168173ffffffffffffffffffffffffffffffffffffffff16036109df575f6040517f1e4fbdf70000000000000000000000000000000000000000000000000000000081526004016109d69190610dab565b60405180910390fd5b6109e881610c73565b50565b6109f3610d34565b73ffffffffffffffffffffffffffffffffffffffff16610a11610880565b73ffffffffffffffffffffffffffffffffffffffff1614610a7057610a34610d34565b6040517f118cdaa7000000000000000000000000000000000000000000000000000000008152600401610a679190610dab565b60405180910390fd5b565b60605f60015f9054906101000a900473ffffffffffffffffffffffffffffffffffffffff1673ffffffffffffffffffffffffffffffffffffffff166311aee3806040518163ffffffff1660e01b8152600401602060405180830381865afa158015610adf573d5f803e3d5ffd5b505050506040513d601f19601f82011682018060405250810190610b039190611007565b90505f8167ffffffffffffffff811115610b2057610b1f611344565b5b604051908082528060200260200182016040528015610b4e5781602001602082028036833780820191505090505b5090505f805b83811015610c69575f81905060015f9054906101000a900473ffffffffffffffffffffffffffffffffffffffff1673ffffffffffffffffffffffffffffffffffffffff1663a230c524826040518263ffffffff1660e01b8152600401610bba9190610dab565b602060405180830381865afa158015610bd5573d5f803e3d5ffd5b505050506040513d601f19601f82011682018060405250810190610bf991906112b1565b15610c5b5780848481518110610c1257610c11611092565b5b602002602001019073ffffffffffffffffffffffffffffffffffffffff16908173ffffffffffffffffffffffffffffffffffffffff16815250508280610c5790611371565b9350505b508080600101915050610b54565b5081935050505090565b5f805f9054906101000a900473ffffffffffffffffffffffffffffffffffffffff169050815f806101000a81548173ffffffffffffffffffffffffffffffffffffffff021916908373ffffffffffffffffffffffffffffffffffffffff1602179055508173ffffffffffffffffffffffffffffffffffffffff168173ffffffffffffffffffffffffffffffffffffffff167f8be0079c531659141344cd1fd0a4f28419497f9722a3daafe3b4186f6b6457e060405160405180910390a35050565b5f33905090565b5f819050919050565b610d4d81610d3b565b82525050565b5f602082019050610d665f830184610d44565b92915050565b5f73ffffffffffffffffffffffffffffffffffffffff82169050919050565b5f610d9582610d6c565b9050919050565b610da581610d8b565b82525050565b5f602082019050610dbe5f830184610d9c565b92915050565b5f80fd5b610dd181610d8b565b8114610ddb575f80fd5b50565b5f81359050610dec81610dc8565b92915050565b5f60208284031215610e0757610e06610dc4565b5b5f610e1484828501610dde565b91505092915050565b5f819050919050565b5f610e40610e3b610e3684610d6c565b610e1d565b610d6c565b9050919050565b5f610e5182610e26565b9050919050565b5f610e6282610e47565b9050919050565b610e7281610e58565b82525050565b5f602082019050610e8b5f830184610e69565b92915050565b5f610e9b82610e47565b9050919050565b610eab81610e91565b82525050565b5f602082019050610ec45f830184610ea2565b92915050565b5f8115159050919050565b610ede81610eca565b82525050565b5f602082019050610ef75f830184610ed5565b92915050565b5f82825260208201905092915050565b7f436f76657261676520706572696f64206e6f7420656e646564000000000000005f82015250565b5f610f41601983610efd565b9150610f4c82610f0d565b602082019050919050565b5f6020820190508181035f830152610f6e81610f35565b9050919050565b7f50726f6669747320616c726561647920646973747269627574656400000000005f82015250565b5f610fa9601b83610efd565b9150610fb482610f75565b602082019050919050565b5f6020820190508181035f830152610fd681610f9d565b9050919050565b610fe681610d3b565b8114610ff0575f80fd5b50565b5f8151905061100181610fdd565b92915050565b5f6020828403121561101c5761101b610dc4565b5b5f61102984828501610ff3565b91505092915050565b7f4e487b71000000000000000000000000000000000000000000000000000000005f52601160045260245ffd5b5f61106982610d3b565b915061107483610d3b565b925082820390508181111561108c5761108b611032565b5b92915050565b7f4e487b71000000000000000000000000000000000000000000000000000000005f52603260045260245ffd5b5f6110c982610d3b565b91506110d483610d3b565b92508282026110e281610d3b565b915082820484148315176110f9576110f8611032565b5b5092915050565b7f4e487b71000000000000000000000000000000000000000000000000000000005f52601260045260245ffd5b5f61113782610d3b565b915061114283610d3b565b92508261115257611151611100565b5b828204905092915050565b5f61116782610d3b565b915061117283610d3b565b925082820190508082111561118a57611189611032565b5b92915050565b7f50726f66697473206e6f742064697374726962757465642079657400000000005f82015250565b5f6111c4601b83610efd565b91506111cf82611190565b602082019050919050565b5f6020820190508181035f8301526111f1816111b8565b9050919050565b7f4e6f20736861726520746f20636c61696d0000000000000000000000000000005f82015250565b5f61122c601183610efd565b9150611237826111f8565b602082019050919050565b5f6020820190508181035f83015261125981611220565b9050919050565b5f6040820190506112735f830185610d9c565b6112806020830184610d44565b9392505050565b61129081610eca565b811461129a575f80fd5b50565b5f815190506112ab81611287565b92915050565b5f602082840312156112c6576112c5610dc4565b5b5f6112d38482850161129d565b91505092915050565b7f5472616e73666572206661696c656400000000000000000000000000000000005f82015250565b5f611310600f83610efd565b915061131b826112dc565b602082019050919050565b5f6020820190508181035f83015261133d81611304565b9050919050565b7f4e487b71000000000000000000000000000000000000000000000000000000005f52604160045260245ffd5b5f61137b82610d3b565b91507fffffffffffffffffffffffffffffffffffffffffffffffffffffffffffffffff82036113ad576113ac611032565b5b60018201905091905056fea26469706673582212205b208b76196e09711391e58cb9b33c8388fa8b2e7c92e115214f2d5170f4386564736f6c634300081a0033",
			"opcodes": "PUSH1 0x80 PUSH1 0x40 MSTORE CALLVALUE DUP1 ISZERO PUSH2 0xF JUMPI PUSH0 DUP1 REVERT JUMPDEST POP PUSH1 0x40 MLOAD PUSH2 0x1864 CODESIZE SUB DUP1 PUSH2 0x1864 DUP4 CODECOPY DUP2 DUP2 ADD PUSH1 0x40 MSTORE DUP2 ADD SWAP1 PUSH2 0x31 SWAP2 SWAP1 PUSH2 0x32B JUMP JUMPDEST DUP1 PUSH0 PUSH20 0xFFFFFFFFFFFFFFFFFFFFFFFFFFFFFFFFFFFFFFFF AND DUP2 PUSH20 0xFFFFFFFFFFFFFFFFFFFFFFFFFFFFFFFFFFFFFFFF AND SUB PUSH2 0xA2 JUMPI PUSH0 PUSH1 0x40 MLOAD PUSH32 0x1E4FBDF700000000000000000000000000000000000000000000000000000000 DUP2 MSTORE PUSH1 0x4 ADD PUSH2 0x99 SWAP2 SWAP1 PUSH2 0x38A JUMP JUMPDEST PUSH1 0x40 MLOAD DUP1 SWAP2 SUB SWAP1 REVERT JUMPDEST PUSH2 0xB1 DUP2 PUSH2 0x1D9 PUSH1 0x20 SHL PUSH1 0x20 SHR JUMP JUMPDEST POP DUP3 PUSH1 0x1 PUSH0 PUSH2 0x100 EXP DUP2 SLOAD DUP2 PUSH20 0xFFFFFFFFFFFFFFFFFFFFFFFFFFFFFFFFFFFFFFFF MUL NOT AND SWAP1 DUP4 PUSH20 0xFFFFFFFFFFFFFFFFFFFFFFFFFFFFFFFFFFFFFFFF AND MUL OR SWAP1 SSTORE POP PUSH1 0x1 PUSH0 SWAP1 SLOAD SWAP1 PUSH2 0x100 EXP SWAP1 DIV PUSH20 0xFFFFFFFFFFFFFFFFFFFFFFFFFFFFFFFFFFFFFFFF AND PUSH20 0xFFFFFFFFFFFFFFFFFFFFFFFFFFFFFFFFFFFFFFFF AND PUSH4 0xB180783D PUSH1 0x40 MLOAD DUP2 PUSH4 0xFFFFFFFF AND PUSH1 0xE0 SHL DUP2 MSTORE PUSH1 0x4 ADD PUSH1 0x20 PUSH1 0x40 MLOAD DUP1 DUP4 SUB DUP2 DUP7 GAS STATICCALL ISZERO DUP1 ISZERO PUSH2 0x15C JUMPI RETURNDATASIZE PUSH0 DUP1 RETURNDATACOPY RETURNDATASIZE PUSH0 REVERT JUMPDEST POP POP POP POP PUSH1 0x40 MLOAD RETURNDATASIZE PUSH1 0x1F NOT PUSH1 0x1F DUP3 ADD AND DUP3 ADD DUP1 PUSH1 0x40 MSTORE POP DUP2 ADD SWAP1 PUSH2 0x180 SWAP2 SWAP1 PUSH2 0x3DE JUMP JUMPDEST PUSH1 0x2 PUSH0 PUSH2 0x100 EXP DUP2 SLOAD DUP2 PUSH20 0xFFFFFFFFFFFFFFFFFFFFFFFFFFFFFFFFFFFFFFFF MUL NOT AND SWAP1 DUP4 PUSH20 0xFFFFFFFFFFFFFFFFFFFFFFFFFFFFFFFFFFFFFFFF AND MUL OR SWAP1 SSTORE POP DUP2 TIMESTAMP PUSH2 0x1CB SWAP2 SWAP1 PUSH2 0x436 JUMP JUMPDEST PUSH1 0x3 DUP2 SWAP1 SSTORE POP POP POP POP PUSH2 0x469 JUMP JUMPDEST PUSH0 DUP1 PUSH0 SWAP1 SLOAD SWAP1 PUSH2 0x100 EXP SWAP1 DIV PUSH20 0xFFFFFFFFFFFFFFFFFFFFFFFFFFFFFFFFFFFFFFFF AND SWAP1 POP DUP2 PUSH0 DUP1 PUSH2 0x100 EXP DUP2 SLOAD DUP2 PUSH20 0xFFFFFFFFFFFFFFFFFFFFFFFFFFFFFFFFFFFFFFFF MUL NOT AND SWAP1 DUP4 PUSH20 0xFFFFFFFFFFFFFFFFFFFFFFFFFFFFFFFFFFFFFFFF AND MUL OR SWAP1 SSTORE POP DUP2 PUSH20 0xFFFFFFFFFFFFFFFFFFFFFFFFFFFFFFFFFFFFFFFF AND DUP2 PUSH20 0xFFFFFFFFFFFFFFFFFFFFFFFFFFFFFFFFFFFFFFFF AND PUSH32 0x8BE0079C531659141344CD1FD0A4F28419497F9722A3DAAFE3B4186F6B6457E0 PUSH1 0x40 MLOAD PUSH1 0x40 MLOAD DUP1 SWAP2 SUB SWAP1 LOG3 POP POP JUMP JUMPDEST PUSH0 DUP1 REVERT JUMPDEST PUSH0 PUSH20 0xFFFFFFFFFFFFFFFFFFFFFFFFFFFFFFFFFFFFFFFF DUP3 AND SWAP1 POP SWAP2 SWAP1 POP JUMP JUMPDEST PUSH0 PUSH2 0x2C7 DUP3 PUSH2 0x29E JUMP JUMPDEST SWAP1 POP SWAP2 SWAP1 POP JUMP JUMPDEST PUSH2 0x2D7 DUP2 PUSH2 0x2BD JUMP JUMPDEST DUP2 EQ PUSH2 0x2E1 JUMPI PUSH0 DUP1 REVERT JUMPDEST POP JUMP JUMPDEST PUSH0 DUP2 MLOAD SWAP1 POP PUSH2 0x2F2 DUP2 PUSH2 0x2CE JUMP JUMPDEST SWAP3 SWAP2 POP POP JUMP JUMPDEST PUSH0 DUP2 SWAP1 POP SWAP2 SWAP1 POP JUMP JUMPDEST PUSH2 0x30A DUP2 PUSH2 0x2F8 JUMP JUMPDEST DUP2 EQ PUSH2 0x314 JUMPI PUSH0 DUP1 REVERT JUMPDEST POP JUMP JUMPDEST PUSH0 DUP2 MLOAD SWAP1 POP PUSH2 0x325 DUP2 PUSH2 0x301 JUMP JUMPDEST SWAP3 SWAP2 POP POP JUMP JUMPDEST PUSH0 DUP1 PUSH0 PUSH1 0x60 DUP5 DUP7 SUB SLT ISZERO PUSH2 0x342 JUMPI PUSH2 0x341 PUSH2 0x29A JUMP JUMPDEST JUMPDEST PUSH0 PUSH2 0x34F DUP7 DUP3 DUP8 ADD PUSH2 0x2E4 JUMP JUMPDEST SWAP4 POP POP PUSH1 0x20 PUSH2 0x360 DUP7 DUP3 DUP8 ADD PUSH2 0x317 JUMP JUMPDEST SWAP3 POP POP PUSH1 0x40 PUSH2 0x371 DUP7 DUP3 DUP8 ADD PUSH2 0x2E4 JUMP JUMPDEST SWAP2 POP POP SWAP3 POP SWAP3 POP SWAP3 JUMP JUMPDEST PUSH2 0x384 DUP2 PUSH2 0x2BD JUMP JUMPDEST DUP3 MSTORE POP POP JUMP JUMPDEST PUSH0 PUSH1 0x20 DUP3 ADD SWAP1 POP PUSH2 0x39D PUSH0 DUP4 ADD DUP5 PUSH2 0x37B JUMP JUMPDEST SWAP3 SWAP2 POP POP JUMP JUMPDEST PUSH0 PUSH2 0x3AD DUP3 PUSH2 0x2BD JUMP JUMPDEST SWAP1 POP SWAP2 SWAP1 POP JUMP JUMPDEST PUSH2 0x3BD DUP2 PUSH2 0x3A3 JUMP JUMPDEST DUP2 EQ PUSH2 0x3C7 JUMPI PUSH0 DUP1 REVERT JUMPDEST POP JUMP JUMPDEST PUSH0 DUP2 MLOAD SWAP1 POP PUSH2 0x3D8 DUP2 PUSH2 0x3B4 JUMP JUMPDEST SWAP3 SWAP2 POP POP JUMP JUMPDEST PUSH0 PUSH1 0x20 DUP3 DUP5 SUB SLT ISZERO PUSH2 0x3F3 JUMPI PUSH2 0x3F2 PUSH2 0x29A JUMP JUMPDEST JUMPDEST PUSH0 PUSH2 0x400 DUP5 DUP3 DUP6 ADD PUSH2 0x3CA JUMP JUMPDEST SWAP2 POP POP SWAP3 SWAP2 POP POP JUMP JUMPDEST PUSH32 0x4E487B7100000000000000000000000000000000000000000000000000000000 PUSH0 MSTORE PUSH1 0x11 PUSH1 0x4 MSTORE PUSH1 0x24 PUSH0 REVERT JUMPDEST PUSH0 PUSH2 0x440 DUP3 PUSH2 0x2F8 JUMP JUMPDEST SWAP2 POP PUSH2 0x44B DUP4 PUSH2 0x2F8 JUMP JUMPDEST SWAP3 POP DUP3 DUP3 ADD SWAP1 POP DUP1 DUP3 GT ISZERO PUSH2 0x463 JUMPI PUSH2 0x462 PUSH2 0x409 JUMP JUMPDEST JUMPDEST SWAP3 SWAP2 POP POP JUMP JUMPDEST PUSH2 0x13EE DUP1 PUSH2 0x476 PUSH0 CODECOPY PUSH0 RETURN INVALID PUSH1 0x80 PUSH1 0x40 MSTORE CALLVALUE DUP1 ISZERO PUSH2 0xF JUMPI PUSH0 DUP1 REVERT JUMPDEST POP PUSH1 0x4 CALLDATASIZE LT PUSH2 0xCD JUMPI PUSH0 CALLDATALOAD PUSH1 0xE0 SHR DUP1 PUSH4 0xA01A22B9 GT PUSH2 0x8A JUMPI DUP1 PUSH4 0xB511B30C GT PUSH2 0x64 JUMPI DUP1 PUSH4 0xB511B30C EQ PUSH2 0x1B5 JUMPI DUP1 PUSH4 0xD19197C1 EQ PUSH2 0x1D3 JUMPI DUP1 PUSH4 0xDA494954 EQ PUSH2 0x1F1 JUMPI DUP1 PUSH4 0xF2FDE38B EQ PUSH2 0x221 JUMPI PUSH2 0xCD JUMP JUMPDEST DUP1 PUSH4 0xA01A22B9 EQ PUSH2 0x149 JUMPI DUP1 PUSH4 0xAB2ADC00 EQ PUSH2 0x179 JUMPI DUP1 PUSH4 0xB180783D EQ PUSH2 0x197 JUMPI PUSH2 0xCD JUMP JUMPDEST DUP1 PUSH4 0x1FEE5CCD EQ PUSH2 0xD1 JUMPI DUP1 PUSH4 0x3A98EF39 EQ PUSH2 0xDB JUMPI DUP1 PUSH4 0x62BCAD7B EQ PUSH2 0xF9 JUMPI DUP1 PUSH4 0x666DA64F EQ PUSH2 0x117 JUMPI DUP1 PUSH4 0x715018A6 EQ PUSH2 0x121 JUMPI DUP1 PUSH4 0x8DA5CB5B EQ PUSH2 0x12B JUMPI JUMPDEST PUSH0 DUP1 REVERT JUMPDEST PUSH2 0xD9 PUSH2 0x23D JUMP JUMPDEST STOP JUMPDEST PUSH2 0xE3 PUSH2 0x5CD JUMP JUMPDEST PUSH1 0x40 MLOAD PUSH2 0xF0 SWAP2 SWAP1 PUSH2 0xD53 JUMP JUMPDEST PUSH1 0x40 MLOAD DUP1 SWAP2 SUB SWAP1 RETURN JUMPDEST PUSH2 0x101 PUSH2 0x5D3 JUMP JUMPDEST PUSH1 0x40 MLOAD PUSH2 0x10E SWAP2 SWAP1 PUSH2 0xD53 JUMP JUMPDEST PUSH1 0x40 MLOAD DUP1 SWAP2 SUB SWAP1 RETURN JUMPDEST PUSH2 0x11F PUSH2 0x5D9 JUMP JUMPDEST STOP JUMPDEST PUSH2 0x129 PUSH2 0x86D JUMP JUMPDEST STOP JUMPDEST PUSH2 0x133 PUSH2 0x880 JUMP JUMPDEST PUSH1 0x40 MLOAD PUSH2 0x140 SWAP2 SWAP1 PUSH2 0xDAB JUMP JUMPDEST PUSH1 0x40 MLOAD DUP1 SWAP2 SUB SWAP1 RETURN JUMPDEST PUSH2 0x163 PUSH1 0x4 DUP1 CALLDATASIZE SUB DUP2 ADD SWAP1 PUSH2 0x15E SWAP2 SWAP1 PUSH2 0xDF2 JUMP JUMPDEST PUSH2 0x8A7 JUMP JUMPDEST PUSH1 0x40 MLOAD PUSH2 0x170 SWAP2 SWAP1 PUSH2 0xD53 JUMP JUMPDEST PUSH1 0x40 MLOAD DUP1 SWAP2 SUB SWAP1 RETURN JUMPDEST PUSH2 0x181 PUSH2 0x8ED JUMP JUMPDEST PUSH1 0x40 MLOAD PUSH2 0x18E SWAP2 SWAP1 PUSH2 0xE78 JUMP JUMPDEST PUSH1 0x40 MLOAD DUP1 SWAP2 SUB SWAP1 RETURN JUMPDEST PUSH2 0x19F PUSH2 0x912 JUMP JUMPDEST PUSH1 0x40 MLOAD PUSH2 0x1AC SWAP2 SWAP1 PUSH2 0xEB1 JUMP JUMPDEST PUSH1 0x40 MLOAD DUP1 SWAP2 SUB SWAP1 RETURN JUMPDEST PUSH2 0x1BD PUSH2 0x937 JUMP JUMPDEST PUSH1 0x40 MLOAD PUSH2 0x1CA SWAP2 SWAP1 PUSH2 0xEE4 JUMP JUMPDEST PUSH1 0x40 MLOAD DUP1 SWAP2 SUB SWAP1 RETURN JUMPDEST PUSH2 0x1DB PUSH2 0x949 JUMP JUMPDEST PUSH1 0x40 MLOAD PUSH2 0x1E8 SWAP2 SWAP1 PUSH2 0xD53 JUMP JUMPDEST PUSH1 0x40 MLOAD DUP1 SWAP2 SUB SWAP1 RETURN JUMPDEST PUSH2 0x20B PUSH1 0x4 DUP1 CALLDATASIZE SUB DUP2 ADD SWAP1 PUSH2 0x206 SWAP2 SWAP1 PUSH2 0xDF2 JUMP JUMPDEST PUSH2 0x952 JUMP JUMPDEST PUSH1 0x40 MLOAD PUSH2 0x218 SWAP2 SWAP1 PUSH2 0xD53 JUMP JUMPDEST PUSH1 0x40 MLOAD DUP1 SWAP2 SUB SWAP1 RETURN JUMPDEST PUSH2 0x23B PUSH1 0x4 DUP1 CALLDATASIZE SUB DUP2 ADD SWAP1 PUSH2 0x236 SWAP2 SWAP1 PUSH2 0xDF2 JUMP JUMPDEST PUSH2 0x967 JUMP JUMPDEST STOP JUMPDEST PUSH2 0x245 PUSH2 0x9EB JUMP JUMPDEST PUSH1 0x3 SLOAD TIMESTAMP LT ISZERO PUSH2 0x28A JUMPI PUSH1 0x40 MLOAD PUSH32 0x8C379A000000000000000000000000000000000000000000000000000000000 DUP2 MSTORE PUSH1 0x4 ADD PUSH2 0x281 SWAP1 PUSH2 0xF57 JUMP JUMPDEST PUSH1 0x40 MLOAD DUP1 SWAP2 SUB SWAP1 REVERT JUMPDEST PUSH1 0x4 PUSH0 SWAP1 SLOAD SWAP1 PUSH2 0x100 EXP SWAP1 DIV PUSH1 0xFF AND ISZERO PUSH2 0x2D9 JUMPI PUSH1 0x40 MLOAD PUSH32 0x8C379A000000000000000000000000000000000000000000000000000000000 DUP2 MSTORE PUSH1 0x4 ADD PUSH2 0x2D0 SWAP1 PUSH2 0xFBF JUMP JUMPDEST PUSH1 0x40 MLOAD DUP1 SWAP2 SUB SWAP1 REVERT JUMPDEST PUSH0 PUSH1 0x1 PUSH0 SWAP1 SLOAD SWAP1 PUSH2 0x100 EXP SWAP1 DIV PUSH20 0xFFFFFFFFFFFFFFFFFFFFFFFFFFFFFFFFFFFFFFFF AND PUSH20 0xFFFFFFFFFFFFFFFFFFFFFFFFFFFFFFFFFFFFFFFF AND PUSH4 0x5BDA1584 PUSH1 0x40 MLOAD DUP2 PUSH4 0xFFFFFFFF AND PUSH1 0xE0 SHL DUP2 MSTORE PUSH1 0x4 ADD PUSH1 0x20 PUSH1 0x40 MLOAD DUP1 DUP4 SUB DUP2 DUP7 GAS STATICCALL ISZERO DUP1 ISZERO PUSH2 0x344 JUMPI RETURNDATASIZE PUSH0 DUP1 RETURNDATACOPY RETURNDATASIZE PUSH0 REVERT JUMPDEST POP POP POP POP PUSH1 0x40 MLOAD RETURNDATASIZE PUSH1 0x1F NOT PUSH1 0x1F DUP3 ADD AND DUP3 ADD DUP1 PUSH1 0x40 MSTORE POP DUP2 ADD SWAP1 PUSH2 0x368 SWAP2 SWAP1 PUSH2 0x1007 JUMP JUMPDEST SWAP1 POP PUSH0 PUSH1 0x1 PUSH0 SWAP1 SLOAD SWAP1 PUSH2 0x100 EXP SWAP1 DIV PUSH20 0xFFFFFFFFFFFFFFFFFFFFFFFFFFFFFFFFFFFFFFFF AND PUSH20 0xFFFFFFFFFFFFFFFFFFFFFFFFFFFFFFFFFFFFFFFF AND PUSH4 0x4089B170 PUSH1 0x40 MLOAD DUP2 PUSH4 0xFFFFFFFF AND PUSH1 0xE0 SHL DUP2 MSTORE PUSH1 0x4 ADD PUSH1 0x20 PUSH1 0x40 MLOAD DUP1 DUP4 SUB DUP2 DUP7 GAS STATICCALL ISZERO DUP1 ISZERO PUSH2 0x3D5 JUMPI RETURNDATASIZE PUSH0 DUP1 RETURNDATACOPY RETURNDATASIZE PUSH0 REVERT JUMPDEST POP POP POP POP PUSH1 0x40 MLOAD RETURNDATASIZE PUSH1 0x1F NOT PUSH1 0x1F DUP3 ADD AND DUP3 ADD DUP1 PUSH1 0x40 MSTORE POP DUP2 ADD SWAP1 PUSH2 0x3F9 SWAP2 SWAP1 PUSH2 0x1007 JUMP JUMPDEST SWAP1 POP PUSH0 DUP2 DUP4 GT PUSH2 0x409 JUMPI PUSH0 PUSH2 0x416 JUMP JUMPDEST DUP2 DUP4 PUSH2 0x415 SWAP2 SWAP1 PUSH2 0x105F JUMP JUMPDEST JUMPDEST SWAP1 POP PUSH0 DUP2 GT ISZERO PUSH2 0x577 JUMPI PUSH0 PUSH2 0x429 PUSH2 0xA72 JUMP JUMPDEST SWAP1 POP PUSH0 JUMPDEST DUP2 MLOAD DUP2 LT ISZERO PUSH2 0x574 JUMPI PUSH0 DUP3 DUP3 DUP2 MLOAD DUP2 LT PUSH2 0x44A JUMPI PUSH2 0x449 PUSH2 0x1092 JUMP JUMPDEST JUMPDEST PUSH1 0x20 MUL PUSH1 0x20 ADD ADD MLOAD SWAP1 POP PUSH0 PUSH1 0x1 PUSH0 SWAP1 SLOAD SWAP1 PUSH2 0x100 EXP SWAP1 DIV PUSH20 0xFFFFFFFFFFFFFFFFFFFFFFFFFFFFFFFFFFFFFFFF AND PUSH20 0xFFFFFFFFFFFFFFFFFFFFFFFFFFFFFFFFFFFFFFFF AND PUSH4 0x293E571C DUP4 PUSH1 0x40 MLOAD DUP3 PUSH4 0xFFFFFFFF AND PUSH1 0xE0 SHL DUP2 MSTORE PUSH1 0x4 ADD PUSH2 0x4AF SWAP2 SWAP1 PUSH2 0xDAB JUMP JUMPDEST PUSH1 0x20 PUSH1 0x40 MLOAD DUP1 DUP4 SUB DUP2 DUP7 GAS STATICCALL ISZERO DUP1 ISZERO PUSH2 0x4CA JUMPI RETURNDATASIZE PUSH0 DUP1 RETURNDATACOPY RETURNDATASIZE PUSH0 REVERT JUMPDEST POP POP POP POP PUSH1 0x40 MLOAD RETURNDATASIZE PUSH1 0x1F NOT PUSH1 0x1F DUP3 ADD AND DUP3 ADD DUP1 PUSH1 0x40 MSTORE POP DUP2 ADD SWAP1 PUSH2 0x4EE SWAP2 SWAP1 PUSH2 0x1007 JUMP JUMPDEST SWAP1 POP PUSH0 DUP8 DUP3 DUP8 PUSH2 0x4FE SWAP2 SWAP1 PUSH2 0x10BF JUMP JUMPDEST PUSH2 0x508 SWAP2 SWAP1 PUSH2 0x112D JUMP JUMPDEST SWAP1 POP DUP1 PUSH1 0x5 PUSH0 DUP6 PUSH20 0xFFFFFFFFFFFFFFFFFFFFFFFFFFFFFFFFFFFFFFFF AND PUSH20 0xFFFFFFFFFFFFFFFFFFFFFFFFFFFFFFFFFFFFFFFF AND DUP2 MSTORE PUSH1 0x20 ADD SWAP1 DUP2 MSTORE PUSH1 0x20 ADD PUSH0 KECCAK256 DUP2 SWAP1 SSTORE POP DUP1 PUSH1 0x6 PUSH0 DUP3 DUP3 SLOAD PUSH2 0x55D SWAP2 SWAP1 PUSH2 0x115D JUMP JUMPDEST SWAP3 POP POP DUP2 SWAP1 SSTORE POP POP POP POP DUP1 DUP1 PUSH1 0x1 ADD SWAP2 POP POP PUSH2 0x42D JUMP JUMPDEST POP POP JUMPDEST PUSH1 0x1 PUSH1 0x4 PUSH0 PUSH2 0x100 EXP DUP2 SLOAD DUP2 PUSH1 0xFF MUL NOT AND SWAP1 DUP4 ISZERO ISZERO MUL OR SWAP1 SSTORE POP PUSH32 0x939DF96A3B47DBFB83DA233006CEF1EB233FC5CBA50EA94FECDEBEA4D99423E6 DUP2 PUSH1 0x40 MLOAD PUSH2 0x5C0 SWAP2 SWAP1 PUSH2 0xD53 JUMP JUMPDEST PUSH1 0x40 MLOAD DUP1 SWAP2 SUB SWAP1 LOG1 POP POP POP JUMP JUMPDEST PUSH1 0x6 SLOAD DUP2 JUMP JUMPDEST PUSH1 0x3 SLOAD DUP2 JUMP JUMPDEST PUSH1 0x4 PUSH0 SWAP1 SLOAD SWAP1 PUSH2 0x100 EXP SWAP1 DIV PUSH1 0xFF AND PUSH2 0x627 JUMPI PUSH1 0x40 MLOAD PUSH32 0x8C379A000000000000000000000000000000000000000000000000000000000 DUP2 MSTORE PUSH1 0x4 ADD PUSH2 0x61E SWAP1 PUSH2 0x11DA JUMP JUMPDEST PUSH1 0x40 MLOAD DUP1 SWAP2 SUB SWAP1 REVERT JUMPDEST PUSH0 PUSH1 0x5 PUSH0 CALLER PUSH20 0xFFFFFFFFFFFFFFFFFFFFFFFFFFFFFFFFFFFFFFFF AND PUSH20 0xFFFFFFFFFFFFFFFFFFFFFFFFFFFFFFFFFFFFFFFF AND DUP2 MSTORE PUSH1 0x20 ADD SWAP1 DUP2 MSTORE PUSH1 0x20 ADD PUSH0 KECCAK256 SLOAD GT PUSH2 0x6A6 JUMPI PUSH1 0x40 MLOAD PUSH32 0x8C379A000000000000000000000000000000000000000000000000000000000 DUP2 MSTORE PUSH1 0x4 ADD PUSH2 0x69D SWAP1 PUSH2 0x1242 JUMP JUMPDEST PUSH1 0x40 MLOAD DUP1 SWAP2 SUB SWAP1 REVERT JUMPDEST PUSH0 PUSH1 0x5 PUSH0 CALLER PUSH20 0xFFFFFFFFFFFFFFFFFFFFFFFFFFFFFFFFFFFFFFFF AND PUSH20 0xFFFFFFFFFFFFFFFFFFFFFFFFFFFFFFFFFFFFFFFF AND DUP2 MSTORE PUSH1 0x20 ADD SWAP1 DUP2 MSTORE PUSH1 0x20 ADD PUSH0 KECCAK256 SLOAD SWAP1 POP PUSH0 PUSH1 0x5 PUSH0 CALLER PUSH20 0xFFFFFFFFFFFFFFFFFFFFFFFFFFFFFFFFFFFFFFFF AND PUSH20 0xFFFFFFFFFFFFFFFFFFFFFFFFFFFFFFFFFFFFFFFF AND DUP2 MSTORE PUSH1 0x20 ADD SWAP1 DUP2 MSTORE PUSH1 0x20 ADD PUSH0 KECCAK256 DUP2 SWAP1 SSTORE POP DUP1 PUSH1 0x6 PUSH0 DUP3 DUP3 SLOAD PUSH2 0x73A SWAP2 SWAP1 PUSH2 0x105F JUMP JUMPDEST SWAP3 POP POP DUP2 SWAP1 SSTORE POP PUSH1 0x2 PUSH0 SWAP1 SLOAD SWAP1 PUSH2 0x100 EXP SWAP1 DIV PUSH20 0xFFFFFFFFFFFFFFFFFFFFFFFFFFFFFFFFFFFFFFFF AND PUSH20 0xFFFFFFFFFFFFFFFFFFFFFFFFFFFFFFFFFFFFFFFF AND PUSH4 0xA9059CBB CALLER DUP4 PUSH1 0x40 MLOAD DUP4 PUSH4 0xFFFFFFFF AND PUSH1 0xE0 SHL DUP2 MSTORE PUSH1 0x4 ADD PUSH2 0x79D SWAP3 SWAP2 SWAP1 PUSH2 0x1260 JUMP JUMPDEST PUSH1 0x20 PUSH1 0x40 MLOAD DUP1 DUP4 SUB DUP2 PUSH0 DUP8 GAS CALL ISZERO DUP1 ISZERO PUSH2 0x7B9 JUMPI RETURNDATASIZE PUSH0 DUP1 RETURNDATACOPY RETURNDATASIZE PUSH0 REVERT JUMPDEST POP POP POP POP PUSH1 0x40 MLOAD RETURNDATASIZE PUSH1 0x1F NOT PUSH1 0x1F DUP3 ADD AND DUP3 ADD DUP1 PUSH1 0x40 MSTORE POP DUP2 ADD SWAP1 PUSH2 0x7DD SWAP2 SWAP1 PUSH2 0x12B1 JUMP JUMPDEST PUSH2 0x81C JUMPI PUSH1 0x40 MLOAD PUSH32 0x8C379A000000000000000000000000000000000000000000000000000000000 DUP2 MSTORE PUSH1 0x4 ADD PUSH2 0x813 SWAP1 PUSH2 0x1326 JUMP JUMPDEST PUSH1 0x40 MLOAD DUP1 SWAP2 SUB SWAP1 REVERT JUMPDEST CALLER PUSH20 0xFFFFFFFFFFFFFFFFFFFFFFFFFFFFFFFFFFFFFFFF AND PUSH32 0x6E166A59DCD35058FDBBF1DB0AFF7F20DE4D17F2914EA5922322AFD9C7DB21C6 DUP3 PUSH1 0x40 MLOAD PUSH2 0x862 SWAP2 SWAP1 PUSH2 0xD53 JUMP JUMPDEST PUSH1 0x40 MLOAD DUP1 SWAP2 SUB SWAP1 LOG2 POP JUMP JUMPDEST PUSH2 0x875 PUSH2 0x9EB JUMP JUMPDEST PUSH2 0x87E PUSH0 PUSH2 0xC73 JUMP JUMPDEST JUMP JUMPDEST PUSH0 DUP1 PUSH0 SWAP1 SLOAD SWAP1 PUSH2 0x100 EXP SWAP1 DIV PUSH20 0xFFFFFFFFFFFFFFFFFFFFFFFFFFFFFFFFFFFFFFFF AND SWAP1 POP SWAP1 JUMP JUMPDEST PUSH0 PUSH1 0x5 PUSH0 DUP4 PUSH20 0xFFFFFFFFFFFFFFFFFFFFFFFFFFFFFFFFFFFFFFFF AND PUSH20 0xFFFFFFFFFFFFFFFFFFFFFFFFFFFFFFFFFFFFFFFF AND DUP2 MSTORE PUSH1 0x20 ADD SWAP1 DUP2 MSTORE PUSH1 0x20 ADD PUSH0 KECCAK256 SLOAD SWAP1 POP SWAP2 SWAP1 POP JUMP JUMPDEST PUSH1 0x1 PUSH0 SWAP1 SLOAD SWAP1 PUSH2 0x100 EXP SWAP1 DIV PUSH20 0xFFFFFFFFFFFFFFFFFFFFFFFFFFFFFFFFFFFFFFFF AND DUP2 JUMP JUMPDEST PUSH1 0x2 PUSH0 SWAP1 SLOAD SWAP1 PUSH2 0x100 EXP SWAP1 DIV PUSH20 0xFFFFFFFFFFFFFFFFFFFFFFFFFFFFFFFFFFFFFFFF AND DUP2 JUMP JUMPDEST PUSH1 0x4 PUSH0 SWAP1 SLOAD SWAP1 PUSH2 0x100 EXP SWAP1 DIV PUSH1 0xFF AND DUP2 JUMP JUMPDEST PUSH0 PUSH1 0x6 SLOAD SWAP1 POP SWAP1 JUMP JUMPDEST PUSH1 0x5 PUSH1 0x20 MSTORE DUP1 PUSH0 MSTORE PUSH1 0x40 PUSH0 KECCAK256 PUSH0 SWAP2 POP SWAP1 POP SLOAD DUP2 JUMP JUMPDEST PUSH2 0x96F PUSH2 0x9EB JUMP JUMPDEST PUSH0 PUSH20 0xFFFFFFFFFFFFFFFFFFFFFFFFFFFFFFFFFFFFFFFF AND DUP2 PUSH20 0xFFFFFFFFFFFFFFFFFFFFFFFFFFFFFFFFFFFFFFFF AND SUB PUSH2 0x9DF JUMPI PUSH0 PUSH1 0x40 MLOAD PUSH32 0x1E4FBDF700000000000000000000000000000000000000000000000000000000 DUP2 MSTORE PUSH1 0x4 ADD PUSH2 0x9D6 SWAP2 SWAP1 PUSH2 0xDAB JUMP JUMPDEST PUSH1 0x40 MLOAD DUP1 SWAP2 SUB SWAP1 REVERT JUMPDEST PUSH2 0x9E8 DUP2 PUSH2 0xC73 JUMP JUMPDEST POP JUMP JUMPDEST PUSH2 0x9F3 PUSH2 0xD34 JUMP JUMPDEST PUSH20 0xFFFFFFFFFFFFFFFFFFFFFFFFFFFFFFFFFFFFFFFF AND PUSH2 0xA11 PUSH2 0x880 JUMP JUMPDEST PUSH20 0xFFFFFFFFFFFFFFFFFFFFFFFFFFFFFFFFFFFFFFFF AND EQ PUSH2 0xA70 JUMPI PUSH2 0xA34 PUSH2 0xD34 JUMP JUMPDEST PUSH1 0x40 MLOAD PUSH32 0x118CDAA700000000000000000000000000000000000000000000000000000000 DUP2 MSTORE PUSH1 0x4 ADD PUSH2 0xA67 SWAP2 SWAP1 PUSH2 0xDAB JUMP JUMPDEST PUSH1 0x40 MLOAD DUP1 SWAP2 SUB SWAP1 REVERT JUMPDEST JUMP JUMPDEST PUSH1 0x60 PUSH0 PUSH1 0x1 PUSH0 SWAP1 SLOAD SWAP1 PUSH2 0x100 EXP SWAP1 DIV PUSH20 0xFFFFFFFFFFFFFFFFFFFFFFFFFFFFFFFFFFFFFFFF AND PUSH20 0xFFFFFFFFFFFFFFFFFFFFFFFFFFFFFFFFFFFFFFFF AND PUSH4 0x11AEE380 PUSH1 0x40 MLOAD DUP2 PUSH4 0xFFFFFFFF AND PUSH1 0xE0 SHL DUP2 MSTORE PUSH1 0x4 ADD PUSH1 0x20 PUSH1 0x40 MLOAD DUP1 DUP4 SUB DUP2 DUP7 GAS STATICCALL ISZERO DUP1 ISZERO PUSH2 0xADF JUMPI RETURNDATASIZE PUSH0 DUP1 RETURNDATACOPY RETURNDATASIZE PUSH0 REVERT JUMPDEST POP POP POP POP PUSH1 0x40 MLOAD RETURNDATASIZE PUSH1 0x1F NOT PUSH1 0x1F DUP3 ADD AND DUP3 ADD DUP1 PUSH1 0x40 MSTORE POP DUP2 ADD SWAP1 PUSH2 0xB03 SWAP2 SWAP1 PUSH2 0x1007 JUMP JUMPDEST SWAP1 POP PUSH0 DUP2 PUSH8 0xFFFFFFFFFFFFFFFF DUP2 GT ISZERO PUSH2 0xB20 JUMPI PUSH2 0xB1F PUSH2 0x1344 JUMP JUMPDEST JUMPDEST PUSH1 0x40 MLOAD SWAP1 DUP1 DUP3 MSTORE DUP1 PUSH1 0x20 MUL PUSH1 0x20 ADD DUP3 ADD PUSH1 0x40 MSTORE DUP1 ISZERO PUSH2 0xB4E JUMPI DUP2 PUSH1 0x20 ADD PUSH1 0x20 DUP3 MUL DUP1 CALLDATASIZE DUP4 CALLDATACOPY DUP1 DUP3 ADD SWAP2 POP POP SWAP1 POP JUMPDEST POP SWAP1 POP PUSH0 DUP1 JUMPDEST DUP4 DUP2 LT ISZERO PUSH2 0xC69 JUMPI PUSH0 DUP2 SWAP1 POP PUSH1 0x1 PUSH0 SWAP1 SLOAD SWAP1 PUSH2 0x100 EXP SWAP1 DIV PUSH20 0xFFFFFFFFFFFFFFFFFFFFFFFFFFFFFFFFFFFFFFFF AND PUSH20 0xFFFFFFFFFFFFFFFFFFFFFFFFFFFFFFFFFFFFFFFF AND PUSH4 0xA230C524 DUP3 PUSH1 0x40 MLOAD DUP3 PUSH4 0xFFFFFFFF AND PUSH1 0xE0 SHL DUP2 MSTORE PUSH1 0x4 ADD PUSH2 0xBBA SWAP2 SWAP1 PUSH2 0xDAB JUMP JUMPDEST PUSH1 0x20 PUSH1 0x40 MLOAD DUP1 DUP4 SUB DUP2 DUP7 GAS STATICCALL ISZERO DUP1 ISZERO PUSH2 0xBD5 JUMPI RETURNDATASIZE PUSH0 DUP1 RETURNDATACOPY RETURNDATASIZE PUSH0 REVERT JUMPDEST POP POP POP POP PUSH1 0x40 MLOAD RETURNDATASIZE PUSH1 0x1F NOT PUSH1 0x1F DUP3 ADD AND DUP3 ADD DUP1 PUSH1 0x40 MSTORE POP DUP2 ADD SWAP1 PUSH2 0xBF9 SWAP2 SWAP1 PUSH2 0x12B1 JUMP JUMPDEST ISZERO PUSH2 0xC5B JUMPI DUP1 DUP5 DUP5 DUP2 MLOAD DUP2 LT PUSH2 0xC12 JUMPI PUSH2 0xC11 PUSH2 0x1092 JUMP JUMPDEST JUMPDEST PUSH1 0x20 MUL PUSH1 0x20 ADD ADD SWAP1 PUSH20 0xFFFFFFFFFFFFFFFFFFFFFFFFFFFFFFFFFFFFFFFF AND SWAP1 DUP2 PUSH20 0xFFFFFFFFFFFFFFFFFFFFFFFFFFFFFFFFFFFFFFFF AND DUP2 MSTORE POP POP DUP3 DUP1 PUSH2 0xC57 SWAP1 PUSH2 0x1371 JUMP JUMPDEST SWAP4 POP POP JUMPDEST POP DUP1 DUP1 PUSH1 0x1 ADD SWAP2 POP POP PUSH2 0xB54 JUMP JUMPDEST POP DUP2 SWAP4 POP POP POP POP SWAP1 JUMP JUMPDEST PUSH0 DUP1 PUSH0 SWAP1 SLOAD SWAP1 PUSH2 0x100 EXP SWAP1 DIV PUSH20 0xFFFFFFFFFFFFFFFFFFFFFFFFFFFFFFFFFFFFFFFF AND SWAP1 POP DUP2 PUSH0 DUP1 PUSH2 0x100 EXP DUP2 SLOAD DUP2 PUSH20 0xFFFFFFFFFFFFFFFFFFFFFFFFFFFFFFFFFFFFFFFF MUL NOT AND SWAP1 DUP4 PUSH20 0xFFFFFFFFFFFFFFFFFFFFFFFFFFFFFFFFFFFFFFFF AND MUL OR SWAP1 SSTORE POP DUP2 PUSH20 0xFFFFFFFFFFFFFFFFFFFFFFFFFFFFFFFFFFFFFFFF AND DUP2 PUSH20 0xFFFFFFFFFFFFFFFFFFFFFFFFFFFFFFFFFFFFFFFF AND PUSH32 0x8BE0079C531659141344CD1FD0A4F28419497F9722A3DAAFE3B4186F6B6457E0 PUSH1 0x40 MLOAD PUSH1 0x40 MLOAD DUP1 SWAP2 SUB SWAP1 LOG3 POP POP JUMP JUMPDEST PUSH0 CALLER SWAP1 POP SWAP1 JUMP JUMPDEST PUSH0 DUP2 SWAP1 POP SWAP2 SWAP1 POP JUMP JUMPDEST PUSH2 0xD4D DUP2 PUSH2 0xD3B JUMP JUMPDEST DUP3 MSTORE POP POP JUMP JUMPDEST PUSH0 PUSH1 0x20 DUP3 ADD SWAP1 POP PUSH2 0xD66 PUSH0 DUP4 ADD DUP5 PUSH2 0xD44 JUMP JUMPDEST SWAP3 SWAP2 POP POP JUMP JUMPDEST PUSH0 PUSH20 0xFFFFFFFFFFFFFFFFFFFFFFFFFFFFFFFFFFFFFFFF DUP3 AND SWAP1 POP SWAP2 SWAP1 POP JUMP JUMPDEST PUSH0 PUSH2 0xD95 DUP3 PUSH2 0xD6C JUMP JUMPDEST SWAP1 POP SWAP2 SWAP1 POP JUMP JUMPDEST PUSH2 0xDA5 DUP2 PUSH2 0xD8B JUMP JUMPDEST DUP3 MSTORE POP POP JUMP JUMPDEST PUSH0 PUSH1 0x20 DUP3 ADD SWAP1 POP PUSH2 0xDBE PUSH0 DUP4 ADD DUP5 PUSH2 0xD9C JUMP JUMPDEST SWAP3 SWAP2 POP POP JUMP JUMPDEST PUSH0 DUP1 REVERT JUMPDEST PUSH2 0xDD1 DUP2 PUSH2 0xD8B JUMP JUMPDEST DUP2 EQ PUSH2 0xDDB JUMPI PUSH0 DUP1 REVERT JUMPDEST POP JUMP JUMPDEST PUSH0 DUP2 CALLDATALOAD SWAP1 POP PUSH2 0xDEC DUP2 PUSH2 0xDC8 JUMP JUMPDEST SWAP3 SWAP2 POP POP JUMP JUMPDEST PUSH0 PUSH1 0x20 DUP3 DUP5 SUB SLT ISZERO PUSH2 0xE07 JUMPI PUSH2 0xE06 PUSH2 0xDC4 JUMP JUMPDEST JUMPDEST PUSH0 PUSH2 0xE14 DUP5 DUP3 DUP6 ADD PUSH2 0xDDE JUMP JUMPDEST SWAP2 POP POP SWAP3 SWAP2 POP POP JUMP JUMPDEST PUSH0 DUP2 SWAP1 POP SWAP2 SWAP1 POP JUMP JUMPDEST PUSH0 PUSH2 0xE40 PUSH2 0xE3B PUSH2 0xE36 DUP5 PUSH2 0xD6C JUMP JUMPDEST PUSH2 0xE1D JUMP JUMPDEST PUSH2 0xD6C JUMP JUMPDEST SWAP1 POP SWAP2 SWAP1 POP JUMP JUMPDEST PUSH0 PUSH2 0xE51 DUP3 PUSH2 0xE26 JUMP JUMPDEST SWAP1 POP SWAP2 SWAP1 POP JUMP JUMPDEST PUSH0 PUSH2 0xE62 DUP3 PUSH2 0xE47 JUMP JUMPDEST SWAP1 POP SWAP2 SWAP1 POP JUMP JUMPDEST PUSH2 0xE72 DUP2 PUSH2 0xE58 JUMP JUMPDEST DUP3 MSTORE POP POP JUMP JUMPDEST PUSH0 PUSH1 0x20 DUP3 ADD SWAP1 POP PUSH2 0xE8B PUSH0 DUP4 ADD DUP5 PUSH2 0xE69 JUMP JUMPDEST SWAP3 SWAP2 POP POP JUMP JUMPDEST PUSH0 PUSH2 0xE9B DUP3 PUSH2 0xE47 JUMP JUMPDEST SWAP1 POP SWAP2 SWAP1 POP JUMP JUMPDEST PUSH2 0xEAB DUP2 PUSH2 0xE91 JUMP JUMPDEST DUP3 MSTORE POP POP JUMP JUMPDEST PUSH0 PUSH1 0x20 DUP3 ADD SWAP1 POP PUSH2 0xEC4 PUSH0 DUP4 ADD DUP5 PUSH2 0xEA2 JUMP JUMPDEST SWAP3 SWAP2 POP POP JUMP JUMPDEST PUSH0 DUP2 ISZERO ISZERO SWAP1 POP SWAP2 SWAP1 POP JUMP JUMPDEST PUSH2 0xEDE DUP2 PUSH2 0xECA JUMP JUMPDEST DUP3 MSTORE POP POP JUMP JUMPDEST PUSH0 PUSH1 0x20 DUP3 ADD SWAP1 POP PUSH2 0xEF7 PUSH0 DUP4 ADD DUP5 PUSH2 0xED5 JUMP JUMPDEST SWAP3 SWAP2 POP POP JUMP JUMPDEST PUSH0 DUP3 DUP3 MSTORE PUSH1 0x20 DUP3 ADD SWAP1 POP SWAP3 SWAP2 POP POP JUMP JUMPDEST PUSH32 0x436F76657261676520706572696F64206E6F7420656E64656400000000000000 PUSH0 DUP3 ADD MSTORE POP JUMP JUMPDEST PUSH0 PUSH2 0xF41 PUSH1 0x19 DUP4 PUSH2 0xEFD JUMP JUMPDEST SWAP2 POP PUSH2 0xF4C DUP3 PUSH2 0xF0D JUMP JUMPDEST PUSH1 0x20 DUP3 ADD SWAP1 POP SWAP2 SWAP1 POP JUMP JUMPDEST PUSH0 PUSH1 0x20 DUP3 ADD SWAP1 POP DUP2 DUP2 SUB PUSH0 DUP4 ADD MSTORE PUSH2 0xF6E DUP2 PUSH2 0xF35 JUMP JUMPDEST SWAP1 POP SWAP2 SWAP1 POP JUMP JUMPDEST PUSH32 0x50726F6669747320616C72656164792064697374726962757465640000000000 PUSH0 DUP3 ADD MSTORE POP JUMP JUMPDEST PUSH0 PUSH2 0xFA9 PUSH1 0x1B DUP4 PUSH2 0xEFD JUMP JUMPDEST SWAP2 POP PUSH2 0xFB4 DUP3 PUSH2 0xF75 JUMP JUMPDEST PUSH1 0x20 DUP3 ADD SWAP1 POP SWAP2 SWAP1 POP JUMP JUMPDEST PUSH0 PUSH1 0x20 DUP3 ADD SWAP1 POP DUP2 DUP2 SUB PUSH0 DUP4 ADD MSTORE PUSH2 0xFD6 DUP2 PUSH2 0xF9D JUMP JUMPDEST SWAP1 POP SWAP2 SWAP1 POP JUMP JUMPDEST PUSH2 0xFE6 DUP2 PUSH2 0xD3B JUMP JUMPDEST DUP2 EQ PUSH2 0xFF0 JUMPI PUSH0 DUP1 REVERT JUMPDEST POP JUMP JUMPDEST PUSH0 DUP2 MLOAD SWAP1 POP PUSH2 0x1001 DUP2 PUSH2 0xFDD JUMP JUMPDEST SWAP3 SWAP2 POP POP JUMP JUMPDEST PUSH0 PUSH1 0x20 DUP3 DUP5 SUB SLT ISZERO PUSH2 0x101C JUMPI PUSH2 0x101B PUSH2 0xDC4 JUMP JUMPDEST JUMPDEST PUSH0 PUSH2 0x1029 DUP5 DUP3 DUP6 ADD PUSH2 0xFF3 JUMP JUMPDEST SWAP2 POP POP SWAP3 SWAP2 POP POP JUMP JUMPDEST PUSH32 0x4E487B7100000000000000000000000000000000000000000000000000000000 PUSH0 MSTORE PUSH1 0x11 PUSH1 0x4 MSTORE PUSH1 0x24 PUSH0 REVERT JUMPDEST PUSH0 PUSH2 0x1069 DUP3 PUSH2 0xD3B JUMP JUMPDEST SWAP2 POP PUSH2 0x1074 DUP4 PUSH2 0xD3B JUMP JUMPDEST SWAP3 POP DUP3 DUP3 SUB SWAP1 POP DUP2 DUP2 GT ISZERO PUSH2 0x108C JUMPI PUSH2 0x108B PUSH2 0x1032 JUMP JUMPDEST JUMPDEST SWAP3 SWAP2 POP POP JUMP JUMPDEST PUSH32 0x4E487B7100000000000000000000000000000000000000000000000000000000 PUSH0 MSTORE PUSH1 0x32 PUSH1 0x4 MSTORE PUSH1 0x24 PUSH0 REVERT JUMPDEST PUSH0 PUSH2 0x10C9 DUP3 PUSH2 0xD3B JUMP JUMPDEST SWAP2 POP PUSH2 0x10D4 DUP4 PUSH2 0xD3B JUMP JUMPDEST SWAP3 POP DUP3 DUP3 MUL PUSH2 0x10E2 DUP2 PUSH2 0xD3B JUMP JUMPDEST SWAP2 POP DUP3 DUP3 DIV DUP5 EQ DUP4 ISZERO OR PUSH2 0x10F9 JUMPI PUSH2 0x10F8 PUSH2 0x1032 JUMP JUMPDEST JUMPDEST POP SWAP3 SWAP2 POP POP JUMP JUMPDEST PUSH32 0x4E487B7100000000000000000000000000000000000000000000000000000000 PUSH0 MSTORE PUSH1 0x12 PUSH1 0x4 MSTORE PUSH1 0x24 PUSH0 REVERT JUMPDEST PUSH0 PUSH2 0x1137 DUP3 PUSH2 0xD3B JUMP JUMPDEST SWAP2 POP PUSH2 0x1142 DUP4 PUSH2 0xD3B JUMP JUMPDEST SWAP3 POP DUP3 PUSH2 0x1152 JUMPI PUSH2 0x1151 PUSH2 0x1100 JUMP JUMPDEST JUMPDEST DUP3 DUP3 DIV SWAP1 POP SWAP3 SWAP2 POP POP JUMP JUMPDEST PUSH0 PUSH2 0x1167 DUP3 PUSH2 0xD3B JUMP JUMPDEST SWAP2 POP PUSH2 0x1172 DUP4 PUSH2 0xD3B JUMP JUMPDEST SWAP3 POP DUP3 DUP3 ADD SWAP1 POP DUP1 DUP3 GT ISZERO PUSH2 0x118A JUMPI PUSH2 0x1189 PUSH2 0x1032 JUMP JUMPDEST JUMPDEST SWAP3 SWAP2 POP POP JUMP JUMPDEST PUSH32 0x50726F66697473206E6F74206469737472696275746564207965740000000000 PUSH0 DUP3 ADD MSTORE POP JUMP JUMPDEST PUSH0 PUSH2 0x11C4 PUSH1 0x1B DUP4 PUSH2 0xEFD JUMP JUMPDEST SWAP2 POP PUSH2 0x11CF DUP3 PUSH2 0x1190 JUMP JUMPDEST PUSH1 0x20 DUP3 ADD SWAP1 POP SWAP2 SWAP1 POP JUMP JUMPDEST PUSH0 PUSH1 0x20 DUP3 ADD SWAP1 POP DUP2 DUP2 SUB PUSH0 DUP4 ADD MSTORE PUSH2 0x11F1 DUP2 PUSH2 0x11B8 JUMP JUMPDEST SWAP1 POP SWAP2 SWAP1 POP JUMP JUMPDEST PUSH32 0x4E6F20736861726520746F20636C61696D000000000000000000000000000000 PUSH0 DUP3 ADD MSTORE POP JUMP JUMPDEST PUSH0 PUSH2 0x122C PUSH1 0x11 DUP4 PUSH2 0xEFD JUMP JUMPDEST SWAP2 POP PUSH2 0x1237 DUP3 PUSH2 0x11F8 JUMP JUMPDEST PUSH1 0x20 DUP3 ADD SWAP1 POP SWAP2 SWAP1 POP JUMP JUMPDEST PUSH0 PUSH1 0x20 DUP3 ADD SWAP1 POP DUP2 DUP2 SUB PUSH0 DUP4 ADD MSTORE PUSH2 0x1259 DUP2 PUSH2 0x1220 JUMP JUMPDEST SWAP1 POP SWAP2 SWAP1 POP JUMP JUMPDEST PUSH0 PUSH1 0x40 DUP3 ADD SWAP1 POP PUSH2 0x1273 PUSH0 DUP4 ADD DUP6 PUSH2 0xD9C JUMP JUMPDEST PUSH2 0x1280 PUSH1 0x20 DUP4 ADD DUP5 PUSH2 0xD44 JUMP JUMPDEST SWAP4 SWAP3 POP POP POP JUMP JUMPDEST PUSH2 0x1290 DUP2 PUSH2 0xECA JUMP JUMPDEST DUP2 EQ PUSH2 0x129A JUMPI PUSH0 DUP1 REVERT JUMPDEST POP JUMP JUMPDEST PUSH0 DUP2 MLOAD SWAP1 POP PUSH2 0x12AB DUP2 PUSH2 0x1287 JUMP JUMPDEST SWAP3 SWAP2 POP POP JUMP JUMPDEST PUSH0 PUSH1 0x20 DUP3 DUP5 SUB SLT ISZERO PUSH2 0x12C6 JUMPI PUSH2 0x12C5 PUSH2 0xDC4 JUMP JUMPDEST JUMPDEST PUSH0 PUSH2 0x12D3 DUP5 DUP3 DUP6 ADD PUSH2 0x129D JUMP JUMPDEST SWAP2 POP POP SWAP3 SWAP2 POP POP JUMP JUMPDEST PUSH32 0x5472616E73666572206661696C65640000000000000000000000000000000000 PUSH0 DUP3 ADD MSTORE POP JUMP JUMPDEST PUSH0 PUSH2 0x1310 PUSH1 0xF DUP4 PUSH2 0xEFD JUMP JUMPDEST SWAP2 POP PUSH2 0x131B DUP3 PUSH2 0x12DC JUMP JUMPDEST PUSH1 0x20 DUP3 ADD SWAP1 POP SWAP2 SWAP1 POP JUMP JUMPDEST PUSH0 PUSH1 0x20 DUP3 ADD SWAP1 POP DUP2 DUP2 SUB PUSH0 DUP4 ADD MSTORE PUSH2 0x133D DUP2 PUSH2 0x1304 JUMP JUMPDEST SWAP1 POP SWAP2 SWAP1 POP JUMP JUMPDEST PUSH32 0x4E487B7100000000000000000000000000000000000000000000000000000000 PUSH0 MSTORE PUSH1 0x41 PUSH1 0x4 MSTORE PUSH1 0x24 PUSH0 REVERT JUMPDEST PUSH0 PUSH2 0x137B DUP3 PUSH2 0xD3B JUMP JUMPDEST SWAP2 POP PUSH32 0xFFFFFFFFFFFFFFFFFFFFFFFFFFFFFFFFFFFFFFFFFFFFFFFFFFFFFFFFFFFFFFFF DUP3 SUB PUSH2 0x13AD JUMPI PUSH2 0x13AC PUSH2 0x1032 JUMP JUMPDEST JUMPDEST PUSH1 0x1 DUP3 ADD SWAP1 POP SWAP2 SWAP1 POP JUMP INVALID LOG2 PUSH5 0x6970667358 0x22 SLT KECCAK256 JUMPDEST KECCAK256 DUP12 PUSH23 0x196E09711391E58CB9B33C8388FA8B2E7C92E115214F2D MLOAD PUSH17 0xF4386564736F6C634300081A0033000000 "
		},
		"gasEstimates": {
			"creation": {
				"codeDepositCost": "1020400",
				"executionCost": "infinite",
				"totalCost": "infinite"
			},
			"external": {
				"claimShare()": "infinite",
				"coveragePeriodEnd()": "2470",
				"distributeProfits()": "infinite",
				"getMemberShare(address)": "2852",
				"getTotalUndistributedShares()": "2476",
				"insurancePool()": "infinite",
				"memberShares(address)": "2868",
				"owner()": "2626",
				"premiumToken()": "infinite",
				"profitDistributed()": "2488",
				"renounceOwnership()": "infinite",
				"totalShares()": "2448",
				"transferOwnership(address)": "infinite"
			},
			"internal": {
				"getMembers()": "infinite"
			}
		},
		"methodIdentifiers": {
			"claimShare()": "666da64f",
			"coveragePeriodEnd()": "62bcad7b",
			"distributeProfits()": "1fee5ccd",
			"getMemberShare(address)": "a01a22b9",
			"getTotalUndistributedShares()": "d19197c1",
			"insurancePool()": "ab2adc00",
			"memberShares(address)": "da494954",
			"owner()": "8da5cb5b",
			"premiumToken()": "b180783d",
			"profitDistributed()": "b511b30c",
			"renounceOwnership()": "715018a6",
			"totalShares()": "3a98ef39",
			"transferOwnership(address)": "f2fde38b"
		}
	},
	"abi": [
		{
			"inputs": [
				{
					"internalType": "address",
					"name": "_insurancePool",
					"type": "address"
				},
				{
					"internalType": "uint256",
					"name": "_coveragePeriodDuration",
					"type": "uint256"
				},
				{
					"internalType": "address",
					"name": "_initialOwner",
					"type": "address"
				}
			],
			"stateMutability": "nonpayable",
			"type": "constructor"
		},
		{
			"inputs": [
				{
					"internalType": "address",
					"name": "owner",
					"type": "address"
				}
			],
			"name": "OwnableInvalidOwner",
			"type": "error"
		},
		{
			"inputs": [
				{
					"internalType": "address",
					"name": "account",
					"type": "address"
				}
			],
			"name": "OwnableUnauthorizedAccount",
			"type": "error"
		},
		{
			"anonymous": false,
			"inputs": [
				{
					"indexed": true,
					"internalType": "address",
					"name": "member",
					"type": "address"
				},
				{
					"indexed": false,
					"internalType": "uint256",
					"name": "amount",
					"type": "uint256"
				}
			],
			"name": "MemberShareClaimed",
			"type": "event"
		},
		{
			"anonymous": false,
			"inputs": [
				{
					"indexed": true,
					"internalType": "address",
					"name": "previousOwner",
					"type": "address"
				},
				{
					"indexed": true,
					"internalType": "address",
					"name": "newOwner",
					"type": "address"
				}
			],
			"name": "OwnershipTransferred",
			"type": "event"
		},
		{
			"anonymous": false,
			"inputs": [
				{
					"indexed": false,
					"internalType": "uint256",
					"name": "totalProfit",
					"type": "uint256"
				}
			],
			"name": "ProfitDistributed",
			"type": "event"
		},
		{
			"inputs": [],
			"name": "claimShare",
			"outputs": [],
			"stateMutability": "nonpayable",
			"type": "function"
		},
		{
			"inputs": [],
			"name": "coveragePeriodEnd",
			"outputs": [
				{
					"internalType": "uint256",
					"name": "",
					"type": "uint256"
				}
			],
			"stateMutability": "view",
			"type": "function"
		},
		{
			"inputs": [],
			"name": "distributeProfits",
			"outputs": [],
			"stateMutability": "nonpayable",
			"type": "function"
		},
		{
			"inputs": [
				{
					"internalType": "address",
					"name": "_member",
					"type": "address"
				}
			],
			"name": "getMemberShare",
			"outputs": [
				{
					"internalType": "uint256",
					"name": "",
					"type": "uint256"
				}
			],
			"stateMutability": "view",
			"type": "function"
		},
		{
			"inputs": [],
			"name": "getTotalUndistributedShares",
			"outputs": [
				{
					"internalType": "uint256",
					"name": "",
					"type": "uint256"
				}
			],
			"stateMutability": "view",
			"type": "function"
		},
		{
			"inputs": [],
			"name": "insurancePool",
			"outputs": [
				{
					"internalType": "contract InsurancePool",
					"name": "",
					"type": "address"
				}
			],
			"stateMutability": "view",
			"type": "function"
		},
		{
			"inputs": [
				{
					"internalType": "address",
					"name": "",
					"type": "address"
				}
			],
			"name": "memberShares",
			"outputs": [
				{
					"internalType": "uint256",
					"name": "",
					"type": "uint256"
				}
			],
			"stateMutability": "view",
			"type": "function"
		},
		{
			"inputs": [],
			"name": "owner",
			"outputs": [
				{
					"internalType": "address",
					"name": "",
					"type": "address"
				}
			],
			"stateMutability": "view",
			"type": "function"
		},
		{
			"inputs": [],
			"name": "premiumToken",
			"outputs": [
				{
					"internalType": "contract IERC20",
					"name": "",
					"type": "address"
				}
			],
			"stateMutability": "view",
			"type": "function"
		},
		{
			"inputs": [],
			"name": "profitDistributed",
			"outputs": [
				{
					"internalType": "bool",
					"name": "",
					"type": "bool"
				}
			],
			"stateMutability": "view",
			"type": "function"
		},
		{
			"inputs": [],
			"name": "renounceOwnership",
			"outputs": [],
			"stateMutability": "nonpayable",
			"type": "function"
		},
		{
			"inputs": [],
			"name": "totalShares",
			"outputs": [
				{
					"internalType": "uint256",
					"name": "",
					"type": "uint256"
				}
			],
			"stateMutability": "view",
			"type": "function"
		},
		{
			"inputs": [
				{
					"internalType": "address",
					"name": "newOwner",
					"type": "address"
				}
			],
			"name": "transferOwnership",
			"outputs": [],
			"stateMutability": "nonpayable",
			"type": "function"
		}
	]
}